:020000040800F2
:100000007806002079020008A50D00084D0D0008B3
:10001000A10D000871040008D10D000800000000C7
:10002000000000000000000000000000AD0D00080E
:100030007504000800000000A90D0008B10D0008BB
:10004000930200089302000893020008930200083C
:10005000930200089302000893020008930200082C
:10006000930200089302000893020008930200081C
:10007000930200089302000893020008930200080C
:1000800093020008930200089302000893020008FC
:1000900093020008930200089302000893020008EC
:1000A00093020008930200089302000893020008DC
:1000B00093020008930200089302000893020008CC
:1000C00093020008930200089302000893020008BC
:1000D00093020008930200089302000893020008AC
:1000E000930200089302000893020008930200089C
:1000F000930200089302000893020008930200088C
:10010000930200089302000893020008930200087B
:10011000930200089302000893020008930200086B
:10012000930200089302000893020008930200085B
:10013000930200089302000893020008930200084B
:10014000930200089302000893020008930200083B
:10015000930200089302000893020008930200082B
:10016000930200089302000893020008930200081B
:1001700093020008930200089302000800000000A8
:1001800093020008930200089302000893020008FB
:1001900093020008930200089302000893020008EB
:1001A00093020008930200089302000800F002F88E
:1001B00000F052F814A696E8000CB244B344DA45B5
:1001C00001D100F049F8BAE80F000FA696E8300018
:1001D000A5EB040504EB0607AAEB0704A7F101074A
:1001E0004FEA15154FEA3414A4F10104AC4201D3CF
:1001F00000F032F813F0010F18BFFB1A43F00103AF
:1002000000F001F8DBE71847440E0000640E000020
:10021000103A24BF78C878C1FAD8520724BF30C832
:1002200030C144BF04680C60704700007047000094
:100230000023002400250026103A28BF78C1FBD8EF
:10024000520728BF30C148BF0B6070471FB500F090
:10025000E8FE1FBD10B510BD00F0D0F81146FFF745
:10026000F5FF00F0B7FD00F0EEF803B4FFF7F2FF82
:1002700003BC00F0F5F80000094880470948004732
:10028000FEE7FEE7FEE7FEE7FEE7FEE7FEE7FEE746
:10029000FEE7FEE704480549054A064B70470000A3
:1002A000B50D0008AD010008780000207806002098
:1002B000780200207802002053EA020C00F06980E6
:1002C0002DE9F04B4FF00006002B1FBFB3FA83F56A
:1002D00003FA05F424FA05F65E4012BF1643B2FA9B
:1002E00082F502FA05F4C5F120051EBF22FA05FCCD
:1002F00044EA0C04203556EA044C4FEA144418BF73
:10030000641C4FF000084FF00009904271EB030CA1
:1003100039D3002919BFB1FA81F701FA07F6B0FA0B
:1003200080F700FA07F6C7F120071EBF20FA07FC86
:1003300046EA0C062037B6FBF4FCA7EB0507103F96
:1003400007F01F0BCBF120062CFA06F60CFA0BFB7C
:1003500044BFB3460026202FA4BF5E464FF0000BDB
:100360005BEA060C08BF4FF0010B19EB0B0948EBD9
:100370000608ABFB027C06FB02CC0BFB03CCC01BCC
:1003800071EB0C01C1E70B46024641464846BDE809
:10039000F08B13B5084318BF4FF0FF300146AFF3A1
:1003A0000080BDE81C4070474FF0000200B51346C6
:1003B00094469646203922BFA0E80C50A0E80C5085
:1003C000B1F12001BFF4F7AF090728BFA0E80C5036
:1003D00048BF0CC05DF804EB890028BF40F8042B2F
:1003E00008BF704748BF20F8022B11F0804F18BF9C
:1003F00000F8012B7047704770477047754600F052
:100400002BF8AE4605006946534620F007008546A6
:1004100018B020B5FFF73EFFBDE820404FF00006C2
:100420004FF000074FF000084FF0000BAC46ACE86F
:10043000C009ACE8C009ACE8C009ACE8C00921F0CB
:1004400007018D46704710B50446AFF30080204683
:10045000BDE81040FFF709BF0048704710000020BA
:1004600001491820ABBEFEE72600020070470000DD
:10047000FEE7000070470000B0B5044600F0EEF85B
:10048000054640F20000C2F200000078611C18BF6F
:10049000044400BF00F0E2F8401BA042FAD3B0BD14
:1004A0002DE9F04F82B000F13E4202F1FF72870564
:1004B00042F2004647EA9227C4F202060A2243F6B5
:1004C000004EB04208BF0922C4F2010E092F38BF06
:1004D0003A464FF0010A002600274FF0000800922C
:1004E00008E000BF023708F10108202F06F10406DA
:1004F00000F0AA800A680AFA08F412EA0409F1D0A6
:10050000D1F804C0BCF1120F00F298800AFA0CF284
:1005100012F0061F00F092800323826803FA07F5A9
:10052000CB68AA43BB401A43826042684FEA1C135F
:10053000A24303FA08F34FEA480A6FEA050B1A438D
:100540004260C2688B6802EA0B0203FA0AF31A439C
:100550004CF01003122BC26013D16FF0030202EAB9
:100560005802024406F01C050F23D2F820C003FAFB
:1005700005F40B692CEA0404AB4023431362D1F861
:1005800004C002680CF0030302EA0B0203FA0AF348
:100590001A435FEACC034FF0010A0260A2D50022A1
:1005A00043F644030192C4F202031A684FF6084C62
:1005B00042F480421A601A68CFF6FF7C02F480424F
:1005C0000192019A28F00302724452F80C3006F0AE
:1005D0000C050F24AC40A343009C04FA05F52B4303
:1005E00042F80C30DEF800204B6842EA0905DC03D3
:1005F00058BF22EA0905CEF80050DEF804209C031B
:1006000042EA090558BF22EA0905CEF80450DEF88F
:100610000820DC0242EA090543F60C4458BF22EAEE
:100620000905CEF80850C4F2010422689B0242EA90
:10063000090558BF22EA0905256053E70322BA409D
:100640006FEA020BBA467CE702B0BDE8F08F00000B
:10065000002A08BF090481617047000040F2700061
:10066000C2F200000068704740F2000040F27001E2
:10067000C2F20000C2F2000100780A68104408606B
:100680007047000080B543F60040C4F202000168E4
:1006900041F400710160016841F48061016001680A
:1006A00041F480710160032000F074F80F2000F025
:1006B00005F800F027F8002080BD000070B540F27A
:1006C0000006C2F2000640F208013278C2F20001D0
:1006D0004FF47A730968B3FBF2F20446B1FBF2F10E
:1006E000084600F01DFB0F2C4FF0010508D838B963
:1006F0004FF0FF3021460022002500F01FF8746003
:10070000284670BD82B0002043F640010190C4F23B
:1007100002014A6842F480424A604A6802F4804218
:100720000192019A0090086840F0805008600868C3
:1007300000F080500090009802B0704710B54EF65F
:100740000C5CCEF2000CDCF80030C3F3022E8EF00D
:100750000704042C28BF0424BEF103034FF0FF3E1E
:100760000EFA04F438BF0023A14399400EFA03F3B4
:100770009A43114300F00F0200F160430901043A6B
:1007800003F564436244002848BF02F10C0319706A
:1007900010BD00004EF60C51CEF200010A684FF673
:1007A000FF031A4060F30A2242F0806040F0FD70BF
:1007B00008607047002804BF012070472DE9F04110
:1007C00043F60808C4F202080446D8F8F8030D46B8
:1007D00000F00F00884207D288F8F853D8F8F803E1
:1007E00000F00F00A84277D12068810717D5410794
:1007F00005D5D8F8001041F4E051C8F80010010701
:1008000005D5D8F8001041F46041C8F80010D8F8B8
:100810000010A26821F0F0011143C8F80010C007D1
:1008200040D1D8F8F80300F00F00A84207D988F8A3
:10083000F853D8F8F80300F00F00A8424CD1206814
:10084000410707D5D8F80010E26821F4E0511143C0
:10085000C8F80010000708D5D8F80000216920F476
:10086000604040EAC100C8F8000000F055F8D8F830
:10087000001041F23C02C1F30311C0F60002515CCA
:1008800040F2080220FA01F140F20400C2F2000036
:100890000068C2F200021160FFF710FF0020BDE8FF
:1008A000F08100BF6068811E022907D258F8081C39
:1008B00089015CBF0120BDE8F08111E0012807D16A
:1008C00058F8081C89035CBF0120BDE8F08107E0EF
:1008D00058F8081C890703D40120BDE8F08100BF47
:1008E000D8F8001021F003010843C8F80000FFF712
:1008F000B5FE064641F28837D8F80000616800F07E
:100900000C00B0EB810F8CD0FFF7A8FE801BB84223
:10091000F2D90320BDE8F08110B543F60404C4F217
:100920000204606800F00C0008280BD0042819BFEE
:1009300042F20040C0F2F40047F64000C0F27D10E1
:1009400010BD00BF206821682368490247F64001B6
:10095000C0F27D1100F03F02C3F388105CBF42F289
:100960000041C0F2F401A1FB00010023FFF7A4FC49
:1009700021680222C1F3014102EB4101B0FBF1F019
:1009800010BD0000002804BF012070472DE9F04190
:1009900082B00446007843F60006C007C4F202069F
:1009A0000CD0B06800F00C00042840F08180306862
:1009B000800303D56068002800F0608120788007FC
:1009C0001BD5B06810F00C0F09D0B06800F00C0017
:1009D000082840F087807068400200F1838030680A
:1009E000800703D5E068012840F04881306821691C
:1009F00020F0F80040EAC10030602078000713D4EE
:100A0000207840072AD4A569002D00F03281B06813
:100A100000F00C00082840F0A180012D40F00E816C
:100A2000012002B0BDE8F0816069002840F20000BA
:100A3000C4F2472000F07E800121C0F8801EFFF73D
:100A40000DFE0546706F8007DAD4FFF707FE401BE6
:100A50000228F7D9032002B0BDE8F081306C5FEACC
:100A6000C0080AD400200190306C40F080503064FF
:100A7000306C00F080500190019847F20007C4F2FA
:100A800000073868C00547D4386840F48070386083
:100A9000FFF7E4FD054600BF3868C0053CD4FFF70A
:100AA000DDFD401B0228F7D9032002B0BDE8F0812C
:100AB000B06800F00C00082803D1706840023FF5D0
:100AC00076AF6068B0F5803F07D0B0F5A02F40F05A
:100AD0009980306840F480203060306840F4803085
:100AE000306099E0E06800285CD00020C4F2472024
:100AF00001210160FFF7B2FD054600BF30688007A5
:100B00003FF574AFFFF7AAFD401B0228F6D903207A
:100B100002B0BDE8F08100BFA068012805D005281B
:100B200054D1306F40F004003067306F40F0010066
:100B3000306755E00021C0F8801EFFF78FFD0546A5
:100B4000706F80077FF55CAFFFF788FD401B0228C0
:100B5000F6D9032002B0BDE8F08100BF0027C4F23F
:100B6000472700203866FFF779FD022D05460DD195
:100B70003068800140F18680FFF770FD401B02283D
:100B80004FF00300F4D902B0BDE8F0813068800175
:100B90006FD5FFF763FD401B02284FF00300F5D926
:100BA000F1E700BF0020C4F2472000210160FFF7F9
:100BB00055FD0546306880077FF51FAFFFF74EFDF6
:100BC000401B02284FF00300F4D9DCE7316F002806
:100BD00021F001013167316F21F00401316773D0D9
:100BE000FFF73CFD054641F2883700BF306F8007B4
:100BF0007CD4FFF733FD401BB842F7D9032002B085
:100C0000BDE8F0813168002821F48031316031681D
:100C100021F48021316073D0FFF720FD054600BF2D
:100C2000306880033FF5CAAEFFF718FD401B64280B
:100C3000F6D9032002B0BDE8F08100BF7068E16919
:100C400000F480028A4219D1216A00F03F028A42F0
:100C500014D147F6C071626A014091420ED1A16A77
:100C600000F440328A4209D1E16A00F070608842A3
:100C700004D1002002B0BDE8F08100BF012002B025
:100C8000BDE8F08104F11C052FCD084340EA821035
:100C9000D9034FF6FF729143A1F5803140EA056018
:100CA0000843706001203866FFF7D8FC044600BF97
:100CB00030688001DDD4FFF7D1FC001B02284FF023
:100CC0000300F5D95FE700BFFFF7C8FC054641F216
:100CD000883700BF306F800708D5FFF7BFFC401B87
:100CE000B8424FF00300F5D94DE700BFB8F1000F4F
:100CF0003FF589AE306C20F08050306483E600BF51
:100D0000FFF7ACFC054600BF306880037FF556AEA8
:100D1000FFF7A4FC401B64284FF00300F4D932E72E
:100D2000411E0020B0EB116F1CBF012070474EF236
:100D30001002CEF2000251604EF62351CEF20001B5
:100D4000F0230B700721906011607047FEE70000F0
:100D500070B586B0002543F6300005950095C4F2C5
:100D60000200016840F2004441F0020101600068A5
:100D7000C4F2020400F002000090009820464021D6
:100D800000224026FFF764FC0120CDE9020501A9FD
:100D9000204601960495FFF783FB06B070BD000066
:100DA000FEE70000FEE7000070470000704700000B
:100DB000FFF75ABC4EF68850CEF20000016841F4AD
:100DC000700101604FF0006140F8801C7047000026
:100DD000FEE7000092B040F2004AC4F2020AFFF7B8
:100DE00051FC06AD281D2C21FFF7DEFA002643F644
:100DF00040000596CDE90366CDE901660096C4F290
:100E000002000168012241F080510160006800F099
:100E100080500090009846F600400096CFF6FE7095
:100E20005AF8001062F38F314AF800105AF80000A7
:100E300000F44040009000980220069010200A9094
:100E4000284609920C96FFF79DFD28B1EFF310801C
:100E500072B600BFFEE700BF0F20CDE9010601A872
:100E60000021CDE903660596FFF7A4FC20B1EFF35E
:100E7000108072B6FEE700BF4EF6FC5641F2040544
:100E8000CEF20006CEF20005FFF762FF3068C00127
:100E900009D4306840F08070306055F8040C40F0A0
:100EA000010045F8040C40F208074DF683664FF048
:100EB0000009C2F20007C4F21B3644F62C4B05E0D1
:100EC00040F6B830FFF7D8FA4FF000094FF4FA6057
:100ED00009FB00F046F617418008C1F2C161A0FB92
:100EE00001014FF4FA704FEA910800EB910450466B
:100EF00040210122FFF7ACFB28683968A1FB0612EC
:100F0000910C61432A68121A8A420BD22A68121A7B
:100F10008A4207D22A68121A8A4203D22A68121A0F
:100F20008A42EFD3504640210022FFF791FB286808
:100F30003968A1FB0612ABEB0801920C514300BFCC
:100F40002A68121A8A420BD22A68121A8A4207D2D7
:100F50002A68121A8A4203D22A68121A8A42EFD3E6
:100F60001420FFF789FA09F10109B9F1B50FADD1E4
:100F700040F6B830FFF780FA4FF0B40806E000BF43
:100F80001420FFF779FAB8F1010899D04FF4FA600C
:100F900008FB00F046F617418008C1F2C161A0FBD2
:100FA00001014FF4FA704FEA910900EB91045046A9
:100FB00040210122FFF74CFB28683968A1FB06128B
:100FC000910C61432A68121A8A420BD22A68121ABB
:100FD0008A4207D22A68121A8A4203D22A68121A4F
:100FE0008A42EFD3504640210022FFF731FB2868A8
:100FF0003968A1FB0612ABEB0901920C514300BF0B
:101000002A68121A8A42BBD22A68121A8A42B7D2B6
:101010002A68121A8A42B3D22A68121A8A42EFD375
:10102000AEE7F1EE100A4FF6FF71C0F2C03120EAD0
:10103000010040F04070E1EE100A7047000000002F
:1010400000000000010203040607080970100008F0
:1010500000000020100000001002000880100008AE
:1010600010000020680600003002000800000000A8
:1010700001000000100000000024F4000000000047
:04000005080001AD41
:00000001FF
