:020000040800F2
:10000000E8080020810200085F380008F530000889
:100010005D3800088F070008BD4D00080000000093
:100020000000000000000000000000002B3C000861
:100030009107000800000000613800082D3C00080E
:100040009B0200089B0200089B0200089B0200081C
:100050009B0200089B0200089B0200089B0200080C
:100060009B0200089B0200089B0200089B020008FC
:100070009B0200089B0200089B0200089B020008EC
:100080009B020008000000009B0200089B02000881
:100090009B0200089B0200089B0200089B020008CC
:1000A0009B0200089B0200089B0200089B020008BC
:1000B000A93C0008B53C00089B0200089B02000810
:1000C0009B0200089B0200089B0200089B0200089C
:1000D0009B020008B14D00089B0200089B0200082B
:1000E0009B0200089B0200089B0200089B0200087C
:1000F0009B0200089B0200089B0200080000000011
:10010000000000009B020008000000009B020008A5
:100110009B020008000000009B0200089B020008F0
:100120009B0200089B0200089B0200089B0200083B
:100130009B02000800000000000000009B02000875
:100140009B0200089B020008000000000000000065
:10015000000000000000000000000000000000009F
:100160000000000000000000000000009B020008EA
:100170009B020008000000000000000000000000DA
:10018000000000009B0200080000000000000000CA
:10019000000000000000000000000000000000005F
:1001A00000000000000000009B0200089B02000805
:1001B0009B0200089B0200089B0200080000000050
:1001C000000000009B02000800000000000000008A
:1001D0009B0200089B02000800F002F800F041F8C2
:1001E0000AA090E8000C82448344AAF10107DA4592
:1001F00001D100F036F8AFF2090EBAE80F0013F0A3
:10020000010F18BFFB1A43F00103184710650000E7
:1002100030650000103A24BF78C878C1FAD8520778
:1002200024BF30C830C144BF04680C607047000070
:100230000023002400250026103A28BF78C1FBD8EF
:10024000520728BF30C148BF0B607047642900F0D7
:10025000EB80002070471FB505F04AF91FBD10B5AF
:1002600010BD00F05AFA1146FFF7F5FF04F00CFE3E
:1002700000F078FA03B4FFF7F2FF03BC00F080FA55
:100280000948804709480047FEE7FEE7FEE7FEE72A
:10029000FEE7FEE7FEE7FEE7FEE7FEE70448054966
:1002A000054A064B70470000993C0008D901000838
:1002B000E8020020E8080020E8040020E80400200C
:1002C00053EA020C00F069802DE9F04B4FF0000674
:1002D000002B1FBFB3FA83F503FA05F424FA05F6E1
:1002E0005E4012BF1643B2FA82F502FA05F4C5F178
:1002F00020051EBF22FA05FC44EA0C04203556EA0C
:10030000044C4FEA144418BF641C4FF000084FF02F
:100310000009904271EB030C39D3002919BFB1FADF
:1003200081F701FA07F6B0FA80F700FA07F6C7F18D
:1003300020071EBF20FA07FC46EA0C062037B6FB52
:10034000F4FCA7EB0507103F07F01F0BCBF12006CD
:100350000CFA0BFB2CFA06F644BFB3460026202FFE
:10036000A4BF5E464FF0000B5BEA060C08BF4FF0DF
:10037000010B19EB0B09ABFB027C48EB0608C01B19
:1003800006FB02CC0BFB03CC71EB0C01C1E70B4667
:10039000024641464846BDE8F08B13B54FF00000D9
:1003A0004FF00001AFF30080BDE81C407047000033
:1003B0000FB41CB5074B06AA7B446946009005980C
:1003C00000F093F90020694600F0A2F91CBC5DF82A
:1003D00014FB00005503000070B5044685690068F1
:1003E000C10601D5302600E02026C00707D070BD29
:1003F000D4E9012130469047206A401C20626D1EDE
:10040000F6D570BD70B5044685690078C00707D180
:1004100070BDD4E9012120209047206A401C206251
:100420006D1EF6D570BD00002DE9F0410646002492
:1004300010687529314616A510D0AFF3008000284A
:1004400002DA404213A507E031688A0701D512A5F8
:1004500002E0490704D511A5012401E0AFF30080B3
:1004600000210A2206F1240709E0B0FBF2FCB0FBF0
:10047000F2F302FB1C00303078541846491C002867
:10048000F3D123462A463046BDE8F04100F0CEB80D
:10049000000000002D0000002B00000020000000E4
:1004A0002DE9F05F894604464FF0000ADFF824B1D9
:1004B000FB44C0F820A02046E168884700287DD092
:1004C000252806D0D4E901219047206A401C2062EB
:1004D000F1E700255F462046E16888472028064668
:1004E00007DB312E05D2B81910F8200C08B10543EE
:1004F000F1E7A80701D525F00405C4F81CA00027E2
:10050000C4F818A02A2E09D0304604F068FC38B38D
:1005100004EB8708303EC8F8186019E059F8041B4E
:10052000204604EB87029161E1688847012F064667
:1005300018D1E069002820DA25F020051DE0D8F860
:10054000180000EB800006EB40003038C8F81800B7
:100550002046E1688847064604F041FC0028EED1B9
:10056000012F0AD02E2E08D12046E16888477F1C33
:100570000646022F45F02005C4DBA069002803DAF7
:10058000404245F00105A061E80701D025F01005C3
:10059000A6B1A6F14100192802D8203645F400651D
:1005A0004A463146204625604D46FFF74FFE60B172
:1005B000012807D0ED1D25F0070000E007E000F15D
:1005C000080978E705F1040975E730467AE7206AFB
:1005D000BDE8F09F566200004FF0000200B51346E0
:1005E00094469646203922BFA0E80C50A0E80C5053
:1005F000B1F12001BFF4F7AF090728BFA0E80C5004
:1006000048BF0CC05DF804EB890028BF40F8042BFC
:1006100008BF704748BF20F8022B11F0804F18BF69
:1006200000F8012B70477047704770472DE9F0477D
:100630000D4699469246044600F124080168880652
:1006400004D5E06921F01001216000E00120A842FA
:1006500001DD471B00E00027A1697A1902EB0900C0
:10066000081AA0612078C00602D42046FFF7B4FE25
:10067000002608E0D4E901211AF806009047206A14
:10068000401C761C20624E45F4DB2078C0060AD55B
:100690002046FFF7A1FE06E0D4E901213020904773
:1006A000206A401C2062381EA7F10107F4DC07E035
:1006B000D4E9012118F805009047206A401C206207
:1006C000281EA5F10105F3DC2046FFF79BFE2078EC
:1006D000000602D50220BDE8F0870120FBE70000FC
:1006E00001694A1C02610878704700B58FB0CDE9F6
:1006F00001310021059105497944CDE903101146E6
:100700006846FFF7CDFE0FB000BD0000E5FFFFFF1C
:100710000A6802F8010B0A607047754600F02CF871
:10072000AE4605006946534620F00700854618B0DE
:1007300020B5FFF7B3FDBDE820404FF000064FF0B5
:1007400000074FF000084FF0000B21F00701AC4606
:10075000ACE8C009ACE8C009ACE8C009ACE8C00925
:100760008D46704710B50446AFF300802046BDE8C3
:100770001040FFF77FBD0000004870478402002052
:1007800001491820ABBEFEE7260002007047FEE7D5
:100790007047002240F6B83306E00021491C89B2B8
:1007A0009942FBD3521C92B28242F6D3704772B682
:1007B000FEE700002DE9F84F00270446009790F867
:1007C0005800DFF8E0930D46B846012811D0012605
:1007D00084F85860206802F075FE60B1E06D40F06A
:1007E0002000E0655FF0010784F858803846BDE8D6
:1007F000F88F0220FBE7D5E900210C23206803EAEB
:1008000091131844036B01F01F014FF01F0C0CFAF9
:1008100001FCC2F3846223EA0C038A40134303639E
:10082000206802F04FFE8246206802F047FE5AEA36
:1008300000003CD1AA6829682068B2F1004F37D087
:1008400002F044FE2068416921F0004141612068C6
:100850006969C268C2F3C102520091402A69042A40
:1008600031D000EB82002B68026EDFF83CC303F04E
:10087000F84302EA0C020B431A4342F000410166BE
:1008800020682A69A96900EB8200026E22F080725A
:100890000A430266297F22682869012910D00021B5
:1008A00002EB8000026E22F000720A4302667DE0D5
:1008B000002202F00BFE2068416941F00041C5E7CB
:1008C0004FF00071ECE7002102F0F2FD40032068D8
:1008D0004FF0000172D002F0EBFD90FAA0F0B0FAF8
:1008E00080F1286842036ED090FAA0F0B0FA80F050
:1008F000814204D100221146206802F0F6FD012158
:10090000206802F0D5FD400320684FF001015DD062
:1009100002F0CEFD90FAA0F0B0FA80F12868420310
:1009200059D090FAA0F0B0FA80F0814204D10022B0
:100930000121206802F0D9FD0221206802F0B8FDF3
:10094000400320684FF0020148D002F0B1FD90FA58
:10095000A0F0B0FA80F12868420344D090FAA0F0E9
:10096000B0FA80F0814204D100220221206802F016
:10097000BCFD0321206802F09BFD400320684FF07E
:10098000030133D002F094FD90FAA0F0B0FA80F1A8
:10099000286842032FD090FAA0F0B0FA80F081428C
:1009A00004D100220321206802F09FFD20688168A5
:1009B00011F0010F22D0ACE000E004E002F078FD7D
:1009C000C0F384618DE7C0F3846091E702F070FDAD
:1009D000C0F38461A2E7C0F38460A6E702F068FD7B
:1009E000C0F38461B7E7C0F38460BBE702F060FD49
:1009F000C0F38461CCE7C0F38460D0E72A7B296828
:100A000050F8B03FC1F3120C23EA0C0302F0180CAB
:100A1000664A22FA0CF20A4013430360E96849452A
:100A200077D1286841031CD090FAA0F1B1FA81F186
:100A3000491C01F01F0109294FEA403132D8002931
:100A400012D000BF90FAA0F1B1FA81F101F10101D9
:100A500001F01F0106FA01F609D100BFC0F384615D
:100A600009E0C0F38461E3E7C0F38461EEE790FA44
:100A7000A0F1B1FA81F101F1010101F01F0146EA93
:100A8000816102D1C0F3846003E090FAA0F0B0FA73
:100A900080F000F1010000F01F0000EB400041EA8F
:100AA000005132E000290ED090FAA0F1B1FA81F1A4
:100AB00001F1010101F01F0106FA01F606D100BFA4
:100AC000C0F3846106E0C0F38461F1E790FAA0F11D
:100AD000B1FA81F101F1010101F01F0146EA8161E2
:100AE00002D1C0F3846003E090FAA0F0B0FA80F085
:100AF00000F1010000F01F002D4A00EB400002EB66
:100B0000005041EA000141F00071AA68206802F03B
:100B1000DDFC28482A6802423FF466AE2648816818
:100B2000264B01F0E0719A4202D0254B9A421CD12B
:100B30000B021AD42268B2F1A04F7FF455AE82683E
:100B400041F4000122F0E0720A4382601D481E4910
:100B50000068B0FBF1F0401C00EB4000800000E0BA
:100B6000401E00900028FBD13EE6184D184BAA42CB
:100B700007D1CD0105D422689A42F5D041F08071A9
:100B800009E0144DAA42EFD14A02EDD422689A42FC
:100B9000EAD041F48001826822F0E0720A43826068
:100BA00022E6000000007F4000F0FF03FFFF070087
:100BB000000020FE0000088000030050000021C358
:100BC0001000C09010000020400D0300000052C72C
:100BD00000010050000084CBF8B54FF00005040080
:100BE0002E46009502D0E06D10B107E00120F8BD5F
:100BF000204600F0EBF8266684F85860206881688B
:100C0000C1F3407119B18168684A11408160206860
:100C10008168C1F3007189B98168654A114041F06A
:100C200080518160634864490068B0FBF1F0400086
:100C3000801C00E0401E00900028FBD120688168E5
:100C4000C1F3007141B9E16D41F01001E165216E20
:100C500041F001012166012502F034FCE16DC90675
:100C600000D430B1E06D40F01000E0650125284669
:100C7000F8BDE06D20F4807040F00200E06520686F
:100C8000806810F0010F11D14FF0A04080684B49EF
:100C900000F00100896801F00101084306D14848CD
:100CA0006168826822F47C120A438260E168E06B2A
:100CB000627F0843A16841EA4231084394F8241056
:100CC00040EA0140012904D1218D3E4A02EB414115
:100CD0000843E16A29B101F47871226B014342EAC9
:100CE00001002268D168384B19400143D160206867
:100CF0000169626B21F0406111430161206802F0DB
:100D0000DDFB70BB207F94F83810800340EA41027D
:100D10002168C86844F2020398431043C860206900
:100D20000028206801690AD041F4803101612068FF
:100D300050F8C01F22696FF30D01114307E021F441
:100D400080310161206850F8C01F6FF30D01016010
:100D500094F8400001280CD02068016921F00101BD
:100D60000161606901282068016B21F00F0111D039
:100D700013E0D4E911010843D4E9131211430843E5
:100D800021680A6940F2FC739A43104340F0010065
:100D90000861E6E7226A521E11430163E06D20F00C
:100DA000020040F00100E06561E70000C0FFFF5F66
:100DB000C0FFFF7F10000020400D03000001005025
:100DC000000300500000FEFF0740F0FF10B598B090
:100DD0000446142111A8FFF7FFFB44216846FFF7E2
:100DE000FBFB15492068884223D1C40140050094CB
:100DF0000F90684600F0D6FA08B1FFF7D8FC0F480C
:100E0000C16C41F40051C164C16C01F400511691F0
:100E1000C16C41F00201C164C06C11A900F0020074
:100E200016900320CDE9114000201390044800F0F3
:100E30008DF818B010BD00000001005000100240F5
:100E40000004004810B590F8253000210122022B43
:100E500003D00421C163012122E003681C6824F04F
:100E60000E041C60836C1C6824F480741C6003688E
:100E70001C6824F001041C6090F84430046C03F0FA
:100E80001F0302FA03F36360D0E913345C60436D1F
:100E900033B11C6824F480741C60D0E916345C60A3
:100EA00080F82520002280F82420084610BD70B567
:100EB00090F82520002401212346022A07D004228D
:100EC000C26380F8251080F82430012429E00268EC
:100ED000156825F00E0515600268156825F00105F6
:100EE0001560826C156825F48075156090F84420B3
:100EF000056C02F01F0201FA02F26A60D0E91325C4
:100F00005560426D32B1156825F480751560D0E9E1
:100F10001625556080F8251080F82430816B01B1CA
:100F20008847204670BD000070B5044600F03CF9CB
:100F30000546601C02D004484068044400F034F9BF
:100F4000401BA042FAD370BD040000202DE9F04FF1
:100F5000DFF82092002301260324A9F1040B85B0B9
:100F60000F2709F1040AABF1040EFAE006FA03F5C3
:100F70002A407CD091F804C00CF0030CBCF1010FA6
:100F800002D0BCF1020F26D1D0F808C0CDF800C0C5
:100F90004FEA430C04FA0CF8CDF810C0DDF800C09D
:100FA0002CEA080CCDF800C0D1F80C80DDF810C098
:100FB00008FA0CF8DDF800C048EA0C08C0F8088010
:100FC000D0F804C02CEA050C0D79C5F300159D403E
:100FD00045EA0C0545600D79ED43AD070ED0C568B7
:100FE0004FEA430804FA08FC25EA0C05D1F808C0CA
:100FF0000CFA08FC4CEA050CC0F80CC00D7905F0A1
:101000000305022D16D1DD0800EB850CCDF808C0D4
:10101000DCF820805D074FEAD56C07FA0CF528EA6A
:1010200005080D6905FA0CF5DDF808C045EA080564
:10103000CCF8205005684FEA430CCDF808C004FAFC
:101040000CFC25EA0C0591F804C00CF00308DDF84F
:1010500008C008FA0CF848EA0508C0F800804D6896
:1010600015F4403F7CD0444DD5F860C000E077E0F7
:101070004CF0010CC5F860C02D6E23F0030C05F098
:10108000010500953D4D65440295AD684FEA837CAE
:101090004FEA1C7807FA08FC25EA0C05B0F1904FDE
:1010A00006D0DFF8DCC0604505D14FF0010C20E030
:1010B0004FF0000C1DE0DFF8CCC0604502D14FF0CE
:1010C000020C16E0DFF8C0C0604502D14FF0030CFF
:1010D0000FE0DFF8B8C0604502D14FF0040C08E023
:1010E000DFF8ACC0604502D14FF0050C01E04FF0D5
:1010F000060C0CFA08FC4CEA050C029DC5F808C069
:10110000D9F80050CC46D1F8048095435FEAC8284E
:1011100000D51543CCF80050DAF80050D446D1F889
:10112000048095435FEA882800D51543CCF8005029
:10113000DBF80050DC46D1F8048095435FEA88383C
:1011400000D51543CCF80050DEF80050F446D1F835
:10115000048095435FEAC83800D51543CCF80050A9
:101160005B1C0A6832FA03F57FF400AF05B0BDE8F6
:10117000F08F000008040140001002400000014010
:101180000004004800080048000C00480010004817
:10119000001400480069084000D0012070470AB1DF
:1011A0008161704781627047014880687047000024
:1011B0000400002002488168426811448160704741
:1011C0000400002010B50024032000F073F80F2065
:1011D00000F008F808B1012401E000F025F82046ED
:1011E00010BD000070B50E4E05460024706898B121
:1011F0004FF47A71B1FBF0F00A490968B1FBF0F0E5
:1012000000F0ACFE40B9102D06D200222946501E37
:1012100000F030F8356000E00124204670BD000089
:1012200004000020100000200A4882B0016E41F046
:1012300001010166016E01F001010091816D41F033
:1012400080518165806D00F08050009002B000F008
:10125000A1B8000000100240002809DB00F01F02C6
:10126000012191404009800000F1E020C0F8001108
:1012700070470000F0B40E4B1B680C46C3F302230A
:10128000C3F10705042D00D90425191D072901D232
:10129000002300E0DB1E012606FA05F1491E21406D
:1012A00099409E40761E16403143F0BC03F087BD46
:1012B0000CED00E0064900F0070208684FF6FF0356
:1012C000184040EA0220034A1043086070470000BB
:1012D0000CED00E00000FA052B492C4B0A68322186
:1012E0004A432B4940B1B0F5007F086829D020F46B
:1012F000C06040F480602CE00868C0F34120022800
:1013000004D051F8800F20F4807022E0D1F88000E2
:1013100020F48070C1F88000086820F4C06040F4B8
:1013200000700860B2FBF3F0401C00E0401E4A6908
:10133000520501D50028F9D1486940050AD5032096
:101340007047C0F34120022806D051F8800F40F4C6
:101350008070086000207047D1F8800040F48070F1
:10136000C1F88000086820F4C06040F40070086094
:10137000B2FBF3F0401C00E0401E4A695205DBD589
:101380000028F9D1D8E700001000002040420F00EB
:10139000007000400248816841F4804181607047DC
:1013A000007000402DE9F8430446006800269D4D7A
:1013B00000035ED5A86D0027C00008D4A86D40F0DA
:1013C0008050A865A86D012700F080500090DFF8DC
:1013D0005892D9F8001041F48071C9F80010FFF755
:1013E000E3FE804606E000BFFFF7DEFEA0EB08004C
:1013F00002282BD8D9F80000C005F5D5D5F8900003
:1014000010F4407014D0216C814211D0D5F89000B6
:10141000D5F8901020F4407041F48031C5F8901058
:10142000D5F8901021F48031C5F89010C5F89000DF
:10143000C00711D0FFF7B8FE804641F2883907E0B7
:10144000FFF7B2FEA0EB0801494501D903260BE0E6
:10145000D5F890008007F3D5D5F89000216C20F4E2
:1014600040700843C5F890001FB1A86D20F080506F
:10147000A8652078C00707D0D5F88800616820F0FB
:1014800003000843C5F888002078800707D5D5F801
:101490008800A16820F00C000843C5F88800207877
:1014A000400707D5D5F88800E16820F030000843F0
:1014B000C5F888002078000707D5D5F8880021698D
:1014C00020F0C0000843C5F888002078800607D5C2
:1014D000D5F88800616920F440600843C5F88800A9
:1014E0002078400607D5D5F88800A16920F440503F
:1014F0000843C5F888002078000607D5D5F888008D
:10150000E16920F440400843C5F888002088C00500
:1015100007D5D5F88800216A20F440300843C5F883
:1015200088002088800507D5D5F88800616A20F4F6
:1015300040200843C5F88800208840050FD5D5F81D
:101540008800A16A20F440100843C5F88800A06A0A
:10155000B0F5801F03D1E86840F48010E86020886F
:1015600000050FD5D5F88800E16A20F44000084353
:10157000C5F88800E06AB0F5800F03D1E86840F450
:101580008010E8602088C0040FD5D5F88800216B52
:1015900020F040700843C5F88800206BB0F1807FD0
:1015A00003D1E86840F48010E86020884FF00061C3
:1015B00080040ED5D5F88800626B20F0406010439F
:1015C000C5F88800606B884203D1E86840F4801059
:1015D000E860208840040ED5D5F88800A26B20F082
:1015E00040601043C5F88800A06B884203D1E868CA
:1015F00040F48010E860208800040FD5D5F88800FA
:10160000E16B20F040500843C5F88800E06BB0F172
:10161000805F03D1E86840F48030E8603046BDE880
:10162000F883000000100240007000402DE9F047F0
:101630000E4605004FF0000725D0DFF8AC81D8F842
:10164000000000F00F00B0420CD2D8F8001021F0DA
:101650000F013143C8F80010D8F8000000F00F0067
:10166000B04210D12968614CC80741F2883A5AD07B
:101670006868DFF87C91032808D0022820682DD004
:10168000400500282CDB0120BDE8F08720688001A0
:10169000F9D5E06800F00302E068C0F30310401CD5
:1016A000032A19D0534A00BFB2FBF0F0E268C2F33C
:1016B00006225043E268C2F34162521C5200B0FB62
:1016C000F2F0484517D9A06810F0F00F0CD0880749
:1016D00011D5A86840B10EE0474AE5E78003D0E79E
:1016E00000F0B6F8484506D9A06820F0F00040F0B8
:1016F0008000A0608027A068696820F0030008438C
:10170000A060FFF751FD814606E000BFFFF74CFDEA
:10171000A0EB090151453AD8A068696800F00C00B7
:10172000B0EB810FF2D12868810714D5400703D5AB
:10173000A06840F4E060A0602878000705D5A068A4
:1017400020F4605040F4E060A060A068A96820F038
:10175000F000084304E0802F03D1A06820F0F000DF
:10176000A060D8F80010404601F00F01B14216D930
:10177000016821F00F0131430160FFF715FD0746B5
:1017800007E000BFFFF710FDC11B514501D9032041
:101790007AE7D8F8000000F00F00B042F2D12878C4
:1017A000400705D5A068E96820F4E0600843A06020
:1017B0002878000706D5A068296920F4605040EA1F
:1017C000C100A06000F044F8A1680C4AC1F3031105
:1017D000515C01F01F01C8400949086009480068D0
:1017E000BDE8F047FFF7FEBC0020024000100240B9
:1017F00000B4C4040024F40000366E012255000831
:10180000100000200400002005480649006889688F
:10181000054AC1F30221515C01F01F01C840704725
:10182000100000200010024032550008054806490B
:1018300000688968054AC1F3C221515C01F01F01AB
:10184000C8407047100000200010024032550008C8
:10185000184910B58868C0F381021748012A0BD0D7
:101860008A68164BC2F38102022A06D08A68C2F344
:101870008102032A03D0002010BD184610BDCA689B
:1018800002F00304CA68C2F30312521C032C02D0F4
:10189000B0FBF2F001E0B3FBF2F0CA68C968C2F332
:1018A00006225043C1F34161491C4900B0FBF1F0ED
:1018B00010BD0000001002400024F40000366E014C
:1018C0002DE9F84304007AD02078F84DC00747D0BE
:1018D000A868E96800F00C0001F003010C2802D0B0
:1018E000082817D001E0032914D06068B0F5803FC4
:1018F00017D0B0F5A02F286817D020F480302860CA
:10190000286820F4802028606068E0B1FFF74CFC74
:10191000064614E02868800322D560680028D2D0EB
:101920001EE0286840F48030EDE740F48020286015
:10193000F7E700BFFFF738FC801B642870D82868E1
:101940008003F7D50CE0FFF72FFC064605E000BF4B
:10195000FFF72AFC801B6428F0D828688003F7D49E
:10196000207880074CD5A868E96800F00C0001F0E9
:1019700003010C2802D004280DD001E002290AD06E
:10198000E068002828682BD040F480702860FFF7BA
:101990000BFC064619E02868400502D5E0680028DF
:1019A00091D06868217C20F0FE4040EA01606860C8
:1019B000BF480068FFF716FC002800D120E072E164
:1019C000FFF7F2FB801B0228B8D828684005F7D53E
:1019D0006868217C20F0FE4040EA016068600FE00A
:1019E00020F480702860FFF7DFFB064605E000BFAB
:1019F000FFF7DAFB801B0228A0D828684005F7D43F
:101A00002078000729D560690028D5F8940013D004
:101A100040F00100C5F89400FFF7C6FB064606E05B
:101A200090E000BFFFF7C0FB801B022886D8D5F8E6
:101A300094008007F6D510E020F00100C5F894006E
:101A4000FFF7B2FB064604E0FFF7AEFB801B02285F
:101A500078D8D5F894008007F6D42078400761D56F
:101A6000A86D0026C00008D4A86D40F08050A8657D
:101A7000A86D012600F0805000908E480168C905CD
:101A800011D40168804641F480710160FFF78CFB3E
:101A9000074604E0FFF788FBC01B022852D8D8F89D
:101AA0000000C005F6D5A068012815D00528D5F896
:101AB000900016D020F00100C5F89000D5F89000F5
:101AC00020F00400C5F89000A06841F28838B8B151
:101AD000FFF76AFB07460EE0D5F8900040F00100E2
:101AE000F0E740F00400C5F89000F5E7FFF75CFB75
:101AF000C11B414526D8D5F890008007F6D50CE0EB
:101B0000FFF752FB074604E0FFF74EFBC11B4145C0
:101B100018D8D5F890008007F6D41EB1A86D20F033
:101B20008050A8652078800629D5A0690028D5F8BE
:101B3000980013D040F00100C5F89800FFF734FB7F
:101B4000064606E075E000BFFFF72EFB801B02286B
:101B50006FD8D5F898008007F6D510E020F0010086
:101B6000C5F89800FFF720FB064604E0FFF71CFBD2
:101B7000801B02285DD8D5F898008007F6D4E0696C
:101B8000F0B3A968C1F3810103295DD00228286858
:101B900020F08070286003D0FFF706FB04464BE07E
:101BA000FFF702FB064604E0FFF7FEFA801B02285F
:101BB0003FD828688001F7D4F4E908016FF00F02DC
:101BC00002EB01110843218A5204490802EB4151FA
:101BD000A26841EA02210843217D4FF07E42490874
:101BE00002EB41610843217B40EAC160E968324A67
:101BF00011400843E860286840F08070286000E0E9
:101C00005EE0E86840F08070E860FFF7CDFA0446D7
:101C100005E000BFFFF7C8FA001B022809D82868B2
:101C20008001F7D54CE000BFFFF7BEFA001B022889
:101C300002D90320BDE8F88328688001F4D4E8685D
:101C40001E490840E8603BE00128F3D0E868226ABA
:101C500000F00301914226D1616A00F0F00209010F
:101C6000103991421FD1A26A00F4FE41B1EB022F5C
:101C700019D194F82C2000F07841B1EBC26F12D149
:101C8000218E00F4C00249084905A1F500119142D6
:101C900009D194F8341000F0C06049084906A1F158
:101CA000007181420CD00120C4E700000010024006
:101CB00004000020007000400C809F01FCFFEEFE3D
:101CC0000020B7E770B504004FF0010040D094F851
:101CD000250028B9002084F82400204600F040F8B0
:101CE000022084F825002068C168C943C90630D5A0
:101CF000CA214162216853204862204601F048FF12
:101D000010BB20688169154A11408161216888698A
:101D10006268A369104322691A43104388612189CC
:101D2000E06840EA014021680861204601F055FF63
:101D300050B9D4E90721114322686369956925F0F8
:101D400060452B43194391612268FF21516208B11C
:101D500070BD0020012184F8251070BDBFFF8FFBEE
:101D600010B592B0044644216846FEF735FC104990
:101D7000206888421AD14FF4002000904FF4407040
:101D800010906846FFF70EFB08B1FEF710FD0948FA
:101D900050F8901F41F4004140F83819016841F4AF
:101DA00080610160006800F48060119012B010BD85
:101DB000002800400010024070B5044690F824004E
:101DC0000B4601281BD0012684F82460022084F8E9
:101DD0002500B2B19878D97840EA01455878197849
:101DE000000240EA413005432168CA204862216868
:101DF00053204862204601F0CBFED0B120E0022003
:101E000070BD5878C10603D500F0EF000A30587055
:101E1000D87801F0B0FE0504587801F0ACFE45EA30
:101E20000025987801F0A7FE0543187845EA40356B
:101E3000DAE70848054020684560204601F0CDFEFD
:101E40002268FF21516208B984F82560002184F8D6
:101E5000241070BD3FFFFF002DE9F041044690F8CB
:101E6000240090460D46012811D0012784F82470E3
:101E7000022084F825002168CA2048622168532086
:101E80004862204601F084FE002618B129E00220B5
:101E9000BDE8F0812068B8F1000F80694FEA40602A
:101EA00024D0002800DBEE70A8782978EA7840EA90
:101EB00001406978090241EA825108431849084003
:101EC000216808602068816921F480218161D5E959
:101ED0000301084321688A6910438861204601F0A4
:101EE0007CFE2268FF215162A0B115E0002800DBD2
:101EF000EE70287801F03FFE0304687801F03BFEA5
:101F000043EA0023A87801F036FE0343E87843EA69
:101F10008050D3E784F8257084F82460B8E7000087
:101F20007F7F7F0070B504460B482168C860FFF7CB
:101F30003BF905464FF47A7607E000BFFFF734F926
:101F4000401BB04201D9032070BD2068C0688006E4
:101F5000F4D5002070BD00005F00010010B5401EE8
:101F6000B0F1807F01D3012010BD4FF0E02460610B
:101F70000F21601702F023FF0020A06107202061DD
:101F8000002010BD7047704770477047704770471A
:101F9000F0B590F83C20012A3AD0012580F83C5059
:101FA000022280F83D2003685A689C68194E1A4F37
:101FB000B34201D0BB4204D122F4700C4A6842EA19
:101FC0000C02DFF858C002EA0C02D1F800C04CEA5B
:101FD000020CC3F804C00268B2420DD0B2F1804FC7
:101FE0000AD00F4B9A4207D00E4B9A4204D0BA4205
:101FF00002D00D4B9A4204D1896824F08003194322
:10200000916080F83D50002180F83C100846F0BDFA
:102010000220F0BD002C0140003401408FFFFFFD85
:10202000000400400008004000400140704710B527
:10203000040003D094F83D0010B107E0012010BD6A
:10204000002084F83C00204600F022F8022084F8AA
:102050003D00211D206801F033FE012084F8480076
:1020600084F83E0084F83F0084F8400084F8410082
:1020700084F8420084F8430084F8440084F8450062
:1020800084F8460084F8470084F83D00002010BD25
:1020900010B586B0044614216846FEF79DFA216803
:1020A0001E48B1F1804F29D01D4A914224D1816D43
:1020B00041F002018165816D01F002010591C16C61
:1020C00041F00101C164C06C002100F001000590E5
:1020D000802000900220CDE90101CDE9031069467E
:1020E0004FF09040FEF732FF002211461D20FFF70F
:1020F000C1F81D20FFF7B0F806B010BD816D41F0AA
:1021000001018165806D002200F0010005901146FB
:102110001C20FFF7AFF81C20ECE700000010024085
:102120000004004090F83D10012901D001207047C3
:10213000022180F83D100168CA6842F00102CA60BD
:102140000068104988420ED0B0F1804F0BD00E4984
:10215000884208D00D49884205D00D49884202D0F6
:102160000C49884207D181680B4A1140062906D0E4
:10217000B1F5803F03D0016841F00101016000200A
:1021800070470000002C014000040040000800409F
:1021900000340140004001400700010070B50446D2
:1021A00090F83C000025012814D0012684F83C60FA
:1021B000022084F83D0022689068364B184020F4D5
:1021C0007F409060086870282ED010DC10F00F0F50
:1021D00003D021E04FF0020070BD4FEA2012072A21
:1021E0001AD2DFE802F0525252524A3840002A4BCB
:1021F000C21A984249D009DCB0F5805F0DD0B0F525
:10220000005F1CD0B0F1101F06D13EE0102A3CD078
:10221000202A3AD0502A38D0012584F83D60002089
:1022200084F83C00284670BDCB68D1E901212068C4
:1022300001F0B1FD2068816841F0770109E0CB68C9
:10224000D1E90121206801F0A6FD2068816841F4F0
:1022500080418160E1E7CA684968206801F0AEFF0B
:102260005021206806E0CA684968206801F0EEFF46
:102270006021206801F09AFDCFE7CA6849682068AC
:1022800001F09CFF40212068F4E7226801461046D7
:10229000F0E7000088FFCEFF200010002DE9F0419C
:1022A00005462DED028B00681E49884236D1287FF5
:1022B0001D4C022805D10421284600F0C9FB401C12
:1022C000A060287F012829D10021284600F0C0FB0A
:1022D0000746E060A06802F0FAFF0E46054646ECAD
:1022E000180B384602F0F3FF9FED101B53EC112B37
:1022F00003F000F853EC182B02F064FE02F0BAFF72
:1023000046EC105B607053EC102B9FED0A0B51EC08
:10231000100B02F057FE02F0ADFF2061BDEC028B06
:10232000BDE8F0810004004028000020000000000B
:10233000000059400000000080842E412DE9F0414A
:10234000054690F83C0000260C46012810D00120DC
:1023500085F83C0072B1042A1CD0082A2CD00C2A23
:1023600050D00126002085F83C003046BDE8F081C1
:102370000220FBE7D4E90012E368286801F030FF8F
:102380002868816921F00C01816128688169A2684F
:1023900011430FE0D4E90012E368286801F068FFF8
:1023A0002868816921F44061816128688169A26897
:1023B00041EA02218161D5E72868D4E9002C277B16
:1023C000036A016A21F480710162C16923F4206308
:1023D00021F0030141EA0C0121F0F00C39074FF420
:1023E00020674CEA116107EA02221A43C1610262C6
:1023F0002868C16921F00C01C1612868C169A2681F
:1024000011432BE02868D4E90021E768036AD0F87B
:1024100020C02CF4805CC0F820C0D0F81CC023F48D
:1024200020432CF4407C4CEA012121F4704C4FF6FF
:10243000FF7101EA07314FF4204741EA0C0107EA36
:1024400002321A43C16102622868C16921F4406105
:10245000C1612868C169A26841EA0221C16181E7BE
:1024600010B5040003D094F83D0010B107E001203E
:1024700010BD002084F83C00204600F022F8022025
:1024800084F83D00211D206801F01AFC012084F829
:10249000480084F83E0084F83F0084F8400084F847
:1024A000410084F8420084F8430084F8440084F832
:1024B000450084F8460084F8470084F83D00002079
:1024C00010BD704730B50446002571B1042911D004
:1024D000082914D00C2917D0102918D094F84300DB
:1024E00094F84720012817D114E094F83E0094F89E
:1024F0004420F7E794F83F0094F84520F2E794F879
:10250000400094F84620EDE794F84100E8E794F89D
:102510004200E5E7012A01D0012030BD022079B157
:10252000042916D008291DD00C2949D010294AD0D9
:1025300084F8430084F847000C2947D001253DE08A
:1025400084F83E0084F844002068C26842F0020229
:1025500010E084F83F0084F845002068C26842F02B
:10256000040207E084F8400084F846002068C2684E
:1025700042F00802C2600122206801F0FFFB164908
:10258000206888420ED0B0F1804F0BD013498842AA
:1025900008D01349884205D01249884202D0124916
:1025A000884207D18168114A1140062906D0B1F549
:1025B000803F03D0016841F001010160284630BD31
:1025C00084F84100B6E784F84200B3E72068C268A7
:1025D00042F01002CEE70000002C01400004004051
:1025E00000080040003401400040014007000100A5
:1025F0002DE9F04104460068C66805694FF0000700
:10260000A90713D5B10711D5F91E01610120207763
:10261000206880698007204602D0FFF73FFE04E073
:1026200000F016F9204600F011FA2777680716D552
:10263000700714D521686FF004000861022020772C
:102640002068806910F4407F204602D0FFF726FE04
:1026500004E000F0FDF8204600F0F8F9277728079D
:1026600015D5300713D521686FF0080008610420E4
:1026700020772068C0698007204602D0FFF70EFE51
:1026800004E000F0E5F8204600F0E0F92777E806DE
:1026900016D5F00614D521686FF0100008610820E7
:1026A00020772068C06910F4407F204602D0FFF7F1
:1026B000F5FD04E000F0CCF8204600F0C7F92777DC
:1026C000E80708D0F00706D021686FF00100086124
:1026D000204600F0BCF9280601D4A80408D530062D
:1026E00006D521686FF4025008612046FFF74BFCC5
:1026F000E80508D5300606D521686FF480700861BA
:102700002046FFF73FFC680608D5700606D521680D
:102710006FF040000861204600F0DAF9A80608D5FD
:10272000B00606D521686FF0200008612046FFF74B
:102730002BFCE80208D5F00206D521686FF4801062
:1027400008612046FFF722FCA80208D5B00206D592
:1027500021686FF4001008612046FFF716FC68023C
:1027600008D5700206D521686FF480000861204604
:10277000FFF70DFC28020AD5300208D521686FF456
:10278000000008612046BDE8F041FFF74FBCBDE8FE
:10279000F081000010B586B0044614216846FDF7AC
:1027A0001BFF2068B0F1804F15D10C48C16C41F07F
:1027B0000101C164C06C694600F00100059002206F
:1027C00000900190002002900390012004904FF0AF
:1027D0009040FEF7BBFB06B010BD000000100240A9
:1027E00070B5044690F83C00002501280BD001206C
:1027F00084F83C000C2A1ED007DC82B1042A12D0D7
:10280000082A06D113E0022070BD102A17D0142A1E
:1028100019D00125002084F83C00284670BD2068AE
:1028200001F0CEFAF6E7206801F018FBF2E7206825
:1028300001F05CFBEEE7206801F0A0FBEAE720680E
:1028400001F0E4FBE6E7206801F018FCE2E7000095
:1028500070B505460068466A164C606802F037FDA0
:1028600041EC100B53EC102B9FED130B51EC100BA4
:1028700002F0A8FB02F0FEFC60612868B0F1804F16
:1028800012D1287F02280FD102214FF09040FEF78D
:1028900081FC642100282278606906D05043B0FB97
:1028A000F1F029683044886370BD4243B2FBF1F116
:1028B000401AF6E7280000200000000080842E4126
:1028C00010B5040003D094F83D0010B107E00120DA
:1028D00010BD002084F83C00204600F022F80220C1
:1028E00084F83D00211D206801F0EAF9012084F8F8
:1028F000480084F83E0084F83F0084F8400084F8E3
:10290000410084F8420084F8430084F8440084F8CD
:10291000450084F8460084F8470084F83D00002014
:1029200010BD704770B500250446022269B1042924
:1029300016D0082955D00C295ED0102963D094F800
:102940004300012866D0012070BD94F83E000128A4
:10295000F9D184F83E202068C26842F0020209E002
:1029600094F83F000128EED184F83F202068C26827
:1029700042F00402C2600122206801F0FFF92B49F5
:1029800020682B4A2B4B884209D0904207D09842AE
:1029900005D0294EB04202D0284EB04203D1466C39
:1029A00046F400464664206888420CD0B0F1804F5F
:1029B00009D02349884206D02249884203D0904258
:1029C00001D0984207D181681F4A1140062906D0DC
:1029D000B1F5803F03D0016841F001010160284654
:1029E00070BD94F840000128ADD184F840202068E3
:1029F000C26842F00802BDE794F841000128A2D164
:102A000084F8412008E094F8420001289BD184F822
:102A1000422003E084F843200C2901D00125DEE7A1
:102A20002068C26842F01002A4E70000002C0140B8
:102A30000034014000400140004401400048014092
:102A40000004004000080040070001007047704784
:102A50000246002041B1042909D008290AD00C29D6
:102A600001D11068006C70471068406B70471068A7
:102A7000806B70471068C06B704770B5044690F863
:102A80003C00012812D0012584F83C50022084F833
:102A90003D00204601F02AFB01004FF0000007D066
:102AA00084F83D5084F83C00012070BD022070BDC8
:102AB0002168CA6822F04002CA602168CA6822F40C
:102AC0008042CA6084F83D5084F83C00002070BD0C
:102AD000704790F88410012918D0012180F88410E3
:102AE0002421C0F8881001680A680B6823F00103EC
:102AF0000B6022F000510022426603681960202119
:102B0000C0F8881080F88420104670470220704773
:102B10007047704770B5044690F8840001281DD0B6
:102B2000012084F884002420C4F888002068056807
:102B3000026822F0010202602068826822F060626E
:102B40000A438260204601F0AFFB20680560202028
:102B5000C4F88800002084F8840070BD022070BD95
:102B600070B5044690F8840001281DD0012084F837
:102B700084002420C4F8880020680568026822F0D8
:102B8000010202602068826822F060420A4382608B
:102B9000204601F089FB206805602020C4F88800E9
:102BA000002084F8840070BD022070BD704770471B
:102BB000704700002DE9F04103680446D8691968A0
:102BC0009A6840F60F0528424FF000054FF00206C4
:102BD0000AD187067ED501F0200702F0805C57EA13
:102BE0000C0777D0616F3AE1B24FDFF8CCC21740E3
:102BF00001EA0C0C57EA0C0C6CD05FEAC07C0CD0DC
:102C00005FEAC15C09D54FF0010CC3F820C0D4F8CD
:102C1000903043F00103C4F89030830709D5D307FF
:102C200007D023681E62D4F8903043F00403C4F840
:102C3000903043070AD5D30708D0266804233362AF
:102C4000D4F8903043F00203C4F8903003070CD559
:102C500001F020033B4308D0266808233362D4F8F0
:102C6000903043F00803C4F8903003050BD54B01B6
:102C700009D526684FF400633362D4F8903043F0EE
:102C80002003C4F89030D4F89030002B3DD080065B
:102C900009D501F0200002F08051084303D0616F94
:102CA00009B120468847D4F8900021688968490610
:102CB00002D410F0280F2AD0204601F0DBFB206858
:102CC000806840061ED52068083050E8001F21F0BB
:102CD000400100E021E040E80012002AF3D1D4F8DE
:102CE000800078B175498163D4F88000FEF7DFF881
:102CF00000280AD0D4F88000816B00E02046BDE8AF
:102D0000F04108472046FFF753FFBDE8F081204619
:102D1000FFF74EFFC4F89050F7E7D4F86CC02027B7
:102D2000BCF1010F7ED15FEAC06C7BD55FEAC16C5C
:102D300078D51020186220688068400645D5D4F800
:102D40008010086840680004000CDED0B4F85C20F5
:102D50008242DAD9A4F85E000868006880062CD4A4
:102D6000216851E8000F20F4807041E80002002A39
:102D7000F6D12068083050E8001F21F0010140E83A
:102D80000012002AF5D12068083050E8001F21F019
:102D9000400140E80012002AF5D1C4F88C70E566C5
:102DA000206850E8001F21F0100140E80012002ABE
:102DB000F6D1D4F88000FEF745F82667B4F85C0039
:102DC000B4F85E10401A81B230E0B4F85C00B4F898
:102DD0005E10401A81B2B4F85E00002895D0002938
:102DE00093D0226852E8000F20F4907042E800036C
:102DF000002BF6D12F4BDB432068083050E8002F22
:102E00001A4040E8002CBCF1000FF5D1C4F88C70DA
:102E1000E5666567226852E8000F20F0100042E87E
:102E2000000300E006E0002BF4D126672046FFF700
:102E30006FFE6AE7C60209D5560207D54FF4801027
:102E400018622046BDE8F041FFF7B1BE03060AD57F
:102E500001F0800302F40002134304D0A16F0029A3
:102E60007FF44CAF51E7420611D54A060FD52046F4
:102E7000026852E8001F21F0400142E80013002BD5
:102E8000F6D1C0F88870856700F033F93DE702029B
:102E900006D54A0004D52046BDE8F041FFF786BEBE
:102EA000C001C6D50029C4DA2046BDE8F041FFF7CD
:102EB00030BE000001000010200100046144000841
:102EC00010B5040003D0D4F8880010B107E0012049
:102ED00010BD002084F88400204600F027F824204C
:102EE000C4F888002068016821F001010160A06A2F
:102EF00010B1204601F0FAF9204601F04DFD0128FD
:102F0000E6D02068416821F49041416020688168E2
:102F100021F02A0181602068016841F0010101600F
:102F20002046BDE8104001F045BA000010B598B049
:102F30000446142111A8FDF74FFB44216846FDF714
:102F40004BFB1B492068884230D101200024CDE989
:102F500000046846FEF726FA08B1FDF728FC15487C
:102F6000016E41F480410166016E01F480411691C9
:102F7000C16C41F00101C164C06C11A900F00100F5
:102F800016904FF4C06011900220CDE91204072082
:102F9000CDE914404FF09040FDF7D8FF00221146D4
:102FA0002520FEF767F92520FEF756F918B010BD69
:102FB000003801400010024030B4D0F88C30202B93
:102FC00002D0022030BC7047A9B1A2B10023C36671
:102FD0000A4C0368A3420BD05B681B0208D5046847
:102FE00054E8003F43F0806344E80035002DF6D1FB
:102FF00030BC01F00BBE0120E4E70000008000407F
:1030000000680B49884211D10A480C490A4B0278E2
:1030100008781A54401CC0B20870322801D1002030
:103020000870012203490648FFF7C6BF7047000039
:1030300000380140000000206C0100200100002049
:10304000A00100202DE9F8430446D0F888009846F6
:1030500016460D46202802D00220BDE8F883A5B10F
:103060009EB10020C4F890002120C4F888001834D4
:10307000FEF79AF8A6878146E68754F8100C2027B9
:10308000183CB0F5805F02D003E00120E5E720693D
:1030900010B12E46002510E000260EE080212046CB
:1030A00001F03CFEC0B9DEB116F8010B2168886260
:1030B000B4F85600401EA4F85600B4F856004B462B
:1030C0004FF00002CDF800800028E7D14FF040011A
:1030D000204601F023FE40B1C4F888700320BCE70D
:1030E00035F8020BC0F30800E0E7C4F88870002050
:1030F000B3E77047FEE7000000B585B014216846CD
:10310000FDF76AFA4FF6FF70009000200321CDE929
:103110000201019069460248FDF718FF05B000BDA5
:103120000008004800B585B014216846FDF754FA40
:103130004FF6FF70009001200190032003900020C3
:10314000029069460248FDF701FF05B000BD00008E
:103150000008004870B5002406462146204600F0CD
:1031600003F900F041F94FF49635304600F010F9BC
:10317000641CAC42F9D370BD70B586B014216846AA
:10318000FDF72AFA1E48C16C41F00401C164C16C0C
:1031900001F004010591C16C41F00101C164C16CF1
:1031A00001F001010591C16C41F00201C164C06CE4
:1031B000032500F0020005904FF44870012400261A
:1031C00003958DE8510069460E48FDF7BFFE2002C9
:1031D00003958DE851004FF0904469462046FDF775
:1031E000B5FEFFF79FFFA06940F48070A06105481D
:1031F0001830016841F40871016006B070BD00002C
:103200000010024000040048203AD2B2034B02EB07
:10321000420203EB021200F019B800003A55000810
:10322000F0B50E460746002540F23F1407E0214660
:103230003846FFF7E9FF103C6D1CA4B2761C3278CB
:10324000002A01D0142DF2D3F0BD00002DE9F04783
:1032500091468A460026044600F086F8DFF8408052
:10326000012700BF00F0C0F85FF0000539F8160034
:1032700007FA05F10842404601D1408800E0008885
:1032800000F086F86D1C102DF0D3641CE4B251469A
:10329000204600F069F8761C182EE3D3BDE8F087CD
:1032A0002000002010B5FFF767FF002000F014F8A1
:1032B000084CA080A088A0F50241303906D000F06B
:1032C00059FB002000F008F8A08010BD00F0C9FAFA
:1032D000F7E700002000002070B51D490A6842F49D
:1032E00000720A600A6842F480720A60184C103C4E
:1032F000226842F020022260164A1060086840F0FE
:103300002000086000BF00BF00BF206840F0200020
:103310002060206840F480702060FFF7EDFE4FF0E1
:103320009041886A40F48070886200BF00BF00BF8F
:103330000848001F006885B2886940F48070886181
:10334000FFF7F0FE206840F400702060284670BD52
:10335000280400481408004801B5BDF800000149E0
:10336000488008BD2000002010B50C4601462020F2
:1033700000F068F82146BDE81040212000F062B856
:1033800001B5BDF800000149088008BD20000020FB
:10339000134A116841F400711160114910390B682A
:1033A00043F480730B600B6843F020030B600D4BFC
:1033B0001860106840F02000106000BF00BF00BF20
:1033C000086840F020000860086840F480700860D9
:1033D00000BF00BF00BF086840F40070086070477D
:1033E00028040048140800481449086840F4007094
:1033F0000860086840F4807008601048103802685F
:1034000042F0200202600E4B22221A600A6842F04B
:1034100020020A6000BF00BF00BF016841F0200128
:103420000160016841F48071016000BF00BF00BF0E
:10343000016841F4007101607047000028040048F1
:1034400014080048184B10B51A6842F400721A604C
:103450001A6842F480721A60134A103A146844F0F1
:1034600020041460114C2060186840F0200018609F
:1034700000BF00BF00BF106840F02000106010685F
:1034800040F4807010602160186840F020001860DF
:1034900000BF00BF00BF106840F02000106010683F
:1034A00040F48070106010BD2804004814080048E3
:1034B00000EB8100006E00F0F84070478068C0F3B8
:1034C000C00070478068C0F380007047042303EA9F
:1034D000D15310B518444369C1F3045107248C40FB
:1034E000A3438A401343436110BD00EB8100016E8A
:1034F00021F00041114301667047000030B589B0EA
:1035000020216846FDF768F8194818490024016031
:103510004902C0E90114C46004250461C0E90545FD
:10352000047744770121016280F82440C462046377
:1035300080F83840C46380F84040FDF74DFB08B187
:10354000FDF735F90B4800900620CDE901047F20F6
:103550000594CDE9030569460548FDF72BF90028D8
:1035600001D0FDF724F909B030BD00000001005082
:10357000400000200080F03E10B586B0142168465F
:10358000FDF72AF81948C16C41F02001C164C16CF3
:1035900001F020010591C16C41F00101C164C16CD1
:1035A00001F001010591C16C41F00201C164C16CDF
:1035B00001F002010591C16C41F00801C164C06CC9
:1035C0000B4C00F008000590002204212046FDF776
:1035D000E6FD0420009001200021CDE901010391C6
:1035E00069462046FDF7B2FC06B010BD001002404F
:1035F000000C004810B586B014216846FCF7ECFFBB
:103600001E4800241C490594C0E900147D218160F6
:1036100041F27071C0E903144FF080414461C0E988
:1036200006410462FEF74EFB08B1FDF7C0F88DF8C5
:1036300000408DF801408DF802400194039401226E
:1036400069460E480494FEF707FC08B1FDF7AFF891
:1036500001208DF814008DF815008DF81600024633
:103660008DF8174005A90548FEF7A6FB002801D0F4
:10367000FDF79DF806B010BD00280040AC0000200A
:1036800010B58EB000240794089409940A940B9402
:103690000C941C2168460D94FCF79EFF1E484FF0C9
:1036A000804101604F21C0E90114611EC0E903148B
:1036B0008461FEF7BCFC08B1FDF779F84FF4805047
:1036C000079007A91448FEF769FD08B1FDF76FF8E8
:1036D0001148FFF7F5F808B1FDF769F80B940BA94D
:1036E0000D480D94FEF754FC08B1FDF760F830204A
:1036F00000904FF4FA70CDE90104042269460648AF
:103700000494FFF76DF808B1FDF751F80248FFF790
:1037100041F80EB010BD0000D400002010B590B0EC
:10372000002409940A940B94142104A80C94FCF727
:1037300053FF2D480D940F940E940094019402941D
:103740002849039401604F21C0E901144FF6FF712D
:10375000C0E903148461FEF76AFC08B1FDF727F89D
:103760004FF48050099009A91F48FEF717FD08B1D2
:10377000FDF71DF81C48FEF773FE08B1FDF717F8BA
:10378000042004906020CDE9050404A9164808949B
:10379000FFF773F908B1FDF70AF80D940DA9124867
:1037A0000F94FEF7F5FB08B1FDF701F80220009039
:1037B000CDE90104002269460B480394FEF7BEFDE3
:1037C00008B1FCF7F4FF0120CDE90040042269466E
:1037D0000548FEF7B3FD002801D0FCF7E8FF10B064
:1037E00010BD00000004004020010020194810B561
:1037F000174901604FF416514160002181600C228D
:10380000C160C0E904128161C161016241628162EB
:10381000FFF756FB08B1FCF7CAFF00210D48FFF780
:103820009FF908B1FCF7C3FF00210A48FFF772F9BE
:1038300008B1FCF7BCFF0748FFF74BF908B1FCF7EC
:10384000B6FFBDE81040012203490248FFF7B4BBB0
:1038500000380140A001002000000020FEE7FEE744
:10386000704730B501210020FFF7ECFD4FF47A706E
:10387000FCF78FFF00210120FFF7E4FD41F290717A
:103880001020FFF7DFFD4FF41C516020FFF7DAFD39
:1038900001216120FFF7D6FD02214620FFF7D2FD6E
:1038A00048F210011320FFF7CDFD48F2FE0112206F
:1038B000FFF7C8FD4FF4A0610220FFF7C3FD41F2FE
:1038C00030010320FFF7BEFD40F2033421463020D3
:1038D000FFF7B8FD21463120FFF7B4FD2146322025
:1038E000FFF7B0FDE51E29463320FFF7ABFD0321AE
:1038F0003420FFF7A7FD21463520FFF7A3FD142153
:103900003620FFF79FFD21463720FFF79BFD21461C
:103910003820FFF797FD21463920FFF793FD294610
:103920003A20FFF78FFD03213B20FFF78BFD214657
:103930003C20FFF787FD4FF4A0513D20FFF782FDAB
:103940004FF400719220FFF77DFD21469320FFF791
:1039500079FD40F60D019020FFF774FD41F218014A
:103960000320FFF76FFDBDE8304040F273110720E0
:10397000FFF768BD10B543F20801E320FFF762FDD1
:103980001221E720FFF75EFD41F23121EF20FFF722
:1039900059FD00210120FFF755FD4FF4E0610220A1
:1039A000FFF750FD41F230010320FFF74BFD0021EE
:1039B0000420FFF747FD40F207210820FFF742FDF2
:1039C00000210920FFF73EFD00210A20FFF73AFD04
:1039D00000210C20FFF736FD00210D20FFF732FDFE
:1039E00000210F20FFF72EFD00211020FFF72AFDF8
:1039F00007211120FFF726FD00211220FFF722FDED
:103A000000211320FFF71EFDC820FDF78DFA41F2BB
:103A100090611020FFF716FD40F227211120FFF7DB
:103A200011FD3220FDF780FA1D211220FFF70AFD5B
:103A30003220FDF779FA4FF400611320FFF702FD01
:103A400014212920FFF7FEFC0B212B20FFF7FAFCA5
:103A50003220FDF769FA00212020FFF7F3FC002156
:103A60002120FFF7EFFC07213020FFF7EBFC40F2AD
:103A700007713120FFF7E6FC06213220FFF7E2FC58
:103A800040F204713520FFF7DDFC41F60471362069
:103A9000FFF7D8FC04213720FFF7D4FC00213820A1
:103AA000FFF7D0FC40F206713920FFF7CBFC40F263
:103AB00001713C20FFF7C6FC0F213D20FFF7C2FC3F
:103AC00000215020FFF7BEFCEF215120FFF7BAFC88
:103AD00000215220FFF7B6FC40F23F115320FFF7C0
:103AE000B1FC4FF41C516020FFF7ACFC01216120B8
:103AF000FFF7A8FC00216A20FFF7A4FC002180202A
:103B0000FFF7A0FC00218120FFF79CFC0021822010
:103B1000FFF798FC00218320FFF794FC002184200C
:103B2000FFF790FC00218520FFF78CFC10219020EE
:103B3000FFF788FC00219220FFF784FC03219320EB
:103B4000FFF780FC4FF488719520FFF77BFC002184
:103B50009720FFF777FC00219820FFF773FC41F2D4
:103B600018010320FFF76EFCBDE8104040F273110E
:103B70000720FFF767BC0022014602E00A39C9B2FC
:103B8000521C0A29FAD2100741EA1060704700005F
:103B90002DE9F041044600680025C168490619D4A2
:103BA000C16841F08001C160FDF7FEFA06464FF49E
:103BB0007A78032708E000BFFDF7F6FA801B40453E
:103BC00002D9032584F825702068C068400601D416
:103BD000032DF1D12846BDE8F08170B50446006898
:103BE0000025C16821F08001C160206881694FF023
:103BF0000306890607D42046FEF794F998B184F8A5
:103C0000256003250FE0816921F0200181612046B4
:103C1000FEF788F910B184F82560032520688169D2
:103C200041F020018161284670BD7047FDF7C2BA9E
:103C300010B594B038216846FCF7CEFC14210EA8CC
:103C4000FCF7CAFC4FF40070FDF746FB0120009022
:103C50000004019002200324CDE907041421CDE9DA
:103C60000A100C900D9009946846FDF729FE08B1E2
:103C700072B6FEE70F20CDE90E04002010901190DF
:103C8000129002210EA8FDF7D1FC002801D072B6D7
:103C9000FEE714B010BD00000248016841F4700155
:103CA0000160704788ED00E00148FEF7A1BC00000C
:103CB000D40000200148FEF79BBC0000200100203A
:103CC0002DE9F0430268264B264D274E274C4FF036
:103CD0008049984207D0484505D0A84203D0B04259
:103CE00001D0A04203D122F070074A683A43204F26
:103CF000DFF880C0DFF8808098420DD048450BD0B7
:103D0000A84209D0B04207D0A04205D0B84203D0A3
:103D1000604501D0404503D122F44075CA682A436A
:103D20004D6922F080022A4302608A68C2620A68F2
:103D30008262984207D0A04205D0B84203D06045C5
:103D400001D0404501D10969016301214161016947
:103D5000C90703D0016921F001010161BDE8F083C9
:103D6000002C0140000400400008004000340140E5
:103D700000400140004401400048014010B501F0FE
:103D80001F030121046A99408C430462016A9A402E
:103D90001143016210BD10B5846842EA032224F485
:103DA0007F440A432243826010BD00008268034BB7
:103DB0001A400A4342F00701816070478FFFCFFF2E
:103DC0002DE9F043056A026A22F0010202624368AB
:103DD00082691C4C25F0020522400C6822F0030287
:103DE00014438A68194E2A43174D194FDFF864C0EF
:103DF000DFF86490A84207D0B04205D0B84203D0A3
:103E0000604501D0484506D122F00808CA6842EA58
:103E1000080222F00402A84207D0B04205D0B842FE
:103E200003D0604501D0484505D14D6923F4407366
:103E30001D438B692B43436084614968416302627F
:103E4000BDE8F0838FFFFEFF002C014000340140ED
:103E5000004001400044014000480140F0B5056ABF
:103E6000026A22F01002026242688369194C1B4EFA
:103E700023400C6823F4407343EA042425F0200314
:103E80008D6843EA0513144DA84201D0B04206D113
:103E9000CF6823F0800343EA071323F04003A842CE
:103EA0000AD0B04208D00E4DA84205D00D4DA84210
:103EB00002D00D4DA84207D14D6922F4406242EA7A
:103EC00085028D6942EA85024260846149688163A6
:103ED0000362F0BDFF8FFFFE002C01400034014063
:103EE000004001400044014000480140F0B5056A2F
:103EF000026A22F4807202624368C269194C1B4E46
:103F000022400C6822F00302144325F400728D68ED
:103F100042EA0522144DA84201D0B04206D1CF6832
:103F200022F4006242EA072222F48062A8420AD008
:103F3000B04208D00E4DA84205D00E4DA84202D086
:103F40000D4DA84207D14D6923F4405343EA0513B0
:103F50008D6943EA05134360C4614968C163026225
:103F6000F0BD00008FFFFEFF002C01400034014037
:103F7000004001400044014000480140F0B5056A9E
:103F8000026A22F4805202624268C369194C1B4ED5
:103F900023400C6823F4407343EA042425F40053BF
:103FA0008D6843EA0533144DA84201D0B04206D1D2
:103FB000CF6823F4004343EA073323F48043A84245
:103FC0000AD0B04208D00E4DA84205D00D4DA842EF
:103FD00002D00D4DA84207D14D6922F4404242EA79
:103FE00085128D6942EA85124260C46149680164A4
:103FF0000362F0BDFF8FFFFE002C01400034014042
:1040000000400140004401400048014030B5056ACD
:10401000026A22F4803202624268036D114C23402E
:104020000C681C4325F400330D8943EA05430E4D0B
:10403000A8420BD00D4DA84208D00D4DA84205D086
:104040000C4DA84202D00C4DA84204D14D6922F477
:10405000803242EA05224260046549688164036255
:1040600030BD00008FFFFEFF002C014000340140F6
:1040700000400140004401400048014030B5046A5E
:10408000026A22F4801202624268036D114D24F428
:1040900000142B400D6843EA05230D8944EA0554BA
:1040A0000D4DA8420BD00D4DA84208D00C4DA84292
:1040B00005D00C4DA84202D00B4DA84204D14D6949
:1040C00022F4802242EA8522426003654968C16485
:1040D000046230BDFF8FFFFE002C01400034014020
:1040E00000400140004401400048014070B50568AF
:1040F0000024AA682E4B1A404B6813432D4A1340E4
:104100000A681A43AA604A68602A4AD00DDC302A3D
:104110001FD005DCEAB1102A1BD0202A18D118E0E4
:10412000402A1FD0502A13D135E0234D531BAA42F9
:104130000FD009DC702A0ED0B2F1101F09D0203A3E
:10414000B2F5801F04D104E0102B02D0402B00D028
:104150000124204670BD0B69D1E902210068FFF7F8
:104160001AFEF6E70A68052A13D0B2F1011F10D033
:104170000268136A156A25F00105156202689569DF
:10418000096925F0F00545EA0111916100680362B3
:10419000DFE7012070BD0A698968006800F00EF849
:1041A000D7E70A698968006800F050F8D1E7000095
:1041B0008FFFCFFFF8FFFEFF3000100010B5036A3D
:1041C000046A24F001040462846924F0F00444EADF
:1041D000021423F00A020A438461026210BD000047
:1041E00070B5056A046A24F0010404628469124E01
:1041F000B0420ED0B0F1804F0BD0104EB04208D07C
:104200000F4EB04205D00F4EB04202D00E4EB0421B
:1042100003D124F00304144301E044F001041A071D
:1042200024F0F00444EA126225F00A0301F00A01C6
:1042300019438261016270BD002C014000040040FE
:1042400000080040003401400040014010B5036AFE
:10425000046A24F010040462846923F0A00324F4A7
:10426000704444EA023243EA01118261016210BDE6
:1042700030B5046A056A25F010050562856925F4E4
:10428000407545EA022222F470454FF6FF7202EAB9
:10429000033224F0A0032A43A02404EA01111943A5
:1042A0008261016230BD000030B5416EB9B1026873
:1042B00091689268C1F342610B4B520F9C5CE50020
:1042C00003F10804A25CB5FBF2F2A0F86A205A5C84
:1042D000615CD200B2FBF1F1A0F8681030BD0121A1
:1042E000A0F86A10F8E700001255000890F82810AE
:1042F000090706D501684A68836B22F400421A4315
:104300004A6090F82810C90706D001684A68C36A55
:1043100022F400321A434A6090F82810890706D523
:1043200001684A68036B22F480321A434A6090F8AD
:104330002810490706D501684A68436B22F4802299
:104340001A434A6090F82810C90606D501688A68A1
:10435000C36B22F480521A438A6090F828108906B1
:1043600006D501688A68036C22F400521A438A60F9
:1043700090F82810490611D501684A68436C22F468
:1043800080121A434A60416CB1F5801F06D1016862
:104390004A68836C22F4C0021A434A6090F82810DD
:1043A000090606D501684A68C06C22F4002202435F
:1043B0004A6070472DE9F84300260446C0F8906033
:1043C000FCF7F2FE8046206800684FF020050007E9
:1043D0006FF07E4713D543460022290420460097FC
:1043E00000F09CFC58B1216851E8000F20F08000DB
:1043F00041E80002002AF6D1C4F8885021E0206884
:104400000068400722D5434600224FF48001204631
:10441000009700F083FCC8B1216851E8000F20F438
:10442000907041E80002002AF6D12068083050E878
:10443000001F21F0010140E80012002AF5D1C4F864
:104440008C5084F884600320BDE8F883C4F8885059
:10445000C4F88C5044F86C6F666026760020F3E751
:1044600010B5806A0021A0F85E10A0F85610FEF783
:104470009FFB10BD10B5026852E8001F21F4907137
:1044800042E80013002BF6D10E4B0268083252E8C6
:10449000001F194042E80014002CF6D1C16E01291A
:1044A00008D1016851E8002F22F0100241E80023F2
:1044B000002BF6D12021C0F88C100021C166416785
:1044C00010BD0000FEFFFFEF10B5B0F86020D0F87F
:1044D0008C300168222B04D0886940F00800886184
:1044E00010BD496A836D11401980816D891C8165F9
:1044F000B0F85E10491EA0F85E10B0F85E100029FA
:10450000EED1026852E8001F21F4907142E80013D6
:10451000002BF6D10168083151E8002F22F001028A
:1045200041E80023002BF5D12021C0F88C10002198
:1045300041670167154B02689A420BD0526812021C
:1045400008D5036853E8002F22F0806243E8002476
:10455000002CF6D1C26E012A02D0FEF751FD10BD2B
:10456000C166026852E8001F21F0100142E8001302
:10457000002BF6D10168CA69D243D20601D41022B9
:104580000A62B0F85C10FEF7C3FA10BD008000406C
:104590002DE9F0470446B0F860600068C569D0F8BE
:1045A00000A0D0F80880D4F88C10222905D08169A9
:1045B00041F008018161BDE8F087B4F868704FF000
:1045C000000975E02068406AA16D30400880A06D48
:1045D000801CA065B4F85E00401EA4F85E00206850
:1045E000C569690730D0E9070AD05FEACA5107D523
:1045F00001210162D4F8900040F00100C4F890005D
:10460000A8070BD55FEAC87008D0216802200862AD
:10461000D4F8900040F00400C4F8900068070BD56F
:104620005FEAC87008D0216804200862D4F89000BE
:1046300040F00200C4F89000D4F8900020B1204669
:10464000FEF7B6FAC4F89090B4F85E0080BB21681B
:1046500051E8000F20F4807041E80002002AF6D1F2
:10466000304A2068083050E8001F114040E800132D
:10467000002BF6D12020C4F88C00C4F87490494671
:10468000C4F87090284A206890420BD0406800021D
:1046900008D5226852E8000F20F0806342E800301D
:1046A0000028F6D1E06E012825D02046FEF7A8FCB0
:1046B0000FB1A80686D4B4F85E0000283FF47BAFA3
:1046C000B4F8681081427FF676AF2068083050E871
:1046D000001F21F0805140E80012002AF5D1134854
:1046E0006067216851E8000F40F0200041E80002B7
:1046F000002AF6D15FE7E166216851E8000F20F05B
:10470000100041E80002002AF6D12068C169C943BF
:10471000C90601D410210162B4F85C102046FEF7EE
:10472000F7F9C5E7FEFFFFEF00800040C94400082D
:1047300010B5B0F86020D0F88C300168222B04D07E
:10474000886940F00800886110BD496A1140826D97
:104750001170816D491C8165B0F85E10491EA0F88A
:104760005E10B0F85E100029EED1016851E8002F0C
:1047700022F4907241E80023002BF6D10168083141
:1047800051E8002F22F0010241E80023002BF5D16F
:104790002021C0F88C10002141670167154B026889
:1047A0009A420BD05268120208D5036853E8002FD2
:1047B00022F0806243E80024002CF6D1C26E012A68
:1047C00002D0FEF71DFC10BDC166026852E8001F52
:1047D00021F0100142E80013002BF6D10168CA69EC
:1047E000D243D20601D410220A62B0F85C10FEF760
:1047F0008FF910BD008000402DE9F0470446B0F865
:1048000060600068C569D0F800A0D0F80880D4F8CE
:104810008C10222905D0816941F008018161BDE831
:10482000F087B4F868704FF0000975E02068406ABE
:10483000A16D30400870A06D401CA065B4F85E000A
:10484000401EA4F85E002068C569690730D0E907FA
:104850000AD05FEACA5107D501210162D4F890005D
:1048600040F00100C4F89000A8070BD55FEAC870BB
:1048700008D0216802200862D4F8900040F00400BB
:10488000C4F8900068070BD55FEAC87008D02168AB
:1048900004200862D4F8900040F00200C4F89000B0
:1048A000D4F8900020B12046FEF782F9C4F8909029
:1048B000B4F85E0080BB216851E8000F20F48070DE
:1048C00041E80002002AF6D1304A2068083050E85A
:1048D000001F114040E80013002BF6D12020C4F83F
:1048E0008C00C4F874904A46C4F870902849206837
:1048F00088420BD04068000208D5216851E8000FBB
:1049000020F0806041E80003002BF6D1E06E012822
:1049100025D02046FEF774FB0FB1A80686D4B4F864
:104920005E0000283FF47BAFB4F8681081427FF648
:1049300076AF2068083050E8001F21F0805140E831
:104940000012002AF5D113486067206850E8001F64
:1049500041F0200140E80012002AF6D15FE7E2664C
:10496000216851E8000F20F0100041E80002002A01
:10497000F6D12068C169C943C90601D4102101627A
:10498000B4F85C102046FEF7C3F8C5E7FEFFFFEF62
:1049900000800040314700082DE9F04104460168DD
:1049A00080682269E3691043626900251A43104355
:1049B000DFF82CC20A688B4B1A4002430A60206859
:1049C0004168E26821F44051114341602168A069C7
:1049D000614501D0226A10438A68834B1A40024322
:1049E0008A602068C16A626A21F00F011143C162C6
:1049F0007E4923687E488B420DD1D0F8880010F0A4
:104A0000030006D0012855D0022842D003283FD108
:104A100052E001203DE077498B420BD1D0F888006D
:104A200010F00C0035D0042833D0082840D00C28D2
:104A30002ED141E070498B420BD1D0F8880010F0A4
:104A4000300026D0102835D0202831D030281FD172
:104A500032E06A498B420BD1D0F8880010F0C000D8
:104A600017D0402826D0802822D0C02810D123E09B
:104A700063450DD1D0F8880010F4406009D0B0F53E
:104A8000806F17D0B0F5006F12D0B0F5406F13D023
:104A900010205B495B4F00264FF4004263453BD139
:104AA00060B1022813D004280BD0082872D10DE081
:104AB0000220EEE70420ECE70820EAE7FCF7A4FE7A
:104AC00001E0FCF7C5FE010001D17CE01146606AFF
:104AD00037F810206768B1FBF2F007EB4703834219
:104AE00070D8B0EB073F6DD8002308461946FBF796
:104AF000E7FB090241EA10610202780810187141CF
:104B00003A460023FBF7DCFB3F4AA0F54071914297
:104B100058D82168C86056E0E3694FF6EF789342B1
:104B20002CD109284ED2DFE800F00508114D0D4DBB
:104B30004D4D1000FCF768FE01E0FCF777FE010028
:104B400004D140E0FCF784FEF9E71146606A37F8CB
:104B50001000B1FBF0F04100606801EB5001B1FBC7
:104B6000F0F0A0F1100141452CD84FF6F071014052
:104B7000C0F3420001432068C16024E0092821D22B
:104B8000DFE800F0050912200E2020201100FCF7BC
:104B90003BFE02E016E0FCF749FE010004D112E002
:104BA000FCF756FEF9E71146606A37F81000B1FBD2
:104BB000F0F1606801EB5001B1FBF0F0A0F11001E1
:104BC00041450AD901250120A4F86A0024F8680F9C
:104BD0002846E6602661BDE8F08180B299E70000D2
:104BE00000800040F369FFCFFFF4FF11003801405F
:104BF000001002400044004000480040004C0040CB
:104C00000024F400FA540008FFFC0F0070B5816521
:104C1000A0F85C20A0F85E200023436781684FF471
:104C20008056FF24B14204D10169F9B940F2FF1165
:104C300022E07F25C1B1B1F1805F1AD0A0F86030C9
:104C4000C0F890302221C0F88C100168083151E87A
:104C5000003F43F0010341E80034002CF5D1416EE0
:104C6000B1F1005F0ED031E0016941B9A0F86040B8
:104C7000E6E7016919B13F21A0F86010E0E7A0F86C
:104C80006050DDE7B0F8681091421FD88168B142EA
:104C900001D10169B9B11D494167016941B102689A
:104CA00052E8001F41F4807142E80013002BF6D156
:104CB0000168083151E8002F42F0805241E800239A
:104CC000002BF5D120E012494167F1E78168B1423C
:104CD00001D1016969B10F494167016959B10268A0
:104CE00052E8001F41F4907142E80013002BF6D106
:104CF0000AE009494167026852E8001F41F02001BB
:104D000042E80013002BF6D1002070BDF9470008DF
:104D10009145000831470008C94400082DE9F047D3
:104D2000994617460D4604464FF00008089E33E0AA
:104D3000701C31D0FCF738FAA0EB0900B04218D84B
:104D4000BEB120680168490726D5802D24D0402DAA
:104D500022D0C169C94309070DD408250562204640
:104D6000FFF788FBC4F8905084F884800120BDE8E8
:104D7000F0870320FBE7C069C04300050CD421681D
:104D80004FF4006008622046FFF774FB2020C4F84F
:104D9000900084F88480ECE72068C06935EA000060
:104DA00004D00020B842C3D00020E0E70120F9E79A
:104DB0000148FDF7FFBE0000A0010020FEE7090743
:104DC000090E002804DB00F1E02080F80014704791
:104DD00000F00F0000F1E02080F8141D704730381B
:104DE0000A2801D2012070470020704710B51448EE
:104DF000026814490B68D21A3C2A1FD30068086065
:104E0000114812A102681548FBF7D2FA134948204D
:104E1000FEF706FA124813A102781048FBF7C8FA09
:104E20000E496020FEF7FCF912A10C48FBF7C0FA0E
:104E3000BDE8104009497820FEF7F2B910BD000026
:104E40000C0000201400002038000020494E20668D
:104E50007265713A25303464202000007002002011
:104E600029000020494E20647574793A2530326457
:104E700020200000202020202053746174653A72A5
:104E8000756E202020000000FCF79CF9FEF7D0FE94
:104E9000FEF772FBFEF732FBFEF7ACFBFEF7F0FB12
:104EA000FEF73CFCFEF7A2FCFEF7FCF90020FEF743
:104EB00051F90020FEF750FA4FF6FF70FEF760FA46
:104EC00004210A48FDF72EFD04210948FDF7FAFAEE
:104ED00000210748FDF7F6FA0548FDF723F900BF62
:104EE00000F008F8FFF782FFFAE70000D400002086
:104EF0002001002070B51F4C20681F4D4FF47A76BA
:104F00006968401AB0F5FA6F0BD3206868601BA17E
:104F10001E48FBF74DFA334628221C491C48FEF771
:104F200091F82068A968401A642821D3194C207888
:104F300000281DD015490020174A3231135C0B544C
:104F4000401CC0B20428F9D30878312802D0342894
:104F500002D00BE011A100E015A10C48FBF728FAE4
:104F60003346282209490A48FEF76CF800202070D1
:104F700070BD00000C000020140000202064616D52
:104F80003A343536616263200D0A00003402002095
:104F9000A0010020010000206C0100202064616D50
:104FA0003A7965732020616263200D0A00000000D9
:104FB0002064616D3A6E6F6F2020616263200D0A7C
:104FC000000000002DE9C04130B4DFF8A0C23CEA87
:104FD000111418BF3CEA131400F0EC8081EA0305B9
:104FE0001CEA111444EAD57418BF1CEA131500F02A
:104FF000C780A4EB05044FF0004545EAC12145EA0E
:10500000C32341EA505143EA525304F17F74994259
:1050100004F500344FEAC0204FEAC22208BF904294
:1050200000F09C804FEA13650FF24016765D4FEA60
:10503000134506FB05F7C7F1807706FB07F74FEA34
:10504000D737A7FB03687642C8F58038A7FB06CEA2
:1050500038BFA8F1010807FB08E64FF0000EA6FBD9
:10506000028CE6FB03CEDCF1000CCEF1004E38BF23
:10507000AEF1010EA6FB0C584FF000074FF00005F3
:10508000E6FB0E87A1FB08C6A0FB07CE16EB0E06BB
:1050900045F10005E1FB076515F1E04E7EBFA4F583
:1050A00080345FEA46066D4116F1800745F1000540
:1050B0004FEA17274FEA066647EA0567A6F1DE467C
:1050C000B6F1805F4FEA15251FD9384624F0010C50
:1050D00005EBC471BCF1FE6F01EB0C1102D8F0BC02
:1050E000BDE8008124425CBF01F5801E9EEAC47FBA
:1050F00002D4F0BCBDE80081244238D4F0BCA1F158
:10510000C041BDE8004100F0EDB94FEAD22242EAC9
:1051100043524FEAD323A7FB02864FEAD02040EA4E
:10512000415007FB03661EEA0E0F4FEAD12105FB33
:10513000026658BFA6EB0056B6EB00564FEA520E79
:105140004EEAC37E18EB0E0E56EB530EBDD518EB90
:1051500002085E417F1C55F10005B6E74FF480154B
:105160004FF000074FF000064FF00008ADE7F0BC2D
:105170004FF0000001F1C04101F00041BDE80081A5
:1051800011EA0C1F0CEA131500D00CE013EA0C1FF7
:1051900000F025804FF00000F0BC81EA030101F02F
:1051A0000041BDE80081F0BCBDE8004181EA030197
:1051B00000F098B9F0BCBDE8004170B500F044F9CA
:1051C000097EFC3E00F007B881EA03014FF00000C1
:1051D00001F00041704781EA030100F083B9F0BC9F
:1051E000BDE800414FF0000021497047FFFDFBF989
:1051F000F7F5F4F2F0EEEDEBE9E8E6E4E3E1E0DE0A
:10520000DDDBDAD8D7D5D4D3D1D0CFCDCCCBCAC87B
:10521000C7C6C5C4C2C1C0BFBEBDBCBBBAB9B8B7A2
:10522000B6B5B4B3B2B1B0AFAEADACABAAA9A8A895
:10523000A7A6A5A4A3A3A2A1A09F9F9E9D9C9C9B63
:105240009A9999989797969595949393929191900E
:105250008F8F8E8E8D8C8C8B8B8A8989888887879F
:105260008685858484838382828181800000FF0714
:105270000000F87F4FEA1153A3F58063D3F11E03BA
:10528000A8BFD3F1200C08DB4FF0004242EAC12254
:1052900052EA505232FA03F0704709420BD4102BF5
:1052A000C4BF0020704703F5787CBCF1FF3F05D0F8
:1052B0004FF0FF3070474FF00000704770B500F0BE
:1052C000C3F800BF4992248000207047F0E7B0FA8D
:1052D00080F310FA03F10AD0C3F11D0303F58063D4
:1052E0004FEA41504FEA035202EBD12170474FF091
:1052F00000007047DFF848C170B51CEA111E1EBFE0
:105300001CEA13159EEA0C0F95EA0C0F00F06F8053
:1053100081EA030423EA4C134EEAD47E21EA4C11BD
:1053200041F4801143F48013AE44A1FB024CA0FB76
:105330000365AEF17F7E361955EB0C05A1FB034CDE
:105340004CF10003A0FB021C16EB0C06654153F167
:105350000003094218BF46F0010613F4007F0BD189
:105360004FEA03314FEA0530340341EA155140EA70
:1053700016506FF003020AE04FEAC3214FEAC5203E
:10538000F40241EA555140EA56506FF0020202EB36
:105390002E4201EB025585EACE710AD05FEA440C39
:1053A00018BF24F0004450F1000041F1000120EA50
:1053B000D47040F2FE7C624500D270BDA84214BF9A
:1053C0004FF080444FF04044002E08BF0024BEF14F
:1053D000806FA8BFA1F1C041BDE8704080F282801B
:1053E0004FF0000001F1C04101F0004170479EEA1A
:1053F0000C0F0CEA131518BF95EA0C0F06D04FF0EE
:10540000000081EA030E0EF0004170BD00F01CF8B0
:105410008900013E00F007B800F009B84FEA430CDC
:105420005FEA5C5C08D081EA030100F05BB84FEAF8
:10543000410C5FEA5C5CF6D14FF000000149704717
:105440000000FF070000F87F0EF1020E2EF0030EA1
:105450005EF8046B364205D4012A43EB030515F5CB
:10546000001F12D8012841EB010C1CF5001F0CD8BD
:105470000ED14FEAD17C15F5001F0CEB4C0C0CF152
:10548000020C08BF4CEBD37C04E04FF0080C01E0A9
:105490004FEAD37C0CEB4C0526FA05F606F007061E
:1054A000B6F1040C06D20EEB860CBDE870404CF051
:1054B000010C6047DFE80CF0090B02024FF00041DD
:1054C0004FF00000A1F5002170BD194610460128DB
:1054D00051EB010418BFD4F5001484BF002001F083
:1054E000004170BD0808A0F500114FEA3101704776
:1054F0004FF04070E1EE100A704701000200040016
:10550000060008000A000C00100020004000800087
:105510000001010101030701000008040204080161
:105520000101000000000000000001020304060762
:105530000809000000000102030400000000000050
:10554000000000000000000000000000000000005B
:10555000000000000000000000000000000000004B
:105560000000000000000000000000008001800139
:105570008001800180018001800180018001800123
:105580008001800180010000000080018001000096
:105590000000000000000000000000000000CC003F
:1055A000CC00CC00CC00CC00CC00000000000000FF
:1055B00000000000000000000000000000000000EB
:1055C00000000000000000000000000000000000DB
:1055D000000000000000600C600C600C300630061B
:1055E000FE1FFE1F300638071803FE1FFE1F18039C
:1055F00018038C018C018C01000000008000E00386
:10560000F80F9C0E8C1C8C188C009800F801E00799
:10561000800E801C8C188C189C18B80CF00FE003BE
:10562000800080000000000000000000000000007A
:105630000E181B0C110C11061106110311039B010E
:105640008E01C038C06C604460443044304418441B
:10565000186C0C380000000000000000E001F003AE
:105660003807180618063003F001F000F8009C31E6
:105670000E33061E061C061C063FFC73F0210000BC
:1056800000000000000000000000000000000C000E
:105690000C000C000C000C000C00000000000000CE
:1056A00000000000000000000000000000000000FA
:1056B00000000000000000000000000000020003E5
:1056C0008001C000C0006000600030003000300089
:1056D0003000300030003000300060006000C0005A
:1056E000C0008001000300020000000020006000F4
:1056F000C0008001800100030003000600060006D0
:1057000000060006000600060006000300038001F4
:105710008001C000600020000000000000000000C8
:10572000000000000000C000C000D806F807E0013B
:1057300030033807000000000000000000000000F7
:105740000000000000000000000000000000000059
:1057500000000000000080018001800180018001C4
:10576000FC3FFC3F8001800180018001800100003E
:105770000000000000000000000000000000000029
:105780000000000000000000000000000000000019
:105790000000000000000000000000008001800107
:1057A0000001000180000000000000000000000077
:1057B00000000000000000000000000000000000E9
:1057C0000000E007E007000000000000000000000B
:1057D00000000000000000000000000000000000C9
:1057E00000000000000000000000000000000000B9
:1057F000000000000000000000000000C000C00029
:10580000000000000000000000000000000C000C80
:105810000006000600060003000300038003800169
:1058200080018001C000C000C00060006000000076
:10583000000000000000000000000000E003F0078E
:10584000380E180C0C180C180C180C180C180C1816
:105850000C180C180C18180C380EF007E003000098
:1058600000000000000000000000000000018001B6
:10587000C001F00198018801800180018001800150
:105880008001800180018001800180018001000091
:10589000000000000000000000000000E003F80F1E
:1058A000180C0C180C1800180018000C0006000347
:1058B0008001C000600030001800FC1FFC1F0000C9
:1058C000000000000000000000000000E001F807F8
:1058D000180E0C0C0C0C000C0006C003C007000CCA
:1058E000001800180C180C18180CF807E00300003A
:1058F000000000000000000000000000000C000E8E
:10590000000F000F800DC00C600C600C300C180CE8
:105910000C0CFC3FFC3F000C000C000C000C0000C9
:10592000000000000000000000000000F80FF80F69
:10593000180018000C00EC03FC071C0E001C0018DB
:10594000001800180C181C0C180EF807E0030000D3
:10595000000000000000000000000000C007F00F81
:10596000381C181818000C00CC03EC0F3C0E1C1C43
:105970000C180C180C18181C380EF007E003000067
:10598000000000000000000000000000FC1FFC1FE1
:10599000000C00060006000380038001C001C00067
:1059A000E000600060007000300030003000000057
:1059B000000000000000000000000000E003F0070D
:1059C000380E180C180C180C3806F007F007180CD5
:1059D0000C180C180C180C18380CF80FE003000009
:1059E000000000000000000000000000E003F007DD
:1059F000380E1C0C0C180C180C181C1C381EF81B2C
:105A0000E0190018000C000C1C0EF807F001000053
:105A10000000000000000000000000000000000086
:105A20000000000000008001800100000000000074
:105A30000000000000000000000080018001000064
:105A40000000000000000000000000000000000056
:105A50000000000000008001800100000000000044
:105A60000000000000000000000080018001000133
:105A700000018000000000000000000000000000A5
:105A8000000000000000000000000010001C800F5B
:105A9000E003F8001800F800E003800F001C00107D
:105AA00000000000000000000000000000000000F6
:105AB00000000000000000000000F81F00000000CF
:105AC0000000F81F000000000000000000000000BF
:105AD00000000000000000000000000000000000C6
