:020000040800F2
:1000000098070020C1010008092D0008C927000831
:10001000052D0008210A0008293900080000000009
:100020000000000000000000000000003D36000855
:10003000250A000800000000393600084136000893
:10004000DB010008DB010008DB010008DB01000820
:10005000DB010008DB010008DB010008DB01000810
:10006000DB010008DB010008DB010008DB01000800
:10007000DB010008DB010008DB010008DB010008F0
:10008000DB010008DB010008DB010008DB010008E0
:10009000DB010008DB010008DB010008DB010008D0
:1000A000DB010008DB010008DB010008DB010008C0
:1000B00061360008DB010008DB010008DB010008F5
:1000C000DB010008DB010008DB010008DB010008A0
:1000D000DB010008113900081D390008DB010008A8
:1000E000DB010008DB010008DB010008DB01000880
:1000F000DB010008DB010008DB010008DB01000870
:10010000DB010008DB010008DB010008DB0100085F
:10011000DB010008DB010008DB010008DB0100084F
:10012000DB010008DB010008DB010008DB0100083F
:10013000DB010008DB010008DB010008DB0100082F
:10014000DB010008DB010008DB010008DB0100081F
:10015000DB010008DB010008DB010008DB0100080F
:10016000DB010008DB010008DB010008DB010008FF
:10017000DB010008DB010008DB01000800000000D3
:10018000DB010008DB010008DB010008DB010008DF
:10019000DB010008DB010008DB010008DB010008CF
:1001A000DB010008DB010008DB010008DFF80CD0F0
:1001B00000F0BCFB004800473139000898070020D8
:1001C0000648804706480047FEE7FEE7FEE7FEE7F1
:1001D000FEE7FEE7FEE7FEE7FEE7FEE7453600083E
:1001E000AD0100082DE9F05F0546002092469B46D0
:1001F00088460646814640241BE02846414647463D
:10020000224600F075FA53465A46C01A914110D35F
:1002100011461846224600F05CFA2D1A67EB0108D9
:100220004F4622460120002100F053FA17EB000947
:100230004E41201EA4F10104DFDC484631462A4627
:100240004346BDE8F09F421E12F8013F002BFBD150
:1002500011F8013B02F8013B002BF9D1704730B592
:1002600005462A460B4612F8010B13F8014B08B15C
:10027000A042F8D01CB1002802D06D1CF1E728463E
:1002800030BDCAB2401E10F8011F8A4202D00029B8
:10029000F9D100207047421C10F8011B0029FBD146
:1002A000801A704770B5064603F06AFE046805467A
:1002B0000A220021304600F03DFA2C6070BD2DE985
:1002C000FE4F804681EA0300C00F0C46009021F0EB
:1002D000004123F00045B8EB0200A94105D2404699
:1002E000214690461C460B46024623F00040104330
:1002F00047D0270DC7F30A00C3F30A510290401AF2
:10030000019040286BDAC3F3130040F4801B00987F
:10031000924620B10023D2EB030A63EB0B0B01984A
:100320005946C0F14002504600F0D3F906460D464A
:1003300050465946019A00F0EBF910EB0800614174
:10034000002487EA115284EAE7731A4340D0009AE6
:1003500062B3019A012A4FEA075215DC001B61EBD8
:1003600002014FF0004202EA0752CDE90042001CB0
:1003700041F5801132462B4600F05AFA03B0BDE831
:10038000F08F40462146F9E7001B61EB0201001C9B
:1003900041F5801300185B412018A2F5001747EBC8
:1003A000030140EAD570B6196D4111E06D084FEABE
:1003B000360645EAC0754FEA0752001B61EB0201A1
:1003C000001C41F5801149084FEA300000195141E5
:1003D00032462B4603B0BDE8F04F00F01ABA009841
:1003E000012240000023D0EB020263EBE07300988F
:1003F00021464FEAE074B8EB000061EB0401E9E745
:1004000083F000435BE781F0004158E72DE9FE4FA0
:1004100081EA030404F0004421F0004100944FF00D
:10042000000B23F0004350EA01045ED052EA0304BB
:100430005BD0C3F30A54C1F30A552C44A4F2F3343D
:100440000194A0FB0254C1F3130141F48011C3F3E2
:10045000130343F4801301FB024400FB034E840AA0
:10046000970A44EA815447EA8357A4FB0768029538
:100470008D0A05FB07854FEA932C04FB0C542705D6
:10048000029D4FEA065847EA1637B5EB08056EEBB2
:10049000070C870E920E47EA811742EA8312A7FBE8
:1004A0000201B6EB0B0164EB00042B0D43EA0C33A5
:1004B0005E1844EB1C50DA465146E7FB0201C5F3D7
:1004C00013044FEA0B3343EA14534FEA0432019CFE
:1004D00043EA0603A4F10C040294009CCDE900B4A5
:1004E00000F0A6F903B0BDE8F08F00200146F9E75F
:1004F0002DE9F04D81EA030404F0004B21F00045A2
:1005000014464FF0000A23F0004150EA050220D0C3
:1005100054EA01021DD0C5F30A570246C5F313037E
:10052000C1F31300C1F30A5640F4801543F480135D
:10053000A7EB0608101BD64608F2FD3873EB050042
:1005400002D308F1010801E092185B41B8F1000FF5
:1005500003DA00200146BDE8F08D00204FF4801141
:10056000064684460EE0171B73EB050705D3121BE6
:1005700063EB050306434CEA010C49084FEA3000DF
:1005800092185B4150EA0107EDD152EA030012D004
:1005900082EA040083EA0501084305D0101BAB4141
:1005A00006D20122002306E000224FF0004302E0C1
:1005B0006FF0010253101AEB06004CEB085110EBE0
:1005C0000A0041EB0B01BDE8F04D00F022B90EB579
:1005D000C10F80EAE0700844CA07002140F23343AB
:1005E0008DE80E000A460B4600F022F903B000BD6C
:1005F0000EB540F2334102910021CDE900110A46C7
:100600000B4600F015F903B000BD70B5C1F30A52F6
:1006100001F000450024C1F3130140F2FF3341F41F
:1006200080119A4201DA002070BD40F233439A42B1
:10063000A2F2334203DC524200F05AF800E090404C
:100640002C43F1D0404270BD00F0004230F0004039
:100650000AD0C10D01F56071C0F3160042EA0151E4
:10066000C20840071143704700200146704701F05F
:10067000004330B421F0004150EA010206D00A0DD7
:10068000A2F56072C1F31301002A02DC30BC002025
:100690007047440F44EAC104C100E01830BC00EBCD
:1006A000C25000F07FB830B50B4601460020202232
:1006B000012409E021FA02F59D4205D303FA02F56F
:1006C000491B04FA02F52844151EA2F10102F1DCCF
:1006D00030BD202A04DB203A00FA02F100207047E6
:1006E0009140C2F1200320FA03F319439040704770
:1006F000202A04DB203A21FA02F00021704721FA77
:1007000002F3D040C2F120029140084319467047DD
:10071000202A06DBCB17203A41FA02F043EAE073C5
:1007200006E041FA02F3D040C2F1200291400843B2
:10073000194670472DE9F04791460F46804604461A
:10074000002614F8015B2DB100F008F90068405D47
:10075000C007F6D12B2D02D02D2D18D0641E4A468D
:100760003946204600F0FEF827B13968A14201D190
:10077000C7F8008071054FF002040BD540420028F5
:1007800003DD03F0FDFB0460A007BDE8F08746F43D
:100790008066E4E70028F8DA03F0F2FB04606FF00B
:1007A0000040F2E70029A8BF7047401C490008BF7D
:1007B00020F00100704710B4B0FA80FC00FA0CF091
:1007C00050EA010404BF10BC704749B1CCF12004C9
:1007D00021FA04F411FA0CF118BF01212143084356
:1007E000A3EB0C01CB1D4FEA00614FEA102042BF82
:1007F000002010BC704700EBC35010440029A4BF78
:1008000010BC7047401C490008BF20F0010010BC1C
:10081000704710B5141E73F1000408DA401C41F152
:10082000000192185B411A4301D120F0010010BD74
:100830002DE9F04D92469B4611B1B1FA81F202E0EA
:10084000B0FA80F220329046FFF743FF04460F468D
:1008500040EA0A0041EA0B0153465A46084313D0C6
:10086000114653EA010019D0C8F140025046FFF783
:100870003FFF05460E46504659464246FFF729FFC0
:10088000084305D0012004E020463946BDE8F08D3C
:100890000020054346EAE0762C4337430A98630577
:1008A000E40AA0EB08000022FD0A44EA47540A309B
:1008B00002D500200146E9E7010510196941DDE98B
:1008C000084500196941BDE8F04DA2E7C1F30A529D
:1008D000C1F3130140F2FF3341F480119A4202DA6E
:1008E00000200146704740F233439A42A2F233425D
:1008F00002DC5242FFF7FCBEFFF7EBBE30B5041E30
:1009000071F1000404DB4FF00044404264EB01014C
:10091000141E73F1000405DB1C464FF000435242E5
:1009200063EB0403994208BF904230BD1CB50948EF
:100930000090094801900546009C06E0E06840F000
:10094000010394E8070098471034AC42F6D3FFF750
:1009500031FC000090520008B05200080048704777
:10096000FC4800082DE9F05F824600780027154614
:100970008B460AF10104B946302801D09DB113E03D
:1009800014F8010B0127782803D0582801D045B16D
:100990000AE00DB1102D07D10027102514F8010B26
:1009A00002E0082500E00A250026B0460EE005FB1F
:1009B000080005FB06F1012701EB10461FFA80F83D
:1009C000B6F5803F00D3B94614F8010B294600F074
:1009D00018F80028EBDABBF1000F05D00FB1641E48
:1009E00000E05446CBF80040B9F1000F06D003F008
:1009F000C7FA02210160C81EBDE8F09F48EA064020
:100A0000FAE73A2800D2303820F02002412A01D3F8
:100A1000A2F13700884201D34FF0FF307047000049
:100A2000FEE700007047000070B5D0B00446FFF745
:100A300032FC6D46024626A1284603F073FA28468A
:100A4000FFF729FC40F25416C2F2000682B230468B
:100A500029464FF4FA7301F0EBFD10AD30462946FC
:100A6000FF224FF4FA7301F0A5FC28463E21FFF760
:100A700008FC48B32046FFF70EFC40F25415C2F2C2
:100A8000000582B2284621464FF4FA7301F0D0FDEA
:100A900045F28D21C0F60001284600224FF4FA737A
:100AA00001F0C6FD10AC28462146FF224FF4FA7330
:100AB00001F080FC0AA12046FFF7D1FB002818BFF7
:100AC000012050B070BD00BF002050B070BD00BF0D
:100AD00041542B43495053454E443D25640D0A0073
:100AE00053454E44204F4B007047000070B581B015
:100AF0000022009290F83C20012A03D102210846EE
:100B000001B070BDD1F800E00122BEF10A0F1FFA5A
:100B10008EFC80F83C2009D34FEA4C02036812FA9D
:100B20008EF2A2F11E0403F10C0204E003680EEB46
:100B30004E0403F1100207251668A54026EA0505B4
:100B400015608D68166805FA04F43443146049682A
:100B5000062907D801EB81014A1F194651F8345F75
:100B60000FE000BF0C2901EB810105D8A1F12302A0
:100B7000194651F8305F04E0A1F14102194651F8DD
:100B80002C5F1F24944025EA04040C600CFA02F246
:100B90000C6842F2043CC4F2010C2243ACF54174EF
:100BA000A3420A6006D0002180F83C10084601B03C
:100BB00070BD00BF1221BEF1110FC1F2000118BFBC
:100BC0008E453BD1DCF800208E4522F48002CCF823
:100BD0000020DCF8002042F40002CCF80020E2D132
:100BE00040F20C01C2F2000109684DF68362C4F2C2
:100BF0001B32A1FB0212910C01EB81014900009113
:100C000000990029CFD000BF0099013900910099C7
:100C10000029C8D000990139009100990029C2D05B
:100C200000990139009100990029BCD0009901393F
:100C3000009100990029E7D1B5E700BFBEF1120F7E
:100C4000B1D1DCF8001021F40001CCF80010DCF880
:100C5000001041F48001CCF80010A4E70068C06CDB
:100C600070470000002804BF0120704710B50446FB
:100C7000006C00283ED0206CC00645D4206C41F2A8
:100C800002118843023042F204312064C4F20101AF
:100C9000086820F4403008600A6894E809101A4394
:100CA000D4F810E00A604168012321F480714160AA
:100CB0004168C0F6007341EA0E214160416821F0AD
:100CC00040714160416841EA0C014160816821F452
:100CD00000618160E168826811438160A16A826875
:100CE000994222F070628260826813D122F04051F2
:100CF00019E000BF204600F065F80020606484F829
:100D00003C00206CC006B9D50120002184F83C10BD
:100D100010BD00BF11438160816821F040518160A6
:100D2000E16A826811438160816821F0020181607B
:100D30008168227E94F8203041EA42018160416856
:100D400083B141F40061416041684EF2000221F438
:100D500060414160616ACFF6FF72436802EB413146
:100D6000194301E021F400614160C16A40F2000CC6
:100D700021F47001C162E2696169CFF6F07CC36A57
:100D80000CEB02521A43C262826822F40072826043
:100D900094F83020836843EA42228260826822F419
:100DA00080628260826842EA812181600020606402
:100DB000216C012262F301012164002184F83C10BE
:100DC00010BD000080B586B042F200210068C4F278
:100DD0000101002288420592049201D006B080BD34
:100DE00043F630000092C4F20200436943F480638A
:100DF0004361436903F480630093009B009203689E
:100E000043F020030360006800F020000090009889
:100E10004FF4806001900320CDE9020201F5724099
:100E200001A900F05BF906B080BD000070B5044672
:100E300000680D468268520544BF80685FEAC05072
:100E40002ED400F029FA21680A6892071BD4002DDD
:100E500048D00646681C0DD10868800713D408687E
:100E600080075CBF08685FEA80700CD40868800760
:100E7000F2D508E000F010FA801BA84232D82168B1
:100E800008688007F6D56FF012000860206C40F407
:100E900000702064886810F0405F0BD0002070BDA7
:100EA000206C40F020002064002084F83C000120E9
:100EB00070BD00BF207E0028F0D1C86A10F4700F0A
:100EC00002D088684005E9D4206C20F4807020644A
:100ED000206CC004E2D4206C40F0010020640020AB
:100EE00070BD00BF206C40F004002064002084F836
:100EF0003C00032070BD000081B00021009190F8FB
:100F00003C10012902BF022001B070470122016894
:100F100080F83C208A68D20729D18A684DF683631D
:100F200042F001028A6040F20C02C2F20002126832
:100F3000C4F21B33A2FB03239A0C02EB4202009281
:100F4000009AA2B1009A013A0092009A7AB1009AEE
:100F5000013A0092009A52B1009A013A0092009A26
:100F60002AB1009A013A0092009A002AEAD18A68CE
:100F7000D20729D0026C40F201739A4302F58072C5
:100F800002644A68520504D5026C012363F30D32F2
:100F90000264026C0023D2044FF0000244BF426C92
:100FA00022F0060242F2043C426480F83C306FF0CA
:100FB0002200C4F2010C0860DCF80000C00607D073
:100FC000ACF54170814227D0002001B0704700BFCE
:100FD00042F20000C4F20100814217D042F2002028
:100FE000C4F2010081420DD042F20010C4F20100AF
:100FF0008142E9D1DCF80000C00607D0ACF5827070
:101000008142E1D1DCF80000C006DDD4886810F030
:10101000405FD9D109E000BF4FF60450CFF6FF7012
:101020005CF8000010F0405FCED1886840F080404E
:101030008860002001B0704790F83510022909D16E
:10104000052180F835100068016821F00101016078
:10105000002070478021416501207047B0B50446EB
:1010600000F01AF9054640F20400C2F200000078D0
:10107000611C18BF044400BF00F00EF9401BA042E1
:10108000FAD3B0BDB0B540F2D4046FF00501C2F29E
:1010900000040D1A204600F0A5FDA9B220684FF605
:1010A000F9729142416211D84FF6FA71426A92B2D6
:1010B0008A420BD2426A92B28A4207D2426A92B202
:1010C0008A4203D2426A92B28A42EFD340F2D400FB
:1010D000C2F20000BDE8B04000F0A8BD2DE9F04F1D
:1010E00082B000F13E4202F1FF72870542F20046F3
:1010F00047EA9227C4F202060A2243F6004EB042A3
:1011000008BF0922C4F2010E092F38BF3A464FF03A
:10111000010A002600274FF00008009208E000BFF7
:10112000023708F10108202F06F1040600F0AA801A
:101130000A680AFA08F412EA0409F1D0D1F804C0E6
:10114000BCF1120F00F298800AFA0CF212F0061F9E
:1011500000F092800323826803FA07F5CB68AA4364
:10116000BB401A43826042684FEA1C13A24303FA51
:1011700008F34FEA480A6FEA050B1A434260C26857
:101180008B6802EA0B0203FA0AF31A434CF01003CD
:10119000122BC26013D16FF0030202EA580202441C
:1011A00006F01C050F23D2F820C003FA05F40B69E2
:1011B0002CEA0404AB4023431362D1F804C0026854
:1011C0000CF0030302EA0B0203FA0AF31A435FEA84
:1011D000CC034FF0010A0260A2D5002243F644037B
:1011E0000192C4F202031A684FF6084C42F480429E
:1011F0001A601A68CFF6FF7C02F480420192019ACD
:1012000028F00302724452F80C3006F00C050F244B
:10121000AC40A343009C04FA05F52B4342F80C3084
:10122000DEF800204B6842EA0905DC0358BF22EAD9
:101230000905CEF80050DEF804209C0342EA0905B7
:1012400058BF22EA0905CEF80450DEF80820DC0277
:1012500042EA090543F60C4458BF22EA0905CEF8D4
:101260000850C4F2010422689B0242EA090558BFF3
:1012700022EA0905256053E70322BA406FEA020B10
:10128000BA467CE702B0BDE8F08F0000002A08BF34
:10129000090481617047000040F29430C2F20000FE
:1012A0000068704740F2040040F29431C2F200003E
:1012B000C2F2000100780A6810440860704700001C
:1012C00080B543F60040C4F20200016841F40071A9
:1012D0000160016841F480610160016841F480713E
:1012E0000160032000F086F8002000F005F800F00F
:1012F00027F8002080BD000070B540F20406C2F25D
:10130000000640F20C013278C2F200014FF47A7309
:101310000968B3FBF2F20446B1FBF2F1084600F0B3
:1013200095FB0F2C4FF0010508D838B94FF0FF306E
:1013300021460022002500F031F87460284670BD77
:1013400082B0002043F640010190C4F202014A68D5
:1013500042F480424A604A6802F480420192019A53
:101360000090086840F080500860086800F08050E5
:101370000090009802B07047002848BF704700F006
:101380001F01012202FA01F11C2202EAD0004EF2F2
:101390000012CEF2000281507047000010B54EF6E8
:1013A0000C5CCEF2000CDCF80030C3F3022E8EF0A1
:1013B0000704042C28BF0424BEF103034FF0FF3EB2
:1013C0000EFA04F438BF0023A14399400EFA03F348
:1013D0009A43114300F00F0200F160430901043AFF
:1013E00003F564436244002848BF02F10C031970FE
:1013F00010BD00004EF60C51CEF200010A684FF607
:10140000FF031A4060F30A2242F0806040F0FD7052
:101410000860704770B582B00020019043F640002C
:10142000C4F202000168402641F08051016000686A
:10143000C4F20E2600F080500190019847F2040596
:101440000120C4F200053060FFF726FF044600BF0C
:101450002868C00306D4FFF71FFF001BB0F57A7F92
:10146000F6D90EE001207060FFF716FF044600BFBA
:101470002868800308D4FFF70FFF001BB0F57A7FC0
:10148000F6D9032002B070BD002002B070BD00008C
:10149000002804BF012070472DE9F04143F60808F9
:1014A000C4F202080446D8F8F8030D4600F00F0015
:1014B000884207D288F8F853D8F8F80300F00F00F4
:1014C000A84277D12068810717D5410705D5D8F8FC
:1014D000001041F4E051C8F80010010705D5D8F814
:1014E000001041F46041C8F80010D8F80010A2685C
:1014F00021F0F0011143C8F80010C00740D1D8F81E
:10150000F80300F00F00A84207D988F8F853D8F87C
:10151000F80300F00F00A8424CD12068410707D51E
:10152000D8F80010E26821F4E0511143C8F8001027
:10153000000708D5D8F80000216920F4604040EA8F
:10154000C100C8F8000000F07DF8D8F8001044F69B
:101550000012C1F30311C0F60002515C40F20C020C
:1015600020FA01F140F20800C2F200000068C2F265
:1015700000021160FFF7C0FE0020BDE8F08100BF4F
:101580006068811E022907D258F8081C89015CBFD7
:101590000120BDE8F08111E0012807D158F8081CAE
:1015A00089035CBF0120BDE8F08107E058F8081C02
:1015B000890703D40120BDE8F08100BFD8F80010EE
:1015C00021F003010843C8F80000FFF765FE064656
:1015D00041F28837D8F80000616800F00C00B0EBE9
:1015E000810F8CD0FFF758FE801BB842F2D9032040
:1015F000BDE8F08140F20C0043F60801C2F20000A1
:10160000C4F202010068096844F61012C1F3822195
:10161000C0F60002515CC8407047000040F20C0068
:1016200043F60801C2F20000C4F202010068096832
:1016300044F61012C1F34231C0F60002515CC840BA
:101640007047000010B543F60404C4F20204606859
:1016500000F00C0008280BD0042819BF42F200400B
:10166000C0F2F40047F64000C0F27D1010BD00BF8C
:10167000206821682368490247F64001C0F27D11C5
:1016800000F03F02C3F388105CBF42F20041C0F299
:10169000F401A1FB00010023FEF7A4FD2168022252
:1016A000C1F3014102EB4101B0FBF1F010BD0000BC
:1016B000002804BF012070472DE9F04182B00446A4
:1016C000007843F60006C007C4F202060CD0B068EA
:1016D00000F00C00042840F081803068800303D5BE
:1016E0006068002800F06081207880071BD5B06812
:1016F00010F00C0F09D0B06800F00C00082840F082
:1017000087807068400200F183803068800703D5CD
:10171000E068012840F048813068216920F0F80035
:1017200040EAC10030602078000713D420784007D9
:101730002AD4A569002D00F03281B06800F00C00B9
:10174000082840F0A180012D40F00E81012002B058
:10175000BDE8F0816069002840F20000C4F2472033
:1017600000F07E800121C0F8801EFFF795FD054640
:10177000706F8007DAD4FFF78FFD401B0228F7D97E
:10178000032002B0BDE8F081306C5FEAC0080AD4E3
:1017900000200190306C40F080503064306C00F0DC
:1017A00080500190019847F20007C4F200073868A2
:1017B000C00547D4386840F480703860FFF76CFD8E
:1017C000054600BF3868C0053CD4FFF765FD401BE7
:1017D0000228F7D9032002B0BDE8F081B06800F01C
:1017E0000C00082803D1706840023FF576AF6068AE
:1017F000B0F5803F07D0B0F5A02F40F09980306859
:1018000040F480203060306840F48030306099E0EF
:10181000E06800285CD00020C4F24720012101606C
:10182000FFF73AFD054600BF306880073FF574AF0B
:10183000FFF732FD401B0228F6D9032002B0BDE8B5
:10184000F08100BFA068012805D0052854D1306F71
:1018500040F004003067306F40F00100306755E021
:101860000021C0F8801EFFF717FD0546706F800746
:101870007FF55CAFFFF710FD401B0228F6D903206F
:1018800002B0BDE8F08100BF0027C4F24727002066
:101890003866FFF701FD022D05460DD13068800145
:1018A00040F18680FFF7F8FC401B02284FF0030050
:1018B000F4D902B0BDE8F081306880016FD5FFF740
:1018C000EBFC401B02284FF00300F5D9F1E700BF05
:1018D0000020C4F2472000210160FFF7DDFC05462F
:1018E000306880077FF51FAFFFF7D6FC401B02284A
:1018F0004FF00300F4D9DCE7316F002821F001013B
:101900003167316F21F00401316773D0FFF7C4FCF8
:10191000054641F2883700BF306F80077CD4FFF75F
:10192000BBFC401BB842F7D9032002B0BDE8F081F0
:101930003168002821F480313160316821F4802140
:10194000316073D0FFF7A8FC054600BF3068800304
:101950003FF5CAAEFFF7A0FC401B6428F6D9032070
:1019600002B0BDE8F08100BF7068E16900F4800258
:101970008A4219D1216A00F03F028A4214D147F607
:10198000C071626A014091420ED1A16A00F44032F6
:101990008A4209D1E16A00F07060884204D10020D7
:1019A00002B0BDE8F08100BF012002B0BDE8F081C7
:1019B00004F11C052FCD084340EA8210D9034FF6ED
:1019C000FF729143A1F5803140EA056008437060E1
:1019D00001203866FFF760FC044600BF30688001D4
:1019E000DDD4FFF759FC001B02284FF00300F5D9A6
:1019F0005FE700BFFFF750FC054641F2883700BFA4
:101A0000306F800708D5FFF747FC401BB8424FF006
:101A10000300F5D94DE700BFB8F1000F3FF589AEDF
:101A2000306C20F08050306483E600BFFFF734FC58
:101A3000054600BF306880037FF556AEFFF72CFCEB
:101A4000401B64284FF00300F4D932E7411E002008
:101A5000B0EB116F1CBF012070474EF21002CEF2A6
:101A6000000251604EF62351CEF20001F0230B70BC
:101A700007219060116070477047000070470000B8
:101A800090F83C20012A4FF0020254D010B580F8A3
:101A90003D200268D2F804E0D2F808C00C682EF0AD
:101AA0007003234341F2FF74C4F20004A242536066
:101AB0000EDC40F2FF73C4F200039A4216DCB2F16E
:101AC000804F2BD040F20043C4F2000324E000BF5B
:101AD00040F2FF33C4F201039A4213DC41F60003E3
:101AE000C4F200039A4219D0002313E040F6000329
:101AF000C4F200039A4211D040F60043C4F200033E
:101B00000AE000BF44F20003C4F201039A4205D088
:101B100040F20043C4F201039A4204D149682CF018
:101B20008003194391600121002280F83D1080F864
:101B30003C20BDE81040104670470000002804BF5C
:101B40000120704710B5044690F83D0028B90020E8
:101B500084F83C00204600F00DF8022084F83D0097
:101B60002068211D01F082FD012084F83D00002045
:101B700010BD000080B582B0006841F20041C4F29F
:101B8000000188421CD0B0F1804F28D10020019084
:101B900043F64000C4F202000168002241F0010156
:101BA00001600068002100F00100019001981C20F4
:101BB000FFF7F4FB1C2002B0BDE88040FFF7DCBB60
:101BC0000020009043F64000C4F20200016841F09A
:101BD00020010160006800F020000090009802B031
:101BE00080BD00000146022081F83D00086882683F
:101BF00002F00702062A03D0026842F001020260E6
:101C00000122002081F83D20704700000068C16873
:101C100041F00101C160816801F00701062903D08C
:101C2000016841F001010160002070470146022077
:101C300081F83D00086841F21113026A1A4205D08A
:101C40000122002081F83D20704700BF026A40F267
:101C500044431A42F4D1026822F0010202600122D8
:101C6000002081F83D20704790F83C20012A4FF079
:101C7000020200F0C28080B580F83D20D0F800C09C
:101C80004FF67772DCF8083023EA0202CCF808201D
:101C90000B683F2B1CDD5F2B20DD602B50D0B3F594
:101CA000005F6DD0702B40F0A080D1E901E3C968DE
:101CB000DCF8082043EA0E0322F47F4243EA0121C4
:101CC0001143CCF80810DCF8081041F077018AE0E5
:101CD0001F2B29DC63B3102B2AD086E0402B63D066
:101CE000502B40F08280D1F804E0C968DCF8203045
:101CF000DCF8202022F00102CCF82020DCF81820AB
:101D000022F0F00242EA011123F00A0242EA0E0236
:101D1000CCF81810CCF82020DCF8081041F057015E
:101D200021F020015FE000BF202B01D0302B5CD1DF
:101D3000DCF8081021F07001194341F0070152E06E
:101D4000D1F804E0C968DCF8203023F01003CCF8A7
:101D50002030DCF81830DCF8202023F4704322F027
:101D6000A00243EA013142EA0E12CCF81810CCF876
:101D70002020DCF8081041F0670121F0100132E06A
:101D8000D1E901E3C968DCF8082043EA0E0322F434
:101D90007F4243EA01211143CCF80810DCF8081017
:101DA00041F480411FE000BFD1F804E0C968DCF8CD
:101DB0002030DCF8202022F00102CCF82020DCF8D2
:101DC000182022F0F00242EA011123F00A0242EA4E
:101DD0000E02CCF81810CCF82020DCF8081041F0E6
:101DE000470121F03001CCF808100121002280F8D1
:101DF0003D1080F83C20BDE8804010467047000050
:101E00007047000010B5016804460869800744BFA8
:101E1000C8685FEA807039D40869400744BFC86861
:101E20005FEA40703ED40869000744BFC8685FEAB3
:101E3000007045D40869C00644BFC8685FEAC06046
:101E40004AD40869C0071CBFC8685FEAC07051D196
:101E50000869000644BFC8685FEA006052D4086998
:101E6000400644BFC8685FEA406053D408698006F2
:101E700046BFC8685FEA806010BD6FF02002204650
:101E80000A61BDE81040FFF7F9BD00BF6FF0020026
:101E90000861012020778869800743D02046FFF73A
:101EA000AFFF45E06FF004000861022020778869E9
:101EB00010F4407F40D02046FFF7A2FF42E000BF71
:101EC0006FF00800086104202077C86980073DD0C2
:101ED0002046FFF795FF3FE06FF0100008610820F3
:101EE0002077C86910F4407F3AD02046FFF788FF7A
:101EF0003CE000BF6FF001000861204600F03EF8B2
:101F00002168A5E76FF0800008612046FFF7B4FD67
:101F10002168A4E76FF040000861204600F04AF80D
:101F20002168A3E7204600F025F8204600F024F8B9
:101F30002168002020776FE7204600F01BF820463C
:101F400000F01AF82168002020776CE7204600F0A6
:101F500011F8204600F010F821680020207769E78A
:101F6000204600F007F8204600F006F8216800201F
:101F7000207766E7704700007047000040F2940148
:101F8000C2F20001884218BF704710B540F2180431
:101F9000C2F2000404F11002002000210F2301F01E
:101FA0002FFB04F1210200200A210F23BDE810407D
:101FB00001F026BB704700007047000010B50446D2
:101FC0000068C16821F49071C160416921F001018C
:101FD00041614169490613D5416921F040014161E0
:101FE000606B68B143F2B571C0F600010165FFF79F
:101FF00023F868B1606B016D8847002010BD00BFF9
:102000000020E085202084F83A002046FFF7D4FF26
:10201000002010BD70470000B0B50546006801689B
:10202000C368446901F02F02202A03F0200213D173
:1020300092B195F83A10222940F01881A968B1F5BB
:10204000805F41D12A69A96A4068002A64D0C0B281
:1020500021F8010B64E000BF5FEA017C1EBF04F0C1
:10206000010E03F4907414EB0E0439D10A0617D54F
:1020700013F0800214D095F83910212940F0F68031
:10208000AA68296AB2F5805F32D10A886FF35F22AD
:1020900042602A69002A14BF0131023129622BE013
:1020A000490640F1E38013F0400108BFB0BDC168AC
:1020B00021F04001C1602021284685F83910BDE893
:1020C000B04000F07FBB00BF296940680029A96AC1
:1020D00018BF00F07F004A1CAA62087021E000BF10
:1020E000CC0718BF13F4807336D14B073AD440E0C5
:1020F0004A1C2A6209784160E98C01390A04E984A2
:1021000040F0B480C16821F08001C160C16841F035
:102110004001C160B0BD00BF6FF35F2021F8020B2A
:10212000A962E88D01380104E88540F09F802868A5
:10213000C16821F02001C160C16821F48071C160D3
:10214000416921F0010141612021284685F83A10BA
:10215000BDE8B04000F008BAEB6B43F00103EB635D
:102160004B0706D5BEF1000F03D0EB6B43F0020323
:10217000EB638B0706D5BEF1000F03D0EB6B43F08A
:102180000403EB63BCF1000F06D55EEA020303D043
:10219000EB6B43F00803EB63EB6B002B66D0890617
:1021A0003AD5CAB395F83A10222935D1A968B1F5C4
:1021B000805F07D12A69A96A40687AB1C0B221F864
:1021C000010B0FE0296940680029A96A18BF00F0D7
:1021D0007F004A1CAA62087005E000BF6FF35F2011
:1021E00021F8020BA962E88D411EE98528680904DF
:1021F00012D1C16821F02001C160C16821F4807151
:10220000C160416921F001014161202085F83A0057
:10221000284600F0A9F928684169EA6B01F04001FD
:1022200002F00802891823D0C16821F49071C160BE
:10223000416921F001014161202185F83A1041698D
:1022400049061BD5416921F040014161686BA8B185
:1022500043F2A971C0F600010165FEF7EDFE28B159
:10226000686B016DBDE8B040084700BFB0BD00BF5E
:102270002846FFF7CFFE0020E863B0BD2846BDE842
:10228000B040FFF7C7BE0000002804BF0120704720
:1022900010B5044690F8390028B9002084F83800B9
:1022A000204600F021F8242084F839002068C16815
:1022B00021F40051C160204601F0A4FA20680169B0
:1022C00021F490410161416921F02A014161C16815
:1022D00041F40051C16000202021E06384F83910EE
:1022E00084F83A1010BD000010B586B0006844F2C2
:1022F0000042C4F2000200219042CDE90411CDE970
:102300000211019122D041F20001C4F20101884280
:102310004DD1002043F630010090C4F202014A6919
:10232000252442F010024A614A6902F0100200922C
:10233000009A0090086840F001000860086800F00A
:102340000100009000984FF4C06019E043F630009F
:102350000091C4F202000269262442F400320261B4
:10236000026902F400320092009A0091016841F083
:1023700001010160006800F00100009000980C204D
:102380000190022002900020039003200490072077
:1023900005900020C4F2020001A9FEF79FFE20462E
:1023A00000210022FEF7FAFF2046FEF7E5FF06B007
:1023B00010BD00002DE9F041044690F83A002028B5
:1023C0000ED10E4600294FF0010000F09F80174605
:1023D000002A08BFBDE8F08194F83800012803D135
:1023E0000220BDE8F08100BF012084F838004FF0E2
:1023F000000822201D46C4F83C8084F83A00FEF70D
:102400004BFFA785E78584F83880E18D002979D0D6
:10241000074605F101080AE021694068002918BF54
:1024200000F07F0006F8010BE08D00286AD0E08DF7
:102430000138E0852068A1680268B1F5805F4FEA45
:10244000826111D100292DD4B8F1000F1CD0002DCC
:1024500044D000BFFEF720FFC11B2068A9423DD831
:1024600001688906F6D51DE00029D5D4B8F1000F22
:1024700020D09DB3FEF710FFC11B2068A9422DD8C4
:1024800001688906F6D5C7E7016889060AD401689C
:1024900089065CBF01685FEA816103D4016889062F
:1024A000F2D500BF2169406891B1C0B226F8010B96
:1024B000BAE700BF01688906AED4016889065CBF2F
:1024C00001685FEA8161A7D401688906F2D5A3E7B4
:1024D0006FF35F2026F8020BA6E700BFC16821F466
:1024E000D071C160416921F001014161202084F86F
:1024F000390084F83A00002084F838000320BDE851
:10250000F08100BF202084F83A000020BDE8F0816F
:10251000034690F83A0020280AD100294FF0010024
:1025200018BF002A00D1704793F83800012801D164
:10253000022070479962002022219A85DA85D863AB
:1025400083F83A10196883F83800CA6842F4807238
:10255000CA604A6942F001024A61CA6842F0200238
:10256000CA6070470000000070B544F2004604469F
:10257000C4F20006006806F54C41884227D140F2BB
:102580001800C2F20000851D2846FDF78BFEC0F141
:102590006400FEF71CF89FED220B53EC102BFDF7A7
:1025A000A7FF9FED210B53EC102BFDF72FFFFEF73C
:1025B0005EF840F21001C2F20001086040F214100F
:1025C000C2F2000029460222FFF7A2FF2068B042B3
:1025D00018BF70BD40F21800C2F200008388B3F546
:1025E000FF7F11D88678591C40F2941240F2FF15F3
:1025F000C2F20002A9428180D65418BF0A2E05D12A
:10260000002353540121017000218180811C40F27C
:102610005410C2F200000122BDE87040FFF778BFFD
:1026200000000000000059406666666666660A4063
:102630002DE9F041044690F8390020280ED10E46CD
:1026400000294FF0010000F0A6801746002A08BFBD
:10265000BDE8F08194F83800012803D10220BDE8DC
:10266000F08100BF012084F838004FF000082120DD
:102670001D46C4F83C8084F83900FEF70DFEA7849F
:10268000E78484F83880E18C0746002960D005F1A2
:10269000010805E016F8011B4160E18C002958D0C3
:1026A000E08C0138E0842068A1680268B1F5805FA1
:1026B0004FEA02611ED100290ED4B8F1000F2BD0D1
:1026C000002D6BD0FEF7E8FDC11B2068A94265D83C
:1026D00001680906F6D500BF31886FF35F214160BC
:1026E0002169002914BF01360236E18C0029D7D1B7
:1026F0002FE000BF0029CDD4B8F1000F1AD0002D73
:102700004CD000BFFEF7C8FDC11B2068A94245D8C8
:1027100001680906F6D5BDE701680906DCD4016841
:1027200009065CBF01685FEA0161D5D4016809064A
:10273000F2D5D1E701680906ACD4016809065CBF8F
:1027400001685FEA0161A5D401680906F2D5A1E735
:102750002068016849061AD405B3691C0ED10168C6
:10276000490614D4016849065CBF01685FEA41610B
:102770000DD401684906F2D509E000BFFEF78CFDD3
:10278000C11B2068A94209D800684006F6D5202060
:1027900084F839000020BDE8F08100BFC16821F451
:1027A000D071C160416921F001014161202084F8AC
:1027B000390084F83A00002084F838000320BDE88E
:1027C000F081000070470000FEE7000080B586B091
:1027D000002043F6300105900090C4F202010A681F
:1027E00042F002020A60096801F0020100910099BA
:1027F000C02101910121CDE90210049040F2004076
:10280000C4F2020001A9FEF769FC06B080BD000019
:10281000B0B586B040F20044C4F202042046402124
:1028200001220125FEF732FD8020CDE901050020BF
:10283000049001A920460395FEF750FC2046802114
:102840000122FEF723FD0520FEF71CFC2046802117
:102850000022FEF71BFD0520FEF714FC06B0B0BDFC
:1028600010B586B00520FEF70DFC802001900120F8
:1028700040F20044CDE902000020C4F202040490BA
:1028800001A92046FEF72AFC204680210022FEF7FF
:10289000FDFC204640210122FEF7F8FC0520FEF752
:1028A000F1FB204680210122FEF7F0FC0520FEF717
:1028B000E9FB06B010BD0000B0B586B00520FEF7FC
:1028C000E1FB802040F2004401900020C4F20204A9
:1028D000CDE9020001A92046FEF700FC2046402178
:1028E0000122FEF7D3FC0520FEF7CCFB256920462C
:1028F00040210022FEF7CAFC05F0800006B0B0BD02
:10290000B0B586B0054680200190012040F2004419
:10291000CDE902000020C4F20204049001A920467F
:10292000FEF7DCFB204640210022FEF7AFFCEA095F
:1029300020468021FEF7AAFC0520FEF7A3FB2046D7
:1029400040210122FEF7A2FC0520FEF79BFB20465A
:1029500040210022FEF79AFCC5F380122046802118
:10296000FEF794FC0520FEF78DFB20464021012256
:10297000FEF78CFC0520FEF785FB20464021002257
:10298000FEF784FCC5F3401220468021FEF77EFC52
:102990000520FEF777FB204640210122FEF776FC5A
:1029A0000520FEF76FFB204640210022FEF76EFC5B
:1029B000C5F3001220468021FEF768FC0520FEF7D3
:1029C00061FB204640210122FEF760FC0520FEF756
:1029D00059FB204640210022FEF758FCC5F3C002F7
:1029E00020468021FEF752FC0520FEF74BFB2046D7
:1029F00040210122FEF74AFC0520FEF743FB20465A
:102A000040210022FEF742FCC5F3800220468021CF
:102A1000FEF73CFC0520FEF735FB20464021012255
:102A2000FEF734FC0520FEF72DFB20464021002256
:102A3000FEF72CFCC5F3400220468021FEF726FC61
:102A40000520FEF71FFB204640210122FEF71EFC59
:102A50000520FEF717FB204640210022FEF716FC5A
:102A600005F0010220468021FEF710FC0520FEF74C
:102A700009FB204640210122FEF708FC0520FEF755
:102A800001FB204640210022FEF700FC06B0B0BD4D
:102A9000B0B584B040F24C0042F200210123002482
:102AA000C2F20000C4F20101C0F6007301250394D4
:102AB0004FF48032047680F82040C0E90A34C561C2
:102AC00080F8304080E81600C0E903444561FEF715
:102AD000C9F8002818BFFEF707F80820CDE900055F
:102AE00040F24C00C2F2000069460294FDF7FEFF7E
:102AF000002818BFFDF7F8FF04B0B0BD2DE9F04382
:102B000087B0002743F6300006970197C4F2020011
:102B1000016840F6000441F0100101600168C4F250
:102B2000020401F01001019101990197016804F577
:102B3000006541F0200101600168012201F02001DF
:102B40000191019901970168042641F0800101601B
:102B500001684FF0010801F080010191019901978E
:102B6000016841F001010160016801F0010101917A
:102B700001990197016841F0040101600068042196
:102B800000F00400019001982846FEF77FFB2046E4
:102B9000102100224FF01009FEF778FBCDE9026802
:102BA00002AE28463146CDE90477FEF797FA204673
:102BB0003146CDE90298CDE90477FEF78FFA07B0E8
:102BC000BDE8F08380B586B040F2940044F23F2C1B
:102BD0000021C2F20000C0F20F0C0591CDE90311F3
:102BE000CDE900114FF08042B323C0E9021C01611E
:102BF0008021C0E900238161FEF7A0FF002818BFF3
:102C0000FDF772FF4FF48050029040F29400C2F240
:102C1000000002A9FFF728F8002818BFFDF764FF9D
:102C200040F29400C2F200006946FEF729FF002836
:102C300018BFFDF759FF06B080BD000080B582B017
:102C400040F2D40041F200420021C2F20000C4F27E
:102C5000000259234FF0010CCDE90011C0E9002317
:102C6000C0E9021C8161FEF769FF002818BFFDF76B
:102C70003BFF40F2D400C2F200006946FEF700FFBD
:102C8000002818BFFDF730FF02B080BD80B540F2CC
:102C9000141041F20001C2F20000C4F2010100234D
:102CA0004FF00C0C4FF4E13280E80E00C0E9033322
:102CB000C0E905C3C361FFF7E7FA002808BF80BD7C
:102CC000BDE88040FDF710BF80B540F2541044F2DB
:102CD0000041C2F20000C4F2000100234FF00C0CCE
:102CE0004FF4E13280E80E00C0E90333C0E905C3C8
:102CF000C361FFF7C9FA002808BF80BDBDE8804066
:102D0000FDF7F2BEFEE700007047000070B500243A
:102D1000A4F15006FFF77CFD7820FFF7F1FDFFF7E7
:102D2000CBFD00200025FFF7EBFDFFF7C5FDF0B25E
:102D3000FFF7E6FDFFF7C0FDFFF792FDFFF768FD27
:102D40007820FFF7DDFDFFF7B7FD0020FFF7D8FD86
:102D5000FFF7B2FD0020FFF7D3FDFFF7ADFDFFF752
:102D60007FFDFFF755FD7820FFF7CAFDFFF7A4FDB3
:102D70000020FFF7C5FDFFF79FFD1020FFF7C0FD06
:102D8000FFF79AFDFFF76CFDFFF742FD7820FFF794
:102D9000B7FDFFF791FD4020FFF7B2FDFFF78CFD77
:102DA0000020FFF7ADFDFFF787FDFFF759FD681C19
:102DB00045B2B5F1FF3FE7DCE0B20134072828BF98
:102DC00070BDA5E780B5FFF723FD7820FFF798FDDC
:102DD000FFF772FD0020FFF793FDFFF76DFDAE20BA
:102DE000FFF78EFDFFF768FDFFF73AFDFFF710FDD7
:102DF0007820FFF785FDFFF75FFD0020FFF780FDDE
:102E0000FFF75AFD0020FFF77BFDFFF755FDFFF7A9
:102E100027FDFFF7FDFC7820FFF772FDFFF74CFD63
:102E20000020FFF76DFDFFF747FD1020FFF768FD5D
:102E3000FFF742FDFFF714FDFFF7EAFC7820FFF7EC
:102E40005FFDFFF739FD0020FFF75AFDFFF734FD66
:102E50004020FFF755FDFFF72FFDFFF701FDFFF7BE
:102E6000D7FC7820FFF74CFDFFF726FD0020FFF789
:102E700047FDFFF721FDB020FFF742FDFFF71CFDE6
:102E8000FFF7EEFCFFF7C4FC7820FFF739FDFFF7F2
:102E900013FD0020FFF734FDFFF70EFD8120FFF743
:102EA0002FFDFFF709FDFFF7DBFCFFF7B1FC7820F2
:102EB000FFF726FDFFF700FD0020FFF721FDFFF7DC
:102EC000FBFCFF20FFF71CFDFFF7F6FCFFF7C8FC3B
:102ED000FFF79EFC7820FFF713FDFFF7EDFC0020C5
:102EE000FFF70EFDFFF7E8FCA120FFF709FDFFF754
:102EF000E3FCFFF7B5FCFFF78BFC7820FFF700FD44
:102F0000FFF7DAFC0020FFF7FBFCFFF7D5FCA6205B
:102F1000FFF7F6FCFFF7D0FCFFF7A2FCFFF778FC09
:102F20007820FFF7EDFCFFF7C7FC0020FFF7E8FC77
:102F3000FFF7C2FCA820FFF7E3FCFFF7BDFCFFF79B
:102F40008FFCFFF765FC7820FFF7DAFCFFF7B4FC95
:102F50000020FFF7D5FCFFF7AFFC3F20FFF7D0FCC8
:102F6000FFF7AAFCFFF77CFCFFF752FC7820FFF785
:102F7000C7FCFFF7A1FC0020FFF7C2FCFFF79CFC99
:102F8000C820FFF7BDFCFFF797FCFFF769FCFFF7D0
:102F90003FFC7820FFF7B4FCFFF78EFC0020FFF722
:102FA000AFFCFFF789FCD320FFF7AAFCFFF784FCF6
:102FB000FFF756FCFFF72CFC7820FFF7A1FCFFF78A
:102FC0007BFC0020FFF79CFCFFF776FC0020FFF75E
:102FD00097FCFFF771FCFFF743FCFFF719FC782023
:102FE000FFF78EFCFFF768FC0020FFF789FCFFF776
:102FF00063FCD520FFF784FCFFF75EFCFFF730FC95
:10300000FFF706FC7820FFF77BFCFFF755FC00205C
:10301000FFF776FCFFF750FC8020FFF771FCFFF70D
:103020004BFCFFF71DFCFFF7F3FB7820FFF768FC74
:10303000FFF742FC0020FFF763FCFFF73DFCD820C0
:10304000FFF75EFCFFF738FCFFF70AFCFFF7E0FB39
:103050007820FFF755FCFFF72FFC0020FFF750FC0E
:10306000FFF72AFC0520FFF74BFCFFF725FCFFF7D5
:10307000F7FBFFF7CDFB7820FFF742FCFFF71CFCC6
:103080000020FFF73DFCFFF717FCD920FFF738FCC5
:10309000FFF712FCFFF7E4FBFFF7BAFB7820FFF71E
:1030A0002FFCFFF709FC0020FFF72AFCFFF704FCC8
:1030B000F120FFF725FCFFF7FFFBFFF7D1FBFFF740
:1030C000A7FB7820FFF71CFCFFF7F6FB0020FFF7BB
:1030D00017FCFFF7F1FBDA20FFF712FCFFF7ECFB20
:1030E000FFF7BEFBFFF794FB7820FFF709FCFFF723
:1030F000E3FB0020FFF704FCFFF7DEFB1220FFF7E5
:10310000FFFBFFF7D9FBFFF7ABFBFFF781FB782055
:10311000FFF7F6FBFFF7D0FB0020FFF7F1FBFFF70F
:10312000CBFBDB20FFF7ECFBFFF7C6FBFFF798FBC1
:10313000FFF76EFB7820FFF7E3FBFFF7BDFB0020F6
:10314000FFF7DEFBFFF7B8FB3020FFF7D9FBFFF7F7
:10315000B3FBFFF785FBFFF75BFB7820FFF7D0FBA6
:10316000FFF7AAFB0020FFF7CBFBFFF7A5FB8D20A5
:10317000FFF7C6FBFFF7A0FBFFF772FBFFF748FB6B
:103180007820FFF7BDFBFFF797FB0020FFF7B8FBA8
:10319000FFF792FB1420FFF7B3FBFFF78DFBFFF760
:1031A0005FFBFFF735FB7820FFF7AAFBFFF784FBF7
:1031B0000020FFF7A5FBFFF77FFBAF20FFF7A0FB89
:1031C000FFF77AFBBDE88040FFF74ABBB0B5044685
:1031D000A1F15005FFF71CFB7820FFF791FBFFF7EB
:1031E0006BFB0020FFF78CFBFFF766FBE8B2FFF7F5
:1031F00087FBFFF761FBFFF733FB200900F11005A8
:10320000FFF706FB7820FFF77BFBFFF755FB00205D
:10321000FFF776FBFFF750FB2846FFF771FBFFF740
:103220004BFBFFF71DFBFFF7F3FA7820FFF768FB76
:10323000FFF742FB0020FFF763FBFFF73DFB04F0C5
:103240000F00FFF75DFBFFF737FBBDE8B040FFF76E
:1032500007BB00002DE9F04381B01D4643B2C0F327
:10326000C01001EB400923EAE3785FFA89F1404698
:10327000A2F12004FFF7AAFF102DE0B240F03C813C
:1032800044F640320101C0F60002555C02EB001624
:10329000FFF7BEFA7820FFF733FBFFF70DFB402066
:1032A000FFF72EFBFFF708FB2846FFF729FBFFF788
:1032B00003FBFFF7D5FAFFF7ABFA7820FFF720FB07
:1032C000FFF7FAFA4020FFF71BFBFFF7F5FA7078DB
:1032D000B778F4783579FFF713FBFFF7EDFAFFF7CE
:1032E000BFFAFFF795FA7820FFF70AFBFFF7E4FA39
:1032F0004020FFF705FBFFF7DFFA3846FFF700FB3A
:10330000FFF7DAFAFFF7ACFAFFF782FA7820FFF757
:10331000F7FAFFF7D1FA4020FFF7F2FAFFF7CCFAFD
:103320002046FFF7EDFAFFF7C7FAFFF799FAFFF724
:103330006FFA7820FFF7E4FAFFF7BEFA4020FFF7B4
:10334000DFFAFFF7B9FA2846FFF7DAFAFFF7B4FA1F
:10335000FFF786FA7579FFF75BFA7820FFF7D0FA66
:10336000FFF7AAFA4020FFF7CBFAFFF7A5FA2846A5
:10337000FFF7C6FAFFF7A0FAFFF772FAB579FFF781
:1033800047FA7820FFF7BCFAFFF796FA4020FFF7DC
:10339000B7FAFFF791FA2846FFF7B2FAFFF78CFA6F
:1033A000FFF75EFAF579FFF733FA7820FFF7A8FA0E
:1033B000FFF782FA4020FFF7A3FAFFF77DFA2846CD
:1033C000FFF79EFAFFF778FAFFF74AFA09F10101D1
:1033D0005FFA88F0C9B2FFF7F9FE347AFFF718FAFE
:1033E0007820FFF78DFAFFF767FA4020FFF788FA99
:1033F000FFF762FA2046FFF783FAFFF75DFAFFF75F
:103400002FFA747AFFF704FA7820FFF779FAFFF7BA
:1034100053FA4020FFF774FAFFF74EFA2046FFF701
:103420006FFAFFF749FAFFF71BFAB47AFFF7F0F9E2
:103430007820FFF765FAFFF73FFA4020FFF760FAC0
:10344000FFF73AFA2046FFF75BFAFFF735FAFFF786
:1034500007FAF47AFFF7DCF97820FFF751FAFFF763
:103460002BFA4020FFF74CFAFFF726FA2046FFF729
:1034700047FAFFF721FAFFF7F3F9347BFFF7C8F9B2
:103480007820FFF73DFAFFF717FA4020FFF738FAE8
:10349000FFF712FA2046FFF733FAFFF70DFAFFF7AE
:1034A000DFF9747BFFF7B4F97820FFF729FAFFF70B
:1034B00003FA4020FFF724FAFFF7FEF92046FFF752
:1034C0001FFAFFF7F9F9FFF7CBF9B47BFFF7A0F983
:1034D0007820FFF715FAFFF7EFF94020FFF710FA11
:1034E000FFF7EAF92046FFF70BFAFFF7E5F9FFF7D8
:1034F000B7F906F10F006CE044F6181100EB40003C
:10350000C0F6000111F8104001EB4007FFF780F909
:103510007820FFF7F5F9FFF7CFF94020FFF7F0F932
:10352000FFF7CAF92046FFF7EBF9FFF7C5F9FFF7F8
:1035300097F9FFF76DF97820FFF7E2F9FFF7BCF98B
:103540004020FFF7DDF9FFF7B7F97878BE78FD780E
:103550003C79FFF7D5F9FFF7AFF9FFF781F9FFF7EE
:1035600057F97820FFF7CCF9FFF7A6F94020FFF7CD
:10357000C7F9FFF7A1F93046FFF7C2F9FFF79CF949
:10358000FFF76EF9FFF744F97820FFF7B9F9FFF775
:1035900093F94020FFF7B4F9FFF78EF92846FFF7BB
:1035A000AFF9FFF789F9FFF75BF9FFF731F97820F9
:1035B000FFF7A6F9FFF780F94020FFF7A1F9FFF721
:1035C0007BF92046FFF79CF9FFF776F9FFF748F9FA
:1035D000781D0478FFF71CF97820FFF791F9FFF7C1
:1035E0006BF94020FFF78CF9FFF766F92046FFF7EB
:1035F00087F9FFF761F901B0BDE8F043FFF730B993
:10360000F0B581B01C461378A3B10D460646571E8F
:10361000F0B2E9B2DAB22346FFF71CFE0836F0B288
:10362000782888BF0235BB7888BF0026002B07F1B9
:103630000107EDD101B0F0BD7047000070470000F8
:10364000FDF730BE4EF68850CEF20000016841F41E
:10365000700101604FF0006140F8801C704700006D
:1036600040F29400C2F20000FEF7CCBB10B540F669
:10367000FF3E0368C4F2000E40F2004C7045C4F2F5
:10368000010C27DCB0F1804F31D040F20042C4F28F
:10369000000290422BD040F60002C4F20002904299
:1036A00025D041F6FF72C4F20002904229DC704539
:1036B0003CDCB0F1804F5FD040F20042C4F2000227
:1036C000904259D040F60002C4F20002904253D01A
:1036D00056E000BF40F60042C4F20002904206D01D
:1036E000604504D00022C4F201029042D9D14A6858
:1036F00023F07003134341F6FF72C4F200029042BC
:10370000D5DD43F6FF72C4F20102904222DC42F2A0
:103710000002C4F2000290422ED00022C4F2010244
:10372000904229D0604527D02AE000BF40F60042F1
:10373000C4F2000290421FD041F60002C4F200021F
:10374000904219D041F60042C4F20002904213D0D8
:1037500016E000BF44F20002C4F2010290420BD016
:1037600044F60002C4F20102904205D044F2004245
:10377000C4F20102904203D1CA6823F44073134398
:1037800023F080024B69D1F800E08C681A43026094
:10379000C46240F48062C0F828E0624504BF096951
:1037A00001630121416110BD806B0021C185C1848D
:1037B000FEF730BC806B0021C185202180F83A10D3
:1037C000FEF7FABB83B010B5A1B0844623A801ACC4
:1037D0000EC023AB204680216246009300F0B6FB6A
:1037E0002046FCF758FD82B240F21410C2F20000ED
:1037F00021464FF0FF33FEF71BFF21B0BDE810401C
:1038000003B07047B0B50446006804F108030ECB5E
:103810000569194325F440552A430261626949F25A
:103820000C651143E269C368B2F5004F23EA050352
:1038300041EA030141EA0201C1604169A36921F43F
:10384000407141EA0301416141F2004140F480606E
:10385000C4F2010108D14FF69C758842C0F6FF758D
:103860000CD1FDF7DBFE0BE04FF69C758842C0F6ED
:10387000FF7529D1FDF7D2FE28E000BFFDF7BAFEA3
:1038800063681921A0FB01015A00DB0FFCF7AAFCB9
:1038900048F21F51C5F2EB11A0FB01235A0905F1B3
:1038A000805302FB0300322303EBC000A0FB0101A5
:1038B0004FF4F87000EA111000EB0210C1F342114E
:1038C000084421688860B0BDFDF794FE6368192143
:1038D000A0FB01019A009B0FFCF784FC48F21F51EA
:1038E000C5F2EB11A0FB01235A0902FB05003223AC
:1038F00003EB0010A0FB0101F02000EA511000EBE7
:103900000210C1F34311084421688860B0BD000073
:1039100040F21410C2F20000FEF77EBB40F25410D9
:10392000C2F20000FEF778BBFEE7000000000000D6
:10393000ADF5087D47F20005C4F20005FDF7C0FCB7
:10394000002443F64000CDE94C44CDE94A440894B4
:10395000C4F2020001680F2641F080510160006846
:1039600000F08050089008980894286840F440407F
:1039700028602868022500F440400890089801203B
:1039800048904FF4803049904FF480004F90D820F9
:10399000CDE951050420539048A84E955096FDF767
:1039A00087FEFDF737FD4FF4A0500B904FF4805089
:1039B0000C9008A80521CDE908650A94FDF768FD7B
:1039C000FFF79CF8FFF73AF9FFF760F9FFF760F8A7
:1039D000FFF77AF9FFF7F6F840F25414C2F2000448
:1039E0000FF2744120460D224FF4FA73FEF720FEC9
:1039F00048AD20462946FF224FF4FA73FEF7DAFC61
:103A000045F26D21C0F600012846FCF728FC18B9E4
:103A10000FF25440FFF7D6FE40F25414C2F20004F5
:103A20000FF2604120460E224FF4FA73FEF700FEBB
:103A300048AD20462946FF224FF4FA73FEF7BAFC40
:103A400045F26D21C0F600012846FCF708FC18B9C4
:103A50000FF24040FFF7B6FE45F2301108ACC0F659
:103A600000010FF254420FF25C43204600F05AFA74
:103A70002046FCF710FC40F25415C2F2000582B259
:103A80002846214642F21073FEF7D2FD48AC284684
:103A90002146FF2242F21073FEF78CFC45F26D21A5
:103AA000C0F600012046FCF7DAFB78B10FF22040A7
:103AB000FFF788FE47F20000C4F2000000F5CC30AA
:103AC00010210122FDF7E2FB06E000BF45F2DE1007
:103AD000C0F60000FFF776FE45F2611145F25F2265
:103AE00008ADC0F60001C0F60002284641F690730A
:103AF00000F018FA2846FCF7CEFB40F25414C2F24C
:103B0000000482B2204629464FF4FA73FEF790FD76
:103B100048AD20462946FF224FF4FA73FEF74AFCCF
:103B200045F28621C0F600012846FCF798FB45F2D5
:103B3000102145F2F612C0F60001C0F6000200287E
:103B400008BF11460846FFF73DFE45F27020C0F65B
:103B50000000FCF769FF45F2252145F2C912C0F6C5
:103B60000001C0F60002002808BF11460846FFF712
:103B700029FE45F24511C0F6000120460E224FF401
:103B8000FA73FEF755FD48AE20463146FF224FF44A
:103B9000FA73FEF70FFC45F26D25C0F600053046BE
:103BA0002946FCF75CFB45F28F1145F2B412C0F6D2
:103BB0000001C0F60002002808BF11460846FFF7C2
:103BC00001FE45F25411C0F6000120460C224FF4CC
:103BD000FA73FEF72DFD48AE20463146FF224FF422
:103BE000FA73FEF7E7FB30462946FCF738FB45F24F
:103BF000A012BBA1C0F60002002808BF114608466B
:103C0000FFF7E0FDFEF7E2FDFFF7DCF8FFF77EF8D7
:103C100040F21809C2F2000940F2141009F106013D
:103C2000C2F200000222FEF773FC40F29400C2F2DE
:103C30000000FDF7EBFF9FED800B9FED811B51EC2A
:103C4000100B9FED810BCDE9061051EC110B9FED90
:103C5000808BCDE9041051EC100B0025CDE902104A
:103C600040F24C04C2F200042046FDF745F920461C
:103C70004FF0FF31FDF7DAF82046FCF7EFFFFCF7D5
:103C8000B7FCDDE90632FCF7C1FBDDE90432FCF7E5
:103C9000BDFBFCF7ECFC0746FCF7D6FCDDE9023285
:103CA00041EC190BFCF724FC56EC184B224633462A
:103CB000FCF7ACFB22463346FCF701FBFCF7A5FC06
:103CC00009F1100A45F25122044650461121C0F66E
:103CD00000028DED009B00F00BF909F1210B45F27C
:103CE0007D1258461121C0F60002234600F000F96B
:103CF00040F21416C2F200063046514611224FF42B
:103D00007A73FEF795FC40F21000C2F200000068E2
:103D10008DF83051CDE94A55CDE94855FCF794FC72
:103D200041EC100B48AC45F2402220461121C0F670
:103D300000028DED000B00F0DBF830462146112229
:103D40004FF47A73FEF774FC3046594611224FF453
:103D50007A73FEF76DFCFDF79FFA99F80110804623
:103D6000012929D0D9BBD9F80C0000F6B831884513
:103D700042F21071084401D9804530D380452ED9D4
:103D800040F21000C2F2000090ED000A01EE107A3D
:103D9000B4EE410AF1EE10FA21DD47F20000C4F260
:103DA000000000F5D03004210022FDF76FFAC9F8B9
:103DB0000C80012011E000BFD9F80C0000F6B830EB
:103DC00080450CD947F20000C4F2000000F5D03065
:103DD00004210122FDF75AFA002089F8010050461B
:103DE0005946FCF730FA40F25414C2F2000420465F
:103DF000FEF7E4F85046FCF74EFA82B220465146F0
:103E00004FF4FA73FEF714FC09F102012046012277
:103E1000FEF77EFB4FF47A70FDF720F999F8000069
:103E200000283FF41DAF40F29410C2F2000089F860
:103E30000050FFF7C7FC13E7000000000000303F10
:103E40006666666666660A406666666666660AC096
:103E5000000000000000594041542B43574D4F448F
:103E6000453D310D0A000000576946692041542B39
:103E700043574D4F44453D31204661696C6564218F
:103E80000A00000041542B4349504D4F44453D30FA
:103E90000D0A00004661696C656420746F207365CB
:103EA00074206E6F6E2D7472616E73706172656EC8
:103EB00074206D6F64650A005265646D69204B372C
:103EC0003000000061633132323334353637000060
:103ED0005769466920636F6E6E65637465640A0096
:103EE00041542B43495053454E442C204F4B0A001C
:103EF0000FB47CB50C0009AD01D0611E00E00021BB
:103F0000CDE90001064B6A462946089800F00EF9F3
:103F1000002C02D0009A002111707CBC5DF814FBCB
:103F20005B4800080FB4084B10B504A902AA039817
:103F300000F0FCF8044602A9002000F099FC20469D
:103F400010BC5DF814FB0000714800087CB50C0043
:103F50001D461646014601D0601E00E00020CDE956
:103F60000010064B6A462946304600F0DFF8002C68
:103F700002D0009A002111707CBD00005B4800084F
:103F8000004870470000002002E008C8121F08C166
:103F9000002AFAD170477047002001E001C1121FCA
:103FA000002AFBD1704700002DE9FF5F82B000219D
:103FB000DDE90430020DDDF840B0034318D044F6CB
:103FC0001050A2F2FF3242431514119801281FD05D
:103FD000A5EB0B00401C5FEA000A4FF000064E4FB5
:103FE000DFF83891B046504615D5CAF1000413E009
:103FF000119801244AA3012801D16FEA0B0102980C
:10400000119AC0E90031C0E9024206B0BDE8F09F54
:10401000CBF10000DFE704460021404A491842EB9B
:104020000450CDE9001012E0E00707D032463B46CD
:1040300040464946FCF7EAF98046894632463B4607
:1040400010461946FCF7E2F906460F466410002CAC
:10405000EAD1DDE90401DDE90023BAF1000F06DA57
:10406000FCF7D4F942464B46FCF7D0F905E0FCF7E3
:104070003FFA42464B46FCF73BFA04460E46002206
:10408000284BFCF73BFC03D84FF0FF30014607E01C
:104090000022254B20463146FCF711F9FCF716FCAF
:1040A000102409E0002C0ADB0A220023FCF79AF80E
:1040B000039B30321A55641E50EA0102F2D1641C8F
:1040C000039AC4F111031444119A012A03D0012266
:1040D00008430DD10AE0084304D000204FF0110B33
:1040E000119072E7A3EB0B056D1E0DE05B4504DD3F
:1040F0004FF0000205F1010504E003DA4FF0000281
:10410000A5F10105002AECD002981199C0E902310D
:10411000C0E9004579E70000000014400000F03FCE
:10412000300000000000F0430000E03F2DE9FF4FA9
:1041300095B09B468946064600250FE2252877D193
:1041400000242746F84A0121059400E0044316F8AC
:10415000013F203B01FA03F01042F7D130782A28C2
:1041600011D06FF02F033078A0F13002092A16D851
:10417000059A44F0020402EB820203EB420210446F
:10418000761C0590EFE759F8042B0592002A03DA14
:10419000504244F40054059044F00204761C3078F8
:1041A0002E2816D116F8010F44F004042A280DD049
:1041B0006FF02F023078A0F13003092B09D807EBFC
:1041C000870302EB4303C718761CF3E759F8047B17
:1041D000761C30786C280FD006DC4C2817D0682865
:1041E0000DD06A2814D104E0742810D07A280FD199
:1041F0000DE044F400140AE044F4801401E044F4B7
:1042000040147278824202D104F58014761C761C28
:10421000307866280BD013DC582877D009DC0028CA
:1042200075D04528F6D04628F4D047281AD19DE10C
:1042300018E0632835D0642879D0652812D195E13B
:10424000702873D008DC6728F1D069286FD06E28F9
:104250000DD06F2806D1B5E073282CD0752875D005
:10426000782874D05A46179990476D1C75E1C4F3AD
:104270000250022809D003280DD0D9F800100428D4
:104280000DD00D6009F1040967E1D9F80010EA17B3
:10429000C1E90052F6E7D9F800100D80F2E70D7081
:1042A000F0E719F8041B8DF8001000208DF80100CC
:1042B000EA46012003E059F804AB4FF0FF306107F4
:1042C0004FF0000102D40DE008F101018846B94227
:1042D0000FDA8045F8DB1AF808100029F4D108E05D
:1042E00008F1010188468142FADB1AF8081000291A
:1042F000F6D105985B46A0EB080721463846179A89
:1043000000F094FA284400EB080507E04DE029E1AD
:104310000DE01AF8010B5A4617999047B8F10108B9
:10432000F7D25B4621463846179A13E142E00A224B
:104330000092C4F302524FF0000A022A08D059F842
:1043400004CB032A4FEAEC710AD00DE029E02AE001
:1043500009F1070121F00702F2E802C1914609E0E4
:104360000FFA8CFC4FEAEC71042A03D14FFA8CFC53
:104370004FEAEC71002907DA0A460021DCF1000C53
:1043800061EB02012D2202E0220504D52B228DF8DB
:104390000420012203E0E20701D02022F7E7904643
:1043A00059E00A2102E010220DE010214FF0000A2E
:1043B00000910BE010224FF0000A44F0040408279B
:1043C000009203E008224FF0000A0092C4F3025268
:1043D000022A05D059F804CB0021032A08D009E0AD
:1043E00009F1070121F00702F2E802C1914605E058
:1043F0001FFA8CFC042A01D10CF0FF0C4FF00008CE
:10440000220728D5702806D0009B83F0100353EABA
:104410000A0305D00EE040228DF80420012208E0B6
:104420005CEA010206D030228DF804208DF80500E8
:1044300002229046009B83F0080353EA0A030AD144
:104440005CEA010201D1620705D530228DF8042013
:104450004FF001087F1E582804D034A003900EA806
:1044600002900DE036A0F9E753466046009AFBF74C
:10447000B9FE84460398825C0298401E0290027046
:104480005CEA0100F0D1029806A9081A00F1200A9E
:10449000600702D524F4803400E00127574502DD8F
:1044A000A7EB0A0000E0002000EB0A01009005984D
:1044B0004144401A0590E00306D45B462146179A12
:1044C000059800F0B3F90544002706E001A85A4614
:1044D000C05D179990476D1C7F1C4745F6DBE003D4
:1044E0000CD55B462146179A059800F09FF90544C4
:1044F00004E030205A46179990476D1C0099481ED9
:1045000000900029F5DC08E0029802995A460078EC
:10451000491C0291179990476D1CBAF10001AAF14C
:10452000010AF1DC65E10000092801003031323375
:1045300034353637383961626364656600000000DF
:1045400030313233343536373839414243444546C9
:104550000000000000F058F90544761C307800286F
:104560007FF4ECAD19B02846BDE8F08F620700D4A7
:10457000062709F1070222F0070CFCE80223E146B6
:1045800003F000485FEA080C02D00FF2702C0DE037
:104590005FEA045C02D50FF2682C07E05FEAC47C96
:1045A00002D00FF2602C01E0AFF2700C4FF0FF3838
:1045B00023F00043CDF850C065280CD006DC452818
:1045C00009D046281DD047283DD13DE0662818D0A7
:1045D00067287ED138E00021112F01DB112000E097
:1045E000781CCDE9000106A90EA8FFF7DDFCDDE986
:1045F0000F010E9A03910021009207F1010A049124
:104600004DE04FF000400097CDE9011006A90EA83B
:10461000FFF7CAFCDDE90F0203920E9B11990022FD
:10462000DDF80CA00093049211B9791C00EB010A8B
:10463000B7EB0A0004D4C0F1FF3007F1010A04907F
:10464000AAEB0700019044E0012F00DA01270021C6
:10465000112F01DD112000E03846CDE9000106A947
:104660000EA8FFF7A1FCDDE90F010E9A03910021CE
:1046700004910092BA4621070CD40399514500DAFF
:104680008A46BAF1010F05DD009AAAF10101515CD9
:10469000302908D0B84202DA10F1040F06DA0121FD
:1046A000CDE9011015E0AAF10101E9E7002805DCD8
:1046B000049901440491AAEB000102E0411C514518
:1046C00000DD8A460499401A401C01904FF00040DA
:1046D0000290200704D40198504501DBCDF80480F6
:1046E00000208DF84F0002980DF14F07B0F1004FF8
:1046F00025D02B200E9002984FF0020800280CDAEB
:10470000404202902D200E9007E00A210298FBF70C
:10471000CAFF3031029007F8011DB8F10001A8F17D
:104720000108F2DC02980028EFD1791E0E9808707B
:10473000307800F0200040F0450007F8020D12A884
:10474000C01B00F107081498007800B1012000EBAD
:104750000A01019801EBE07105984144401A401E9E
:104760000590E00306D45B462146179A059800F0B1
:104770005DF805441498007818B15A461799904787
:104780006D1CE00324D55B462146179A059800F07E
:104790004DF805441CE00498002807DBDDE903011F
:1047A000884203DD0098405C179901E0179930209A
:1047B0005A469047049805F10105401C0490019861
:1047C000401E019004D12E205A46179990476D1C27
:1047D000BAF10001AAF1010ADDDC05E017F8010BCE
:1047E0005A46179990476D1CB8F10001A8F10108CD
:1047F000F4DC5B462146179A0598ABE62D000000D5
:104800002B000000200000002DE9F04104460025A7
:104810001E461746880404D405E039462020B047D8
:104820006D1C641EF9D52846BDE8F0812DE9F041E4
:10483000044600251E469046C80301D5302700E0F7
:104840002027880404D505E041463846B0476D1C52
:10485000641EF9D52846BDE8F0814A68002A06D0D2
:104860000A68531C0B6010704868401E486070470F
:104870000A68531C0B601070704700404040404075
:104880004040404041414141414040404040404023
:10489000404040404040404040404005020202024B
:1048A0000202020202020202020202202020202052
:1048B000202020202002020202020202909090900A
:1048C00090901010101010101010101010101010E8
:1048D000101010101010020202020202888888884C
:1048E0008888080808080808080808080808080848
:1048F0000808080808080202020240007B48000875
:10490000000000000000000001020304060708097F
:10491000000000000102030400000000000000008D
:10492000002F000000000700070000147F147F1410
:1049300000242A7F2A120062640813230036495596
:10494000225000000503000000001C22410000006E
:1049500041221C000014083E08140008083E080804
:10496000000000A06000000808080808000060605F
:104970000000002010080402003E5149453E00009E
:10498000427F4000004261514946002141454B3180
:10499000001814127F10002745454539003C4A494C
:1049A00049300001710905030036494949360006BE
:1049B0004949291E00003636000000005636000026
:1049C00000081422410000141414141400004122A1
:1049D000140800020151090600324959513E007C79
:1049E0001211127C007F49494936003E4141412263
:1049F000007F4141221C007F49494941007F09094C
:104A00000901003E4149497A007F0808087F0000FB
:104A1000417F4100002040413F01007F08142241B6
:104A2000007F40404040007F020C027F007F04086E
:104A3000107F003E4141413E007F09090906003ECA
:104A40004151215E007F09192946004649494931F3
:104A50000001017F0101003F4040403F001F204016
:104A6000201F003F4038403F0063140814630007D4
:104A70000870080700615149454300007F4141002B
:104A800000552A552A55000041417F0000040201CB
:104A900002040040404040400000010204000020A9
:104AA00054545478007F48444438003844444420E7
:104AB00000384444487F00385454541800087E0994
:104AC00001020018A4A4A47C007F0804047800005C
:104AD000447D4000004080847D00007F1028440019
:104AE0000000417F4000007C04180478007C08042A
:104AF000047800384444443800FC24242418001866
:104B0000242418FC007C0804040800485454542051
:104B100000043F444020003C4040207C001C2040DA
:104B2000201C003C4030403C004428102844001C1D
:104B3000A0A0A07C004464544C4414141414141415
:104B40000000000000000000000000000000000065
:104B5000000000F8000000000000003330000000FA
:104B600000100C06100C0600000000000000000001
:104B700040C07840C0784000043F04043F04040073
:104B8000007088FC08300000001820FF211E000083
:104B9000F008F000E018000000211C031E211E0098
:104BA00000F00888700000001E212324192721101E
:104BB00010160E00000000000000000000000000C1
:104BC000000000E018040200000000071820400068
:104BD00000020418E0000000004020180700000058
:104BE000404080F0804040000202010F01020200BC
:104BF000000000F0000000000101011F01010100A0
:104C0000000000000000000080B070000000000004
:104C1000000000000000000000010101010101018D
:104C20000000000000000000003030000000000024
:104C300000000000806018040060180601000000F9
:104C400000E010080810E000000F102020100F00F6
:104C5000001010F8000000000020203F202000007D
:104C600000700808088870000030282422213000D5
:104C700000300888884830000018202020110E00DD
:104C80000000C02010F8000000070424243F240086
:104C900000F80888880808000019212020110E005B
:104CA00000E0108888180000000F112020110E006D
:104CB00000380808C83808000000003F0000000065
:104CC0000070880808887000001C222121221C0026
:104CD00000E010080810E0000000312222110F004F
:104CE000000000C0C00000000000003030000000E4
:104CF0000000008000000000000080600000000054
:104D0000000080402010080000010204081020006C
:104D100040404040404040000404040404040400B7
:104D2000000810204080000000201008040201004C
:104D3000007048080808F00000000030360100004C
:104D4000C030C828E810E0000718272423140B00FF
:104D50000000C038E0000000203C23020227382079
:104D600008F8888888700000203F202020110E005D
:104D7000C030080808083800071820202010080054
:104D800008F808080810E000203F202020100F003D
:104D900008F88888E8081000203F20202320180009
:104DA00008F88888E8081000203F20000300000071
:104DB000C03008080838000007182020221E020012
:104DC00008F808000008F808203F210101213F20D1
:104DD000000808F8080800000020203F20200000FC
:104DE00000000808F8080800C08080807F000000EC
:104DF00008F888C028180800203F20012638200025
:104E000008F8080000000000203F2020202030008B
:104E100008F8F800F8F80800203F003F003F2000A5
:104E200008F830C00008F808203F200007183F00AD
:104E3000E01008080810E0000F10202020100F00DC
:104E400008F808080808F000203F210101010000CF
:104E5000E01008080810E0000F18242438504F0014
:104E600008F8888888887000203F2000030C3020D4
:104E700000708808080838000038202121221C0012
:104E8000180808F8080818000000203F200000005B
:104E900008F808000008F808001F202020201F0044
:104EA0000878880000C83808000007380E010000A4
:104EB000F80800F80008F800033C0700073C03006E
:104EC000081868808068180820302C03032C3020D4
:104ED0000838C800C83808000000203F2000000043
:104EE00010080808C838080020382621202018009B
:104EF000000000FE020202000000007F404040006F
:104F0000000C30C000000000000000010638C000A6
:104F100000020202FE000000004040407F0000004E
:104F20000000040202020400000000000000000073
:104F30000000000000000000808080808080808071
:104F40000002020400000000000000000000000059
:104F500000008080808000000019242222223F204F
:104F600008F8008080000000003F112020110E0092
:104F70000000008080800000000E11202020110021
:104F8000000000808088F800000E112020103F20D3
:104F90000000808080800000001F22222222130057
:104FA000008080F0888888180020203F20200000A2
:104FB0000000808080808000006B94949493600057
:104FC00008F8008080800000203F210000203F2062
:104FD00000809898000000000020203F2020000062
:104FE000000000809898000000C08080807F000052
:104FF00008F8000080808000203F24022D3020002F
:10500000000808F8000000000020203F20200000D9
:105010008080808080808000203F20003F20003FF3
:105020008080008080800000203F210000203F2001
:105030000000808080800000001F202020201F00B2
:10504000808000808000000080FFA12020110E00E1
:105050000000008080808000000E112020A0FF80D2
:10506000808080008080800020203F21200001007F
:1050700000008080808080000033242424241900D4
:10508000008080E0808000000000001F20200000E1
:105090008080000000808000001F202020103F2022
:1050A000808080000080808000010E3008060100B2
:1050B00080800080008080800F300C030C300F0057
:1050C00000808000808080000020312E0E31200082
:1050D000808080000080808080818E7018060100B2
:1050E00000808080808080000021302C22213000D0
:1050F00000000000807C020200000000003F4040F1
:1051000000000000FF00000000000000FF000000A1
:105110000002027C800000000040403F00000000D0
:10512000000601010202040400000000000000006B
:1051300041542B43574A41503D222573222C2225AE
:1051400073220D0A0041542B4349504D4F44453DB5
:10515000310D0A0041542B43495053454E440D0A2A
:105160000041542B43495053544152543D2254431F
:1051700050222C222573222C25640D0A0020202089
:10518000202020202564252520202020200A0041E1
:10519000542B4349504D4F44453D31204F4B0A005D
:1051A00041542B43495053454E442C204661696C71
:1051B00065640A0041542B4349504D4F44453D31ED
:1051C000204661696C65640A002768656C6C6F270E
:1051D0002073656E64206661696C65640A005769B6
:1051E000466920636F6E6E656374696F6E206661D9
:1051F000696C65640A0053657276657220636F6E30
:105200006E656374696F6E206661696C65640A001F
:10521000436F6E6E656374656420746F207365728E
:105220007665720A002768656C6C6F272073656E5F
:1052300074207375636365737366756C6C790A00AB
:105240007468726573686F6C643A252E32665620F6
:1052500000726573756C743A252E326656200031E3
:1052600032312E34302E3130382E3331004F4B0056
:1052700068656C6C6F212121204920616D204553A8
:10528000502D30315300434F4E4E454354000000E3
:10529000B05200080000002018000000883F0008FD
:1052A000C85200081800002080070000983F00083E
:1052B0000000000001000000100000000024F400C5
:0852C0000000004000000000A6
:04000005080001AD41
:00000001FF
