:020000040800F2
:10000000900700205D020008371200083312000834
:1000100035120008D905000801160008000000008C
:100020000000000000000000000000005B1200085B
:10003000DB0500080000000059120008E11200086A
:1000400077020008770200087702000877020008AC
:10005000770200087702000877020008770200089C
:10006000770200087702000877020008770200088C
:10007000770200087702000877020008770200087C
:10008000770200087702000877020008770200086C
:10009000770200087702000877020008770200085C
:1000A000770200087702000877020008770200084C
:1000B000770200087702000877020008770200083C
:1000C000770200087702000877020008770200082C
:1000D00077020008BD1500087702000877020008C3
:1000E000770200087702000877020008770200080C
:1000F00077020008770200087702000877020008FC
:1001000077020008770200087702000877020008EB
:1001100077020008770200087702000877020008DB
:1001200077020008770200087702000877020008CB
:1001300077020008770200087702000877020008BB
:1001400077020008770200087702000877020008AB
:10015000770200087702000877020008770200089B
:10016000770200087702000877020008770200088B
:1001700077020008770200087702000800000000FC
:10018000770200087702000877020008770200086B
:10019000770200087702000877020008770200085B
:1001A00077020008770200087702000800F002F8E2
:1001B00000F044F80AA090E8000C82448344AAF1BD
:1001C0000107DA4501D100F039F8AFF2090EBAE8BB
:1001D0000F0013F0010F18BFFB1A43F0010318477B
:1001E0008C150000AC150000103A24BF78C878C107
:1001F000FAD8520724BF30C830C144BF04680C602D
:10020000704700000023002400250026103A28BF74
:1002100078C1FBD8520728BF30C148BF0B60704778
:10022000642900F05B806F2900F094800020704703
:100230001FB501F08DFA1FBD10B510BD00F09AF981
:100240001146FFF7F5FF01F019FA00F0B8F903B411
:10025000FFF7F2FF03BC01F0D4F900000948804722
:1002600009480047FEE7FEE7FEE7FEE7FEE7FEE798
:10027000FEE7FEE7FEE7FEE704480549054A064BB0
:1002800070470000E5120008AD0100089001002051
:10029000900700209003002090030020704700008A
:1002A0000FB4044910B503AA029800F035F910BC48
:1002B0005DF814FB2000002009684A0501D540B212
:1002C0007047C905FCD500B2704709684A0501D5D9
:1002D000C0B27047C905FCD580B270472DE9F04126
:1002E0000646002410687529314616A510D0FFF780
:1002F000E3FF002802DA404213A507E031688A07CD
:1003000001D512A502E0490704D511A5012401E099
:10031000FFF7DBFF00210A2206F1240709E0B0FB0A
:10032000F2FCB0FBF2F302FB1C00303078541846AC
:10033000491C0028F3D123462A463046BDE8F04147
:1003400000F090B8000000002D0000002B0000001D
:100350002000000070B5044621461068FFF7B5FF85
:10036000002104F1240505E000F007023032C00846
:100370006A54491C0028F7D12068002307A205070A
:1003800007D5800600D421B1E069012304A2401EF4
:10039000E0612046BDE8704000F064B80000000055
:1003A000300000002DE9F0410F460546002028628C
:1003B0002846E968884770B3252805D0D5E901218A
:1003C0009047286A401CF2E7E968284600268847DB
:1003D0006C2804460AD0682C08D04C2C35D06A2CE6
:1003E00031D0742C31D07A2C2FD016E0E968064633
:1003F00028468847B042044608D16C2E23D04FF4DB
:1004000080662846E9688847044606E06C2E03D0DB
:100410004FF4807601E01EE04026E4B1A4F14100F3
:10042000192802D8203446F400663A462146284668
:100430002E60FFF7F5FE60B1012808D0FF1D27F000
:1004400007070837B4E78026DBE70026D9E73F1D1A
:10045000AEE72046B2E7286ABDE8F08170477047F2
:10046000704770472DE9F0470D469946924604467D
:1004700000F124080168880604D5E06921F0100124
:10048000216000E00120A84201DD471B00E00027B9
:10049000A1697A1902EB0900081AA0612078C00648
:1004A00002D42046AFF30080002608E0D4E9012101
:1004B0001AF806009047206A401C761C20624E45C0
:1004C000F4DB2078C0060AD52046AFF3008006E0B2
:1004D000D4E9012130209047206A401C2062381E58
:1004E000A7F10107F4DC07E0D4E9012118F80500C1
:1004F0009047206A401C2062281EA5F10105F3DC0C
:100500002046AFF300802078000602D50220BDE827
:10051000F0870120FBE70000074B70B50D467B44D8
:1005200000F011F80446284600F020F810B14FF012
:10053000FF3070BD204670BD4711000001694A1CA4
:1005400002610878704700B58FB0CDE90131002114
:10055000059105497944CDE9031011466846FFF736
:1005600021FF0FB000BD0000E5FFFFFF007B00F0A2
:1005700080007047754600F02BF8AE4605006946CE
:10058000534620F00700854618B020B5FFF774FEEB
:10059000BDE820404FF000064FF000074FF0000884
:1005A0004FF0000B21F00701AC46ACE8C009ACE805
:1005B000C009ACE8C009ACE8C0098D46704710B569
:1005C0000446AFF300802046BDE81040FFF73FBE71
:1005D000004870472C010020FEE770472DE9F84FD6
:1005E000DFF8A091002209F1040A0AF1040B4FF090
:1005F0000F080BF1040E01260B6896403340B342FE
:1006000071D14C68022C01D0122C11D1D40800EB0E
:1006100084073D6A5407E40E08FA04FC25EA0C0539
:10062000D1F810C00CFA04FC4CEA050CC7F820C045
:1006300007685400032591F804C0A5400CF0030C92
:10064000AF430CFA04FC4CEA070CC0F800C04F683A
:10065000012F05D0022F03D0112F01D0122F11D15D
:100660008768D1F80CC0AF430CFA04FC4CEA070CC5
:10067000C0F808C04768B7430E79C6F30016964025
:100680003E434660C668AE438D68A5403543C560AD
:100690004C68E4006FD53C4C256845F480452560E6
:1006A000246822F0030504F480440094374C2E198A
:1006B000D6F808789407250F08FA05F4A743344CB8
:1006C000A04201D100242EE0324CA04201D10124ED
:1006D00029E0314CA04201D1022424E02F4CA04259
:1006E00002D103241FE046E02D4CA04201D1042496
:1006F00019E02C4CA04201D1052414E02A4CA04260
:1007000001D106240FE0294CA04201D107240AE0C0
:10071000274CA04201D1082405E0264CA04201D17B
:10072000092400E00A24AC403C43C6F80848D9F844
:1007300000404D464E689C43F60300D51C432C6098
:10074000DAF8004055464E689C43B60300D51C437A
:100750002C60DBF800405D464E689C43F60200D5F5
:100760001C432C60DEF8004075464E689C43B60280
:1007700000D51C432C60521C102AFFF43CAFBDE88E
:10078000F88F0000003C0140443802400030014036
:10079000000002400004024000080240000C024039
:1007A000001002400014024000180240001C0240E9
:1007B0000020024000240240014800687047000009
:1007C0001400002002480168491C016070470000C5
:1007D000140000200B4810B5016841F4007101605D
:1007E000016841F480610160016841F48071016039
:1007F000052000F049F80F2000F006F800F015F889
:10080000002010BD003C024010B5044600F096F9EF
:100810004FF47A71B0FBF1F000F0AAFB0022214600
:10082000501E00F011F8002010BD08B50020009007
:1008300008BD00F01F02012191404009800000F135
:10084000E020C0F800117047F0B40E4B1B68C3F3F2
:100850000223C3F10704042C00D904241D1D072D15
:1008600001D2002300E0DB1E012606FA04F56D1E0E
:100870000D409D409E40761E164045EA0601F0BCA4
:1008800000F0DABC0CED00E0064A00F00701106849
:100890004FF6FF03184040EA012003490843106067
:1008A000704700000CED00E00000FA052DE9F84368
:1008B0001D48016841F0805101600068012700F087
:1008C00080500090380490FAA0F0DFF86080B0FA11
:1008D00080F048F82070FFF76FFF04464FF47A75F8
:1008E000134E04E0FFF768FF001BA84213D870689E
:1008F000C003F7D54FF4003090FAA0F0B0FA80F0C2
:1009000048F82070FFF758FF044607E0FFF754FF50
:10091000001BA84202D90320BDE8F8837068800359
:10092000F4D50020F8E700004038024000000E42F5
:10093000007000402DE9F05FDFF8F8A104460F4693
:10094000DAF80000DFF8F08100F00F02C8B27A494F
:10095000814641F2883608F10808BA4261D202465F
:100960008AF80020DAF8000000F00F00B8427DD1CC
:100970002078800707D5D8F80020A36822F0F0027D
:100980001A43C8F800202078C0072DD060680128DD
:100990001AD002281BD0032819D00968890700291A
:1009A00064DAD8F80010474621F003010143C8F883
:1009B0000010FFF701FF0546606801280FD00228EC
:1009C00018D003281CD027E009688903E7E70968E5
:1009D0008901E4E7FFF7F0FE401BB04258D83868C1
:1009E000C0F381000128F5D188E0FFF7E5FE401B48
:1009F000B0424DD83868C0F381000228F5D17DE0BF
:100A00003868FFF7D9FE401BB042F9D940E0FFF744
:100A1000D3FE401BB0423BD8386810F00C0FF6D123
:100A20006CE02078800707D5D8F80020A36822F072
:100A3000F0021A43C8F800202078C0074CD0606844
:100A4000012828D0022829D0032827D0096889073F
:100A5000002949DAD8F8002022F003020243C8F83E
:100A60000020FFF7A9FE0546606800E03CE0012891
:100A70001DD0022829D0032838D0B3464646306816
:100A800010F00C0F28D0FFF797FE411B5945F6D9FF
:100A90000320BDE8F09F09688903D9E70968890147
:100AA000D6E7FFF789FE411B594502D9F0E7B34667
:100AB00046463068C0F381000128F2D10CE0FFF710
:100AC0007BFE411B594502D9E2E7B34646463068F2
:100AD000C0F381000228F2D18AF80090DAF8000011
:100AE00000F00F00B84209D00120D2E74446206848
:100AF000FFF762FE401BB042F9D9C9E720784007F2
:100B000007D5D8F80010E26821F4E0511143C8F885
:100B100000102078000708D5D8F80010226921F4C9
:100B2000604141EAC201C8F800100F20FFF76CFED7
:100B30000020AEE7003C02400038024010B500F053
:100B400043F808490968F02292FAA2F201F0F00194
:100B5000B2FA82F2D140044A515CC84003490860AD
:100B600010BD0000083802405A170008000000209D
:100B700010B5FFF7E3FF074909684FF4E05292FA16
:100B8000A2F201F4E051B2FA82F2D140024A515C81
:100B9000C84010BD083802405A17000810B5FFF7CA
:100BA000CDFF074909684FF4604292FAA2F201F4BE
:100BB0006041B2FA82F2D140024A515CC84010BD95
:100BC000083802405A17000830B51948006810F07C
:100BD0000C01184812D0184C04290ED008290DD148
:100BE000134A121F1168136801F03F015D0247F6B6
:100BF000C07304D5B4FBF1F003E0204630BDB0FB78
:100C0000F1F01168194093FAA3F3B3FA83F3D940D2
:100C1000484311684FF4403292FAA2F201F4403195
:100C2000B2FA82F2D140491C4900B0FBF1F030BD6C
:100C3000083802400024F40040787D012DE9F84F87
:100C400004460078DFF8FCA2BF4DC0074FF0000655
:100C500048D0DAF800105046C1F38101012908D0CC
:100C60000068C0F3810002280AD1281D00684002F4
:100C700006D52868800335D56068002873D031E038
:100C8000DFF8C49209F1020989F80060FFF794FDCA
:100C9000074641F2883804E0FFF78EFDC11B41454D
:100CA0007AD828688003F7D4207989F80000606832
:100CB00060B1FFF781FD074604E0FFF77DFDC11B32
:100CC0004145EDD828688003F7D50BE0FFF774FDA8
:100CD000074604E0FFF770FDC11B4145E0D82868D6
:100CE0008003F7D42078DFF86492800744D5DAF8DF
:100CF0000010504611F00C0F4FF0F80809D00068B2
:100D0000C0F3810002280BD18E48001F006840020A
:100D100006D42868800714D5E068012823D110E0A4
:100D2000E068D0B10120C9F80000FFF745FD074693
:100D300004E0FFF741FDC01B6428B1D82868800794
:100D4000F7D5286898FAA8F22169B2FA82F220F061
:100D5000F8009140084328600EE0C9F80060FFF7F2
:100D60002BFD074605E0EAE0FFF726FDC01B6428DF
:100D700012D828688007F7D42078000725D5DFF837
:100D8000C4817348616908F16C0881B10121016077
:100D9000FFF712FD074605E07EE0FFF70DFDC01BE3
:100DA000642879D8D8F800008007F6D50DE00660F1
:100DB000FFF702FD074604E0FFF7FEFCC01B6428B6
:100DC0006AD8D8F800008007F6D42078400753D5B9
:100DD0005C483830016841F0805101600068DFF8FC
:100DE000748100F080500090D8F8001041F48071B8
:100DF000C8F80010FFF7E0FC074604E0FFF7DCFC52
:100E0000C01B642848D8D8F80000C005F6D5DFF824
:100E100034B10BF1680B8BF80060FFF7CDFC07468F
:100E200041F2883804E0FFF7C7FCC11B41457ED87A
:100E3000DBF800008007F6D4207A8BF80000A06869
:100E400068B1FFF7B9FC074604E0FFF7B5FCC11B2A
:100E500041456CD8DBF800008007F6D50CE0FFF7C1
:100E6000ABFC074604E0FFF7A7FCC11B41455ED879
:100E7000DBF800008007F6D4A069E8B3DAF80010C8
:100E8000C1F3810102295AD0022806D0C9F8606056
:100E9000FFF792FC04464DE049E04F46C9F8606018
:100EA000FFF78AFC064604E0FFF786FC801B6428F7
:100EB0003DD828688001F7D4D4E90701084347F6F4
:100EC000C07191FAA1F1626AB1FA81F18A40A16A16
:100ED0004FF0FF3303EB51014FF4403393FAA3F388
:100EE000B3FA83F399400A4310434FF0706292FAC9
:100EF000A2F2B2FA82F200E01FE0E16A91400843F8
:100F00001049091F086001203866FFF755FC0446A8
:100F100004E0FFF751FC001B642808D82868800112
:100F2000F7D50AE0FFF748FC001B642802D903202C
:100F3000BDE8F88F28688001F4D40020F8E701208C
:100F4000F6E700000838024000380240000047423F
:100F5000800E4742007000404FF0E02104280869ED
:100F600003D020F004000861704740F00400FAE765
:100F700010B5401EB0F1807F01D3012010BD4FF0AD
:100F8000E02460610F21601700F056F90020A06195
:100F900007202061002010BD704790F8390070478D
:100FA00038B5016804460868CA68C0F3000002F456
:100FB000807238B132B1086848680090E06B40F048
:100FC0000100E06308684A69C0F3400002F00102D2
:100FD00038B132B1086848680090E06B40F0040016
:100FE000E06308684A69C0F3800002F0010238B18A
:100FF00032B1086848680090E06B40F00200E0639E
:1010000008684A69C0F3C00002F0010238B132B189
:10101000086848680090E06B40F00800E0630868EA
:10102000C968C0F3401001F0200118B111B1204689
:1010300000F082F920680168C068C1F3C01100F0B7
:10104000800019B110B1204600F084FA21680868C8
:10105000CA68C0F3801002F04002012568B162B195
:10106000CA68204622F04002CA6094F8391032293A
:101070000CD080F8395000F0DBF8E06B002804D089
:1010800084F839502046FFF787FF38BD222180F8C9
:101090003910F0E770B5040004D094F83900002549
:1010A00010B106E0012070BD84F83850204600F0F1
:1010B00021F8022084F839002068C16821F4005129
:1010C000C160204600F08CF92068016921F490414C
:1010D00001612068416921F02A0141612068C168ED
:1010E00041F40051C160E563012084F8390000201B
:1010F00070BD000010B500681A4986B088422FD133
:101100001948016841F001010160006800F0010028
:10111000059015481430016841F010010160006825
:10112000012100F0100005904FF4007000900220A3
:10113000CDE90101039007200C4C0490694620463C
:10114000FFF74CFA2115009169462046FFF746FA51
:101150002520FFF76EFB032211462520FFF774FBC5
:1011600006B010BD001001403038024000000240BF
:1011700090F83930012B01D0122B2BD131B32AB387
:1011800090F83830012B25D0012380F83830816267
:101190008285C2850022C26390F83910122917D0C7
:1011A000222180F839100168CB6843F48073CB604A
:1011B00001684B6943F001034B6180F838200068F7
:1011C000C16841F02001C1600020704701207047D4
:1011D0003221E6E70220704730B5006811498842A5
:1011E0000CD1114A5088010408D4114644040978EE
:1011F0004FF0000306D50A2901D0538030BD40F4DA
:1012000000400DE00D2909D0C0F30D04074D401C2E
:1012100080B229555080C728EFD830BD40F48040B7
:10122000508030BD001001401C0000202400002030
:101230007047FEE7FEE770470907090E002806DA47
:1012400000F00F0000F1E02080F8141D704700F15D
:10125000E02080F8001470477047704770B51E4C4E
:1012600092B00025266846F080562660246804F077
:1012700080541194194C266846F440462660246830
:101280000DF1240C04F440441194012400940194C1
:10129000022406948CE80D006605CDE907616846D6
:1012A000FFF7CCFC00B1FEE7FFF700FB00B1FEE763
:1012B0000CA90F2081E831004FF4A0500F904FF49B
:1012C0008050109005210CA8FFF734FB002800D0B7
:1012D000FEE712B070BD00004038024000700040D0
:1012E000FFF770BA1048016841F4700101600F48BF
:1012F000016841F0010101600C4A002108321160CF
:1013000002680B4B1A400260031D0A4A1A60026809
:1013100022F48022026005480C3001600249580620
:10132000803908607047000088ED00E00038024016
:10133000FFFFF6FE1030002410B590F83910222976
:1013400003D0322901D0022010BD8168B1F5805F41
:1013500011D00169002901681FD0496801F07F039D
:10136000816A4A1C82620B70C18D491E0904090CF6
:10137000C18518D02FE00269816A002A026852688C
:1013800005D0D2B20A80816A491C8162ECE7C2F3BF
:1013900008020A80816A891CF7E74A68816A4B1C47
:1013A00083620A70E0E70168CA6822F02002CA601E
:1013B00090F83910322910D00168CA6822F480727E
:1013C000CA6001684A6922F001024A61012180F87D
:1013D0003910FFF701FF002010BD1221F7E70000D0
:1013E0002DE9F041044600680169E26821F44051AA
:1013F0000A4302612068C16849F20C629143236983
:10140000A268E5691A4363692B431A430A43C26021
:101410002068416921F44072A16911434161E0698A
:1014200064263225B0F5004F484A494920681DD04E
:10143000884201D0904269D1FFF7B0FB00EBC001B8
:1014400001EB00106168B0468900B0FBF1F1B1FB1F
:10145000F8F6FFF7A3FB00EBC00101EB0010616899
:101460008900B0FBF1F7FFF799FB68E0884201D0F3
:10147000904219D1FFF792FB00EBC00101EB001085
:101480006168B0464900B0FBF1F1B1FBF8F6FFF737
:1014900085FB00EBC00101EB001061684900B0FB67
:1014A000F1F7FFF77BFB18E0FFF762FB00EBC001F1
:1014B00001EB00106168B0464900B0FBF1F1B1FBEF
:1014C000F8F6FFF755FB00EBC00101EB0010616877
:1014D0004900B0FBF1F7FFF74BFB00EBC00101EB5C
:1014E000001061684900B0FBF1F1B1FBF8F06FF05A
:1014F0001801484307EB800005EB0011B1FBF8F041
:10150000216866F31F108860BDE8F081FFF730FBAB
:1015100000EBC00101EB00106168B0468900B0FB30
:10152000F1F1B1FBF8F6FFF723FB00EBC00101EB93
:10153000001061688900B0FBF1F7FFF719FB00EBC1
:10154000C00101EB001061688900CCE70014014084
:101550000010014090F83910122903D0322901D02F
:10156000022070478168B1F5805F016A0BD04A1C88
:101570000262026809785160C18C491E0904090C95
:10158000C1840ED017E009880268C1F308015160D8
:1015900001690029016A02D0491C0162ECE7891C3B
:1015A000FBE70168CA6822F08002CA600068C1686F
:1015B00041F04001C16000207047000070B5002478
:1015C0000C4D0D48FFF7ECFC02E0641CAC4204D863
:1015D0000948FFF7E2FC0128F7D1002402E0641C6F
:1015E000AC4206D8012205490348FFF7C1FD002897
:1015F000F5D170BDFFFF0100EC0000201C000020B1
:10160000FEE7704710B504460420FFF7A5FC01482B
:10161000046010BD1800002070B5054600244FF48A
:101620007A7603E0304600F005F8641CAC42F9D34A
:1016300070BD000070B54FF0E02500216C69094ACB
:10164000AB6912685043AA699A42FCD002D2A3EB5C
:10165000020302E0A4EB020633441944134681421C
:10166000F1D370BD1800002003490A685206FCD56A
:10167000C2B24A60704700000010014000242546B5
:101680000126FFF7A7F80823022219214FF4B470AE
:10169000FFF7E4FDB420FFF7B5FF4FF4E13000F0B1
:1016A0003BF84FF47A7721460DA0FEF7F9FD384656
:1016B000FFF7B2FF0CA0FEF7F3FD7CB1012C03D0C5
:1016C00028463546284486B231460FA0FEF7E8FD8D
:1016D00004A0FEF7E5FD641CA4B2E4E72946F4E7A4
:1016E000743A25640D0A0000257A686F75207265CA
:1016F0006E2068756120323032313231303138300D
:1017000036310D0A000000006669626F6E61716912
:10171000653A25640D0A00000B4910B5094AC1E974
:10172000002000208860C860086188610C20486142
:101730000846FFF7AFFCBDE810400122034902480C
:10174000FFF716BD00100140EC0000201C00002037
:101750004FF04070E1EE100A7047000000000102F7
:101760000304010203040607080900008C1700089F
:101770000000002024000000E8010008B017000865
:10178000240000206C070000040200080024F4007C
:101790000000000000000000010203040607080921
:1017A0000000000000000000000000000000000039
:04000005080001AD41
:00000001FF
