:020000040800F2
:1000000078080020990200082F41000805360008F2
:100010002D410008D3150008CD560008000000004F
:10002000000000000000000000000000474400083D
:10003000D5150008000000003141000849440008BF
:10004000B3020008B3020008B3020008B3020008BC
:10005000B3020008B3020008B3020008B3020008AC
:10006000B3020008B3020008B3020008B30200089C
:10007000B3020008B3020008B3020008B30200088C
:10008000B302000800000000B3020008B302000839
:10009000B3020008B3020008B3020008B30200086C
:1000A000C9440008B3020008B3020008B302000804
:1000B000D5440008E1440008B3020008B302000878
:1000C000B3020008B3020008B3020008B30200083C
:1000D000B3020008DD550008B3020008B3020008AF
:1000E000B3020008B3020008B3020008B30200081C
:1000F000B3020008B3020008B302000800000000C9
:1001000000000000B302000800000000B302000875
:10011000B302000800000000B3020008B3020008A8
:10012000B3020008B3020008B3020008B3020008DB
:10013000B30200080000000000000000B302000845
:10014000B3020008B3020008000000000000000035
:10015000000000000000000000000000000000009F
:10016000000000000000000000000000B3020008D2
:10017000B3020008000000000000000000000000C2
:1001800000000000B30200080000000000000000B2
:10019000000000000000000000000000000000005F
:1001A0000000000000000000B3020008B3020008D5
:1001B000B3020008B3020008B30200080000000008
:1001C00000000000B3020008000000000000000072
:1001D000B3020008B302000800F002F800F04CF887
:1001E0000AA090E8000C82448344AAF10107DA4592
:1001F00001D100F041F8AFF2090EBAE80F0013F098
:10020000010F18BFFB1A43F001031847DC69000017
:10021000FC690000103A24BF78C878C1FAD85207A8
:1002200024BF30C830C144BF04680C607047000070
:100230000023002400250026103A28BF78C1FBD8EF
:10024000520728BF30C148BF0B607047662905F0D0
:100250007783642900F0CC80002070471FB505F03B
:100260006AFB00F079FC04000020002105F0D6FABA
:10027000E0601FBD10B510BD00F06EFD1146FFF728
:10028000EDFF05F093FA00F08CFD03B4FFF7F2FFE9
:1002900003BC00F0CFFD0000094880470948004733
:1002A000FEE7FEE7FEE7FEE7FEE7FEE7FEE7FEE726
:1002B000FEE7FEE704480549054A064B7047000083
:1002C000B9440008D901000878020020780800200D
:1002D000780400207804002053EA020C00F06980C2
:1002E0002DE9F04B4FF00006002B1FBFB3FA83F54A
:1002F00003FA05F424FA05F65E4012BF1643B2FA7B
:1003000082F502FA05F4C5F120051EBF22FA05FCAC
:1003100044EA0C04203556EA044C4FEA144418BF52
:10032000641C4FF000084FF00009904271EB030C81
:1003300039D3002919BFB1FA81F701FA07F6B0FAEB
:1003400080F700FA07F6C7F120071EBF20FA07FC66
:1003500046EA0C062037B6FBF4FCA7EB0507103F76
:1003600007F01F0BCBF120060CFA0BFB2CFA06F65C
:1003700044BFB3460026202FA4BF5E464FF0000BBB
:100380005BEA060C08BF4FF0010B19EB0B09ABFB46
:10039000027C48EB0608C01B06FB02CC0BFB03CC1F
:1003A00071EB0C01C1E70B46024641464846BDE8E9
:1003B000F08B13B54FF000004FF00001AFF3008059
:1003C000BDE81C40704700000FB41CB5074B06AADF
:1003D0007B4469460090059800F0A5FB0020694623
:1003E00000F0B4FB1CBC5DF814FB000079070000B2
:1003F0002DE9F0410646002410687529314616A5FE
:1004000010D0AFF30080002802DA404213A507E0C5
:1004100031688A0701D512A502E0490704D511A564
:10042000012401E0AFF3008000210A2206F1240735
:1004300009E0B0FBF2FCB0FBF2F302FB1C00303031
:1004400078541846491C0028F3D123462A463046E2
:10045000BDE8F04100F0FAB8000000002D000000F7
:100460002B000000200000002DE9F0474FF0000AAB
:1004700089460446C0F820A02046E1688847002845
:1004800076D0252806D0D4E901219047206A401C67
:100490002062F1E7E168204600258847C4F81CA0E7
:1004A00006460027C4F818A02A2E09D0304605F0C9
:1004B00036F938B304EB8708303EC8F8186019E005
:1004C00059F8041B204604EB87029161E1688847D4
:1004D000012F064618D1E069002820DA25F0200512
:1004E0001DE0D8F8180000EB800006EB4000303823
:1004F000C8F818002046E1688847064605F00FF95D
:100500000028EED1012F0AD02E2E08D12046E16816
:1005100088477F1C0646022F45F02005C4DBA069F2
:10052000002803DA404245F00105A061E80701D048
:1005300025F01005B6B1A6F14100192802D82036E1
:1005400045F400654A463146204625604D46FFF792
:100550007DFE58B1012806D0ED1D25F0070000F101
:10056000080989E704E005F1040985E730468AE7D0
:10057000206ABDE8F08710B5431C02E010F8011BAB
:1005800071B18107FAD14FF0013202C88C1A8C4345
:1005900014EAC211F9D0C01A0A0603D0C01E10BD59
:1005A000C01A10BD0A0401D0801E10BD0902FCD083
:1005B000401E10BD4FF000020429C0F0128010F060
:1005C000030C00F01B80CCF1040CBCF1020F18BF2F
:1005D00000F8012BA8BF20F8022BA1EB0C0100F0C2
:1005E0000DB85FEAC17C24BF00F8012B00F8012B95
:1005F00048BF00F8012B70474FF0000200B51346CA
:1006000094469646203922BFA0E80C50A0E80C5032
:10061000B1F12001BFF4F7AF090728BFA0E80C50E3
:1006200048BF0CC05DF804EB890028BF40F8042BDC
:1006300008BF704748BF20F8022B11F0804F18BF49
:1006400000F8012B70477047704770472DE9F0475D
:100650000D4699469246044600F124080168880632
:1006600004D5E06921F01001216000E00120A842DA
:1006700001DD471B00E00027A1697A1902EB0900A0
:10068000081AA0612078C00602D42046AFF300808B
:10069000002608E0D4E901211AF806009047206AF4
:1006A000401C761C20624E45F4DB2078C0060AD53B
:1006B0002046AFF3008006E0D4E9012130209047C6
:1006C000206A401C2062381EA7F10107F4DC07E015
:1006D000D4E9012118F805009047206A401C2062E7
:1006E000281EA5F10105F3DC2046AFF30080207839
:1006F000000602D50220BDE8F0870120FBE7704725
:100700002DE9FF4F0C461E464FF0FF378BB0D2E964
:100710000001DDF860800A908A46C1F30A5505B9E8
:100720003D46002108464FF00000BAF1000F00F4EA
:10073000400005DA00EB80004FF4400101EA500070
:100740004FEA9059B9F1010F00DDB9460A9850EA15
:100750004A000ED044F61050A5F2FF3545432F1441
:10076000B8F1000F1ED07542291E1EDDC9F100022E
:100770001CE0B8F1010F4FF0000001D0302103E080
:10078000F24305E02154401CB042FBDB304600221E
:10079000002121540B99C1F80880C1E900200FB055
:1007A000BDE8F08FBD1B6D1CDEE74A4600DA6942EA
:1007B00006A800F05BFA06AB93E8070003AB83E8FA
:1007C000070050460A9900F03CFB8DE80700A0F5B1
:1007D00000501F3800900398002D0ADD42F21F01DF
:1007E0004A460844002303A90390684600F0A5FD8B
:1007F00009E0A0F500504A461F38002303A90390E2
:10080000684600F0AFFD8DE807000004000C03D03F
:100810004FF0FF30410800E01046B8F1000F03D060
:100820000022009215461EE0751E05D400F098F9CE
:10083000303262556D1EF9D5B3460122084302D00D
:1008400000227F1C04E02078302801D100227F1E86
:10085000002A099784D01DE0112D07DA00F080F9F5
:10086000303262556D1C50EA0102F5D1084302D0C6
:100870000098C8B10EE00021681E05E0235C625CB0
:1008800063542254401E491C8142F7DBAB46A81B2F
:10089000401E0990002004F80B000B98099AC0F83C
:1008A0000880C0E9002B7AE711264FF0000857E7CF
:1008B0002DE9F04F88460446D21D22F0070191B081
:1008C000D1E90001CDE90A0104F001FF02460B98CD
:1008D000C00F01D02D2007E02068810701D52B2013
:1008E00002E0202101EAC000032A099001D0072A72
:1008F00005DB03464146204600F078F90BE12078FD
:10090000800601D5E06900E00620B8F1650F814658
:1009100006D0B8F1660F18D0B8F1670F70D131E08A
:100920000020B9F1110F009001DB112301E009F162
:1009300001030AAA01A90CA8FFF7E2FEDDE90C7089
:10094000002609F10105834647E001204B4600904F
:100950004FF000470AAA01A90CA8FFF7D1FEDDE974
:100960000DB00C995D46002610B909F101000D1873
:10097000B9EB050003D4C0F1FF3609F10105A5EB81
:1009800009002BE0B9F1010F01DA4FF00109002055
:10099000B9F1110F0090484601DD112300E0034634
:1009A0000AAA01A90CA8FFF7ABFEDDE90C704D46C1
:1009B00000268346207800070AD4AB4500DA5D465E
:1009C00001A8012D04DD411911F8011C302907D0BF
:1009D0004F4502DA17F1040F04DA012082460FE0D6
:1009E0006D1EEEE7002F02DCED1B3E4403E0781C99
:1009F000A84200DD7D1CB81B00F1010A4FF0004742
:100A00002078000703D4AA4501DB4FF0FF3A00210C
:100A1000B7F1004F0DF143088DF8431024D00220A8
:100A20002B23002F01DA7F422D230A21021EA0F181
:100A3000010000DC5FB197FBF1FC97FBF1F201FBD9
:100A40001C7C17460CF1300C08F801CDEEE7A8F13C
:100A5000010003702188090501D5452100E06521C9
:100A6000A0F1010800F8011C09980FA9A1EB0807E3
:100A7000FF1D00B10120411901EBEA70A169384462
:100A8000081A401EA0612078C00602D42046AFF3A9
:100A90000080099828B1D4E901219047206A401CC0
:100AA00020622078C00622D52046AFF300801EE0E9
:100AB000002E04DBB34502DD01A8805D00E030209C
:100AC000D4E901219047206A401C2062761CAAF1DB
:100AD00001005FEA000A0AD100F03EF8C068016830
:100AE000405CD4E901219047206A401C2062281E06
:100AF000A5F10105DCDC07E0D4E9012118F8010BC0
:100B00009047206A401C2062381EA7F10107F3DCE1
:100B10002046AFF30080032011B041E601694A1C72
:100B200002610878704700B58FB0CDE9013100212E
:100B3000059105497944CDE9031011466846FFF750
:100B400093FC0FB000BD0000E5FFFFFF0A6802F84C
:100B5000010B0A6070470000004870473402002013
:100B600030B5B0F10A024FEA900E71F100034EEA7F
:100B7000817EB0EB0E0061EB91014FEA101E4EEA50
:100B8000017E10EB0E0041EB11114FEA102E4EEAE0
:100B9000016E10EB0E0041EB11214FEA104E4EEAB0
:100BA000014E10EB0E0041EB1141401841F10001E4
:100BB0004FEAD00040EA41704FEAD10110EB8005C6
:100BC0004FEA810444EA907444EB01046D1944EB4C
:100BD0000404521BA3414FF0000348BF0A3200D562
:100BE00030BD401C41F1000130BD00002DE9F04155
:100BF0001F46044603260168072A01F4006004DB4F
:100C000008B116A505E016A503E008B115A500E09A
:100C100015A521F010002060A069C01EA0610FB1D1
:100C2000401EA0612046AFF300804FB1D4E90121FE
:100C300038469047206A401C2062C01C206206E0B3
:100C4000206AFAE7D4E9012115F8010B9047761ED6
:100C5000F8D22046AFF30080BDE8F0814E414E004F
:100C60006E616E00494E4600696E66002DE9F047E0
:100C7000814616468AB0354878440DC88DE80D0087
:100C800032487844801C03AC0DC884E80D0041F65E
:100C90009B300844372190FBF1F290FBF1F5A5F170
:100CA000800501FB12041B3C02D56442012000E0D8
:100CB0000020DFF898A080460027FA44AAF1BE0A77
:100CC0000EE0E0070AD03246684607EB47010123F1
:100CD0000AEB810100F046FB8DE8070064107F1CE1
:100CE000002CEED1194F7F44AE3F19E0E80715D034
:100CF00007EB04100DF1180A90E80E008AE80E00C8
:100D0000C068F04201D1981908903246012306A923
:100D100003A800F027FB03AB83E807006D10641CF9
:100D2000002DE3D14FF0010332466946B8F1000FC0
:100D300003A802D000F001FB01E000F013FBC9E9B9
:100D40000001C9F808200AB0BDE8F087545F000030
:100D500000487047140200207546FFF7F9FFAE46C1
:100D600005006946534620F00700854618B020B5B7
:100D7000FFF7A0FABDE820404FF000064FF0000753
:100D80004FF000084FF0000B21F00701AC46ACE833
:100D9000C009ACE8C009ACE8C009ACE8C0098D46A0
:100DA000704710B50446AFF300802046BDE8104000
:100DB000FFF76BBA4FF0013C50F8042B51F8043B9D
:100DC0009A4221D1A2EB0C03934313EACC1317D11F
:100DD00050F8042B51F8043B9A4215D1A2EB0C03B6
:100DE000934313EACC130BD150F8042B51F8043B76
:100DF0009A4209D1A2EB0C03934313EACC13DBD044
:100E00004FF00000704700BFD01A01BAB1FA81F16B
:100E100001F0180122FA01F0CB40C1F12001DBB250
:100E2000C0B2C01A2CFA01F3D11A914311EAC311CE
:100E3000E6D1704701491820ABBEFEE7260002004C
:100E400070475FEA400C08BF91F0000F4FEA8C2317
:100E50004FEAC12243EA51514FEA1C5018BF00F536
:100E6000F0404FEA300018BF41F000415FEA6C5C8F
:100E700000F02980BCF1FF3F08BF40F08040704780
:100E8000130C06BF12044FF0100C4FF0000C130EA1
:100E900004BF12020CF1080C130F04BF12010CF175
:100EA000040C930F04BF92000CF1020CD30F04BF8B
:100EB00052000CF1010C11464FF00002A0F11F008E
:100EC000A0EB0C00704711F0004F08BF704731F0E5
:100ED00000413FF4D5AF0B0C06BF09044FF0100CD6
:100EE0004FF0000C0B0E04BF09020CF1080C0B0FA5
:100EF00004BF09010CF1040C8B0F04BF89000CF135
:100F0000020CCB0F04BF49000CF1010CCCF1200303
:100F1000A0EB0C0022FA03F302FA0CF241EA0301FF
:100F200000F10100704720F07F4C80EA030023F0BD
:100F30007F47ACEB070303F57C5300F0004003F15F
:100F4000FF032DE980494FEA154B09B44FEA1443DA
:100F500025EA0B4E24EA03480FF2042606EB13277A
:100F600049083E785FEA320203FB0667C7F50007CF
:100F700007FB06F64FEA54374FEAD64606F102065B
:100F800007FB066CCCF1005C4FEA1C472CEA074CCF
:100F900007FB06F40CFB06F504EB15464FEA961624
:100FA00034BF00204FF000404FEAD13706FB07FC6A
:100FB0004FEA1C4C0CFB0BF7D21B03FB0CF761EB4D
:100FC00007010CFB0EF7B0EB074072EB17420CFB6E
:100FD00008F734BFA2EB0742B2EB074261EB1741BF
:100FE0004FEA0C444FEA910706FB07FC4FEA1C4C02
:100FF0000CFB0BF7B0EBC74072EB573203FB0CF75F
:1010000034BFA2EBC742B2EBC74261EB57310CFBD6
:101010000EF7B0EBC70072EB57720CFB08F734BF4A
:10102000A2EBC702B2EBC70261EB5771039F4FEA15
:10103000816141EA921104EBCC044FEAD1374FEAC7
:10104000826206FB07FC42EA90124FEA80604FEA98
:101050001C4C0CFB0BF7D21B03FB0CF761EB0701DD
:101060000CFB0EF7B0EB074072EB17420CFB08F7D6
:1010700034BFA2EB0742B2EB074261EB17414FEAE4
:101080008C554FEA910704EB9C2406FB07FC4FEAC2
:101090001C4C0CFB0BF7B0EBC74072EB573203FB59
:1010A0000CF734BFA2EBC742B2EBC74261EB57313A
:1010B0000CFB0EF7B0EBC70072EB57720CFB08F796
:1010C00034BFA2EBC702B2EBC70261EB577115EB5D
:1010D0004C254FEA816141EA92114FEA82624FEA60
:1010E000D13742EA901206FB07FC44F100044FEAB4
:1010F00080604FEA1C4C0CFB0BF7D21B03FB0CF778
:1011000061EB07010CFB0EF7B0EB074072EB1742E7
:101110000CFB08F734BFA2EB0742B2EB074261EBCE
:10112000174115EB1C154FEA813141EA92414FEA14
:10113000823242EA90424FEA80304FEA0C7644F124
:10114000000448EA03434EEA0B484FF0000EB2EBAE
:10115000080C71EB030724BF624639464EEB0E0EB6
:101160004FF0000B0018524149414BEB0B0BB2EB17
:10117000080C71EB03077BF1000B24BF6246394674
:101180004EEB0E0E4FF0000B0018524149414BEB55
:101190000B0BB2EB080C71EB03077BF1000B24BFC8
:1011A000624639464EEB0E0E51EA020718BF46F072
:1011B000010616EB0E7655F1000254F1000103D53D
:1011C000BDE88901BDE80088BDE88901BDE80048A7
:1011D000B619524141EB0101A3F101037047808030
:1011E0007F7E7D7C7B7A7978777676757473727181
:1011F00071706F6E6E6D6C6C6B6A6A696868676639
:1012000066656464636362616160605F5F5E5E5DCA
:101210005D5C5C5B5B5A5A5959585857575656553E
:1012200055555454535352525251515050504F4FA0
:101230004F4E4E4D4D4D4C4C4C4B4B4B4A4A4A49F0
:101240004949484848474747474646464545454433
:101250004444444343434342424242414141002BC0
:101260009C4630D477002BD01CB54FEA370703B427
:101270004FF010004FF01001BAF1000F06D0BCF192
:10128000000FDCBF40F0080040F008014FF0000004
:101290000FBCBDE810400BF1010BBBF1010F08BF03
:1012A0005FEA170722BF12F1010211F101014FF0AD
:1012B000004143F1000300F0004043EA00007047A2
:1012C000F9D35708D0E746EA064613F1400F4FEA34
:1012D00016461FDD13F1200FDFBF16430A4600211B
:1012E00020335B42BED0C3F1200746EA064602FA2D
:1012F00007F74FEA164646EA0706C3F1200722FA27
:1013000003F201FA07F721FA03F14FF0000342EA72
:101310000702A7E746EA020646EA06464FEA1646ED
:1013200046EA0106BCBF46EA0646360C4FF000030B
:101330004FF000024FF0000194E72DE9804C9A46EF
:10134000934670B491E8380007C831EA400C48BFB2
:1013500034EA430C03D5FFF7E6FDFFF780FFF0BC4E
:10136000BDE8008C2DE9804C9A46934670B491E814
:10137000380007C810F0804F08BF13F0804F03D12A
:1013800000F005F8FFF76BFFF0BCBDE8008C20F023
:101390007F4780EA030023F07F4C07EB0C03A3F5A3
:1013A0007C5300F00040A3F1FE0392F0000F00F028
:1013B000B38095F0000F00F077802DE901494FEAE6
:1013C00011404FEA144621EA004800FB06FC24EADB
:1013D000064708FB06F607FB08F800FB07F718EBC3
:1013E00006484CEB164C4FEA124B18EB07484FEAF5
:1013F00015464CEB174022EA0B4E0BFB06FC25EA88
:1014000006470EFB06F607FB0EFE0BFB07F71EEB6F
:10141000064E4CEB164C4FF000061EEB074E4CEB05
:10142000174B18EB0B0840F1000018EB0E0B58EBB4
:10143000000840F100008F1A4FF000013CBFC94383
:10144000661B14BFB5EB040C00213CBFC943F61B5F
:101450004FEA17444EEA8E0E27EA04454FEA1C472E
:1014600004FB07622CEA074C05FB07F70CFB05F6AB
:1014700004FB0CFC16EB074642EB174216EB0C463E
:1014800042EB1C421BEB060658EB0202414146EAC6
:101490009E0601D5BDE80189B619524141EB010113
:1014A000A3F10103BDE801894FEA14454FEA114752
:1014B00024EA054621EA074C05FB07F406FB07F77B
:1014C0000CFB06F105FB0CFC11EB074144EB174448
:1014D0004FEA124711EB0C4144EB1C4422EA074C43
:1014E00005FB07F206FB07F70CFB06F605FB0CFCF9
:1014F00016EB074642EB174216EB0C4642EB1C4537
:101500006A1854F1000148BF7047B619524141EBC7
:101510000101A3F10103704795F0000F37D04FEAA6
:1015200011424FEA144721EA024624EA074C02FB23
:1015300007F106FB07F70CFB06F402FB0CFC14EBAF
:10154000074441EB17414FEA154714EB0C4441EBBC
:101550001C4125EA074C02FB07F506FB07F70CFBCD
:1015600006F602FB0CFC16EB074645EB174516EB9F
:101570000C4645EB1C42121951F1000148BF70475F
:10158000B619524141EB0101A3F1010370474FEA43
:1015900014454FEA114724EA054621EA074C05FBAA
:1015A00007F106FB07F70CFB06F24FF0000605FB00
:1015B0000CFC12EB074241EB174112EB0C4251EBD2
:1015C0001C4148BF7047921841EB0101A3F1010390
:1015D0007047FEE77047002240F6B83306E000216E
:1015E000491C89B29942FBD3521C92B28242F6D373
:1015F000704772B6FEE710B590F825300021012241
:10160000022B03D00421C163012122E003681C687E
:1016100024F00E041C60836C1C6824F480741C602D
:1016200003681C6824F001041C6090F84430046CCA
:1016300003F01F0302FA03F36360D0E913345C6024
:10164000436D33B11C6824F480741C60D0E91634F7
:101650005C6080F82520002280F82420084610BD18
:1016600070B590F82520002401212346022A07D0D6
:101670000422C26380F8251080F82430012429E078
:101680000268156825F00E0515600268156825F0DA
:1016900001051560826C156825F48075156090F859
:1016A0004420056C02F01F0201FA02F26A60D0E9E0
:1016B00013255560426D32B1156825F480751560AB
:1016C000D0E91625556080F8251080F82430816B0C
:1016D00001B18847204670BD70B5044600F03CF962
:1016E0000546601C02D004484068044400F034F908
:1016F000401BA042FAD370BD480000202DE9F04FF6
:10170000DFF82092002301260324A9F1040B85B001
:101710000F2709F1040AABF1040EFAE006FA03F50B
:101720002A407CD091F804C00CF0030CBCF1010FEE
:1017300002D0BCF1020F26D1D0F808C0CDF800C00D
:101740004FEA430C04FA0CF8CDF810C0DDF800C0E5
:101750002CEA080CCDF800C0D1F80C80DDF810C0E0
:1017600008FA0CF8DDF800C048EA0C08C0F8088058
:10177000D0F804C02CEA050C0D79C5F300159D4086
:1017800045EA0C0545600D79ED43AD070ED0C568FF
:101790004FEA430804FA08FC25EA0C05D1F808C012
:1017A0000CFA08FC4CEA050CC0F80CC00D7905F0E9
:1017B0000305022D16D1DD0800EB850CCDF808C01D
:1017C000DCF820805D074FEAD56C07FA0CF528EAB3
:1017D00005080D6905FA0CF5DDF808C045EA0805AD
:1017E000CCF8205005684FEA430CCDF808C004FA45
:1017F0000CFC25EA0C0591F804C00CF00308DDF898
:1018000008C008FA0CF848EA0508C0F800804D68DE
:1018100015F4403F7CD0444DD5F860C000E077E03F
:101820004CF0010CC5F860C02D6E23F0030C05F0E0
:10183000010500953D4D65440295AD684FEA837CF6
:101840004FEA1C7807FA08FC25EA0C05B0F1904F26
:1018500006D0DFF8DCC0604505D14FF0010C20E078
:101860004FF0000C1DE0DFF8CCC0604502D14FF016
:10187000020C16E0DFF8C0C0604502D14FF0030C47
:101880000FE0DFF8B8C0604502D14FF0040C08E06B
:10189000DFF8ACC0604502D14FF0050C01E04FF01D
:1018A000060C0CFA08FC4CEA050C029DC5F808C0B1
:1018B000D9F80050CC46D1F8048095435FEAC82897
:1018C00000D51543CCF80050DAF80050D446D1F8D2
:1018D000048095435FEA882800D51543CCF8005072
:1018E000DBF80050DC46D1F8048095435FEA883885
:1018F00000D51543CCF80050DEF80050F446D1F87E
:10190000048095435FEAC83800D51543CCF80050F1
:101910005B1C0A6832FA03F57FF400AF05B0BDE83E
:10192000F08F000008040140001002400000014058
:101930000004004800080048000C0048001000485F
:10194000001400480069084000D0012070470AB127
:10195000816170478162704701488068704700006C
:101960004800002002488168426811448160704745
:101970004800002010B50024032000F073F80F2069
:1019800000F008F808B1012401E000F025F8204635
:1019900010BD000070B50E4E05460024706898B169
:1019A0004FF47A71B1FBF0F00A490968B1FBF0F02D
:1019B00000F060FD40B9102D06D200222946501ECD
:1019C00000F030F8356000E00124204670BD0000D2
:1019D00048000020540000200A4882B0016E41F007
:1019E00001010166016E01F001010091816D41F07C
:1019F00080518165806D00F08050009002B000F051
:101A0000A1B8000000100240002809DB00F01F020E
:101A1000012191404009800000F1E020C0F8001150
:101A200070470000F0B40E4B1B680C46C3F3022352
:101A3000C3F10705042D00D90425191D072901D27A
:101A4000002300E0DB1E012606FA05F1491E2140B5
:101A500099409E40761E16403143F0BC03F04FBEC5
:101A60000CED00E0064900F0070208684FF6FF039E
:101A7000184040EA0220034A104308607047000003
:101A80000CED00E00000FA052B492C4B0A683221CE
:101A90004A432B4940B1B0F5007F086829D020F4B3
:101AA000C06040F480602CE00868C0F34120022848
:101AB00004D051F8800F20F4807022E0D1F880002B
:101AC00020F48070C1F88000086820F4C06040F401
:101AD00000700860B2FBF3F0401C00E0401E4A6951
:101AE000520501D50028F9D1486940050AD50320DF
:101AF0007047C0F34120022806D051F8800F40F40F
:101B00008070086000207047D1F8800040F4807039
:101B1000C1F88000086820F4C06040F400700860DC
:101B2000B2FBF3F0401C00E0401E4A695205DBD5D1
:101B30000028F9D1D8E700005400002040420F00EF
:101B4000007000400248816841F480418160704724
:101B5000007000402DE9F8430446006800269D4DC2
:101B600000035ED5A86D0027C00008D4A86D40F022
:101B70008050A865A86D012700F080500090DFF824
:101B80005892D9F8001041F48071C9F80010FFF79D
:101B9000E3FE804606E000BFFFF7DEFEA0EB080094
:101BA00002282BD8D9F80000C005F5D5D5F890004B
:101BB00010F4407014D0216C814211D0D5F89000FF
:101BC000D5F8901020F4407041F48031C5F89010A1
:101BD000D5F8901021F48031C5F89010C5F8900028
:101BE000C00711D0FFF7B8FE804641F2883907E000
:101BF000FFF7B2FEA0EB0801494501D903260BE02F
:101C0000D5F890008007F3D5D5F89000216C20F42A
:101C100040700843C5F890001FB1A86D20F08050B7
:101C2000A8652078C00707D0D5F88800616820F043
:101C300003000843C5F888002078800707D5D5F849
:101C40008800A16820F00C000843C5F888002078BF
:101C5000400707D5D5F88800E16820F03000084338
:101C6000C5F888002078000707D5D5F888002169D5
:101C700020F0C0000843C5F888002078800607D50A
:101C8000D5F88800616920F440600843C5F88800F1
:101C90002078400607D5D5F88800A16920F4405087
:101CA0000843C5F888002078000607D5D5F88800D5
:101CB000E16920F440400843C5F888002088C00549
:101CC00007D5D5F88800216A20F440300843C5F8CC
:101CD00088002088800507D5D5F88800616A20F43F
:101CE00040200843C5F88800208840050FD5D5F866
:101CF0008800A16A20F440100843C5F88800A06A53
:101D0000B0F5801F03D1E86840F48010E8602088B7
:101D100000050FD5D5F88800E16A20F4400008439B
:101D2000C5F88800E06AB0F5800F03D1E86840F498
:101D30008010E8602088C0040FD5D5F88800216B9A
:101D400020F040700843C5F88800206BB0F1807F18
:101D500003D1E86840F48010E86020884FF000610B
:101D600080040ED5D5F88800626B20F040601043E7
:101D7000C5F88800606B884203D1E86840F48010A1
:101D8000E860208840040ED5D5F88800A26B20F0CA
:101D900040601043C5F88800A06B884203D1E86812
:101DA00040F48010E860208800040FD5D5F8880042
:101DB000E16B20F040500843C5F88800E06BB0F1BB
:101DC000805F03D1E86840F48030E8603046BDE8C9
:101DD000F883000000100240007000402DE9F04739
:101DE0000E4605004FF0000725D0DFF8AC81D8F88B
:101DF000000000F00F00B0420CD2D8F8001021F023
:101E00000F013143C8F80010D8F8000000F00F00AF
:101E1000B04210D12968614CC80741F2883A5AD0C3
:101E20006868DFF87C91032808D0022820682DD04C
:101E3000400500282CDB0120BDE8F08720688001E8
:101E4000F9D5E06800F00302E068C0F30310401C1D
:101E5000032A19D0534A00BFB2FBF0F0E268C2F384
:101E600006225043E268C2F34162521C5200B0FBAA
:101E7000F2F0484517D9A06810F0F00F0CD0880791
:101E800011D5A86840B10EE0474AE5E78003D0E7E6
:101E900000F0B6F8484506D9A06820F0F00040F000
:101EA0008000A0608027A068696820F003000843D4
:101EB000A060FFF751FD814606E000BFFFF74CFD33
:101EC000A0EB090151453AD8A068696800F00C0000
:101ED000B0EB810FF2D12868810714D5400703D5F4
:101EE000A06840F4E060A0602878000705D5A068ED
:101EF00020F4605040F4E060A060A068A96820F081
:101F0000F000084304E0802F03D1A06820F0F00027
:101F1000A060D8F80010404601F00F01B14216D978
:101F2000016821F00F0131430160FFF715FD0746FD
:101F300007E000BFFFF710FDC11B514501D9032089
:101F40007AE7D8F8000000F00F00B042F2D128780C
:101F5000400705D5A068E96820F4E0600843A06068
:101F60002878000706D5A068296920F4605040EA67
:101F7000C100A06000F044F8A1680C4AC1F303114D
:101F8000515C01F01F01C840094908600948006818
:101F9000BDE8F047FFF7FEBC002002400010024001
:101FA00000B4C4040024F40000366E013C6B000849
:101FB0005400002048000020054806490068896850
:101FC000054AC1F30221515C01F01F01C84070476E
:101FD00054000020001002404C6B000805480649E0
:101FE00000688968054AC1F3C221515C01F01F01F4
:101FF000C840704754000020001002404C6B00089D
:10200000184910B58868C0F381021748012A0BD01F
:102010008A68164BC2F38102022A06D08A68C2F38C
:102020008102032A03D0002010BD184610BDCA68E3
:1020300002F00304CA68C2F30312521C032C02D03C
:10204000B0FBF2F001E0B3FBF2F0CA68C968C2F37A
:1020500006225043C1F34161491C4900B0FBF1F035
:1020600010BD0000001002400024F40000366E0194
:102070002DE9F84304007AD02078F84DC00747D006
:10208000A868E96800F00C0001F003010C2802D0F8
:10209000082817D001E0032914D06068B0F5803F0C
:1020A00017D0B0F5A02F286817D020F48030286012
:1020B000286820F4802028606068E0B1FFF74CFCBD
:1020C000064614E02868800322D560680028D2D034
:1020D0001EE0286840F48030EDE740F4802028605E
:1020E000F7E700BFFFF738FC801B642870D828682A
:1020F0008003F7D50CE0FFF72FFC064605E000BF94
:10210000FFF72AFC801B6428F0D828688003F7D4E6
:10211000207880074CD5A868E96800F00C0001F031
:1021200003010C2802D004280DD001E002290AD0B6
:10213000E068002828682BD040F480702860FFF702
:102140000BFC064619E02868400502D5E068002827
:1021500091D06868217C20F0FE4040EA0160686010
:10216000BF480068FFF716FC002800D120E072E1AC
:10217000FFF7F2FB801B0228B8D828684005F7D586
:102180006868217C20F0FE4040EA016068600FE052
:1021900020F480702860FFF7DFFB064605E000BFF3
:1021A000FFF7DAFB801B0228A0D828684005F7D487
:1021B0002078000729D560690028D5F8940013D04D
:1021C00040F00100C5F89400FFF7C6FB064606E0A4
:1021D00090E000BFFFF7C0FB801B022886D8D5F82F
:1021E00094008007F6D510E020F00100C5F89400B7
:1021F000FFF7B2FB064604E0FFF7AEFB801B0228A8
:1022000078D8D5F894008007F6D42078400761D5B7
:10221000A86D0026C00008D4A86D40F08050A865C5
:10222000A86D012600F0805000908E480168C90515
:1022300011D40168804641F480710160FFF78CFB86
:10224000074604E0FFF788FBC01B022852D8D8F8E5
:102250000000C005F6D5A068012815D00528D5F8DE
:10226000900016D020F00100C5F89000D5F890003D
:1022700020F00400C5F89000A06841F28838B8B199
:10228000FFF76AFB07460EE0D5F8900040F001002A
:10229000F0E740F00400C5F89000F5E7FFF75CFBBD
:1022A000C11B414526D8D5F890008007F6D50CE033
:1022B000FFF752FB074604E0FFF74EFBC11B414509
:1022C00018D8D5F890008007F6D41EB1A86D20F07C
:1022D0008050A8652078800629D5A0690028D5F807
:1022E000980013D040F00100C5F89800FFF734FBC8
:1022F000064606E075E000BFFFF72EFB801B0228B4
:102300006FD8D5F898008007F6D510E020F00100CE
:10231000C5F89800FFF720FB064604E0FFF71CFB1A
:10232000801B02285DD8D5F898008007F6D4E069B4
:10233000F0B3A968C1F3810103295DD002282868A0
:1023400020F08070286003D0FFF706FB04464BE0C6
:10235000FFF702FB064604E0FFF7FEFA801B0228A7
:102360003FD828688001F7D4F4E908016FF00F0224
:1023700002EB01110843218A5204490802EB415142
:10238000A26841EA02210843217D4FF07E424908BC
:1023900002EB41610843217B40EAC160E968324AAF
:1023A00011400843E860286840F08070286000E031
:1023B0005EE0E86840F08070E860FFF7CDFA044620
:1023C00005E000BFFFF7C8FA001B022809D82868FB
:1023D0008001F7D54CE000BFFFF7BEFA001B0228D2
:1023E00002D90320BDE8F88328688001F4D4E868A6
:1023F0001E490840E8603BE00128F3D0E868226A03
:1024000000F00301914226D1616A00F0F002090157
:10241000103991421FD1A26A00F4FE41B1EB022FA4
:1024200019D194F82C2000F07841B1EBC26F12D191
:10243000218E00F4C00249084905A1F5001191421E
:1024400009D194F8341000F0C06049084906A1F1A0
:10245000007181420CD00120C4E70000001002404E
:1024600048000020007000400C809F01FCFFEEFE41
:102470000020B7E710B5401EB0F1807F01D30120E6
:1024800010BD4FF0E02460610F21601703F037F9B1
:102490000020A06107202061002010BD7047704718
:1024A0007047704770477047F0B590F83C20012A9C
:1024B0003AD0012580F83C50022280F83D20036884
:1024C0005A689C68194E1A4FB34201D0BB4204D1DE
:1024D00022F4700C4A6842EA0C02DFF858C002EAA3
:1024E0000C02D1F800C04CEA020CC3F804C0026828
:1024F000B2420DD0B2F1804F0AD00F4B9A4207D0B2
:102500000E4B9A4204D0BA4202D00D4B9A4204D1EB
:10251000896824F080031943916080F83D500021C0
:1025200080F83C100846F0BD0220F0BD002C0140B0
:10253000003401408FFFFFFD000400400008004010
:1025400000400140704710B5040003D094F83D00EE
:1025500010B107E0012010BD002084F83C002046A7
:1025600000F022F8022084F83D00211D206801F0CF
:10257000BDFF012084F8480084F83E0084F83F0045
:1025800084F8400084F8410084F8420084F8430055
:1025900084F8440084F8450084F8460084F8470035
:1025A00084F83D00002010BD10B586B0044614210B
:1025B0006846FEF721F821682748B1F1804F29D0FD
:1025C000264A914235D1816D41F002018165816DCC
:1025D00001F002010591C16C41F00201C164C06CBF
:1025E000002100F002000590102000900220CDE9AB
:1025F0000101CDE9031069461948FFF77FF8002271
:1026000011461D20FFF70EFA5FF01D00FFF7FCF9E1
:1026100006B010BD816D41F001018165806D002221
:1026200000F00100059011461C20FFF7FBF91C206B
:10263000ECE70C4A9142EBD1016E41F48031016626
:10264000006E002200F48030059011461820FFF73C
:10265000E9F91820DAE70000001002400004004009
:10266000000400480040014090F83D10012901D0CD
:1026700001207047022180F83D100168CA6842F0CD
:102680000102CA600068104988420ED0B0F1804F44
:102690000BD00E49884208D00D49884205D00D491B
:1026A000884202D00C49884207D181680B4A114008
:1026B000062906D0B1F5803F03D0016841F0010141
:1026C0000160002070470000002C01400004004021
:1026D00000080040003401400040014007000100B4
:1026E00070B5044690F83C000025012814D001265E
:1026F00084F83C60022084F83D0022689068364BE4
:10270000184020F47F409060086870282ED010DCBC
:1027100010F00F0F03D021E04FF0020070BD4FEA20
:102720002012072A1AD2DFE802F0525252524A38D7
:1027300040002A4BC21A984249D009DCB0F5805FAC
:102740000DD0B0F5005F1CD0B0F1101F06D13EE0F7
:10275000102A3CD0202A3AD0502A38D0012584F8BB
:102760003D60002084F83C00284670BDCB68D1E96C
:102770000121206801F025FF2068816841F0770180
:1027800009E0CB68D1E90121206801F01AFF206837
:10279000816841F480418160E1E7CA684968206846
:1027A00002F022F95021206806E0CA6849682068D2
:1027B00002F062F96021206801F00EFFCFE7CA68DD
:1027C0004968206802F010F940212068F4E7226887
:1027D00001461046F0E7000088FFCEFF2000100001
:1027E00070B505460068104988421CD1287F0F4CFF
:1027F000012810D100210E4800F0B3FBA06194ED38
:10280000070AF8EE400A00EE100AB8EE400A80EE21
:10281000801A84ED081A287F022804D10421044874
:1028200000F09FFBE06170BD000400400400002048
:10283000E80000202DE9F041054690F83C00002614
:102840000C46012810D0012085F83C0072B1042A02
:102850001CD0082A2CD00C2A50D00126002085F844
:102860003C003046BDE8F0810220FBE7D4E90012CD
:10287000E368286802F0CAF82868816921F00C0131
:10288000816128688169A26811430FE0D4E90012D0
:10289000E368286802F002F92868816921F4406140
:1028A000816128688169A26841EA02218161D5E7D6
:1028B0002868D4E9002C277B036A016A21F480711F
:1028C0000162C16923F4206321F0030141EA0C0194
:1028D00021F0F00C39074FF420674CEA116107EA48
:1028E00002221A43C16102622868C16921F00C0109
:1028F000C1612868C169A26811432BE02868D4E946
:102900000021E768036AD0F820C02CF4805CC0F88E
:1029100020C0D0F81CC023F420432CF4407C4CEAA7
:10292000012121F4704C4FF6FF7101EA07314FF499
:10293000204741EA0C0107EA02321A43C1610262F0
:102940002868C16921F44061C1612868C169A26831
:1029500041EA0221C16181E710B5040003D094F877
:102960003D0010B107E0012010BD002084F83C00BC
:10297000204600F022F8022084F83D00211D206846
:1029800001F0B4FD012084F8480084F83E0084F88A
:102990003F0084F8400084F8410084F8420084F845
:1029A000430084F8440084F8450084F8460084F825
:1029B000470084F83D00002010BD704730B5044644
:1029C000002571B1042911D0082914D00C2917D081
:1029D000102918D094F8430094F84720012817D103
:1029E00014E094F83E0094F84420F7E794F83F0090
:1029F00094F84520F2E794F8400094F84620EDE77B
:102A000094F84100E8E794F84200E5E7012A01D094
:102A1000012030BD022079B1042916D008291DD02B
:102A20000C2949D010294AD084F8430084F8470083
:102A30000C2947D001253DE084F83E0084F844008D
:102A40002068C26842F0020210E084F83F0084F877
:102A500045002068C26842F0040207E084F84000A4
:102A600084F846002068C26842F00802C260012271
:102A7000206801F099FD1649206888420ED0B0F117
:102A8000804F0BD01349884208D01349884205D0A3
:102A90001249884202D01249884207D18168114AFE
:102AA0001140062906D0B1F5803F03D0016841F0FE
:102AB00001010160284630BD84F84100B6E784F882
:102AC0004200B3E72068C26842F01002CEE700007F
:102AD000002C014000040040000800400034014088
:102AE00000400140070001002DE9F0410446006864
:102AF000C66805694FF00007A90713D5B10711D5BE
:102B0000F91E016101202077206880698007204636
:102B100002D0FFF765FE04E000F0DEF8204600F08A
:102B2000A0F92777680716D5700714D521686FF0CC
:102B300004000861022020772068806910F4407F3B
:102B4000204602D0FFF74CFE04E000F0C5F8204616
:102B500000F087F92777280715D5300713D52168A6
:102B60006FF008000861042020772068C0698007A2
:102B7000204602D0FFF734FE04E000F0ADF8204616
:102B800000F06FF92777E80616D5F00614D521680E
:102B90006FF010000861082020772068C06910F4E9
:102BA000407F204602D0FFF71BFE04E000F094F8BF
:102BB000204600F056F92777E80708D0F00706D03E
:102BC00021686FF001000861204600F0C9F928066D
:102BD00001D4A80408D5300606D521686FF4025048
:102BE00008612046FFF75BFCE80508D5300606D5EE
:102BF00021686FF4807008612046FFF74FFC68067B
:102C000008D5700606D521686FF04000086120469F
:102C100000F0E7F9A80608D5B00606D521686FF0E0
:102C2000200008612046FFF73BFCE80208D5F002CF
:102C300006D521686FF4801008612046FFF732FC4A
:102C4000A80208D5B00206D521686FF4001008610B
:102C50002046FFF726FC680208D5700206D52168D9
:102C60006FF4800008612046FFF71DFC28020AD59A
:102C7000300208D521686FF4000008612046BDE8E5
:102C8000F041FFF75FBCBDE8F081000010B586B0F1
:102C9000044614216846FDF7AFFC2068B0F1804F70
:102CA00015D10C48C16C41F00101C164C06C69468A
:102CB00000F0010005900220009001900020029099
:102CC0000390012004904FF09040FEF717FD06B0EE
:102CD00010BD000000100240704770B5044690F827
:102CE0003C0000260D4601280BD0012084F83C0052
:102CF0000C2A4AD007DC82B1042A20D0082A06D147
:102D000031E0022070BD102A53D0142A63D001266E
:102D1000002084F83C00304670BD206801F066FC5D
:102D20002068816941F0080181612068816921F092
:102D300004018161206881692A69114311E02068DA
:102D400001F0A2FC2068816941F400618161206882
:102D5000816921F480618161206881692A6941EA81
:102D600002218161D4E7206801F0D6FC2068C169A6
:102D700041F00801C1612068C16921F00401C1610D
:102D80002068C1692A69114311E0206801F00CFD37
:102D90002068C16941F40061C1612068C16921F402
:102DA0008061C1612068C1692A6941EA0221C1616B
:102DB000AEE7206801F040FD2068016D41F0080198
:102DC00001652068016D21F0040101652068016D35
:102DD0002A69114311E0206801F066FD2068016D49
:102DE00041F4006101652068016D21F48061016595
:102DF0002068016D2A6941EA0221016588E710B562
:102E0000040003D094F83D0010B107E0012010BD8C
:102E1000002084F83C00204600F022F8022084F8CC
:102E20003D00211D206801F061FB012084F848006D
:102E300084F83E0084F83F0084F8400084F84100A4
:102E400084F8420084F8430084F8440084F8450084
:102E500084F8460084F8470084F83D00002010BD47
:102E60007047704730B50446022269B1042912D078
:102E7000082917D00C291CD0102921D094F8430020
:102E8000012824D0012030BD94F83E000128F9D15A
:102E900084F83E201DE094F83F000128F2D184F828
:102EA0003F2016E094F840000128EBD184F8402040
:102EB0000FE094F841000128E4D184F8412008E0B3
:102EC00094F842000128DDD184F8422001E084F822
:102ED00043200122206801F067FB194B2068194943
:102EE000194A984209D0884207D0904205D0174D20
:102EF000A84202D0164DA84203D1456C45F40045C6
:102F00004564206898420CD0B0F1804F09D0114B35
:102F1000984206D0104B984203D0884201D090428C
:102F200007D181680D4A1140062906D0B1F5803FCE
:102F300003D0016841F001010160002030BD0000B4
:102F4000002C014000340140004001400044014099
:102F50000048014000040040000800400700010054
:102F600070470246002041B1042909D008290AD03F
:102F70000C2901D11068006C70471068406B7047D5
:102F80001068806B70471068C06B704770B504465E
:102F900090F83C00012812D0012584F83C50022012
:102FA00084F83D00204601F0B7FC01004FF000001E
:102FB00007D084F83D5084F83C00012070BD022009
:102FC00070BD2168CA6822F04002CA602168CA68E0
:102FD00022F48042CA6084F83D5084F83C0000200E
:102FE00070BD704790F88410012918D0012180F835
:102FF00084102421C0F8881001680A680B6823F047
:1030000001030B6022F00051002242660368196040
:103010002021C0F8881080F88420104670470220D4
:1030200070477047704770B5044690F884000128D7
:103030001DD0012084F884002420C4F88800206872
:103040000568026822F0010202602068826822F0AE
:1030500060620A438260204601F03CFD2068056002
:103060002020C4F88800002084F8840070BD02206D
:1030700070BD70B5044690F8840001281DD0012071
:1030800084F884002420C4F8880020680568026859
:1030900022F0010202602068826822F060420A4346
:1030A0008260204601F016FD206805602020C4F8EB
:1030B0008800002084F8840070BD022070BD704735
:1030C000704770472DE9F04103680446D8691968D4
:1030D0009A6840F60F0528424FF000054FF00206AF
:1030E0000AD187067ED501F0200702F0805C57EAFE
:1030F0000C0777D0616F3AE1B24FDFF8CCC21740CE
:1031000001EA0C0C57EA0C0C6CD05FEAC07C0CD0C6
:103110005FEAC15C09D54FF0010CC3F820C0D4F8B8
:10312000903043F00103C4F89030830709D5D307EA
:1031300007D023681E62D4F8903043F00403C4F82B
:10314000903043070AD5D30708D02668042333629A
:10315000D4F8903043F00203C4F8903003070CD544
:1031600001F020033B4308D0266808233362D4F8DB
:10317000903043F00803C4F8903003050BD54B01A1
:1031800009D526684FF400633362D4F8903043F0D9
:103190002003C4F89030D4F89030002B3DD0800646
:1031A00009D501F0200002F08051084303D0616F7F
:1031B00009B120468847D4F89000216889684906FB
:1031C00002D410F0280F2AD0204601F069FD2068B3
:1031D000806840061ED52068083050E8001F21F0A6
:1031E000400100E021E040E80012002AF3D1D4F8C9
:1031F000800078B175498163D4F88000FEF730FA19
:1032000000280AD0D4F88000816B00E02046BDE899
:10321000F04108472046FFF754FFBDE8F081204603
:10322000FFF74FFFC4F89050F7E7D4F86CC02027A1
:10323000BCF1010F7ED15FEAC06C7BD55FEAC16C47
:1032400078D51020186220688068400645D5D4F8EB
:103250008010086840680004000CDED0B4F85C20E0
:103260008242DAD9A4F85E000868006880062CD48F
:10327000216851E8000F20F4807041E80002002A24
:10328000F6D12068083050E8001F21F0010140E825
:103290000012002AF5D12068083050E8001F21F004
:1032A000400140E80012002AF5D1C4F88C70E566B0
:1032B000206850E8001F21F0100140E80012002AA9
:1032C000F6D1D4F88000FEF796F92667B4F85C00D2
:1032D000B4F85E10401A81B230E0B4F85C00B4F883
:1032E0005E10401A81B2B4F85E00002895D0002923
:1032F00093D0226852E8000F20F4907042E8000357
:10330000002BF6D12F4BDB432068083050E8002F0C
:103310001A4040E8002CBCF1000FF5D1C4F88C70C5
:10332000E5666567226852E8000F20F0100042E869
:10333000000300E006E0002BF4D126672046FFF7EB
:1033400070FE6AE7C60209D5560207D54FF4801011
:1033500018622046BDE8F041FFF7B2BE03060AD569
:1033600001F0800302F40002134304D0A16F00298E
:103370007FF44CAF51E7420611D54A060FD52046DF
:10338000026852E8001F21F0400142E80013002BC0
:10339000F6D1C0F88870856700F033F93DE7020286
:1033A00006D54A0004D52046BDE8F041FFF787BEA8
:1033B000C001C6D50029C4DA2046BDE8F041FFF7B8
:1033C00031BE000001000010200100048D4C0008F7
:1033D00010B5040003D0D4F8880010B107E0012034
:1033E00010BD002084F88400204600F027F8242037
:1033F000C4F888002068016821F001010160A06A1A
:1034000010B1204601F088FB204601F0DBFE0128C8
:10341000E6D02068416821F49041416020688168CD
:1034200021F02A0181602068016841F001010160FA
:103430002046BDE8104001F0D3BB000010B598B0A5
:103440000446142111A8FDF7D7F844216846FDF77A
:10345000D3F81B492068884230D101200024CDE9EF
:1034600000046846FEF776FB08B1FEF7C2F815487F
:10347000016E41F480410166016E01F480411691B4
:10348000C16C41F00101C164C06C11A900F00100E0
:1034900016904FF4C06011900220CDE9120407206D
:1034A000CDE914404FF09040FEF728F90022114674
:1034B0002520FEF7B7FA2520FEF7A6FA18B010BDB2
:1034C000003801400010024030B4D0F88C30202B7E
:1034D00002D0022030BC7047A9B1A2B10023C3665C
:1034E0000A4C0368A3420BD05B681B0208D5046832
:1034F00054E8003F43F0806344E80035002DF6D1E6
:1035000030BC01F099BF0120E4E7000000800040DA
:1035100000680B49884211D10A480C490A4B0278CD
:1035200008781A54401CC0B20870132801D9002032
:103530000870012203490648FFF7C6BF7047000024
:1035400000380140470000207100002046000020A4
:10355000800100202DE9F8430446D0F88800984601
:1035600016460D46202802D00220BDE8F883A5B1FA
:103570009EB10020C4F890002120C4F888001834BF
:10358000FEF7EAF9A6878146E68754F8100C202753
:10359000183CB0F5805F02D003E00120E5E7206928
:1035A00010B12E46002510E000260EE080212046B6
:1035B00001F0CAFFC0B9DEB116F8010B21688862BC
:1035C000B4F85600401EA4F85600B4F856004B4616
:1035D0004FF00002CDF800800028E7D14FF0400105
:1035E000204601F0B1FF40B1C4F888700320BCE769
:1035F00035F8020BC0F30800E0E7C4F8887000203B
:10360000B3E77047FEE700002DE9F05F634801680B
:10361000634C626A891A32290FD30068606200F035
:10362000E5F800210646012809D0022E1FD0032EFE
:1036300035D0042E4DD02181E671BDE8F09F208960
:10364000401C80B220810128F6D120780028F3D1D7
:10365000E068092809D0401CE06052A15648E268A1
:10366000FCF7B2FE544948202EE0E160F5E72089DE
:10367000401C80B220810128DED120780028DBD1D7
:103680002069092809D0401C20614CA14A482269C0
:10369000FCF79AFE4849602016E02161F5E7208991
:1036A000401C80B220810128C6D120780028C3D1D7
:1036B000606909280BD0401C606145A13E486269E1
:1036C000FCF782FE3C49782000F05CF9B4E76161C8
:1036D000F3E72089401C80B220810128ACD16278B8
:1036E000E06801254FF0FF3B904246D1A278206967
:1036F000904242D1E278606990423ED1394F2570C4
:1037000021713878884640F00100387000F054FB91
:10371000354D4FF4FA700A21C4E90D012968C862D9
:10372000E86041F288394FF0640AB9FBFAF0296881
:10373000886300F0DFF94846FDF7CEFF387800F0E7
:10374000FE00387000F038FB4FF47A703221C4E983
:103750000D012968C8624CF25031E860B1FBFAF003
:103760002968886384F8008000F0C4F9C4F80CB0BC
:10377000C4F810B0C4F814B05EE700F0BBF92079CB
:10378000401CC1B22171C4F80CB0C4F810B0C4F828
:1037900014B003299AD365714EE700005000002051
:1037A0000400002020202042313A256420202020DF
:1037B000202020202020200058000020202020420F
:1037C000323A2564202020202020202020202000A4
:1037D00020202042333A2564202020202020202051
:1037E00020202000000000209C00002070B51A4C12
:1037F00001212046FEF7A6F84FF0904570B1022156
:103800002046FEF79FF848B104212046FEF79AF8BB
:1038100020B101212846FEF795F898B901212046EC
:10382000FEF790F880B102212046FEF78BF868B1D0
:1038300004212046FEF786F850B101212846FEF704
:1038400081F838B1002070BD012070BD022070BD2C
:10385000032070BD042070BD0004004800B585B091
:1038600014216846FCF7C8FE4FF6FF700090002058
:103870000321CDE90201019069460248FDF73EFFB0
:1038800005B000BD0008004800B585B014216846A9
:10389000FCF7B2FE4FF6FF7000900120019003206C
:1038A00003900020029069460248FDF727FF05B00B
:1038B00000BD00000008004870B5002406462146FF
:1038C000204600F003F900F013FA4FF49635304625
:1038D00000F0E2F9641CAC42F9D370BD30B587B09A
:1038E00014216846FCF788FE1E48C16C41F00401B3
:1038F000C164C16C01F004010591C16C41F001018A
:10390000C164C16C01F001010591C16C41F002017B
:10391000C164C06C012500F0020005904FF44870AE
:10392000CDE9000500240394694602940E48FDF792
:10393000E5FE280203940090CDE901544FF0904435
:1039400069462046FDF7DAFEFFF79EFFA06940F4C6
:103950008070A06104481830016841F4087101606A
:1039600007B030BD0010024000040048203AD2B237
:10397000034B02EB420203EB021200F019B8000005
:1039800044590008F0B50E460746002540F23F14A2
:1039900007E021463846FFF7E9FF103C6D1CA4B252
:1039A000761C3278002A01D0142DF2D3F0BD00002D
:1039B0002DE9F04791468A460026044600F086F835
:1039C000DFF84080012700BF00F092F95FF00005AA
:1039D00039F8160007FA05F10842404601D140883F
:1039E00000E0008800F058F96D1C102DF0D3641C25
:1039F000E4B25146204600F069F8761C182EE3D355
:103A0000BDE8F0874000002010B5FFF767FF0020F9
:103A100000F014F8084CA080A088A0F502413039CD
:103A200006D000F00FFC002000F008F8A08010BDC8
:103A300000F07FFBF7E700004000002070B51D4953
:103A40000A6842F400720A600A6842F480720A60EE
:103A5000184C103C226842F020022260164A106086
:103A6000086840F02000086000BF00BF00BF206869
:103A700040F020002060206840F480702060FFF754
:103A8000EDFE4FF09041886A40F48070886200BF7C
:103A900000BF00BF0848001F006885B2886940F475
:103AA00080708861FFF7F0FE206840F400702060AD
:103AB000284670BD280400481408004801B5BDF828
:103AC00000000149488008BD4000002010B50C46A8
:103AD0000146202000F03AF92146BDE8104021209F
:103AE00000F034B901B5BDF800000149088008BDF7
:103AF0004000002010B50020FFF7E0FF4FF6FF70F8
:103B0000FFF7F0FF304C2078002845D0012859D12C
:103B10002EA10020FFF736FF32A11820FFF732FF59
:103B20002AA13020FFF72EFF3449A069B1FBF0F243
:103B300033A13948FCF748FC37494820FFF722FFFA
:103B400094ED080ADFED350A20EE200A10EE100A87
:103B500001F080FE41EC100B31A153EC102B2E48EC
:103B6000FCF732FC2C496020FFF70CFF17A17820EE
:103B7000FFF708FF15A19020FFF704FF13A1A8206D
:103B8000FFF700FF11A1C020FFF7FCFEBDE81040C9
:103B90000EA1D820FFF7F6BE0CA10020FFF7F2FE21
:103BA00025A11820FFF7EEFE08A13020FFF7EAFE5E
:103BB00027A14820FFF7E6FE2BA16020FFF7E2FED9
:103BC0002FA1D4E710BD00000400002020202020F9
:103BD00020202020202020202020202020202020E5
:103BE00000000000202020202020202053544120CD
:103BF00020202020202020200000000040420F0034
:103C0000202020463A2564487A20202020202020A9
:103C10002020202020200000580000200000C84262
:103C2000202020443A252E326625252020202020E1
:103C300020202020202000002020202020202020C4
:103C4000505344202020202020202020000000006D
:103C500020202042313A40202020202020202020F7
:103C6000202020200000000020202042323A402066
:103C700020202020202020202020202000000000C4
:103C800020202042333A40202020202020202020C5
:103C90002020202000000000134A116841F4007128
:103CA0001160114910390B6843F480730B600B6885
:103CB00043F020030B600D4B1860106840F02000AB
:103CC000106000BF00BF00BF086840F0200008601F
:103CD000086840F48070086000BF00BF00BF08683B
:103CE00040F4007008607047280400481408004839
:103CF0001449086840F400700860086840F4807057
:103D0000086010481038026842F0200202600E4B32
:103D100022221A600A6842F020020A6000BF00BF37
:103D200000BF016841F020010160016841F4807129
:103D3000016000BF00BF00BF016841F40071016075
:103D4000704700002804004814080048184B10B5BC
:103D50001A6842F400721A601A6842F480721A609B
:103D6000134A103A146844F020041460114C206087
:103D7000186840F02000186000BF00BF00BF106846
:103D800040F020001060106840F4807010602160E6
:103D9000186840F02000186000BF00BF00BF106826
:103DA00040F020001060106840F48070106010BD7A
:103DB000280400481408004870B5124D044601223A
:103DC0004FF6FF712846FDF7C2FD0F4E0122042178
:103DD0003046FDF7BCFD002204213046FDF7B7FD5B
:103DE000210200222846FDF7B2FD012204213046BF
:103DF000FDF7ADFD3046BDE8704000220421FDF71F
:103E0000A6BD000000080048000C0048F0B587B0CF
:103E100014216846FCF7F0FB2D48C16C41F0040109
:103E2000C164C16C01F004010591C16C41F0200135
:103E3000C164C16C01F020010591C16C41F0010128
:103E4000C164C16C01F001010591C16C41F0020136
:103E5000C164C16C01F002010591C16C41F008011F
:103E6000C164C06C1B4E00F008004FF47F44059005
:103E7000002221463046FDF76AFD174F002204213B
:103E80003846FDF764FD0125CDE900450024029484
:103E9000694630460394FDF731FCCDE9005469468C
:103EA0004FF090400294FDF729FC0720CDE9000473
:103EB00069460A480294FDF721FC04200090CDE9F0
:103EC0000154694638460394FDF718FC07B0F0BD6D
:103ED0000010024000080048000C004800040048A0
:103EE00010B588B0002418480094019402940394FB
:103EF000049405941349069401604F21C0E901140C
:103F000040F2E731C0E903148021C0E90541FEF722
:103F10001AFB08B1FDF76DFB4FF480500090694625
:103F20000948FEF7DDFB08B1FDF763FB049404A923
:103F300005480694FEF7B8FA002801D0FDF759FBB2
:103F400008B010BD004001403401002010B58EB013
:103F500000240794089409940A940B940C941C214F
:103F600068460D94FCF748FB1F484FF08041016004
:103F70004F21C0E9011440F2E731C0E90314802168
:103F80008161FEF7E0FA08B1FDF733FB4FF4805092
:103F9000079007A91448FEF7A3FB08B1FDF729FB1A
:103FA0001148FEF72CFF08B1FDF723FB0B940BA97A
:103FB0000D480D94FEF778FA08B1FDF71AFB602062
:103FC00000904FF4FA70CDE90104042269460648D6
:103FD0000494FEF782FE08B1FDF70BFB0248FEF7E2
:103FE00055FE0EB010BD00009C00002010B590B032
:103FF000002409940A940B94142104A80C94FCF74F
:10400000FBFA2D480D940F940E94009401940294A1
:104010002849039401604F21C0E901144FF6FF7154
:10402000C0E903148461FEF78EFA08B1FDF7E1FAE6
:104030004FF48050099009A91F48FEF751FB08B1C1
:10404000FDF7D7FA1C48FEF787FC08B1FDF7D1FA57
:10405000042004905020CDE9050404A916480894D2
:10406000FEF794FF08B1FDF7C4FA0D940DA91248AC
:104070000F94FEF719FA08B1FDF7BBFA0120CDE95C
:1040800000400294002269460B480394FEF7D2FBDD
:1040900008B1FDF7AEFA02200090019004226946B3
:1040A0000548FEF7C7FB002801D0FDF7A2FA10B0C3
:1040B00010BD000000040040E8000020194810B5C1
:1040C000174901604FF416514160002181600C22B4
:1040D000C160C0E904128161C16101624162816213
:1040E000FFF776F908B1FDF784FA00210D48FEF7D5
:1040F000C0FF08B1FDF77DFA00210A48FEF793FFE3
:1041000008B1FDF776FA0748FEF76CFF08B1FDF736
:1041100070FABDE81040012203490248FFF7D4B904
:10412000003801408001002047000020FEE7FEE744
:10413000704730B501210020FFF708FE4FF47A7078
:10414000FDF749FA00210120FFF700FE41F29071CE
:104150001020FFF7FBFD4FF41C516020FFF7F6FD28
:1041600001216120FFF7F2FD02214620FFF7EEFD5D
:1041700048F210011320FFF7E9FD48F2FE0112207A
:10418000FFF7E4FD4FF4A0610220FFF7DFFD41F2ED
:1041900030010320FFF7DAFD40F2033421463020DE
:1041A000FFF7D4FD21463120FFF7D0FD2146322014
:1041B000FFF7CCFDE51E29463320FFF7C7FD03219D
:1041C0003420FFF7C3FD21463520FFF7BFFD142142
:1041D0003620FFF7BBFD21463720FFF7B7FD21460C
:1041E0003820FFF7B3FD21463920FFF7AFFD294600
:1041F0003A20FFF7ABFD03213B20FFF7A7FD214647
:104200003C20FFF7A3FD4FF4A0513D20FFF79EFD9A
:104210004FF400719220FFF799FD21469320FFF79C
:1042200095FD40F60D019020FFF790FD41F2180139
:104230000320FFF78BFDBDE8304040F273110720EB
:10424000FFF784BD10B543F20801E320FFF77EFDC0
:104250001221E720FFF77AFD41F23121EF20FFF72D
:1042600075FD00210120FFF771FD4FF4E061022090
:10427000FFF76CFD41F230010320FFF767FD0021DD
:104280000420FFF763FD40F207210820FFF75EFDE1
:1042900000210920FFF75AFD00210A20FFF756FDF3
:1042A00000210C20FFF752FD00210D20FFF74EFDED
:1042B00000210F20FFF74AFD00211020FFF746FDE7
:1042C00007211120FFF742FD00211220FFF73EFDDC
:1042D00000211320FFF73AFDC820FDF7FDF941F258
:1042E00090611020FFF732FD40F227211120FFF7E7
:1042F0002DFD3220FDF7F0F91D211220FFF726FDDC
:104300003220FDF7E9F94FF400611320FFF71EFD9D
:1043100014212920FFF71AFD0B212B20FFF716FD92
:104320003220FDF7D9F900212020FFF70FFD0021F1
:104330002120FFF70BFD07213020FFF707FD40F29A
:1043400007713120FFF702FD06213220FFF7FEFC46
:1043500040F204713520FFF7F9FC41F60471362074
:10436000FFF7F4FC04213720FFF7F0FC0021382090
:10437000FFF7ECFC40F206713920FFF7E7FC40F252
:1043800001713C20FFF7E2FC0F213D20FFF7DEFC2E
:1043900000215020FFF7DAFCEF215120FFF7D6FC77
:1043A00000215220FFF7D2FC40F23F115320FFF7CB
:1043B000CDFC4FF41C516020FFF7C8FC01216120A7
:1043C000FFF7C4FC00216A20FFF7C0FC0021802019
:1043D000FFF7BCFC00218120FFF7B8FC0021822000
:1043E000FFF7B4FC00218320FFF7B0FC00218420FC
:1043F000FFF7ACFC00218520FFF7A8FC10219020DE
:10440000FFF7A4FC00219220FFF7A0FC03219320DA
:10441000FFF79CFC4FF488719520FFF797FC002173
:104420009720FFF793FC00219820FFF78FFC41F2C3
:1044300018010320FFF78AFCBDE8104040F2731119
:104440000720FFF783BC7047FDF78CBA00B593B027
:1044500038216846FCF7D0F814210EA8FCF7CCF8F8
:104460004FF40070FDF710FB0220C10103914021C1
:1044700004910121CDE9080100900A21CDE90A103B
:1044800007900C900D906846FDF7F2FD08B172B6EA
:10449000FEE70F200E9003200F9000201090119047
:1044A000129002210EA8FDF799FC002801D072B6E7
:1044B000FEE713B000BD00000248016841F470013E
:1044C0000160704788ED00E00148FEF70DBB000079
:1044D000340100200148FEF707BB00009C000020CB
:1044E0000148FEF701BB0000E80000202DE9F04381
:1044F0000268264B264D274E274C4FF080499842A4
:1045000007D0484505D0A84203D0B04201D0A04210
:1045100003D122F070074A683A43204FDFF880C089
:10452000DFF8808098420DD048450BD0A84209D0D2
:10453000B04207D0A04205D0B84203D0604501D0B8
:10454000404503D122F44075CA682A434D6922F0E0
:1045500080022A4302608A68C2620A6882629842C4
:1045600007D0A04205D0B84203D0604501D04045F5
:1045700001D109690163012141610169C90703D0C2
:10458000016921F001010161BDE8F083002C0140C7
:104590000004004000080040003401400040014099
:1045A000004401400048014010B501F01F03012103
:1045B000046A99408C430462016A9A401143016283
:1045C00010BD10B5846842EA032224F47F440A43F4
:1045D0002243826010BD00008268034B1A400A43E8
:1045E00042F00701816070478FFFCFFF2DE9F04354
:1045F000056A026A22F001020262436882691C4C69
:1046000025F0020522400C6822F0030214438A6858
:10461000194E2A43174D194FDFF864C0DFF8649034
:10462000A84207D0B04205D0B84203D0604501D0BF
:10463000484506D122F00808CA6842EA080222F07A
:104640000402A84207D0B04205D0B84203D060456A
:1046500001D0484505D14D6923F440731D438B6952
:104660002B4343608461496841630262BDE8F08383
:104670008FFFFEFF002C014000340140004001404C
:104680000044014000480140F0B5056A026A22F08A
:104690001002026242688369194C1B4E23400C6869
:1046A00023F4407343EA042425F020038D6843EA91
:1046B0000513144DA84201D0B04206D1CF6823F0B3
:1046C000800343EA071323F04003A8420AD0B04214
:1046D00008D00E4DA84205D00D4DA84202D00D4D78
:1046E000A84207D14D6922F4406242EA85028D69F1
:1046F00042EA850242608461496881630362F0BDD9
:10470000FF8FFFFE002C01400034014000400140BB
:104710000044014000480140F0B5056A026A22F4F5
:10472000807202624368C269194C1B4E22400C68B9
:1047300022F00302144325F400728D6842EA052238
:10474000144DA84201D0B04206D1CF6822F40062D5
:1047500042EA072222F48062A8420AD0B04208D07E
:104760000E4DA84205D00E4DA84202D00D4DA842D4
:1047700007D14D6923F4405343EA05138D6943EA99
:1047800005134360C4614968C1630262F0BD000063
:104790008FFFFEFF002C014000340140004001402B
:1047A0000044014000480140F0B5056A026A22F465
:1047B000805202624268C369194C1B4E23400C6848
:1047C00023F4407343EA042425F400538D6843EA3C
:1047D0000533144DA84201D0B04206D1CF6823F46E
:1047E000004343EA073323F48043A8420AD0B0428F
:1047F00008D00E4DA84205D00D4DA84202D00D4D57
:10480000A84207D14D6922F4404242EA85128D69DF
:1048100042EA85124260C461496801640362F0BDE6
:10482000FF8FFFFE002C014000340140004001409A
:10483000004401400048014030B5056A026A22F494
:10484000803202624268036D114C23400C681C43A5
:1048500025F400330D8943EA05430E4DA8420BD0E1
:104860000D4DA84208D00D4DA84205D00C4DA842D0
:1048700002D00C4DA84204D14D6922F4803242EAA4
:1048800005224260046549688164036230BD00000E
:104890008FFFFEFF002C014000340140004001402A
:1048A000004401400048014030B5046A026A22F425
:1048B000801202624268036D114D24F400142B40F3
:1048C0000D6843EA05230D8944EA05540D4DA842BD
:1048D0000BD00D4DA84208D00C4DA84205D00C4D70
:1048E000A84202D00B4DA84204D14D6922F4802287
:1048F00042EA8522426003654968C164046230BDB2
:10490000FF8FFFFE002C01400034014000400140B9
:10491000004401400048014070B505680024AA68C1
:104920002E4B1A404B6813432D4A13400A681A4312
:10493000AA604A68602A4AD00DDC302A1FD005DC04
:10494000EAB1102A1BD0202A18D118E0402A1FD023
:10495000502A13D135E0234D531BAA420FD009DC56
:10496000702A0ED0B2F1101F09D0203AB2F5801F84
:1049700004D104E0102B02D0402B00D001242046AB
:1049800070BD0B69D1E902210068FFF71AFEF6E756
:104990000A68052A13D0B2F1011F10D00268136A09
:1049A000156A25F00105156202689569096925F007
:1049B000F00545EA0111916100680362DFE701201B
:1049C00070BD0A698968006800F00EF8D7E70A69C7
:1049D0008968006800F050F8D1E700008FFFCFFF32
:1049E000F8FFFEFF3000100010B5036A046A24F0DF
:1049F00001040462846924F0F00444EA021423F000
:104A00000A020A438461026210BD000070B5056AA3
:104A1000046A24F0010404628469124EB0420ED08C
:104A2000B0F1804F0BD0104EB04208D00F4EB042C4
:104A300005D00F4EB04202D00E4EB04203D124F04A
:104A40000304144301E044F001041A0724F0F004C5
:104A500044EA126225F00A0301F00A011943826157
:104A6000016270BD002C01400004004000080040BD
:104A7000003401400040014010B5036A046A24F08C
:104A800010040462846923F0A00324F4704444EA0F
:104A9000023243EA01118261016210BD30B5046A3D
:104AA000056A25F010050562856925F4407545EA1B
:104AB000022222F470454FF6FF7202EA033224F01C
:104AC000A0032A43A02404EA011119438261016270
:104AD00030BD000030B5416EB9B10268916892688E
:104AE000C1F342610B4B520F9C5CE50003F10804DB
:104AF000A25CB5FBF2F2A0F86A205A5C615CD200BD
:104B0000B2FBF1F1A0F8681030BD0121A0F86A10E5
:104B1000F8E700002C6B000890F82810090706D56C
:104B200001684A68836B22F400421A434A6090F895
:104B30002810C90706D001684A68C36A22F4003207
:104B40001A434A6090F82810890706D501684A6818
:104B5000036B22F480321A434A6090F82810490708
:104B600006D501684A68436B22F480221A434A60E2
:104B700090F82810C90606D501688A68C36B22F42C
:104B800080521A438A6090F82810890606D5016879
:104B90008A68036C22F400521A438A6090F8281045
:104BA000490611D501684A68436C22F480121A4301
:104BB0004A60416CB1F5801F06D101684A68836C78
:104BC00022F4C0021A434A6090F82810090606D55C
:104BD00001684A68C06C22F4002202434A607047B0
:104BE0002DE9F84300260446C0F89060FCF7B4FEB7
:104BF0008046206800684FF0200500076FF07E4770
:104C000013D54346002229042046009700F09CFC5F
:104C100058B1216851E8000F20F0800041E80002FF
:104C2000002AF6D1C4F8885021E0206800684007C7
:104C300022D5434600224FF480012046009700F021
:104C400083FCC8B1216851E8000F20F4907041E85E
:104C50000002002AF6D12068083050E8001F21F039
:104C6000010140E80012002AF5D1C4F88C5084F804
:104C700084600320BDE8F883C4F88850C4F88C50E1
:104C800044F86C6F666026760020F3E710B5806A02
:104C90000021A0F85E10A0F85610FEF712FA10BD21
:104CA00010B5026852E8001F21F4907142E8001329
:104CB000002BF6D10E4B0268083252E8001F194053
:104CC00042E80014002CF6D1C16E012908D1016818
:104CD00051E8002F22F0100241E80023002BF6D10A
:104CE0002021C0F88C100021C166416710BD000072
:104CF000FEFFFFEF10B5B0F86020D0F88C300168EF
:104D0000222B04D0886940F00800886110BD496AF0
:104D1000836D11401980816D891C8165B0F85E102A
:104D2000491EA0F85E10B0F85E100029EED10268AE
:104D300052E8001F21F4907142E80013002BF6D1D5
:104D40000168083151E8002F22F0010241E80023F8
:104D5000002BF5D12021C0F88C100021416701679C
:104D6000154B02689A420BD05268120208D50368AC
:104D700053E8002F22F0806243E80024002CF6D193
:104D8000C26E012A02D0FEF7C3FB10BDC1660268E5
:104D900052E8001F21F0100142E80013002BF6D169
:104DA0000168CA69D243D20601D410220A62B0F85F
:104DB0005C10FEF736F910BD008000402DE9F04789
:104DC0000446B0F860600068C569D0F800A0D0F86B
:104DD0000880D4F88C10222905D0816941F008019F
:104DE0008161BDE8F087B4F868704FF0000975E0A4
:104DF0002068406AA16D30400880A06D801CA065CD
:104E0000B4F85E00401EA4F85E002068C56969071A
:104E100030D0E9070AD05FEACA5107D50121016203
:104E2000D4F8900040F00100C4F89000A8070BD51A
:104E30005FEAC87008D0216802200862D4F89000A8
:104E400040F00400C4F8900068070BD55FEAC87012
:104E500008D0216804200862D4F8900040F00200D5
:104E6000C4F89000D4F8900020B12046FEF729F94C
:104E7000C4F89090B4F85E0080BB216851E8000F40
:104E800020F4807041E80002002AF6D1304A206800
:104E9000083050E8001F114040E80013002BF6D105
:104EA0002020C4F88C00C4F874904946C4F870906F
:104EB000284A206890420BD04068000208D522683A
:104EC00052E8000F20F0806342E800300028F6D15D
:104ED000E06E012825D02046FEF71AFB0FB1A80688
:104EE00086D4B4F85E0000283FF47BAFB4F86810B5
:104EF00081427FF676AF2068083050E8001F21F02D
:104F0000805140E80012002AF5D1134860672168FB
:104F100051E8000F40F0200041E80002002AF6D1DD
:104F20005FE7E166216851E8000F20F0100041E8DA
:104F30000002002AF6D12068C169C943C90601D41C
:104F400010210162B4F85C102046FEF76AF8C5E74C
:104F5000FEFFFFEF00800040F54C000810B5B0F8F0
:104F60006020D0F88C300168222B04D0886940F092
:104F70000800886110BD496A1140826D1170816D11
:104F8000491C8165B0F85E10491EA0F85E10B0F8AB
:104F90005E100029EED1016851E8002F22F49072D2
:104FA00041E80023002BF6D10168083151E8002FB9
:104FB00022F0010241E80023002BF5D12021C0F8A6
:104FC0008C10002141670167154B02689A420BD093
:104FD0005268120208D5036853E8002F22F080625D
:104FE00043E80024002CF6D1C26E012A02D0FEF75D
:104FF0008FFA10BDC166026852E8001F21F010014F
:1050000042E80013002BF6D10168CA69D243D206E8
:1050100001D410220A62B0F85C10FEF702F810BD4D
:10502000008000402DE9F0470446B0F86060006859
:10503000C569D0F800A0D0F80880D4F88C102229D7
:1050400005D0816941F008018161BDE8F087B4F8BD
:1050500068704FF0000975E02068406AA16D30402B
:105060000870A06D401CA065B4F85E00401EA4F856
:105070005E002068C569690730D0E9070AD05FEA99
:10508000CA5107D501210162D4F8900040F0010017
:10509000C4F89000A8070BD55FEAC87008D0216853
:1050A00002200862D4F8900040F00400C4F8900098
:1050B00068070BD55FEAC87008D021680420086231
:1050C000D4F8900040F00200C4F89000D4F89000AA
:1050D00020B12046FDF7F5FFC4F89090B4F85E00CB
:1050E00080BB216851E8000F20F4807041E8000285
:1050F000002AF6D1304A2068083050E8001F1140DD
:1051000040E80013002BF6D12020C4F88C00C4F82E
:1051100074904A46C4F870902849206888420BD0A1
:105120004068000208D5216851E8000F20F0806037
:1051300041E80003002BF6D1E06E012825D020467F
:10514000FEF7E6F90FB1A80686D4B4F85E00002891
:105150003FF47BAFB4F8681081427FF676AF2068E9
:10516000083050E8001F21F0805140E80012002A6A
:10517000F5D113486067206850E8001F41F0200116
:1051800040E80012002AF6D15FE7E266216851E8A4
:10519000000F20F0100041E80002002AF6D120683C
:1051A000C169C943C90601D410210162B4F85C1079
:1051B0002046FDF736FFC5E7FEFFFFEF0080004009
:1051C0005D4F00082DE9F0410446016880682269BE
:1051D000E3691043626900251A431043DFF82CC2CB
:1051E0000A688B4B1A4002430A6020684168E268F3
:1051F00021F44051114341602168A069614501D00B
:10520000226A10438A68834B1A4002438A602068EE
:10521000C16A626A21F00F011143C1627E492368AD
:105220007E488B420DD1D0F8880010F0030006D0E4
:10523000012855D0022842D003283FD152E0012056
:105240003DE077498B420BD1D0F8880010F00C007C
:1052500035D0042833D0082840D00C282ED141E086
:1052600070498B420BD1D0F8880010F0300026D066
:10527000102835D0202831D030281FD132E06A499B
:105280008B420BD1D0F8880010F0C00017D0402816
:1052900026D0802822D0C02810D123E063450DD12C
:1052A000D0F8880010F4406009D0B0F5806F17D0B6
:1052B000B0F5006F12D0B0F5406F13D010205B49ED
:1052C0005B4F00264FF4004263453BD160B102289A
:1052D00013D004280BD0082872D10DE00220EEE78D
:1052E0000420ECE70820EAE7FCF766FE01E0FCF7A3
:1052F00087FE010001D17CE01146606A37F810207A
:105300006768B1FBF2F007EB4703834270D8B0EB5C
:10531000073F6DD8002308461946FAF7DDFF09025A
:1053200041EA106102027808101871413A460023E0
:10533000FAF7D2FF3F4AA0F54071914258D8216850
:10534000C86056E0E3694FF6EF7893422CD1092804
:105350004ED2DFE800F00508114D0D4D4D4D100007
:10536000FCF72AFE01E0FCF739FE010004D140E021
:10537000FCF746FEF9E71146606A37F81000B1FB0A
:10538000F0F04100606801EB5001B1FBF0F0A0F1DA
:10539000100141452CD84FF6F0710140C0F3420096
:1053A00001432068C16024E0092821D2DFE800F031
:1053B000050912200E2020201100FCF7FDFD02E05F
:1053C00016E0FCF70BFE010004D112E0FCF718FE1A
:1053D000F9E71146606A37F81000B1FBF0F1606838
:1053E00001EB5001B1FBF0F0A0F1100141450AD9E9
:1053F00001250120A4F86A0024F8680F2846E66019
:105400002661BDE8F08180B299E70000008000408D
:10541000F369FFCFFFF4FF11003801400010024094
:105420000044004000480040004C00400024F400CC
:10543000146B0008FFFC0F0070B58165A0F85C20BC
:10544000A0F85E200023436781684FF48056FF2454
:10545000B14204D10169F9B940F2FF1122E07F2580
:10546000C1B1B1F1805F1AD0A0F86030C0F89030BF
:105470002221C0F88C100168083151E8003F43F048
:10548000010341E80034002CF5D1416EB1F1005F19
:105490000ED031E0016941B9A0F86040E6E701694A
:1054A00019B13F21A0F86010E0E7A0F86050DDE7F7
:1054B000B0F8681091421FD88168B14201D10169EA
:1054C000B9B11D494167016941B1026852E8001F45
:1054D00041F4807142E80013002BF6D101680831D5
:1054E00051E8002F42F0805241E80023002BF5D113
:1054F00020E012494167F1E78168B14201D10169B9
:1055000069B10F494167016959B1026852E8001F4A
:1055100041F4907142E80013002BF6D10AE00949EA
:105520004167026852E8001F41F0200142E8001381
:10553000002BF6D1002070BD25500008BD4D00089D
:105540005D4F0008F54C00082DE9F04799461746D5
:105550000D4604464FF00008089E33E0701C31D021
:10556000FCF7FAF9A0EB0900B04218D8BEB12068E8
:105570000168490726D5802D24D0402D22D0C1694D
:10558000C94309070DD4082505622046FFF788FBAB
:10559000C4F8905084F884800120BDE8F08703208F
:1055A000FBE7C069C04300050CD421684FF40060DC
:1055B00008622046FFF774FB2020C4F8900084F8AE
:1055C0008480ECE72068C06935EA000004D0002040
:1055D000B842C3D00020E0E70120F9E70148FDF719
:1055E00071BD000080010020F8B5234C23492448F8
:1055F000227862B30A68836AD21A322A29D90968E2
:105600008162204990F801C00A784B79303AD7B2CC
:105610004A78303B303AD6B28A78DBB2303AD5B2EB
:105620000A798979303A3039D2B2C9B2674511D195
:105630008778BE420ED1C678B5420BD142708370D6
:10564000C170009110A11548FAF7BEFE06E0096886
:105650008162F8BD12A11148FAF7B6FE0F48FAF7B9
:105660008AFFC1B20D4800F01FF821780548FAF70B
:10567000A1FF00202070F8BD46000020500000204F
:1056800004000020710000204E657750617373772D
:105690006F72643A2564256425640A008500002041
:1056A0004552524F520A00000A4610B501464FF4C7
:1056B0007A730548FDF74EFF03480068C169C94386
:1056C0004906FBD410BD000080010020FEE703B4B2
:1056D00001984100009850EAC12018BF04204A0DEB
:1056E00018BF40F0010040F2FF72B2EB515F08BFFB
:1056F00040F00200012808BF052002B070470907EA
:10570000090E002804DB00F1E02080F80014704747
:1057100000F00F0000F1E02080F8141D70473038D1
:105720000A2801D20120704700207047F0B41C48BD
:1057300000251C494279012A03D1457182710A680A
:10574000C2620A68C46A41F28836171B164AB74219
:10575000137802D38779012F1BD00D682D1BB5421A
:105760001BD28579012D18D10D682C1B6425B4FB43
:10577000F5F605FB1644002C0FD1046B0D68AC4206
:105780000BD00968016383F002001070F0BCFEF7D3
:1057900013BB857103F0FD00F7E7F0BC7047000014
:1057A000040000205000002000000020FCF7E2F878
:1057B000FEF74CFEFEF72AFBFEF792FBFEF77EFC9F
:1057C000FEF7C4FBFEF712FC114900200870FEF73B
:1057D000F3FAFEF719F94FF6FF70FEF76DF8FEF7D2
:1057E00089F904210B48FDF73DFB00210A48FDF72C
:1057F000E5F804210848FDF7E1F80748FCF734FF15
:10580000FDF702FFFFF7F0FEFFF790FFF8E700005B
:10581000000000209C000020E800002010B50029B6
:105820000AD00878002807D005487844FBF7C2FA68
:10583000002801D0002010BD0248784410BD0000AF
:10584000DE130000D61300000808A0F500114FEA8F
:105850003101704743004FEAD30C4FEA3C0C434000
:105860001FBF40070CF1605113F0FE4F70471CF052
:10587000006F03D100200CF0004170470CF0004392
:1058800043EA507010B540EACC0000F00EF800BFBB
:10589000000000924FEA0001FFF7D6BF4FF0004131
:1058A0004FF00000A1F5002170470EF1020E2EF01E
:1058B000030E5EF8044B244204D44FEA4102B2F1D5
:1058C0007F4F11D84FEA4003B3F17F4F0CD80ED170
:1058D0004FEAD07CB2F17F4F0CEB4C0C0CF1020C78
:1058E00008BF4CEBD17C04E04FF0080C01E04FEA1C
:1058F000D17C0CEB4C0324FA03F404F00704B4F15C
:10590000040C06D20EEB840CBDE810404CF0010CE8
:105910006047DFE80CF0070802024FF00040A0F5F6
:10592000800010BD0846420018BFD2F1807288BFC7
:1059300000F0004010BD4FF04070E1EE100A7047DB
:10594000FAF7B6BF000000000000000000000000F1
:105950000000000000000000000000000000000047
:105960000000000000000000000000000000000037
:1059700000000000000080018001800180018001A2
:10598000800180018001800180018001800180010F
:105990000000000080018001000000000000000005
:1059A0000000000000000000CC00CC00CC00CC00C7
:1059B000CC00CC000000000000000000000000004F
:1059C00000000000000000000000000000000000D7
:1059D00000000000000000000000000000000000C7
:1059E000600C600C600C30063006FE1FFE1F300697
:1059F00038071803FE1FFE1F180318038C018C01C3
:105A00008C01000000008000E003F80F9C0E8C1C4D
:105A10008C188C009800F801E007800E801C8C1810
:105A20008C189C18B80CF00FE00380008000000078
:105A3000000000000000000000000E181B0C110CFC
:105A400011061106110311039B018E01C038C06CB1
:105A500060446044304430441844186C0C380000F2
:105A6000000000000000E001F003380718061806E7
:105A70003003F001F000F8009C310E33061E061CC6
:105A8000061C063FFC73F02100000000000000002F
:105A900000000000000000000C000C000C000C00D6
:105AA0000C000C00000000000000000000000000DE
:105AB00000000000000000000000000000000000E6
:105AC000000000000000000200038001C000C000D0
:105AD00060006000300030003000300030003000E6
