:020000040800F2
:10000000E0040020C10100086927000881220008DF
:1000100065270008A10C000821330008000000003B
:100020000000000000000000000000009D300008FB
:10003000A50C00080000000099300008A13000085D
:10004000DB010008DB010008DB010008DB01000820
:10005000DB010008DB010008DB010008DB01000810
:10006000DB010008DB010008DB010008DB01000800
:10007000DB010008DB010008DB010008DB010008F0
:10008000DB010008DB010008DB010008DB010008E0
:10009000DB010008DB010008DB010008DB010008D0
:1000A000DB010008DB010008DB010008DB010008C0
:1000B000DB010008DB010008DB010008DB010008B0
:1000C000DB010008DB010008DB010008DB010008A0
:1000D000DB01000815330008DB010008DB01000824
:1000E000DB010008DB010008DB010008DB01000880
:1000F000DB010008DB010008DB010008DB01000870
:10010000DB010008DB010008DB010008DB0100085F
:10011000DB010008DB010008DB010008DB0100084F
:10012000DB010008DB010008DB010008DB0100083F
:10013000DB010008DB010008DB010008DB0100082F
:10014000DB010008DB010008DB010008DB0100081F
:10015000DB010008DB010008DB010008DB0100080F
:10016000DB010008DB010008DB010008DB010008FF
:10017000DB010008DB010008DB01000800000000D3
:10018000DB010008DB010008DB010008DB010008DF
:10019000DB010008DB010008DB010008DB010008CF
:1001A000DB010008DB010008DB010008DFF80CD0F0
:1001B00000F0F8FA0048004725330008E00400206A
:1001C0000648804706480047FEE7FEE7FEE7FEE7F1
:1001D000FEE7FEE7FEE7FEE7FEE7FEE7A5300008E4
:1001E000AD0100082DE9F05F0546002092469B46D0
:1001F00088460646814640241BE02846414647463D
:10020000224600F07BF853465A46C01A914110D35B
:1002100011461846224600F062F82D1A67EB0108D5
:100220004F4622460120002100F059F817EB000943
:100230004E41201EA4F10104DFDC484631462A4627
:100240004346BDE8F09F421C10F8011B0029FBD17A
:10025000801A704700F0004230F000400AD0C10D13
:1002600001F56071C0F3160042EA0151C20840076F
:100270001143704700200146704701F0004330B43D
:1002800021F0004150EA010206D00A0DA2F5607289
:10029000C1F31301002A02DC30BC00207047440F78
:1002A00044EAC104C100E01830BC00EBC25000F0C9
:1002B00089B830B50B46014600202022012409E010
:1002C00021FA02F59D4205D303FA02F5491B04FA0F
:1002D00002F52844151EA2F10102F1DC30BD202AEE
:1002E00004DB203A00FA02F1002070479140C2F18D
:1002F000200320FA03F3194390407047202A04DBBF
:10030000203A21FA02F00021704721FA02F3D0408E
:10031000C2F1200291400843194670470FB40B0008
:1003200010B58AB00FA900910E994FF00004234A2E
:10033000CC60214CCDE9064200D004236FF000428E
:10034000CDE901321E4A089202466B46002000F0B9
:10035000EDFA0AB010BC5DF814FBF0B585B00746A5
:100360004FF0FF300091CDE901011E4600201546F7
:100370000C4604903B466A46314604A8FFF7CEFF80
:1003800004990346601825B109B1024600E02246EF
:100390002A6000290ED0002B02DD0099814209D08D
:1003A0000094001BCDE901043B466A46314604A88F
:1003B000FFF7B4FF05B0F0BD650B0008830B000824
:1003C000F90700080029A8BF7047401C490008BF72
:1003D00020F00100704710B4B0FA80FC00FA0CF075
:1003E00050EA010404BF10BC704749B1CCF12004AD
:1003F00021FA04F411FA0CF118BF0121214308433A
:10040000A3EB0C01CB1D4FEA00614FEA102042BF65
:10041000002010BC704700EBC35010440029A4BF5B
:1004200010BC7047401C490008BF20F0010010BC00
:1004300070472DE9FE4F804681EA0300C00F0C464D
:10044000009021F0004123F00045B8EB0200A941E3
:1004500005D24046214690461C460B46024623F0F4
:100460000040104347D0270DC7F30A00C3F30A51D9
:100470000290401A019040286BDAC3F3130040F455
:10048000801B0098924620B10023D2EB030A63EB55
:100490000B0B01985946C0F140025046FFF71FFF71
:1004A00006460D4650465946019A00F093F910EB66
:1004B00008006141002487EA115284EAE7731A4375
:1004C00040D0009A62B3019A012A4FEA075215DC24
:1004D000001B61EB02014FF0004202EA0752CDE936
:1004E0000042001C41F5801132462B4600F069FBAA
:1004F00003B0BDE8F08F40462146F9E7001B61EBF1
:100500000201001C41F5801300185B412018A2F580
:10051000001747EB030140EAD570B6196D4111E0B1
:100520006D084FEA360645EAC0754FEA0752001BD0
:1005300061EB0201001C41F5801149084FEA3000CF
:100540000019514132462B4603B0BDE8F04F00F090
:1005500029BB0098012240000023D0EB020263EB8C
:10056000E073009821464FEAE074B8EB000061EBBD
:100570000401E9E783F000435BE781F0004158E7BD
:100580002DE9FE4F81EA030404F0004421F000410C
:1005900000944FF0000B23F0004350EA01045ED0BA
:1005A00052EA03045BD0C3F30A54C1F30A552C4446
:1005B000A4F2F3340194A0FB0254C1F3130141F4FB
:1005C0008011C3F3130343F4801301FB024400FBC7
:1005D000034E840A970A44EA815447EA8357A4FBEE
:1005E000076802958D0A05FB07854FEA932C04FBEB
:1005F0000C542705029D4FEA065847EA1637B5EB1B
:1006000008056EEB070C870E920E47EA811742EA47
:100610008312A7FB0201B6EB0B0164EB00042B0D68
:1006200043EA0C335E1844EB1C50DA465146E7FBB4
:100630000201C5F313044FEA0B3343EA14534FEAA4
:100640000432019C43EA0603A4F10C040294009CCA
:10065000CDE900B400F0B5FA03B0BDE8F08F00209A
:100660000146F9E72DE9F04D81EA030404F0004B5F
:1006700021F0004514464FF0000A23F0004150EAF3
:10068000050220D054EA01021DD0C5F30A570246E4
:10069000C5F31303C1F31300C1F30A5640F48015E8
:1006A00043F48013A7EB0608101BD64608F2FD386A
:1006B00073EB050002D308F1010801E092185B41D9
:1006C000B8F1000F03DA00200146BDE8F08D0020EC
:1006D0004FF48011064684460EE0171B73EB0507A6
:1006E00005D3121B63EB050306434CEA010C4908D2
:1006F0004FEA300092185B4150EA0107EDD152EA0F
:10070000030012D082EA040083EA0501084305D001
:10071000101BAB4106D20122002306E000224FF05D
:10072000004302E06FF0010253101AEB06004CEB9D
:10073000085110EB0A0041EB0B01BDE8F04D00F051
:1007400031BAC1F30A52C1F3130140F2FF3341F44D
:1007500080119A4202DA00200146704740F233438A
:100760009A42A2F2334202DC5242FFF7C7BDFFF7C2
:10077000B6BD000030B5041E71F1000404DB4FF07B
:100780000044404264EB0101141E73F1000405DBD8
:100790001C464FF00043524263EB0403994208BFEA
:1007A000904230BD1CB509480090094801900546AB
:1007B000009C06E0E06840F0010394E807009847D9
:1007C0001034AC42F6D3FFF7F5FC00008C4700086C
:1007D000AC470008202A06DBCB17203A41FA02F08A
:1007E00043EAE07306E041FA02F3D040C2F120028E
:1007F0009140084319467047C0B24FF4F05100F0E1
:100800002FBA00002DE9FF4F087883B09946FF28E2
:1008100005D0491C2D2804D00024002008E0002029
:100820000BE00124F9E700EB800003EB4000491CDA
:100830000B78FF2BF7D104B14042002302931478C8
:1008400019461D462D2C01D02B2C04D1521C2D2CC9
:1008500013D000240294AA461478FF2C0FD00A2546
:10086000A3FB057801FB05814FF0000C03FB0C1185
:10087000521CE3194AEB0101EEE70124EAE7814447
:1008800053EA010002D019F5C87F06DA0398002167
:10089000C0E9001107B0BDE8F08F0025AE4E2F462D
:1008A000DFF8B882184600F0EFF9CDE90001B9F1A0
:1008B000000002DAC9F1000400E004460023A74A60
:1008C0001AEB030B42EB045A12E0E00707D02A466A
:1008D000334638464146FFF753FE074688462A46C8
:1008E000334610461946FFF74BFE05460E46641088
:1008F000002CEAD1DDE90001B9F1000F5A46534658
:1009000006DAFFF7AFFE3A464346FFF7ABFE05E0D7
:10091000FFF736FE3A464346FFF732FE029A0AB127
:1009200081F00041039AC2E90001B3E72DE9FF4FCE
:100930001F468DB0D7E901464FF0FF382E204546BF
:100940004FF000090B90B9696D1C0E988847396A01
:10095000824688470028F6D1BAF1FF3F0AD024F436
:10096000D064002E11DDBAF12B0F08D0BAF12D0F93
:100970000BD102E0404611B08DE744F48064B969C0
:100980006D1C0E9888478246761E6946600501D523
:100990002D2000E02B208DF8000001F1010B0DF15E
:1009A000200809E0B9696D1C0E98884782460F98A7
:1009B00044F40074761E0560002E02DDBAF1300F9B
:1009C000F0D00B998A453ED144F0800406E00F999F
:1009D000681CA9F1010944F400740860B9696D1C30
:1009E000761E0E98884782463028F0D02BE00B996F
:1009F0008A4505D1200603D444F08004761E18E011
:100A0000504602F0E7FE08B30DF11302761EAAF17C
:100A1000300044F40074934506D20BF8010B200615
:100A200007D5A9F1010003E0200602D409F1010075
:100A30008146A00502D50F99681C0860B9696D1C34
:100A40000E9888478246002ED1DC53E0002E51DDFF
:100A5000BAF1650F02D0BAF1450F4BD1A00549D5C7
:100A6000B9696D1C24F44074761E0E98884782463E
:100A7000002E0CDD2B2804D0BAF12D0F07D144F441
:100A80008074B9696D1C0E9888478246761EE00511
:100A900001D52D2100E02B2108F8011BCDF82C8079
:100AA00021E00DF12901761E44F4007488450CD232
:100AB000AAF1300010F0FF0088F8000002D10B9975
:100AC000884509D908F1010806E0E00501D5244868
:100AD00001E042F20F708146B9696D1C0E9888479B
:100AE00082460F980560002E04DD504602F072FE2B
:100AF0000028D6D1F9690E988847FF208BF80000AE
:100B000088F800000020069007904B466A4608A926
:100B100006A8FFF777FEA00502D46FF001002AE7D0
:100B200014F0240F0AD0E00714D1DDE9061238686A
:100B3000031D3B600068C0E900120BE0DDE906011F
:100B4000FFF79BFB0146E00704D13868021D3A60BD
:100B50000068016028460EE7000014400000F03FE6
:100B6000F1D8FFFF426842B1016811F8013B23B19F
:100B7000521EC0E90012184670470121C160881E4C
:100B8000704742685AB1C368016843B983688B42B1
:100B900005D0491E521CC0E90012002070474FF0DA
:100BA000FF30704710B5141E73F1000408DA401CC2
:100BB00041F1000192185B411A4301D120F001007C
:100BC00010BD2DE9F04D92469B4611B1B1FA81F26C
:100BD00002E0B0FA80F220329046FFF780FB044634
:100BE0000F4640EA0A0041EA0B0153465A460843C1
:100BF00013D0114653EA010019D0C8F14002504603
:100C0000FFF77CFB05460E46504659464246FFF725
:100C100066FB084305D0012004E020463946BDE8C4
:100C2000F08D0020054346EAE0762C4337430A98CE
:100C30006305E40AA0EB08000022FD0A44EA4754D9
:100C40000A3002D500200146E9E701051019694183
:100C5000DDE9084500196941BDE8F04DA2E7000053
:100C60007F2801D9002208E0064A02EB5002C007A3
:100C7000127800D1120902F00F02012090400840C2
:100C8000704700001C3F00080EB540F2334202924C
:100C90000022CDE900221346FFF793FF03B000BD09
:100CA000FEE70000704700007047000090F8351024
:100CB000022909D1052180F835100068016821F06A
:100CC00001010160002070478021416501207047CB
:100CD000B0B540F258046FF00501C2F200040D1ADD
:100CE000204600F0B5FDA9B220684FF6F972914296
:100CF000416211D84FF6FA71426A92B28A420BD21F
:100D0000426A92B28A4207D2426A92B28A4203D2BD
:100D1000426A92B28A42EFD340F25800C2F2000017
:100D2000BDE8B04000F0A8BD2DE9F04F82B000F161
:100D30003E4202F1FF72870542F2004647EA9227DF
:100D4000C4F202060A2243F6004EB04208BF09224E
:100D5000C4F2010E092F38BF3A464FF0010A0026AF
:100D600000274FF00008009208E000BF023708F1AA
:100D70000108202F06F1040600F0AA800A680AFA8A
:100D800008F412EA0409F1D0D1F804C0BCF1120F42
:100D900000F298800AFA0CF212F0061F00F092801E
:100DA0000323826803FA07F5CB68AA43BB401A43C2
:100DB000826042684FEA1C13A24303FA08F34FEA29
:100DC000480A6FEA050B1A434260C2688B6802EA60
:100DD0000B0203FA0AF31A434CF01003122BC26001
:100DE00013D16FF0030202EA5802024406F01C0518
:100DF0000F23D2F820C003FA05F40B692CEA04048F
:100E0000AB4023431362D1F804C002680CF0030323
:100E100002EA0B0203FA0AF31A435FEACC034FF02B
:100E2000010A0260A2D5002243F644030192C4F2F3
:100E300002031A684FF6084C42F480421A601A689E
:100E4000CFF6FF7C02F480420192019A28F003025F
:100E5000724452F80C3006F00C050F24AC40A3434A
:100E6000009C04FA05F52B4342F80C30DEF8002014
:100E70004B6842EA0905DC0358BF22EA0905CEF8AF
:100E80000050DEF804209C0342EA090558BF22EA1C
:100E90000905CEF80450DEF80820DC0242EA090514
:100EA00043F60C4458BF22EA0905CEF80850C4F2B4
:100EB000010422689B0242EA090558BF22EA09059B
:100EC000256053E70322BA406FEA020BBA467CE77B
:100ED00002B0BDE8F08F0000002A08BF090481615C
:100EE0007047000040F2DC00C2F20000006870476A
:100EF00040F2040040F2DC01C2F20000C2F2000144
:100F000000780A68104408607047000080B543F616
:100F10000040C4F20200016841F400710160016800
:100F200041F480610160016841F480710160032037
:100F300000F086F8002000F005F800F027F8002007
:100F400080BD000070B540F20406C2F2000640F217
:100F50000C013278C2F200014FF47A730968B3FBD6
:100F6000F2F20446B1FBF2F1084600F095FB0F2CBB
:100F70004FF0010508D838B94FF0FF302146002264
:100F8000002500F031F87460284670BD82B0002062
:100F900043F640010190C4F202014A6842F48042E3
:100FA0004A604A6802F480420192019A00900868FF
:100FB00040F080500860086800F080500090009871
:100FC00002B07047002848BF704700F01F0101229F
:100FD00002FA01F11C2202EAD0004EF20012CEF217
:100FE000000281507047000010B54EF60C5CCEF246
:100FF000000CDCF80030C3F3022E8EF00704042C42
:1010000028BF0424BEF103034FF0FF3E0EFA04F4A0
:1010100038BF0023A14399400EFA03F39A431143CA
:1010200000F00F0200F160430901043A03F5644344
:101030006244002848BF02F10C03197010BD000083
:101040004EF60C51CEF200010A684FF6FF031A402B
:1010500060F30A2242F0806040F0FD700860704743
:1010600070B582B00020019043F64000C4F2020047
:101070000168402641F0805101600068C4F20E26EC
:1010800000F080500190019847F204050120C4F25D
:1010900000053060FFF726FF044600BF2868C00344
:1010A00006D4FFF71FFF001BB0F57A7FF6D90EE0DC
:1010B00001207060FFF716FF044600BF2868800318
:1010C00008D4FFF70FFF001BB0F57A7FF6D9032095
:1010D00002B070BD002002B070BD0000002804BF47
:1010E000012070472DE9F04143F60808C4F20208D8
:1010F0000446D8F8F8030D4600F00F00884207D2E6
:1011000088F8F853D8F8F80300F00F00A84277D118
:101110002068810717D5410705D5D8F8001041F49C
:10112000E051C8F80010010705D5D8F8001041F4C7
:101130006041C8F80010D8F80010A26821F0F00152
:101140001143C8F80010C00740D1D8F8F80300F0E8
:101150000F00A84207D988F8F853D8F8F80300F030
:101160000F00A8424CD12068410707D5D8F80010DD
:10117000E26821F4E0511143C8F80010000708D5D7
:10118000D8F80000216920F4604040EAC100C8F8A6
:10119000000000F07DF8D8F8001043F65C72C1F34F
:1011A0000311C0F60002515C40F20C0220FA01F17A
:1011B00040F20800C2F200000068C2F200021160B2
:1011C000FFF7C0FE0020BDE8F08100BF6068811E0F
:1011D000022907D258F8081C89015CBF0120BDE82C
:1011E000F08111E0012807D158F8081C89035CBF81
:1011F0000120BDE8F08107E058F8081C890703D4F6
:101200000120BDE8F08100BFD8F8001021F00301F3
:101210000843C8F80000FFF765FE064641F288372C
:10122000D8F80000616800F00C00B0EB810F8CD0A2
:10123000FFF758FE801BB842F2D90320BDE8F081C9
:1012400040F20C0043F60801C2F20000C4F20201B1
:101250000068096843F66C72C1F38221C0F600028F
:10126000515CC8407047000040F20C0043F6080192
:10127000C2F20000C4F202010068096843F66C7211
:10128000C1F34231C0F60002515CC8407047000013
:1012900010B543F60404C4F20204606800F00C00C8
:1012A00008280BD0042819BF42F20040C0F2F40015
:1012B00047F64000C0F27D1010BD00BF20682168D5
:1012C0002368490247F64001C0F27D1100F03F0259
:1012D000C3F388105CBF42F20041C0F2F401A1FBED
:1012E00000010023FEF77EFF21680222C1F30141C5
:1012F00002EB4101B0FBF1F010BD0000002804BF7B
:10130000012070472DE9F04182B00446007843F691
:101310000006C007C4F202060CD0B06800F00C0052
:10132000042840F081803068800303D5606800287D
:1013300000F06081207880071BD5B06810F00C0F9A
:1013400009D0B06800F00C00082840F08780706871
:10135000400200F183803068800703D5E0680128EF
:1013600040F048813068216920F0F80040EAC1006F
:1013700030602078000713D4207840072AD4A5696C
:10138000002D00F03281B06800F00C00082840F019
:10139000A180012D40F00E81012002B0BDE8F08156
:1013A0006069002840F20000C4F2472000F07E800F
:1013B0000121C0F8801EFFF795FD0546706F80077C
:1013C000DAD4FFF78FFD401B0228F7D9032002B0C3
:1013D000BDE8F081306C5FEAC0080AD400200190BB
:1013E000306C40F080503064306C00F080500190E0
:1013F000019847F20007C4F200073868C00547D4D7
:10140000386840F480703860FFF76CFD054600BF17
:101410003868C0053CD4FFF765FD401B0228F7D9AA
:10142000032002B0BDE8F081B06800F00C0008288D
:1014300003D1706840023FF576AF6068B0F5803F39
:1014400007D0B0F5A02F40F09980306840F480209C
:101450003060306840F48030306099E0E068002807
:101460005CD00020C4F2472001210160FFF73AFD63
:10147000054600BF306880073FF574AFFFF732FDC7
:10148000401B0228F6D9032002B0BDE8F08100BF5E
:10149000A068012805D0052854D1306F40F0040021
:1014A0003067306F40F00100306755E00021C0F830
:1014B000801EFFF717FD0546706F80077FF55CAF54
:1014C000FFF710FD401B0228F6D9032002B0BDE84B
:1014D000F08100BF0027C4F2472700203866FFF7DD
:1014E00001FD022D05460DD13068800140F1868056
:1014F000FFF7F8FC401B02284FF00300F4D902B0BC
:10150000BDE8F081306880016FD5FFF7EBFC401B30
:1015100002284FF00300F5D9F1E700BF0020C4F224
:10152000472000210160FFF7DDFC05463068800799
:101530007FF51FAFFFF7D6FC401B02284FF00300DA
:10154000F4D9DCE7316F002821F001013167316FF8
:1015500021F00401316773D0FFF7C4FC054641F266
:10156000883700BF306F80077CD4FFF7BBFC401B7F
:10157000B842F7D9032002B0BDE8F08131680028F5
:1015800021F480313160316821F48021316073D0E1
:10159000FFF7A8FC054600BF306880033FF5CAAEE0
:1015A000FFF7A0FC401B6428F6D9032002B0BDE879
:1015B000F08100BF7068E16900F480028A4219D1AD
:1015C000216A00F03F028A4214D147F6C071626A74
:1015D000014091420ED1A16A00F440328A4209D101
:1015E000E16A00F07060884204D1002002B0BDE8DA
:1015F000F08100BF012002B0BDE8F08104F11C05BC
:101600002FCD084340EA8210D9034FF6FF72914371
:10161000A1F5803140EA056008437060012038661A
:10162000FFF760FC044600BF30688001DDD4FFF79F
:1016300059FC001B02284FF00300F5D95FE700BFFB
:10164000FFF750FC054641F2883700BF306F800736
:1016500008D5FFF747FC401BB8424FF00300F5D90F
:101660004DE700BFB8F1000F3FF589AE306C20F0B8
:101670008050306483E600BFFFF734FC054600BFAE
:10168000306880037FF556AEFFF72CFC401B6428C2
:101690004FF00300F4D932E7411E0020B0EB116F88
:1016A0001CBF012070474EF21002CEF200025160C2
:1016B0004EF62351CEF20001F0230B70072190600B
:1016C0001160704790F83C20012A4FF0020254D07C
:1016D00010B580F83D200268D2F804E0D2F808C0C6
:1016E0000C682EF07003234341F2FF74C4F200042F
:1016F000A24253600EDC40F2FF73C4F200039A4230
:1017000016DCB2F1804F2BD040F20043C4F200034C
:1017100024E000BF40F2FF33C4F201039A4213DC1D
:1017200041F60003C4F200039A4219D0002313E0EB
:1017300040F60003C4F200039A4211D040F6004381
:10174000C4F200030AE000BF44F20003C4F2010344
:101750009A4205D040F20043C4F201039A4204D1F8
:1017600049682CF08003194391600121002280F820
:101770003D1080F83C20BDE8104010467047000046
:10178000002804BF0120704710B5044690F83D00C2
:1017900028B9002084F83C00204600F00DF8022013
:1017A00084F83D002068211D01F08AFC012084F8A6
:1017B0003D00002010BD000080B586B0006841F2F9
:1017C0000041C4F20001884230D00021C4F201017E
:1017D00088423AD1002043F630010190C4F2020160
:1017E0004A6942F001024A614A6902F0010201922B
:1017F000019A01900A6842F010020A60096801F03B
:101800001001019101994FF4007101910221CDE97C
:10181000021004900120059041F20000C4F2020081
:1018200001A9FFF781FA06B080BD00BF002001903A
:1018300043F63000C4F20200016941F02001016169
:10184000006900F020000190019806B080BD000002
:101850000146022081F83D000868826802F0070214
:10186000062A03D0026842F0010202600122002031
:1018700081F83D20704700000146022081F83D00BC
:10188000086841F21113026A1A4205D001220020B1
:1018900081F83D20704700BF026A40F244431A427B
:1018A000F4D1026822F0010202600122002081F8D6
:1018B0003D20704790F83C20012A4FF0020200F0D2
:1018C000C28080B580F83D20D0F800C04FF6777216
:1018D000DCF8083023EA0202CCF808200B683F2B22
:1018E0001CDD5F2B20DD602B50D0B3F5005F6DD089
:1018F000702B40F0A080D1E901E3C968DCF8082032
:1019000043EA0E0322F47F4243EA01211143CCF85B
:101910000810DCF8081041F077018AE01F2B29DC61
:1019200063B3102B2AD086E0402B63D0502B40F0BD
:101930008280D1F804E0C968DCF82030DCF820208F
:1019400022F00102CCF82020DCF8182022F0F0026E
:1019500042EA011123F00A0242EA0E02CCF8181002
:10196000CCF82020DCF8081041F0570121F02001CC
:101970005FE000BF202B01D0302B5CD1DCF80810D9
:1019800021F07001194341F0070152E0D1F804E061
:10199000C968DCF8203023F01003CCF82030DCF8E4
:1019A0001830DCF8202023F4704322F0A00243EA30
:1019B000013142EA0E12CCF81810CCF82020DCF8E5
:1019C000081041F0670121F0100132E0D1E901E394
:1019D000C968DCF8082043EA0E0322F47F4243EA98
:1019E00001211143CCF80810DCF8081041F48041C3
:1019F0001FE000BFD1F804E0C968DCF82030DCF853
:101A0000202022F00102CCF82020DCF8182022F05F
:101A1000F00242EA011123F00A0242EA0E02CCF877
:101A20001810CCF82020DCF8081041F0470121F014
:101A30003001CCF808100121002280F83D1080F818
:101A40003C20BDE8804010467047000090F83C30D4
:101A5000012B4FF0020300F0D380F0B5082A80F884
:101A60003D3027D0042A45D0002A61D10368D1E94E
:101A700000C5D1F80CE01A6A41F2FF7722F00102AA
:101A80001A621A4652F8186F1C6AC4F20007BB4269
:101A900074DC40F2FF77C4F20007BB4200F37C80A5
:101AA000B3F1804F00F0908040F20047C4F200078D
:101AB00088E000BF0768D1E900C5D1E902313A6A80
:101AC00061F3071522F480723A623A4652F81C4FCD
:101AD0003E6A24F0F30445EA040126F420660CF083
:101AE0000A0546EA052611603E62116821F00C01E4
:101AF00011607AE00368D1E900E6D1E902C11A6A0F
:101B0000360222F010021A621A4652F8184F4FF2AB
:101B1000FF071D6ABE4324F4734461F30F3646EA9F
:101B2000040125F0A0040EF00A0744EA07171CE0A0
:101B30000368D1E900E6D1E902C11A6A360222F44B
:101B400080521A621A4652F81C4F4FF2FF071D6A64
:101B5000BE4324F4734461F30F3646EA040125F4CE
:101B600020440EF00A0744EA073711601F6211682B
:101B70004FEA0C2321F44061116036E040F2FF3758
:101B8000C4F20107BB4213DC41F60007C4F20007B0
:101B9000BB4219D0002713E040F60007C4F200074B
:101BA000BB4211D040F60047C4F200070AE000BF74
:101BB00044F20007C4F20107BB4205D040F20047DF
:101BC000C4F20107BB421DD126F00306354324F0C1
:101BD0000A070CF00A066EF3071537449D611F6271
:101BE0009F6927F00C079F618B681168194311608A
:101BF0000121002380F83D1080F83C30BDE8F04022
:101C00001846704746F00105E1E70000002804BFD0
:101C10000120704710B5044690F83D0028B9002017
:101C200084F83C00204600F00DF8022084F83D00C6
:101C30002068211D01F044FA012084F83D000020B5
:101C400010BD000070470000006801F01F01012274
:101C5000036A02FA01F123EA01020262026A1143F5
:101C60000162816801F00701062903D0016841F093
:101C70000101016000207047006801F01F0101228E
:101C8000036A02FA01F123EA01010162016A41F2E9
:101C900011120162016A114202D00020704700BF98
:101CA000016A40F244421142F7D1016821F001017A
:101CB000016000207047000070470000B0B5054685
:101CC00000680168C368446901F02F02202A03F00C
:101CD000200213D192B195F83A10222940F01881D0
:101CE000A968B1F5805F41D12A69A96A4068002AD4
:101CF00064D0C0B221F8010B64E000BF5FEA017C50
:101D00001EBF04F0010E03F4907414EB0E0439D1DD
:101D10000A0617D513F0800214D095F8391021293E
:101D200040F0F680AA68296AB2F5805F32D10A884D
:101D30006FF35F2242602A69002A14BF0131023129
:101D400029622BE0490640F1E38013F0400108BF0F
:101D5000B0BDC16821F04001C1602021284685F84E
:101D60003910BDE8B04000F089BA00BF2969406869
:101D70000029A96A18BF00F07F004A1CAA620870F7
:101D800021E000BFCC0718BF13F4807336D14B0796
:101D90003AD440E04A1C2A6209784160E98C013952
:101DA0000A04E98440F0B480C16821F08001C16078
:101DB000C16841F04001C160B0BD00BF6FF35F205A
:101DC00021F8020BA962E88D01380104E88540F092
:101DD0009F802868C16821F02001C160C16821F49A
:101DE0008071C160416921F00101416120212846D3
:101DF00085F83A10BDE8B04000F030B9EB6B43F025
:101E00000103EB634B0706D5BEF1000F03D0EB6B6C
:101E100043F00203EB638B0706D5BEF1000F03D03E
:101E2000EB6B43F00403EB63BCF1000F06D55EEAF5
:101E3000020303D0EB6B43F00803EB63EB6B002B67
:101E400066D089063AD5CAB395F83A10222935D119
:101E5000A968B1F5805F07D12A69A96A40687AB19B
:101E6000C0B221F8010B0FE0296940680029A96A76
:101E700018BF00F07F004A1CAA62087005E000BF8E
:101E80006FF35F2021F8020BA962E88D411EE985FE
:101E90002868090412D1C16821F02001C160C1681D
:101EA00021F48071C160416921F00101416120206C
:101EB00085F83A00284600F0D1F828684169EA6BB5
:101EC00001F0400102F00802891823D0C16821F412
:101ED0009071C160416921F001014161202185F8C3
:101EE0003A10416949061BD5416921F04001416121
:101EF000686BA8B143F2FD11C0F600010165FEF761
:101F0000D5FE28B1686B016DBDE8B040084700BF41
:101F1000B0BD00BF2846FFF7CFFE0020E863B0BD8C
:101F20002846BDE8B040FFF7C7BE0000002804BF48
:101F30000120704710B5044690F8390028B90020F8
:101F400084F83800204600F021F8242084F8390075
:101F50002068C16821F40051C160204601F054F9A5
:101F60002068016921F490410161416921F02A0151
:101F70004161C16841F40051C16000202021E0634B
:101F800084F8391084F83A1010BD0000016841F25D
:101F90000000C4F20100814218BF704780B586B0CE
:101FA000002143F630020191C4F20202536900F5A8
:101FB000704043F010035361536903F01003019321
:101FC000019B0191136843F001031360126802F052
:101FD00001020192019A4FF4C06201920222CDE9FE
:101FE0000221032104910721059101A9FEF79CFE1E
:101FF000252000210022FEF7F7FF2520FEF7E2FF53
:1020000006B0BDE880407047034690F83A002028AB
:102010000AD100294FF0010018BF002A00D17047F3
:1020200093F83800012801D10220704799620020FE
:1020300022219A85DA85D86383F83A10196883F8E3
:102040003800CA6842F48072CA604A6942F00102EC
:102050004A61CA6842F02002CA607047006841F2D3
:102060000001C4F20101884218BF704770B58EB0FC
:1020700040F2D804C2F20004204601F0B1FA51EC5B
:10208000100BFEF7FAF840F21001C2F200010860EE
:10209000FEF7E0F80DF1060502460B460DA12846B5
:1020A00001F088FA2846FEF7CEF840F29806C2F210
:1020B000000682B2304629464FF0FF3300F014F894
:1020C000304621460322FFF79FFF0EB0BDE8704067
:1020D000704700BF54687265736F6C643A20252E98
:1020E0003266206D0D0A00002DE9F041044690F89B
:1020F000390020280ED10E4600294FF0010000F0D3
:10210000A6801746002A08BFBDE8F08194F8380081
:10211000012803D10220BDE8F08100BF012084F82E
:1021200038004FF0000821201D46C4F83C8084F898
:102130003900FEF7D7FEA784E78484F83880E18C65
:102140000746002960D005F1010805E016F8011BDB
:102150004160E18C002958D0E08C0138E08420688F
:10216000A1680268B1F5805F4FEA02611ED10029C3
:102170000ED4B8F1000F2BD0002D6BD0FEF7B2FEBD
:10218000C11B2068A94265D801680906F6D500BFC1
:1021900031886FF35F2141602169002914BF013646
:1021A0000236E18C0029D7D12FE000BF0029CDD421
:1021B000B8F1000F1AD0002D4CD000BFFEF792FEF0
:1021C000C11B2068A94245D801680906F6D5BDE7BC
:1021D00001680906DCD4016809065CBF01685FEA92
:1021E0000161D5D401680906F2D5D1E70168090675
:1021F000ACD4016809065CBF01685FEA0161A5D43F
:1022000001680906F2D5A1E72068016849061AD4D9
:1022100005B3691C0ED10168490614D4016849064A
:102220005CBF01685FEA41610DD401684906F2D5DF
:1022300009E000BFFEF756FEC11B2068A94209D87D
:1022400000684006F6D5202084F839000020BDE85B
:10225000F08100BFC16821F4D071C160416921F0F3
:1022600001014161202084F8390084F83A000020FF
:1022700084F838000320BDE8F081000070470000BA
:10228000FEE7000080B586B0002043F630010590DF
:102290000090C4F202010A6842F002020A60096872
:1022A00001F0020100910099C02101910121CDE9C5
:1022B0000210049040F20040C4F2020001A9FEF7AF
:1022C00033FD06B080BD0000B0B586B040F20044DA
:1022D000C4F202042046402101220125FEF7FCFD44
:1022E0008020CDE901050020049001A92046039536
:1022F000FEF71AFD204680210122FEF7EDFD0520A4
:10230000FEF7E6FC204680210022FEF7E5FD0520D1
:10231000FEF7DEFC06B0B0BD10B586B00520FEF7B6
:10232000D7FC80200190012040F20044CDE902005A
:102330000020C4F20204049001A92046FEF7F4FC38
:10234000204680210022FEF7C7FD204640210122C1
:10235000FEF7C2FD0520FEF7BBFC204680210122CE
:10236000FEF7BAFD0520FEF7B3FC06B010BD000075
:10237000B0B586B00520FEF7ABFC802040F20044EB
:1023800001900020C4F20204CDE9020001A9204618
:10239000FEF7CAFC204640210122FEF79DFD0520E4
:1023A000FEF796FC2569204640210022FEF794FDA9
:1023B00005F0800006B0B0BDB0B586B005468020FF
:1023C0000190012040F20044CDE902000020C4F257
:1023D0000204049001A92046FEF7A6FC20464021F5
:1023E0000022FEF779FDEA0920468021FEF774FD00
:1023F0000520FEF76DFC204640210122FEF76CFD12
:102400000520FEF765FC204640210022FEF764FD12
:10241000C5F3801220468021FEF75EFD0520FEF701
:1024200057FC204640210122FEF756FD0520FEF70D
:102430004FFC204640210022FEF74EFDC5F340121E
:1024400020468021FEF748FD0520FEF741FC20468E
:1024500040210122FEF740FD0520FEF739FC204611
:1024600040210022FEF738FDC5F3001220468021EE
:10247000FEF732FD0520FEF72BFC2046402101220D
:10248000FEF72AFD0520FEF723FC2046402100220E
:10249000FEF722FDC5F3C00220468021FEF71CFD99
:1024A0000520FEF715FC204640210122FEF714FD11
:1024B0000520FEF70DFC204640210022FEF70CFD12
:1024C000C5F3800220468021FEF706FD0520FEF7B9
:1024D000FFFB204640210122FEF7FEFC0520FEF70F
:1024E000F7FB204640210022FEF7F6FCC5F3400230
:1024F00020468021FEF7F0FC0520FEF7E9FB204690
:1025000040210122FEF7E8FC0520FEF7E1FB204612
:1025100040210022FEF7E0FC05F001022046802168
:10252000FEF7DAFC0520FEF7D3FB2046402101220E
:10253000FEF7D2FC0520FEF7CBFB2046402100220F
:10254000FEF7CAFC06B0B0BD2DE9F04387B0002706
:1025500043F6300006970197C4F20200016840F28A
:10256000000941F0800101600168C4F2020901F034
:102570008001019101990197016809F5006541F019
:10258000040101600168002201F004010191019938
:10259000019701684FF0020841F0010101600168F4
:1025A00001F00101019101990197016841F01001C9
:1025B00001600068022100F0100001900198284697
:1025C000FEF78AFC484602210022FEF785FC02AE97
:1025D000012428463146CDF80880CDE90347059708
:1025E000FEF7A2FB48463146CDE90284CDE90477E7
:1025F000FEF79AFB07B0BDE8F083000010B58AB083
:1026000040F2180000220021C2F20000C4F20102D0
:10261000B3234FF6FF744FF0800C0991CDE90711F9
:10262000CDE90411CDE90211CDE90011C0E9002383
:10263000C0E90214C0E90411C0F818C0FFF7A0F8FF
:10264000002818BFFEF730FB4FF48050069040F290
:102650001800C2F2000006A9FFF72CF9002818BFE5
:10266000FEF722FB40F21800C2F20000FFF7CEFA9C
:10267000002818BFFEF718FB40F218000024C2F231
:10268000000004A9CDE90444FFF71CF8002818BF96
:10269000FEF70AFB0120CDE9010440F21800C2F266
:1026A00000006946002200940394FFF7CFF9002848
:1026B00018BFFEF7F9FA0220CDE9000040F2180039
:1026C000C2F2000069460422FFF7C0F9002818BFD3
:1026D000FEF7EAFA0AB010BD80B582B040F25800A9
:1026E00041F200420021C2F20000C4F2000259236C
:1026F0004FF0010CCDE90011C0E90023C0E9021C34
:102700008161FFF73DF8002818BFFEF7CDFA40F2CF
:102710005800C2F200006946FEF7D4FF002818BF37
:10272000FEF7C2FA02B080BD80B540F2980041F2D7
:102730000001C2F20000C4F2010100234FF00C0CB2
:102740004FF4E13280E80E00C0E90333C0E905C36D
:10275000C361FFF7EBFB002808BF80BDBDE88040E8
:10276000FEF7A2BAFEE700007047000070B5002433
:10277000A4F15006FFF7A8FD7820FFF71DFEFFF734
:10278000F7FD00200025FFF717FEFFF7F1FDF0B27F
:10279000FFF712FEFFF7ECFDFFF7BEFDFFF794FD1C
:1027A0007820FFF709FEFFF7E3FD0020FFF704FEA6
:1027B000FFF7DEFD0020FFF7FFFDFFF7D9FDFFF774
:1027C000ABFDFFF781FD7820FFF7F6FDFFF7D0FDA9
:1027D0000020FFF7F1FDFFF7CBFD1020FFF7ECFD28
:1027E000FFF7C6FDFFF798FDFFF76EFD7820FFF7B6
:1027F000E3FDFFF7BDFD4020FFF7DEFDFFF7B8FD6D
:102800000020FFF7D9FDFFF7B3FDFFF785FD681C3A
:1028100045B2B5F1FF3FE7DCE0B20134072828BF3D
:1028200070BDA5E780B5FFF74FFD7820FFF7C4FD29
:10283000FFF79EFD0020FFF7BFFDFFF799FDAE20DB
:10284000FFF7BAFDFFF794FDFFF766FDFFF73CFDCC
:102850007820FFF7B1FDFFF78BFD0020FFF7ACFDFF
:10286000FFF786FD0020FFF7A7FDFFF781FDFFF7CB
:1028700053FDFFF729FD7820FFF79EFDFFF778FD58
:102880000020FFF799FDFFF773FD1020FFF794FD7F
:10289000FFF76EFDFFF740FDFFF716FD7820FFF70D
:1028A0008BFDFFF765FD0020FFF786FDFFF760FD5C
:1028B0004020FFF781FDFFF75BFDFFF72DFDFFF7E0
:1028C00003FD7820FFF778FDFFF752FD0020FFF7AA
:1028D00073FDFFF74DFDB020FFF76EFDFFF748FDDC
:1028E000FFF71AFDFFF7F0FC7820FFF765FDFFF713
:1028F0003FFD0020FFF760FDFFF73AFD8120FFF765
:102900005BFDFFF735FDFFF707FDFFF7DDFC7820E6
:10291000FFF752FDFFF72CFD0020FFF74DFDFFF7FD
:1029200027FDFF20FFF748FDFFF722FDFFF7F4FC2E
:10293000FFF7CAFC7820FFF73FFDFFF719FD0020E5
:10294000FFF73AFDFFF714FDA120FFF735FDFFF774
:102950000FFDFFF7E1FCFFF7B7FC7820FFF72CFD38
:10296000FFF706FD0020FFF727FDFFF701FDA6207A
:10297000FFF722FDFFF7FCFCFFF7CEFCFFF7A4FCFE
:102980007820FFF719FDFFF7F3FC0020FFF714FD97
:10299000FFF7EEFCA820FFF70FFDFFF7E9FCFFF7BC
:1029A000BBFCFFF791FC7820FFF706FDFFF7E0FC8A
:1029B0000020FFF701FDFFF7DBFC3F20FFF7FCFCE9
:1029C000FFF7D6FCFFF7A8FCFFF77EFC7820FFF7A7
:1029D000F3FCFFF7CDFC0020FFF7EEFCFFF7C8FC8F
:1029E000C820FFF7E9FCFFF7C3FCFFF795FCFFF7F2
:1029F0006BFC7820FFF7E0FCFFF7BAFC0020FFF744
:102A0000DBFCFFF7B5FCD320FFF7D6FCFFF7B0FCEB
:102A1000FFF782FCFFF758FC7820FFF7CDFCFFF7AB
:102A2000A7FC0020FFF7C8FCFFF7A2FC0020FFF77F
:102A3000C3FCFFF79DFCFFF76FFCFFF745FC782018
:102A4000FFF7BAFCFFF794FC0020FFF7B5FCFFF797
:102A50008FFCD520FFF7B0FCFFF78AFCFFF75CFC8A
:102A6000FFF732FC7820FFF7A7FCFFF781FC00207E
:102A7000FFF7A2FCFFF77CFC8020FFF79DFCFFF72F
:102A800077FCFFF749FCFFF71FFC7820FFF794FC69
:102A9000FFF76EFC0020FFF78FFCFFF769FCD820E2
:102AA000FFF78AFCFFF764FCFFF736FCFFF70CFC2E
:102AB0007820FFF781FCFFF75BFC0020FFF77CFC30
:102AC000FFF756FC0520FFF777FCFFF751FCFFF7F7
:102AD00023FCFFF7F9FB7820FFF76EFCFFF748FCBB
:102AE0000020FFF769FCFFF743FCD920FFF764FCE7
:102AF000FFF73EFCFFF710FCFFF7E6FB7820FFF73F
:102B00005BFCFFF735FC0020FFF756FCFFF730FCBD
:102B1000F120FFF751FCFFF72BFCFFF7FDFBFFF760
:102B2000D3FB7820FFF748FCFFF722FC0020FFF7DB
:102B300043FCFFF71DFCDA20FFF73EFCFFF718FC13
:102B4000FFF7EAFBFFF7C0FB7820FFF735FCFFF744
:102B50000FFC0020FFF730FCFFF70AFC1220FFF704
:102B60002BFCFFF705FCFFF7D7FBFFF7ADFB782049
:102B7000FFF722FCFFF7FCFB0020FFF71DFCFFF72F
:102B8000F7FBDB20FFF718FCFFF7F2FBFFF7C4FBB6
:102B9000FFF79AFB7820FFF70FFCFFF7E9FB002017
:102BA000FFF70AFCFFF7E4FB3020FFF705FCFFF717
:102BB000DFFBFFF7B1FBFFF787FB7820FFF7FCFB9C
:102BC000FFF7D6FB0020FFF7F7FBFFF7D1FB8D20C7
:102BD000FFF7F2FBFFF7CCFBFFF79EFBFFF774FB61
:102BE0007820FFF7E9FBFFF7C3FB0020FFF7E4FBCA
:102BF000FFF7BEFB1420FFF7DFFBFFF7B9FBFFF782
:102C00008BFBFFF761FB7820FFF7D6FBFFF7B0FBEC
:102C10000020FFF7D1FBFFF7ABFBAF20FFF7CCFBAA
:102C2000FFF7A6FBBDE88040FFF776BBB0B50446D2
:102C3000A1F15005FFF748FB7820FFF7BDFBFFF738
:102C400097FB0020FFF7B8FBFFF792FBE8B2FFF716
:102C5000B3FBFFF78DFBFFF75FFB200900F11005C9
:102C6000FFF732FB7820FFF7A7FBFFF781FB00207F
:102C7000FFF7A2FBFFF77CFB2846FFF79DFBFFF762
:102C800077FBFFF749FBFFF71FFB7820FFF794FB6B
:102C9000FFF76EFB0020FFF78FFBFFF769FB04F0E7
:102CA0000F00FFF789FBFFF763FBBDE8B040FFF7BC
:102CB00033BB00002DE9F04381B01D4643B2C0F3A1
:102CC000C01001EB400923EAE3785FFA89F140463E
:102CD000A2F12004FFF7AAFF102DE0B240F03C81E2
:102CE00044F29C120101C0F60002555C02EB001692
:102CF000FFF7EAFA7820FFF75FFBFFF739FB402088
:102D0000FFF75AFBFFF734FB2846FFF755FBFFF7A9
:102D10002FFBFFF701FBFFF7D7FA7820FFF74CFBFB
:102D2000FFF726FB4020FFF747FBFFF721FB7078FA
:102D3000B778F4783579FFF73FFBFFF719FBFFF71A
:102D4000EBFAFFF7C1FA7820FFF736FBFFF710FB2D
:102D50004020FFF731FBFFF70BFB3846FFF72CFB5A
:102D6000FFF706FBFFF7D8FAFFF7AEFA7820FFF778
:102D700023FBFFF7FDFA4020FFF71EFBFFF7F8FAF1
:102D80002046FFF719FBFFF7F3FAFFF7C5FAFFF745
:102D90009BFA7820FFF710FBFFF7EAFA4020FFF7D5
:102DA0000BFBFFF7E5FA2846FFF706FBFFF7E0FA13
:102DB000FFF7B2FA7579FFF787FA7820FFF7FCFA88
:102DC000FFF7D6FA4020FFF7F7FAFFF7D1FA2846C7
:102DD000FFF7F2FAFFF7CCFAFFF79EFAB579FFF7A3
:102DE00073FA7820FFF7E8FAFFF7C2FA4020FFF7FE
:102DF000E3FAFFF7BDFA2846FFF7DEFAFFF7B8FA65
:102E0000FFF78AFAF579FFF75FFA7820FFF7D4FA2F
:102E1000FFF7AEFA4020FFF7CFFAFFF7A9FA2846EE
:102E2000FFF7CAFAFFF7A4FAFFF776FA09F10101F2
:102E30005FFA88F0C9B2FFF7F9FE347AFFF744FA77
:102E40007820FFF7B9FAFFF793FA4020FFF7B4FABA
:102E5000FFF78EFA2046FFF7AFFAFFF789FAFFF780
:102E60005BFA747AFFF730FA7820FFF7A5FAFFF7DC
:102E70007FFA4020FFF7A0FAFFF77AFA2046FFF723
:102E80009BFAFFF775FAFFF747FAB47AFFF71CFAD7
:102E90007820FFF791FAFFF76BFA4020FFF78CFAE2
:102EA000FFF766FA2046FFF787FAFFF761FAFFF7A8
:102EB00033FAF47AFFF708FA7820FFF77DFAFFF784
:102EC00057FA4020FFF778FAFFF752FA2046FFF74B
:102ED00073FAFFF74DFAFFF71FFA347BFFF7F4F9A7
:102EE0007820FFF769FAFFF743FA4020FFF764FA0A
:102EF000FFF73EFA2046FFF75FFAFFF739FAFFF7D0
:102F00000BFA747BFFF7E0F97820FFF755FAFFF72B
:102F10002FFA4020FFF750FAFFF72AFA2046FFF772
:102F20004BFAFFF725FAFFF7F7F9B47BFFF7CCF977
:102F30007820FFF741FAFFF71BFA4020FFF73CFA31
:102F4000FFF716FA2046FFF737FAFFF711FAFFF7F7
:102F5000E3F906F10F006CE043F6747100EB4000FA
:102F6000C0F6000111F8104001EB4007FFF7ACF983
:102F70007820FFF721FAFFF7FBF94020FFF71CFA52
:102F8000FFF7F6F92046FFF717FAFFF7F1F9FFF719
:102F9000C3F9FFF799F97820FFF70EFAFFF7E8F980
:102FA0004020FFF709FAFFF7E3F97878BE78FD785B
:102FB0003C79FFF701FAFFF7DBF9FFF7ADF9FFF70F
:102FC00083F97820FFF7F8F9FFF7D2F94020FFF7EF
:102FD000F3F9FFF7CDF93046FFF7EEF9FFF7C8F93F
:102FE000FFF79AF9FFF770F97820FFF7E5F9FFF797
:102FF000BFF94020FFF7E0F9FFF7BAF92846FFF7DD
:10300000DBF9FFF7B5F9FFF787F9FFF75DF97820EE
:10301000FFF7D2F9FFF7ACF94020FFF7CDF9FFF742
:10302000A7F92046FFF7C8F9FFF7A2F9FFF774F9EF
:10303000781D0478FFF748F97820FFF7BDF9FFF70E
:1030400097F94020FFF7B8F9FFF792F92046FFF70C
:10305000B3F9FFF78DF901B0BDE8F043FFF75CB9B4
:10306000F0B581B01C461378A3B10D460646571E35
:10307000F0B2E9B2DAB22346FFF71CFE0836F0B22E
:10308000782888BF0235BB7888BF0026002B07F15F
:103090000107EDD101B0F0BD70470000704700009E
:1030A000FDF726BF4EF68850CEF20000016841F4CD
:1030B000700101604FF0006140F8801C7047000013
:1030C00010B540F6FF3E0368C4F2000E40F2004C1B
:1030D0007045C4F2010C27DCB0F1804F31D040F2D2
:1030E0000042C4F2000290422BD040F60002C4F22B
:1030F0000002904225D041F6FF72C4F200029042D5
:1031000029DC70453CDCB0F1804F5FD040F20042DA
:10311000C4F20002904259D040F60002C4F200020C
:10312000904253D056E000BF40F60042C4F2000285
:10313000904206D0604504D00022C4F201029042C1
:10314000D9D14A6823F07003134341F6FF72C4F2E9
:1031500000029042D5DD43F6FF72C4F201029042B4
:1031600022DC42F20002C4F2000290422ED0002281
:10317000C4F20102904229D0604527D02AE000BF66
:1031800040F60042C4F2000290421FD041F6000215
:10319000C4F20002904219D041F60042C4F200028B
:1031A000904213D016E000BF44F20002C4F20102C4
:1031B00090420BD044F60002C4F20102904205D0C6
:1031C00044F20042C4F20102904203D1CA6823F4DF
:1031D0004073134323F080024B69D1F800E08C6800
:1031E0001A430260C46240F48062C0F828E062457D
:1031F00004BF096901630121416110BD806B002199
:10320000C185C184FEF758BDB0B50446006804F11D
:1032100008030ECB0569194325F440552A43026182
:10322000626949F20C651143E269C368B2F5004F67
:1032300023EA050341EA030141EA0201C160416951
:10324000A36921F4407141EA0301416141F2004167
:1032500040F48060C4F2010108D14FF69C758842A9
:10326000C0F6FF750CD1FDF7FFFF0BE04FF69C7524
:103270008842C0F6FF7529D1FDF7F6FF28E000BFB0
:10328000FDF7DEFF63681921A0FB01015A00DB0F87
:10329000FCF7A8FF48F21F51C5F2EB11A0FB012378
:1032A0005A0905F1805302FB0300322303EBC000EF
:1032B000A0FB01014FF4F87000EA111000EB0210BE
:1032C000C1F34211084421688860B0BDFDF7B8FF22
:1032D00063681921A0FB01019A009B0FFCF782FF94
:1032E00048F21F51C5F2EB11A0FB01235A0902FB62
:1032F0000500322303EB0010A0FB0101F02000EADF
:10330000511000EB0210C1F343110844216888609A
:10331000B0BD000040F29800C2F20000FEF7CEBC43
:10332000FEE7000092B047F20007C4F20007FDF785
:10333000EDFD002243F64000CDE90422CDE9022252
:103340000D92C4F202000168022441F08051016034
:1033500000680F2600F080500D900D980D9238688F
:1033600040F440403860386800F440400D900D98BB
:10337000012000904FF4803001904FF480000790BE
:10338000D820CDE9090404200B90684606940896DD
:10339000FDF7B4FFFDF764FE4FF4A05010904FF41A
:1033A0008050CDE90D64002411900DA805210F94E3
:1033B000FDF794FEFFF7C8F8FFF78EF9FFF71EF947
:1033C000FFF7B2F9FEF75EFFFFF72CFAFFF7CEF931
:1033D00062A2002000210F23FFF742FE63A200201B
:1033E0000A210F23FFF73CFE64A200200C210F23CB
:1033F000FFF736FE65A200200E210F23FFF730FEF7
:1034000040F2980040F2D801C2F20000C2F200017E
:103410000322FEF7F9FD40F218069FED5F8A9FED4B
:103420005F9A40F21005C2F200066FF002096FF0D9
:10343000040807F5C837B6EE00AAC2F2000507E097
:1034400030460021FEF718FC30460421FEF714FC3C
:10345000306800214462C0F81090C0F810803046F7
:10346000FEF7F2FB30460421FEF7EEFB3846022160
:103470000122FDF731FD384602210022FDF72CFD27
:10348000FDF730FD00F1320A4FF0000BFDF72AFD89
:103490008245D5D930685FFA8BF20169012A5A4614
:1034A00018BF01220069890748BF93464007EDD540
:1034B0005FFA8BF00128E9D130460021FEF7DCFBF2
:1034C00030460421FEF7D8FB3068416B806B89B22F
:1034D00080B2401A00EE100AB8EEC00A20EE080AC8
:1034E00020EE090A95ED001A20EE0A0AB4EE410A10
:1034F000F1EE10FA26DA10EE100AFCF7ABFE2C46BD
:103500006D4602460B46284625A100F053F8284692
:10351000FCF799FE82B240F29800C2F20000294600
:103520004FF0FF3325460024FEF7DEFD47F2000092
:10353000C4F2000000F5CC3002210122FDF7CCFCE2
:1035400086E700BF47F20000C4F2000000F5CC306F
:1035500002210022FDF7C0FC7AE700BF48656C6CD1
:103560006F20576F726C6421000000004665737411
:103570006976616C20486170707921005765656BD0
:10358000656E642048617070792100005765656B35
:103590002048617070792100BD3786350000AA434C
:1035A00044697374616E63653A20252E3266206D1E
:1035B0000D0A00000FB4084B10B504A902AA039825
:1035C00000F010F9044602A9002000F0A2FC2046F9
:1035D00010BC5DF814FB0000133F00080000000061
:1035E00030B583B0044600F017F89FED090B05468F
:1035F0008DED000B0123002221466846FCF7ADFE4D
:10360000284600F01FF89DED000B03B030BD000010
:103610000000000000000000014800687047000042
:103620000000002002E008C8121F08C1002AFAD1D9
:1036300070477047002001E001C1121F002AFBD132
:10364000704700000149086070470000000000203A
:103650002DE9FF5F82B00021DDE90430020DDDF8C5
:1036600040B0034318D044F61050A2F2FF32424358
:103670001514119801281FD0A5EB0B00401C5FEA20
:10368000000A4FF000064E4FDFF83891B046504622
:1036900015D5CAF1000413E0119801244AA30128AA
:1036A00001D16FEA0B010298119AC0E90031C0E91B
:1036B000024206B0BDE8F09FCBF10000DFE7044610
:1036C0000021404A491842EB0450CDE9001012E0B5
:1036D000E00707D032463B4640464946FCF750FFDC
:1036E0008046894632463B4610461946FCF748FF5D
:1036F00006460F466410002CEAD1DDE90401DDE93D
:103700000023BAF1000F06DAFCF73AFF42464B46B7
:10371000FCF736FF05E0FCF7A5FF42464B46FCF7F9
:10372000A1FF04460E460022284BFDF723F803D8DC
:103730004FF0FF30014607E00022254B204631467E
:10374000FCF777FEFCF7FDFF102409E0002C0ADBF4
:103750000A220023FCF746FD039B30321A55641EF3
:1037600050EA0102F2D1641C039AC4F1110314441B
:10377000119A012A03D0012208430DD10AE008431F
:1037800004D000204FF0110B119072E7A3EB0B0552
:103790006D1E0DE05B4504DD4FF0000205F10105F3
:1037A00004E003DA4FF00002A5F10105002AECD095
:1037B00002981199C0E90231C0E9004579E700009B
:1037C000000014400000F03F300000000000F04313
:1037D0000000E03F30380A2801D201207047002065
:1037E000704700002DE9FF4F95B09B46894606467D
:1037F00000250FE2252877D100242746F84A012129
:10380000059400E0044316F8013F203B01FA03F061
:103810001042F7D130782A2811D06FF02F0330787A
:10382000A0F13002092A16D8059A44F0020402EBEE
:10383000820203EB42021044761C0590EFE759F830
:10384000042B0592002A03DA504244F400540590F8
:1038500044F00204761C30782E2816D116F8010F99
:1038600044F004042A280DD06FF02F023078A0F124
:103870003003092B09D807EB870302EB4303C71872
:10388000761CF3E759F8047B761C30786C280FD04F
:1038900006DC4C2817D068280DD06A2814D104E023
:1038A000742810D07A280FD10DE044F400140AE0F7
:1038B00044F4801401E044F440147278824202D14E
:1038C00004F58014761C761C307866280BD013DC47
:1038D000582877D009DC002875D04528F6D046282E
:1038E000F4D047281AD19DE118E0632835D0642828
:1038F00079D0652812D195E1702873D008DC67284B
:10390000F1D069286FD06E280DD06F2806D1B5E0B0
:1039100073282CD0752875D0782874D05A461799FA
:1039200090476D1C75E1C4F30250022809D00328AA
:103930000DD0D9F8001004280DD00D6009F104094C
:1039400067E1D9F80010EA17C1E90052F6E7D9F8A3
:1039500000100D80F2E70D70F0E719F8041B8DF8E8
:10396000001000208DF80100EA46012003E059F81C
:1039700004AB4FF0FF3061074FF0000102D40DE0BF
:1039800008F101018846B9420FDA8045F8DB1AF8E0
:1039900008100029F4D108E008F1010188468142AD
:1039A000FADB1AF808100029F6D105985B46A0EB5F
:1039B000080721463846179A00F094FA284400EB8D
:1039C000080507E04DE029E10DE01AF8010B5A4621
:1039D00017999047B8F10108F7D25B46214638465F
:1039E000179A13E142E00A220092C4F302524FF008
:1039F000000A022A08D059F804CB032A4FEAEC71D6
:103A00000AD00DE029E02AE009F1070121F00702C0
:103A1000F2E802C1914609E00FFA8CFC4FEAEC7122
:103A2000042A03D14FFA8CFC4FEAEC71002907DA23
:103A30000A460021DCF1000C61EB02012D2202E0BC
:103A4000220504D52B228DF80420012203E0E20791
:103A500001D02022F7E7904659E00A2102E0102227
:103A60000DE010214FF0000A00910BE010224FF002
:103A7000000A44F004040827009203E008224FF0F3
:103A8000000A0092C4F30252022A05D059F804CB6E
:103A90000021032A08D009E009F1070121F00702FB
:103AA000F2E802C1914605E01FFA8CFC042A01D11C
:103AB0000CF0FF0C4FF00008220728D5702806D024
:103AC000009B83F0100353EA0A0305D00EE0402266
:103AD0008DF80420012208E05CEA010206D03022C1
:103AE0008DF804208DF8050002229046009B83F09B
:103AF000080353EA0A030AD15CEA010201D1620712
:103B000005D530228DF804204FF001087F1E58287B
:103B100004D034A003900EA802900DE036A0F9E77F
:103B200053466046009AFCF75DFB84460398825C2E
:103B30000298401E029002705CEA0100F0D10298E7
:103B400006A9081A00F1200A600702D524F480347F
:103B500000E00127574502DDA7EB0A0000E0002046
:103B600000EB0A01009005984144401A0590E003DB
:103B700006D45B462146179A059800F0B3F9054430
:103B8000002706E001A85A46C05D179990476D1CB2
:103B90007F1C4745F6DBE0030CD55B462146179AB0
:103BA000059800F09FF9054404E030205A46179923
:103BB00090476D1C0099481E00900029F5DC08E034
:103BC000029802995A460078491C02911799904729
:103BD0006D1CBAF10001AAF1010AF1DC65E10000F7
:103BE00009280100303132333435363738396162D3
:103BF0006364656600000000303132333435363797
:103C000038394142434445460000000000F058F96D
:103C10000544761C307800287FF4ECAD19B02846B6
:103C2000BDE8F08F620700D4062709F1070222F0F1
:103C3000070CFCE80223E14603F000485FEA080CA9
:103C400002D00FF2702C0DE05FEA045C02D50FF297
:103C5000682C07E05FEAC47C02D00FF2602C01E020
:103C6000AFF2700C4FF0FF3823F00043CDF850C096
:103C700065280CD006DC452809D046281DD04728E9
:103C80003DD13DE0662818D067287ED138E000217C
:103C9000112F01DB112000E0781CCDE9000106A9FD
:103CA0000EA8FFF7D5FCDDE90F010E9A0391002164
:103CB000009207F1010A04914DE04FF00040009797
:103CC000CDE9011006A90EA8FFF7C2FCDDE90F023D
:103CD00003920E9B11990022DDF80CA00093049230
:103CE00011B9791C00EB010AB7EB0A0004D4C0F14A
:103CF000FF3007F1010A0490AAEB0700019044E0AD
:103D0000012F00DA01270021112F01DD112000E031
:103D10003846CDE9000106A90EA8FFF799FCDDE9B8
:103D20000F010E9A0391002104910092BA462107D7
:103D30000CD40399514500DA8A46BAF1010F05DD2A
:103D4000009AAAF10101515C302908D0B84202DA88
:103D500010F1040F06DA0121CDE9011015E0AAF1F6
:103D60000101E9E7002805DC049901440491AAEB6C
:103D7000000102E0411C514500DD8A460499401AC9
:103D8000401C01904FF000400290200704D401989D
:103D9000504501DBCDF8048000208DF84F000298DB
:103DA0000DF14F07B0F1004F25D02B200E90029857
:103DB0004FF0020800280CDA404202902D200E90AD
:103DC00007E00A210298FCF774FA3031029007F8F4
:103DD000011DB8F10001A8F10108F2DC02980028E9
:103DE000EFD1791E0E980870307800F0200040F076
:103DF000450007F8020D12A8C01B00F1070814982F
:103E0000007800B1012000EB0A01019801EBE0719C
:103E100005984144401A401E0590E00306D45B46D5
:103E20002146179A059800F05DF80544149800782B
:103E300018B15A46179990476D1CE00324D55B468C
:103E40002146179A059800F04DF805441CE00498A7
:103E5000002807DBDDE90301884203DD0098405CB0
:103E6000179901E0179930205A469047049805F1B8
:103E70000105401C04900198401E019004D12E20A1
:103E80005A46179990476D1CBAF10001AAF1010A30
:103E9000DDDC05E017F8010B5A46179990476D1CB9
:103EA000B8F10001A8F10108F4DC5B462146179A3D
:103EB0000598ABE62D0000002B000000200000005C
:103EC0002DE9F041044600251E461746880404D417
:103ED00005E039462020B0476D1C641EF9D5284600
:103EE000BDE8F0812DE9F041044600251E469046CC
:103EF000C80301D5302700E02027880404D505E059
:103F000041463846B0476D1C641EF9D52846BDE8C9
:103F1000F0810A68531C0B6010707047DDDDDDDD39
:103F2000DCBBBBDDDDDDDDDDDDDDDDDD988888884A
:103F300088888888777777777788888885555556F1
:103F40006666666666666666666888888333333248
:103F500022222222222222222228888D00000000F2
:103F60000000000001020304060708090000000029
:103F7000010203040000000000000000002F000008
:103F800000000700070000147F147F1400242A7F1C
:103F90002A1200626408132300364955225000009B
:103FA0000503000000001C224100000041221C000B
:103FB0000014083E08140008083E0808000000A08D
:103FC0006000000808080808000060600000002089
:103FD00010080402003E5149453E0000427F400067
:103FE000004261514946002141454B3100181412ED
:103FF0007F10002745454539003C4A4949300001BA
:104000007109050300364949493600064949291E08
:10401000000036360000000056360000000814226A
:10402000410000141414141400004122140800026A
:104030000151090600324959513E007C1211127C8F
:10404000007F49494936003E41414122007F4141BC
:10405000221C007F49494941007F09090901003EAE
:104060004149497A007F0808087F0000417F4100EC
:10407000002040413F01007F08142241007F404062
:104080004040007F020C027F007F0408107F003E4A
:104090004141413E007F09090906003E4151215E30
:1040A000007F091929460046494949310001017F2D
:1040B0000101003F4040403F001F2040201F003FC3
:1040C0004038403F00631408146300070870080775
:1040D00000615149454300007F41410000552A5588
:1040E0002A55000041417F00000402010204004003
:1040F0004040404000000102040000205454547825
:10410000007F484444380038444444200038444444
:10411000487F00385454541800087E0901020018E2
:10412000A4A4A47C007F080404780000447D40001F
:10413000004080847D00007F102844000000417F03
:104140004000007C04180478007C080404780038DF
:104150004444443800FC242424180018242418FC67
:10416000007C0804040800485454542000043F44D0
:104170004020003C4040207C001C2040201C003C93
:104180004030403C004428102844001CA0A0A07CE3
:10419000004464544C44141414141414000000001B
:1041A000000000000000000000000000000000F817
:1041B00000000000000000333000000000100C067A
:1041C000100C0600000000000000000040C0784015
:1041D000C0784000043F04043F040400007088FCE1
:1041E00008300000001820FF211E0000F008F00039
:1041F000E018000000211C031E211E0000F00888AA
:10420000700000001E2123241927211010160E0013
:10421000000000000000000000000000000000E0BE
:1042200018040200000000071820400000020418D3
:10423000E00000000040201807000000404080F02F
:10424000804040000202010F01020200000000F065
:10425000000000000101011F010101000000000039
:104260000000000080B070000000000000000000AE
:104270000000000000010101010101010000000037
:1042800000000000003030000000000000000000CE
:1042900080601804006018060100000000E01008AB
:1042A0000810E000000F102020100F00001010F880
:1042B000000000000020203F2020000000700808BF
:1042C000088870000030282422213000003008883F
:1042D000884830000018202020110E000000C02067
:1042E00010F8000000070424243F240000F8088888
:1042F000880808000019212020110E0000E0108815
:1043000088180000000F112020110E000038080846
:10431000C83808000000003F000000000070880856
:1043200008887000001C222121221C0000E01008D7
:104330000810E0000000312222110F00000000C030
:10434000C0000000000000303000000000000080CD
:1043500000000000000080600000000000008040BD
:1043600020100800000102040810200040404040D6
:104370004040400004040404040404000008102029
:10438000408000000020100804020100007048086E
:104390000808F0000000003036010000C030C828D6
:1043A000E810E0000718272423140B000000C03891
:1043B000E0000000203C23020227382008F888880B
:1043C00088700000203F202020110E00C030080817
:1043D00008083800071820202010080008F80808EE
:1043E0000810E000203F202020100F0008F88888E7
:1043F000E8081000203F20202320180008F88888B3
:10440000E8081000203F200003000000C03008082A
:104410000838000007182020221E020008F80800B3
:104420000008F808203F210101213F20000808F87A
:10443000080800000020203F20200000000008089D
:10444000F8080800C08080807F00000008F888C05D
:1044500028180800203F20012638200008F808000E
:1044600000000000203F20202020300008F8F80045
:10447000F8F80800203F003F003F200008F830C057
:104480000008F808203F200007183F00E010080847
:104490000810E0000F10202020100F0008F8080876
:1044A0000808F000203F210101010000E010080889
:1044B0000810E0000F18242438504F0008F88888AE
:1044C00088887000203F2000030C3020007088088E
:1044D000080838000038202121221C00180808F89C
:1044E000080818000000203F2000000008F808001D
:1044F0000008F808001F202020201F0008788800EE
:1045000000C83808000007380E010000F80800F85D
:104510000008F800033C0700073C03000818688007
:104520008068180820302C03032C30200838C8007D
:10453000C83808000000203F2000000010080808CC
:10454000C83808002038262120201800000000FE6E
:10455000020202000000007F40404000000C30C01A
:1045600000000000000000010638C0000002020246
:10457000FE000000004040407F00000000000402F8
:104580000202040000000000000000000000000023
:104590000000000080808080808080800002020413
:1045A000000000000000000000000000000080800B
:1045B000808000000019242222223F2008F8008079
:1045C00080000000003F112020110E00000000803C
:1045D00080800000000E11202020110000000080CB
:1045E0008088F800000E112020103F2000008080FD
:1045F00080800000001F222222221300008080F011
:10460000888888180020203F20200000000080803B
:1046100080808000006B94949493600008F8008080
:1046200080800000203F210000203F2000809898DB
:10463000000000000020203F20200000000000803B
:104640009898000000C08080807F000008F800007B
:1046500080808000203F24022D302000000808F8D0
:10466000000000000020203F20200000808080808B
:1046700080808000203F20003F20003F808000801D
:1046800080800000203F210000203F20000080802B
:1046900080800000001F202020201F0080800080DC
:1046A0008000000080FFA12020110E00000000808B
:1046B00080808000000E112020A0FF80808080007C
:1046C0008080800020203F212000010000008080A9
:1046D000808080000033242424241900008080E09E
:1046E000808000000000001F20200000808000006B
:1046F00000808000001F202020103F20808080004C
:104700000080808000010E3008060100808000805B
:10471000008080800F300C030C300F000080800080
:10472000808080000020312E0E31200080808000AB
:104730000080808080818E7018060100008080805B
:10474000808080000021302C2221300000000000F9
:10475000807C020200000000003F4040000000009A
:10476000FF00000000000000FF0000000002027CCB
:10477000800000000040403F0000000000060101F2
:10478000020204040000000000000000B04700081E
:10479000000000201800000024360008C847000868
:1047A00018000020C8040000343600080000000093
:1047B0000000000001000000100000000024F400D0
:0847C000CDCCCC3D000000004F
:04000005080001AD41
:00000001FF
