:020000040800F2
:10000000B80600207902000841140008B91200085F
:100010003D140008250400085516000800000000E3
:10002000000000000000000000000000491400086B
:100030002904000800000000451400084D140008C1
:10004000930200089302000893020008930200083C
:10005000930200089302000893020008930200082C
:10006000930200089302000893020008930200081C
:10007000930200089302000893020008930200080C
:1000800093020008930200089302000893020008FC
:1000900093020008930200089302000893020008EC
:1000A00093020008930200089302000893020008DC
:1000B00093020008930200089302000893020008CC
:1000C00093020008930200089302000893020008BC
:1000D00093020008930200089302000893020008AC
:1000E000930200089302000893020008930200089C
:1000F000930200089302000893020008930200088C
:10010000930200089302000893020008930200087B
:10011000930200089302000893020008930200086B
:10012000930200089302000893020008930200085B
:10013000930200089302000893020008930200084B
:10014000930200089302000893020008930200083B
:10015000930200089302000893020008930200082B
:10016000930200089302000893020008930200081B
:1001700093020008930200089302000800000000A8
:1001800093020008930200089302000893020008FB
:1001900093020008930200089302000893020008EB
:1001A00093020008930200089302000800F002F88E
:1001B00000F052F814A696E8000CB244B344DA45B5
:1001C00001D100F049F8BAE80F000FA696E8300018
:1001D000A5EB040504EB0607AAEB0704A7F101074A
:1001E0004FEA15154FEA3414A4F10104AC4201D3CF
:1001F00000F032F813F0010F18BFFB1A43F00103AF
:1002000000F001F8DBE71847041500002415000092
:10021000103A24BF78C878C1FAD8520724BF30C832
:1002200030C144BF04680C60704700007047000094
:100230000023002400250026103A28BF78C1FBD8EF
:10024000520728BF30C148BF0B6070471FB501F08F
:1002500048FA1FBD10B510BD00F0A9F81146FFF710
:10026000F5FF01F0F9F900F0C7F803B4FFF7F2FF6A
:1002700003BC00F0CFF80000094880470948004758
:10028000FEE7FEE7FEE7FEE7FEE7FEE7FEE7FEE746
:10029000FEE7FEE704480549054A064B70470000A3
:1002A000FD140008AD010008B8000020B8060020C9
:1002B000B8020020B802002053EA020C00F0698066
:1002C0002DE9F04B4FF00006002B1FBFB3FA83F56A
:1002D00003FA05F424FA05F65E4012BF1643B2FA9B
:1002E00082F502FA05F4C5F120051EBF22FA05FCCD
:1002F00044EA0C04203556EA044C4FEA144418BF73
:10030000641C4FF000084FF00009904271EB030CA1
:1003100039D3002919BFB1FA81F701FA07F6B0FA0B
:1003200080F700FA07F6C7F120071EBF20FA07FC86
:1003300046EA0C062037B6FBF4FCA7EB0507103F96
:1003400007F01F0BCBF120062CFA06F60CFA0BFB7C
:1003500044BFB3460026202FA4BF5E464FF0000BDB
:100360005BEA060C08BF4FF0010B19EB0B0948EBD9
:100370000608ABFB027C06FB02CC0BFB03CCC01BCC
:1003800071EB0C01C1E70B46024641464846BDE809
:10039000F08B13B5084318BF4FF0FF300146AFF3A1
:1003A0000080BDE81C407047704770477047754635
:1003B00000F02CF8AE4605006946534620F00700D1
:1003C000854618B020B5FFF765FFBDE820404FF027
:1003D00000064FF000074FF000084FF0000BAC464E
:1003E000ACE8C009ACE8C009ACE8C009ACE8C00999
:1003F00021F007018D46704710B50446AFF3008029
:100400002046BDE81040FFF730BF000000487047AD
:100410001000002001491820ABBEFEE726000200B4
:1004200070470000FEE7000070470000EFF3108007
:1004300072B600BFFEE70000B0B5044600F0E8F871
:10044000054640F20000C2F200000078611C18BFAF
:10045000044400BF00F0DCF8401BA042FAD3B0BD5A
:100460002DE9F04F82B000F13E4202F1FF728705A4
:1004700042F2004647EA9227C4F202060A2243F6F5
:10048000004EB04208BF0922C4F2010E092F38BF46
:100490003A464FF0010A002600274FF0000800926C
:1004A00008E000BF023708F10108202F06F104061A
:1004B00000F0AA800A680AFA08F412EA0409F1D0E6
:1004C000D1F804C0BCF1120F00F298800AFA0CF2C5
:1004D00012F0061F00F092800323826803FA07F5EA
:1004E000CB68AA43BB401A43826042684FEA1C13A0
:1004F000A24303FA08F34FEA480A6FEA050B1A43CE
:100500004260C2688B6802EA0B0203FA0AF31A43DC
:100510004CF01003122BC26013D16FF0030202EAF9
:100520005802024406F01C050F23D2F820C003FA3B
:1005300005F40B692CEA0404AB4023431362D1F8A1
:1005400004C002680CF0030302EA0B0203FA0AF388
:100550001A435FEACC034FF0010A0260A2D50022E1
:1005600043F644030192C4F202031A684FF6084CA2
:1005700042F480421A601A68CFF6FF7C02F480428F
:100580000192019A28F00302724452F80C3006F0EE
:100590000C050F24AC40A343009C04FA05F52B4343
:1005A00042F80C30DEF800204B6842EA0905DC0313
:1005B00058BF22EA0905CEF80050DEF804209C035B
:1005C00042EA090558BF22EA0905CEF80450DEF8D0
:1005D0000820DC0242EA090543F60C4458BF22EA2F
:1005E0000905CEF80850C4F2010422689B0242EAD1
:1005F000090558BF22EA0905256053E70322BA40DE
:100600006FEA020BBA467CE702B0BDE8F08F00004B
:1006100040F2B000C2F200000068704740F20000F3
:1006200040F2B001C2F20000C2F2000100780A6894
:10063000104408607047000080B543F60040C4F2E3
:100640000200016841F400710160016841F48061B9
:100650000160016841F480710160032000F074F8CA
:100660000F2000F005F800F027F8002080BD000002
:1006700070B540F20006C2F2000640F2080132787E
:10068000C2F200014FF47A730968B3FBF2F2044638
:10069000B1FBF2F1084600F01DFB0F2C4FF00105F5
:1006A00008D838B94FF0FF3021460022002500F06D
:1006B0001FF87460284670BD82B0002043F64001E8
:1006C0000190C4F202014A6842F480424A604A68DA
:1006D00002F480420192019A0090086840F0805034
:1006E0000860086800F080500090009802B07047E1
:1006F00010B54EF60C5CCEF2000CDCF80030C3F303
:10070000022E8EF00704042C28BF0424BEF103033C
:100710004FF0FF3E0EFA04F438BF0023A143994086
:100720000EFA03F39A43114300F00F0200F1604305
:100730000901043A03F564436244002848BF02F10A
:100740000C03197010BD00004EF60C51CEF20001E2
:100750000A684FF6FF031A4060F30A2242F08060F5
:1007600040F0FD7008607047002804BF012070470A
:100770002DE9F04143F60808C4F202080446D8F80F
:10078000F8030D4600F00F00884207D288F8F853AE
:10079000D8F8F80300F00F00A84277D1206881074D
:1007A00017D5410705D5D8F8001041F4E051C8F835
:1007B0000010010705D5D8F8001041F46041C8F8D1
:1007C0000010D8F80010A26821F0F0011143C8F819
:1007D0000010C00740D1D8F8F80300F00F00A8427D
:1007E00007D988F8F853D8F8F80300F00F00A842AA
:1007F0004CD12068410707D5D8F80010E26821F4F1
:10080000E0511143C8F80010000708D5D8F80000DF
:10081000216920F4604040EAC100C8F8000000F0FF
:1008200055F8D8F8001041F2FC62C1F30311C0F68C
:100830000002515C40F2080220FA01F140F204008B
:10084000C2F200000068C2F200021160FFF710FF60
:100850000020BDE8F08100BF6068811E022907D238
:1008600058F8081C89015CBF0120BDE8F08111E047
:10087000012807D158F8081C89035CBF0120BDE896
:10088000F08107E058F8081C890703D40120BDE86F
:10089000F08100BFD8F8001021F003010843C8F828
:1008A0000000FFF7B5FE064641F28837D8F8000091
:1008B000616800F00C00B0EB810F8CD0FFF7A8FE50
:1008C000801BB842F2D90320BDE8F08110B543F691
:1008D0000404C4F20204606800F00C0008280BD085
:1008E000042819BF42F20040C0F2F40047F640006D
:1008F000C0F27D1010BD00BF206821682368490246
:1009000047F64001C0F27D1100F03F02C3F38810AA
:100910005CBF42F20041C0F2F401A1FB00010023E0
:10092000FFF7CAFC21680222C1F3014102EB410139
:10093000B0FBF1F010BD0000002804BF012070479B
:100940002DE9F04182B00446007843F60006C00766
:10095000C4F202060CD0B06800F00C00042840F08D
:1009600081803068800303D56068002800F06081D2
:10097000207880071BD5B06810F00C0F09D0B06844
:1009800000F00C00082840F087807068400200F1F9
:1009900083803068800703D5E068012840F04881F3
:1009A0003068216920F0F80040EAC100306020780A
:1009B000000713D4207840072AD4A569002D00F041
:1009C0003281B06800F00C00082840F0A180012DB1
:1009D00040F00E81012002B0BDE8F081606900287E
:1009E00040F20000C4F2472000F07E800121C0F8F0
:1009F000801EFFF70DFE0546706F8007DAD4FFF703
:100A000007FE401B0228F7D9032002B0BDE8F081A1
:100A1000306C5FEAC0080AD400200190306C40F0CE
:100A200080503064306C00F080500190019847F2A3
:100A30000007C4F200073868C00547D4386840F49E
:100A400080703860FFF7E4FD054600BF3868C005D8
:100A50003CD4FFF7DDFD401B0228F7D9032002B08C
:100A6000BDE8F081B06800F00C00082803D1706880
:100A700040023FF576AF6068B0F5803F07D0B0F533
:100A8000A02F40F09980306840F4802030603068BA
:100A900040F48030306099E0E06800285CD00020AD
:100AA000C4F2472001210160FFF7B2FD054600BFF7
:100AB000306880073FF574AFFFF7AAFD401B02289E
:100AC000F6D9032002B0BDE8F08100BFA06801287C
:100AD00005D0052854D1306F40F004003067306FE6
:100AE00040F00100306755E00021C0F8801EFFF79C
:100AF0008FFD0546706F80077FF55CAFFFF788FDBF
:100B0000401B0228F6D9032002B0BDE8F08100BFE7
:100B10000027C4F2472700203866FFF779FD022D31
:100B200005460DD13068800140F18680FFF770FDE9
:100B3000401B02284FF00300F4D902B0BDE8F08159
:100B4000306880016FD5FFF763FD401B02284FF02E
:100B50000300F5D9F1E700BF0020C4F247200021CF
:100B60000160FFF755FD0546306880077FF51FAF30
:100B7000FFF74EFD401B02284FF00300F4D9DCE7DD
:100B8000316F002821F001013167316F21F004013C
:100B9000316773D0FFF73CFD054641F2883700BF4F
:100BA000306F80077CD4FFF733FD401BB842F7D984
:100BB000032002B0BDE8F0813168002821F48031C3
:100BC0003160316821F48021316073D0FFF720FD5E
:100BD000054600BF306880033FF5CAAEFFF718FD39
:100BE000401B6428F6D9032002B0BDE8F08100BFA5
:100BF0007068E16900F480028A4219D1216A00F02C
:100C00003F028A4214D147F6C071626A01409142A4
:100C10000ED1A16A00F440328A4209D1E16A00F0A3
:100C20007060884204D1002002B0BDE8F08100BFAE
:100C3000012002B0BDE8F08104F11C052FCD08436E
:100C400040EA8210D9034FF6FF729143A1F580313B
:100C500040EA05600843706001203866FFF7D8FC61
:100C6000044600BF30688001DDD4FFF7D1FC001BD3
:100C700002284FF00300F5D95FE700BFFFF7C8FC7B
:100C8000054641F2883700BF306F800708D5FFF76F
:100C9000BFFC401BB8424FF00300F5D94DE700BF41
:100CA000B8F1000F3FF589AE306C20F08050306411
:100CB00083E600BFFFF7ACFC054600BF3068800349
:100CC0007FF556AEFFF7A4FC401B64284FF00300ED
:100CD000F4D932E7411E0020B0EB116F1CBF012098
:100CE00070474EF21002CEF2000251604EF62351D0
:100CF000CEF20001F0230B70072190601160704765
:100D000090F83C20012A04BF02207047B0B501F1E1
:100D100008053CCDD1E900CE23F47C5322F4705277
:100D20001A432EF4F0431A432CF4E0431A4324F4FC
:100D3000C0431A432A43C96922F48042036811431D
:100D40005964002180F83C10BDE8B0400846704767
:100D500090F83C20012A4FF0020254D010B580F8E0
:100D60003D200268D2F804E0D2F808C00C682EF0EA
:100D70007003234341F2FF74C4F20004A2425360A3
:100D80000EDC40F2FF73C4F200039A4216DCB2F1AB
:100D9000804F2BD040F20043C4F2000324E000BF98
:100DA00040F2FF33C4F201039A4213DC41F6000320
:100DB000C4F200039A4219D0002313E040F6000366
:100DC000C4F200039A4211D040F60043C4F200037B
:100DD0000AE000BF44F20003C4F201039A4205D0C6
:100DE00040F20043C4F201039A4204D149682CF056
:100DF0008003194391600121002280F83D1080F8A2
:100E00003C20BDE81040104670470000002804BF99
:100E10000120704710B5044690F83D0028B9002025
:100E200084F83C00204600F00DF8022084F83D00D4
:100E30002068211D00F070FB012084F83D00002097
:100E400010BD000000680021C4F20101884218BFF3
:100E5000704781B00020009043F64400C4F20200C5
:100E6000016841F001010160006800F0010000909C
:100E7000009801B07047000090F83C20012A4FF024
:100E8000020200F0C28080B580F83D20D0F800C09A
:100E90004FF67772DCF8083023EA0202CCF808201B
:100EA0000B683F2B1CDD5F2B20DD602B50D0B3F592
:100EB000005F6DD0702B40F0A080D1E901E3C968DC
:100EC000DCF8082043EA0E0322F47F4243EA0121C2
:100ED0001143CCF80810DCF8081041F077018AE0E3
:100EE0001F2B29DC63B3102B2AD086E0402B63D064
:100EF000502B40F08280D1F804E0C968DCF8203043
:100F0000DCF8202022F00102CCF82020DCF81820A8
:100F100022F0F00242EA011123F00A0242EA0E0234
:100F2000CCF81810CCF82020DCF8081041F057015C
:100F300021F020015FE000BF202B01D0302B5CD1DD
:100F4000DCF8081021F07001194341F0070152E06C
:100F5000D1F804E0C968DCF8203023F01003CCF8A5
:100F60002030DCF81830DCF8202023F4704322F025
:100F7000A00243EA013142EA0E12CCF81810CCF874
:100F80002020DCF8081041F0670121F0100132E068
:100F9000D1E901E3C968DCF8082043EA0E0322F432
:100FA0007F4243EA01211143CCF80810DCF8081015
:100FB00041F480411FE000BFD1F804E0C968DCF8CB
:100FC0002030DCF8202022F00102CCF82020DCF8D0
:100FD000182022F0F00242EA011123F00A0242EA4C
:100FE0000E02CCF81810CCF82020DCF8081041F0E4
:100FF000470121F03001CCF808100121002280F8CF
:101000003D1080F83C20BDE880401046704700004D
:1010100090F83C30012B4FF0020300F006814FEABC
:10102000B202032A80F83D3000F2F9802DE9F04346
:10103000DFE802F0023E7EBE036840F200461A6A14
:1010400043F4806522F001021A621C6A1A46D3F842
:1010500004C052F818EF8F6824F00204C4F20106AD
:10106000B54244EA070405D1CF6824F00C0427F008
:1010700004073C430F68B54206D1D1E905582CF46A
:1010800040762E4346EA080C2EF073063743C3F829
:1010900004C09F614F6809695F631C629F6947F0E4
:1010A00008079F619F6927F004079F61B2E000BFB6
:1010B000036840F200481A6A43F4806522F0100287
:1010C0001A621C6A1A46D3F804C052F818EF8F68E7
:1010D00024F02004C4F20108454544EA071407D16E
:1010E000CF686FF0400624F0C00406EA07163443C8
:1010F000D1F80090454506D1D1E905562CF440675A
:101100002E4347EA860C2EF4E64747EA0927C3F840
:1011100004C09F614F6809699F631C629F6947F41F
:1011200000679F619F6927F480679F6171E000BF3E
:10113000036840F200481A6A43F4806522F4807222
:101140001A621C6A1A46D3F804C052F81CEF8F6862
:1011500024F40074C4F20108454544EA072408D188
:10116000CF6840F2FF463F0224F4406427EA0606B7
:101170003443D1F80090454506D1D1E905562CF409
:1011800040572E4347EA061C2EF0730747EA09072B
:10119000C3F804C0DF614F680969DF631C62DF695F
:1011A00047F00807DF61DF6927F00407DF6131E0FE
:1011B000036840F200451A6A43F4806722F48052C3
:1011C0001A621A46D3F820C05C6852F81CEFD1F8B6
:1011D00000808E68C4F20105AF4204D14D6924F449
:1011E000804444EA85142CF4005747EA06372EF46D
:1011F000E64646EA08265C60DE614E6809691E64C0
:101200001F62DF6947F40067DF61DF6927F48067E9
:10121000DF610902136819431160BDE8F043012141
:10122000002380F83D1080F83C30184670470000DD
:10123000002804BF0120704710B5044690F83D0017
:1012400028B9002084F83C00204600F00DF8022068
:1012500084F83D002068211D00F05EF9012084F82B
:101260003D00002010BD000070470000006801F044
:101270001F010122036A02FA01F123EA010202625C
:10128000D0F820C040F2004240F48063C4F2010272
:10129000934241EA0C01016203D1416C41F40041E7
:1012A0004164816801F00701062903D0016841F01B
:1012B0000101016000207047FEE7000082B00020BD
:1012C00043F630010190C4F202010A6842F0800244
:1012D0000A600A6802F080020192019A0090086890
:1012E00040F010000860086800F0100000900098BE
:1012F00002B07047B0B59CB0002540F27000C4F257
:1013000001050021C2F200000F2244F61F63802471
:101310001691CDE914111191CDE90F11CDE90D11FF
:10132000CDE90B11CDE90911CDE90711CDE9051181
:10133000CDE90311CDE90111C0E90052C0E9021362
:10134000C0E904118461FFF761FD002818BFFFF7B1
:101350006DF84FF48050139040F27000C2F200001C
:1013600013A9FFF789FD002818BFFFF75FF840F2C7
:101370007000C2F20000FFF75BFF002818BFFFF704
:1013800055F840F270000024C2F2000010A9CDE927
:101390001044FFF7DDFC002818BFFFF747F8602076
:1013A000CDE9090440F27000C2F2000009A9002250
:1013B000CDE90B44CDE90D440F94FFF729FE002839
:1013C00018BFFFF733F840F2700400204FF40051CB
:1013D000C2F200040590CDE90300CDE901000691B9
:1013E000089001A92046FFF78BFC002818BFFFF7E3
:1013F0001DF82068A84201D01CB0B0BD002043F603
:1014000030011790C4F202010A6842F010020A602B
:10141000096801F01001179117994FF400711791A5
:101420000221CDE918101A9001201B9005F5883093
:1014300017A9FFF715F81CB0B0BD0000FEE70000CB
:10144000FEE700007047000070470000FFF7E6B8B5
:10145000B0B592B0002443F64000CDE90A44CDE98E
:1014600008440594CDE90344CDE901440094C4F255
:1014700002000168012241F08051016000680225EC
:1014800000F080500090009847F200000094C4F2F1
:101490000000016862F38F310160006800F4404091
:1014A000009000984FF4803007904FF480000D902A
:1014B00019200E908020CDE90F050420119006A878
:1014C00006920C95FFF738FA20B1EFF3108072B650
:1014D000FEE700BF0F20CDE901059020CDE9030410
:1014E00001A800210594FFF73FF928B1EFF3108020
:1014F00072B600BFFEE700BF12B0B0BD4EF6885016
:10150000CEF20000016841F4700101604FF000610B
:1015100040F8801C7047000010B540F6FF3E03689D
:10152000C4F2000E40F2004C7045C4F2010C27DCFE
:10153000B0F1804F31D040F20042C4F2000290423C
:101540002BD040F60002C4F20002904225D041F6B2
:10155000FF72C4F20002904229DC70453CDCB0F11D
:10156000804F5FD040F20042C4F20002904259D056
:1015700040F60002C4F20002904253D056E000BF91
:1015800040F60042C4F20002904206D0604504D00A
:101590000022C4F201029042D9D14A6823F07003BC
:1015A000134341F6FF72C4F200029042D5DD43F6C8
:1015B000FF72C4F20102904222DC42F20002C4F245
:1015C000000290422ED00022C4F20102904229D0A3
:1015D000604527D02AE000BF40F60042C4F2000276
:1015E00090421FD041F60002C4F20002904219D08E
:1015F00041F60042C4F20002904213D016E000BF50
:1016000044F20002C4F2010290420BD044F6000200
:10161000C4F20102904205D044F20042C4F2010239
:10162000904203D1CA6823F44073134323F080022D
:101630004B69D1F800E08C681A430260C46240F440
:101640008062C0F828E0624504BF09690163012196
:10165000416110BDFEE70000FEF7EEFFFFF7F8FE68
:10166000FFF72CFEFFF746FE40F27004C2F20004C2
:10167000204600210025FFF7F9FD46F6174647F6FC
:1016800040684FF4FA69C1F2C1664FF4FA77C0F2CC
:10169000050800BF05FB09F08008A0FB06012068D3
:1016A00007EB910141630A20FEF7C6FE0135B52D17
:1016B000F0D14FF47A70FEF7BFFE4546A808A0FBB4
:1016C0000601206807EB910141630A20FEF7B4FE92
:1016D000B5F5FA65F2D14FF47A70FEF7ADFE00254C
:1016E000D8E7F1EE100A4FF6FF71C0F2C03120EAE0
:1016F000010040F04070E1EE100A70470000000069
:101700000000000001020304060708093017000862
:101710000000002010000000100200084017000820
:1017200010000020A80600003002000800000000A1
:1017300001000000100000000024F4000000000080
:04000005080001AD41
:00000001FF
