:020000040800F2
:100000000809002099020008934B0008E941000804
:10001000914B000879160008A1610008000000005B
:100020000000000000000000000000001150000867
:100030007B16000800000000954B000813500008D4
:10004000B3020008B3020008B3020008B3020008BC
:10005000B3020008B3020008B3020008B3020008AC
:10006000B3020008B3020008B3020008B30200089C
:10007000B3020008B3020008B3020008B30200088C
:10008000B302000800000000B3020008B302000839
:10009000B3020008B3020008B3020008B30200086C
:1000A000B3020008B3020008B3020008B30200085C
:1000B0008D50000899500008B3020008B3020008F0
:1000C000B3020008B3020008B3020008B30200083C
:1000D000B302000895610008B3020008B3020008EB
:1000E000B3020008B3020008B3020008B30200081C
:1000F000B3020008B3020008B302000800000000C9
:1001000000000000B302000800000000B302000875
:10011000B302000800000000B3020008B3020008A8
:10012000B3020008B3020008B3020008B3020008DB
:10013000B30200080000000000000000B302000845
:10014000B3020008B3020008000000000000000035
:10015000000000000000000000000000000000009F
:10016000000000000000000000000000B3020008D2
:10017000B3020008000000000000000000000000C2
:1001800000000000B30200080000000000000000B2
:10019000000000000000000000000000000000005F
:1001A0000000000000000000B3020008B3020008D5
:1001B000B3020008B3020008B30200080000000008
:1001C00000000000B3020008000000000000000072
:1001D000B3020008B302000800F002F800F04CF887
:1001E0000AA090E8000C82448344AAF10107DA4592
:1001F00001D100F041F8AFF2090EBAE80F0013F098
:10020000010F18BFFB1A43F001031847E4820000F6
:1002100004830000103A24BF78C878C1FAD8520786
:1002200024BF30C830C144BF04680C607047000070
:100230000023002400250026103A28BF78C1FBD8EF
:10024000520728BF30C148BF0B607047662906F0CF
:10025000F287642900F0F480002070471FB506F093
:10026000E0FF00F075FC04000020002106F08AFC8D
:10027000E0601FBD10B510BD00F06AFD1146FFF72C
:10028000EDFF06F069FB00F088FD03B4FFF7F2FF15
:1002900003BC00F0CBFD0000094880470948004737
:1002A000FEE7FEE7FEE7FEE7FEE7FEE7FEE7FEE726
:1002B000FEE7FEE704480549054A064B7047000083
:1002C0007D500008D901000808030020080900201B
:1002D000080500200805002053EA020C00F06980A0
:1002E0002DE9F04B4FF00006002B1FBFB3FA83F54A
:1002F00003FA05F424FA05F65E4012BF1643B2FA7B
:1003000082F502FA05F4C5F120051EBF22FA05FCAC
:1003100044EA0C04203556EA044C4FEA144418BF52
:10032000641C4FF000084FF00009904271EB030C81
:1003300039D3002919BFB1FA81F701FA07F6B0FAEB
:1003400080F700FA07F6C7F120071EBF20FA07FC66
:1003500046EA0C062037B6FBF4FCA7EB0507103F76
:1003600007F01F0BCBF120060CFA0BFB2CFA06F65C
:1003700044BFB3460026202FA4BF5E464FF0000BBB
:100380005BEA060C08BF4FF0010B19EB0B09ABFB46
:10039000027C48EB0608C01B06FB02CC0BFB03CC1F
:1003A00071EB0C01C1E70B46024641464846BDE8E9
:1003B000F08B13B54FF000004FF00001AFF3008059
:1003C000BDE81C40704700000FB41CB5074B06AADF
:1003D0007B4469460090059800F0A1FB0020694627
:1003E00000F0B0FB1CBC5DF814FB000071070000BE
:1003F00070B5044685690068C10601D5302600E065
:100400002026C00707D070BDD4E9012130469047AF
:10041000206A401C20626D1EF6D570BD70B5044682
:1004200085690078C00707D170BDD4E9012120207B
:100430009047206A401C20626D1EF6D570BD0000FA
:100440002DE9F0410646002410687529314616A5AD
:1004500010D0AFF30080002802DA404213A507E075
:1004600031688A0701D512A502E0490704D511A514
:10047000012401E0AFF3008000210A2206F12407E5
:1004800009E0B0FBF2FCB0FBF2F302FB1C003030E1
:1004900078541846491C0028F3D123462A46304692
:1004A000BDE8F04100F0CEB8000000002D000000D3
:1004B0002B000000200000002DE9F05F8946044673
:1004C0004FF0000ADFF824B1FB44C0F820A020461A
:1004D000E168884700287DD0252806D0D4E901218D
:1004E0009047206A401C2062F1E700255F462046C5
:1004F000E16888472028064607DB312E05D2B81967
:1005000010F8200C08B10543F1E7A80701D525F044
:100510000405C4F81CA00027C4F818A02A2E09D08E
:10052000304605F066FE38B304EB8708303EC8F865
:10053000186019E059F8041B204604EB870291610A
:10054000E1688847012F064618D1E069002820DAC3
:1005500025F020051DE0D8F8180000EB800006EB20
:1005600040003038C8F818002046E1688847064641
:1005700005F03FFE0028EED1012F0AD02E2E08D123
:100580002046E16888477F1C0646022F45F020057B
:10059000C4DBA069002803DA404245F00105A061F0
:1005A000E80701D025F01005A6B1A6F141001928F1
:1005B00002D8203645F400654A463146204625607B
:1005C0004D46FFF743FE60B1012807D0ED1D25F031
:1005D000070000E007E000F1080978E705F10409E9
:1005E00075E730467AE7206ABDE8F09F7E7F00001D
:1005F0004FF0000200B5134694469646203922BFBC
:10060000A0E80C50A0E80C50B1F12001BFF4F7AF06
:10061000090728BFA0E80C5048BF0CC05DF804EBE8
:10062000890028BF40F8042B08BF704748BF20F856
:10063000022B11F0804F18BF00F8012B7047704754
:10064000704770472DE9F0470D469946924604469B
:1006500000F124080168880604D5E06921F0100142
:10066000216000E00120A84201DD471B00E00027D7
:10067000A1697A1902EB0900081AA0612078C00666
:1006800002D42046FFF7B4FE002608E0D4E9012199
:100690001AF806009047206A401C761C20624E45DE
:1006A000F4DB2078C0060AD52046FFF7A1FE06E05D
:1006B000D4E9012130209047206A401C2062381E76
:1006C000A7F10107F4DC07E0D4E9012118F80500DF
:1006D0009047206A401C2062281EA5F10105F3DC2A
:1006E0002046FFF79BFE2078000602D50220BDE8D9
:1006F000F0870120FBE770472DE9FF4F0C461E46AF
:100700004FF0FF378BB0D2E90001DDF860800A902E
:100710008A46C1F30A5505B93D46002108464FF007
:100720000000BAF1000F00F4400005DA00EB800091
:100730004FF4400101EA50004FEA9059B9F1010F1E
:1007400000DDB9460A9850EA4A000ED044F610502F
:10075000A5F2FF3545432F14B8F1000F1ED07542A6
:10076000291E1EDDC9F100021CE0B8F1010F4FF097
:10077000000001D0302103E0F24305E02154401C89
:10078000B042FBDB30460022002121540B99C1F816
:100790000880C1E900200FB0BDE8F08FBD1B6D1CC3
:1007A000DEE74A4600DA694206A800F05BFA06ABCB
:1007B00093E8070003AB83E8070050460A9900F06E
:1007C0003CFB8DE80700A0F500501F38009003980F
:1007D000002D0ADD42F21F014A460844002303A906
:1007E0000390684600F0A5FD09E0A0F500504A46D8
:1007F0001F38002303A90390684600F0AFFD8DE881
:1008000007000004000C03D04FF0FF30410800E067
:100810001046B8F1000F03D00022009215461EE0EA
:10082000751E05D400F098F9303262556D1EF9D569
:10083000B3460122084302D000227F1C04E0207846
:10084000302801D100227F1E002A099784D01DE0A4
:10085000112D07DA00F080F9303262556D1C50EA34
:100860000102F5D1084302D00098C8B10EE0002182
:10087000681E05E0235C625C63542254401E491CE0
:100880008142F7DBAB46A81B401E0990002004F80C
:100890000B000B98099AC0F80880C0E9002B7AE792
:1008A00011264FF0000857E72DE9F04F884604461F
:1008B000D21D22F0070191B0D1E90001CDE90A0172
:1008C00005F06FFC02460B98C00F01D02D2007E009
:1008D0002068810701D52B2002E0202101EAC00019
:1008E000032A099001D0072A05DB0346414620462A
:1008F00000F078F90BE12078800601D5E06900E08E
:100900000620B8F1650F814606D0B8F1660F18D001
:10091000B8F1670F70D131E00020B9F1110F0090EC
:1009200001DB112301E009F101030AAA01A90CA8C6
:10093000FFF7E2FEDDE90C70002609F101058346B0
:1009400047E001204B4600904FF000470AAA01A95A
:100950000CA8FFF7D1FEDDE90DB00C995D4600262D
:1009600010B909F101000D18B9EB050003D4C0F16D
:10097000FF3609F10105A5EB09002BE0B9F1010FE4
:1009800001DA4FF001090020B9F1110F009048463B
:1009900001DD112300E003460AAA01A90CA8FFF714
:1009A000ABFEDDE90C704D4600268346207800073B
:1009B0000AD4AB4500DA5D4601A8012D04DD4119DA
:1009C00011F8011C302907D04F4502DA17F1040F46
:1009D00004DA012082460FE06D1EEEE7002F02DCF4
:1009E000ED1B3E4403E0781CA84200DD7D1CB81BD3
:1009F00000F1010A4FF000472078000703D4AA4510
:100A000001DB4FF0FF3A0021B7F1004F0DF1430831
:100A10008DF8431024D002202B23002F01DA7F42CF
:100A20002D230A21021EA0F1010000DC5FB197FB1B
:100A3000F1FC97FBF1F201FB1C7C17460CF1300C2A
:100A400008F801CDEEE7A8F101000370218809053F
:100A500001D5452100E06521A0F1010800F8011C45
:100A600009980FA9A1EB0807FF1D00B1012041194A
:100A700001EBEA70A1693844081A401EA061207891
:100A8000C00602D42046FFF7B3FC099828B1D4E988
:100A900001219047206A401C20622078C00622D5A0
:100AA0002046FFF7A5FC1EE0002E04DBB34502DD67
:100AB00001A8805D00E03020D4E901219047206A40
:100AC000401C2062761CAAF101005FEA000A0AD1EC
:100AD00000F03EF8C0680168405CD4E9012190470D
:100AE000206A401C2062281EA5F10105DCDC07E01D
:100AF000D4E9012118F8010B9047206A401C2062BC
:100B0000381EA7F10107F3DC2046FFF787FC03201E
:100B100011B041E601694A1C02610878704700B5CE
:100B20008FB0CDE901310021059105497944CDE926
:100B3000031011466846FFF7BFFC0FB000BD000070
:100B4000E5FFFFFF0A6802F8010B0A60704700002A
:100B500000487047C802002030B5B0F10A024FEAE1
:100B6000900E71F100034EEA817EB0EB0E0061EB56
:100B700091014FEA101E4EEA017E10EB0E0041EB90
:100B800011114FEA102E4EEA016E10EB0E0041EBF0
:100B900011214FEA104E4EEA014E10EB0E0041EBD0
:100BA0001141401841F100014FEAD00040EA417084
:100BB0004FEAD10110EB80054FEA810444EA9074BA
:100BC00044EB01046D1944EB0404521BA3414FF0A4
:100BD000000348BF0A3200D530BD401C41F100017E
:100BE00030BD00002DE9F0411F4604460326016890
:100BF000072A01F4006004DB08B116A505E016A57C
:100C000003E008B115A500E015A521F01000206053
:100C1000A069C01EA0610FB1401EA0612046FFF771
:100C2000E7FB4FB1D4E9012138469047206A401CC8
:100C30002062C01C206206E0206AFAE7D4E90121A4
:100C400015F8010B9047761EF8D22046FFF7E6FB19
:100C5000BDE8F0814E414E006E616E00494E460087
:100C6000696E66002DE9F047814616468AB0354820
:100C700078440DC88DE80D0032487844801C03ACE0
:100C80000DC884E80D0041F69B300844372190FBE5
:100C9000F1F290FBF1F5A5F1800501FB12041B3C7C
:100CA00002D56442012000E00020DFF898A08046D1
:100CB0000027FA44AAF1BE0A0EE0E0070AD0324645
:100CC000684607EB470101230AEB810100F046FB70
:100CD0008DE8070064107F1C002CEED1194F7F4473
:100CE000AE3F19E0E80715D007EB04100DF1180A24
:100CF00090E80E008AE80E00C068F04201D1981911
:100D000008903246012306A903A800F027FB03AB95
:100D100083E807006D10641C002DE3D14FF0010340
:100D200032466946B8F1000F03A802D000F001FB7B
:100D300001E000F013FBC9E90001C9F808200AB07E
:100D4000BDE8F0876478000000487047A8020020E2
:100D50007546FFF7F9FFAE4605006946534620F099
:100D60000700854618B020B5FFF7A4FABDE820407B
:100D70004FF000064FF000074FF000084FF0000B57
:100D800021F00701AC46ACE8C009ACE8C009ACE80A
:100D9000C009ACE8C0098D46704710B50446AFF3F2
:100DA00000802046BDE81040FFF76FBA4FF0013CCD
:100DB00050F8042B51F8043B9A4221D1A2EB0C03CA
:100DC000934313EACC1317D150F8042B51F8043B8A
:100DD0009A4215D1A2EB0C03934313EACC130BD127
:100DE00050F8042B51F8043B9A4209D1A2EB0C03B2
:100DF000934313EACC13DBD04FF00000704700BFE1
:100E0000D01A01BAB1FA81F101F0180122FA01F009
:100E1000CB40C1F12001DBB2C0B2C01A2CFA01F301
:100E2000D11A914311EAC311E6D170470149182044
:100E3000ABBEFEE72600020070475FEA400C08BF29
:100E400091F0000F4FEA8C234FEAC12243EA51513F
:100E50004FEA1C5018BF00F5F0404FEA300018BFB1
:100E600041F000415FEA6C5C00F02980BCF1FF3F7B
:100E700008BF40F080407047130C06BF12044FF0CB
:100E8000100C4FF0000C130E04BF12020CF1080CF2
:100E9000130F04BF12010CF1040C930F04BF920056
:100EA0000CF1020CD30F04BF52000CF1010C1146DF
:100EB0004FF00002A0F11F00A0EB0C00704711F0F2
:100EC000004F08BF704731F000413FF4D5AF0B0C25
:100ED00006BF09044FF0100C4FF0000C0B0E04BFBE
:100EE00009020CF1080C0B0F04BF09010CF1040CF2
:100EF0008B0F04BF89000CF1020CCB0F04BF49001B
:100F00000CF1010CCCF12003A0EB0C0022FA03F34E
:100F100002FA0CF241EA030100F10100704720F0EF
:100F20007F4C80EA030023F07F47ACEB070303F517
:100F30007C5300F0004003F1FF032DE980494FEAA4
:100F4000154B09B44FEA144325EA0B4E24EA034833
:100F50000FF2042606EB132749083E785FEA3202B7
:100F600003FB0667C7F5000707FB06F64FEA543791
:100F70004FEAD64606F1020607FB066CCCF1005C90
:100F80004FEA1C472CEA074C07FB06F40CFB06F55E
:100F900004EB15464FEA961634BF00204FF0004090
:100FA0004FEAD13706FB07FC4FEA1C4C0CFB0BF752
:100FB000D21B03FB0CF761EB07010CFB0EF7B0EB48
:100FC000074072EB17420CFB08F734BFA2EB074255
:100FD000B2EB074261EB17414FEA0C444FEA91072D
:100FE00006FB07FC4FEA1C4C0CFB0BF7B0EBC740B1
:100FF00072EB573203FB0CF734BFA2EBC742B2EBE4
:10100000C74261EB57310CFB0EF7B0EBC70072EB38
:1010100057720CFB08F734BFA2EBC702B2EBC70252
:1010200061EB5771039F4FEA816141EA921104EB32
:10103000CC044FEAD1374FEA826206FB07FC42EA52
:1010400090124FEA80604FEA1C4C0CFB0BF7D21B4E
:1010500003FB0CF761EB07010CFB0EF7B0EB07404D
:1010600072EB17420CFB08F734BFA2EB0742B2EB5E
:10107000074261EB17414FEA8C554FEA910704EBA9
:101080009C2406FB07FC4FEA1C4C0CFB0BF7B0EB57
:10109000C74072EB573203FB0CF734BFA2EBC742D9
:1010A000B2EBC74261EB57310CFB0EF7B0EBC70058
:1010B00072EB57720CFB08F734BFA2EBC702B2EB1E
:1010C000C70261EB577115EB4C254FEA816141EA8C
:1010D00092114FEA82624FEAD13742EA901206FB40
:1010E00007FC44F100044FEA80604FEA1C4C0CFB03
:1010F0000BF7D21B03FB0CF761EB07010CFB0EF7A0
:10110000B0EB074072EB17420CFB08F734BFA2EBC1
:101110000742B2EB074261EB174115EB1C154FEA92
:10112000813141EA92414FEA823242EA90424FEAEB
:1011300080304FEA0C7644F1000448EA03434EEA5B
:101140000B484FF0000EB2EB080C71EB030724BF05
:10115000624639464EEB0E0E4FF0000B001852411E
:1011600049414BEB0B0BB2EB080C71EB03077BF126
:10117000000B24BF624639464EEB0E0E4FF0000BBB
:101180000018524149414BEB0B0BB2EB080C71EBD1
:1011900003077BF1000B24BF624639464EEB0E0E6F
:1011A00051EA020718BF46F0010616EB0E7655F11C
:1011B000000254F1000103D5BDE88901BDE80088B3
:1011C000BDE88901BDE80048B619524141EB010173
:1011D000A3F10103704780807F7E7D7C7B7A7978E4
:1011E000777676757473727171706F6E6E6D6C6CEC
:1011F0006B6A6A696868676666656464636362618E
:101200006160605F5F5E5E5D5D5C5C5B5B5A5A590E
:10121000595858575756565555555454535352527A
:101220005251515050504F4F4F4E4E4D4D4D4C4CD2
:101230004C4B4B4B4A4A4A4949494848484747471B
:101240004746464645454544444444434343434258
:10125000424242414141002B9C4630D477002BD082
:101260001CB54FEA370703B44FF010004FF01001E0
:10127000BAF1000F06D0BCF1000FDCBF40F008004F
:1012800040F008014FF000000FBCBDE810400BF12A
:10129000010BBBF1010F08BF5FEA170722BF12F174
:1012A000010211F101014FF0004143F1000300F090
:1012B000004043EA00007047F9D35708D0E746EAF8
:1012C000064613F1400F4FEA16461FDD13F1200FBB
:1012D000DFBF16430A46002120335B42BED0C3F174
:1012E000200746EA064602FA07F74FEA164646EA9C
:1012F0000706C3F1200722FA03F201FA07F721FAE1
:1013000003F14FF0000342EA0702A7E746EA0206AC
:1013100046EA06464FEA164646EA0106BCBF46EADA
:101320000646360C4FF000034FF000024FF000016C
:1013300094E72DE9804C9A46934670B491E83800C2
:1013400007C831EA400C48BF34EA430C03D5FFF725
:10135000E6FDFFF780FFF0BCBDE8008C2DE9804C76
:101360009A46934670B491E8380007C810F0804F51
:1013700008BF13F0804F03D100F005F8FFF76BFFB3
:10138000F0BCBDE8008C20F07F4780EA030023F02A
:101390007F4C07EB0C03A3F57C5300F00040A3F156
:1013A000FE0392F0000F00F0B38095F0000F00F004
:1013B00077802DE901494FEA11404FEA144621EAAE
:1013C000004800FB06FC24EA064708FB06F607FB7C
:1013D00008F800FB07F718EB06484CEB164C4FEAF1
:1013E000124B18EB07484FEA15464CEB174022EA20
:1013F0000B4E0BFB06FC25EA06470EFB06F607FB29
:101400000EFE0BFB07F71EEB064E4CEB164C4FF097
:1014100000061EEB074E4CEB174B18EB0B0840F188
:10142000000018EB0E0B58EB000840F100008F1A7B
:101430004FF000013CBFC943661B14BFB5EB040C61
:1014400000213CBFC943F61B4FEA17444EEA8E0EFB
:1014500027EA04454FEA1C4704FB07622CEA074CC5
:1014600005FB07F70CFB05F604FB0CFC16EB074627
:1014700042EB174216EB0C4642EB1C421BEB0606F6
:1014800058EB0202414146EA9E0601D5BDE80189BA
:10149000B619524141EB0101A3F10103BDE80189F5
:1014A0004FEA14454FEA114724EA054621EA074C62
:1014B00005FB07F406FB07F70CFB06F105FB0CFC2C
:1014C00011EB074144EB17444FEA124711EB0C4173
:1014D00044EB1C4422EA074C05FB07F206FB07F726
:1014E0000CFB06F605FB0CFC16EB074642EB17421D
:1014F00016EB0C4642EB1C456A1854F1000148BF3C
:101500007047B619524141EB0101A3F10103704745
:1015100095F0000F37D04FEA11424FEA144721EA05
:10152000024624EA074C02FB07F106FB07F70CFB17
:1015300006F402FB0CFC14EB074441EB17414FEAA5
:10154000154714EB0C4441EB1C4125EA074C02FB08
:1015500007F506FB07F70CFB06F602FB0CFC16EB87
:10156000074645EB174516EB0C4645EB1C42121996
:1015700051F1000148BF7047B619524141EB0101DA
:10158000A3F1010370474FEA14454FEA114724EADB
:10159000054621EA074C05FB07F106FB07F70CFBA4
:1015A00006F24FF0000605FB0CFC12EB074241EB84
:1015B000174112EB0C4251EB1C4148BF7047921887
:1015C00041EB0101A3F1010370470000F8B50446A7
:1015D000002000902068816811F0010F41D18168DE
:1015E000214A11422ED18168D5432940491C81608E
:1015F0001E48806800F0E07000020DD51C481D49AF
:101600000068B0FBF1F0401C00EB4000800000E0FF
:10161000401E00900028FBD100F0FAFD06461BE0BA
:10162000816811F0010F03D181682940491C816054
:1016300000F0EEFD801B02280ED920680068C04330
:10164000C00709D0E06D40F01000E065206E40F06A
:10165000010020660120F8BD20680168C943C90760
:10166000DED10020F8BD00003F00008000030050E4
:1016700060000020400D0300FEE77047002240F6A6
:10168000B83306E00021491C89B29942FBD3521CB1
:1016900092B28242F6D3704772B6FEE72DE9F84F58
:1016A00000270446009790F85800DFF8E0930D46B5
:1016B000B846012811D0012684F85860206803F04C
:1016C00069F860B1E06D40F02000E0655FF001076F
:1016D00084F858803846BDE8F88F0220FBE7D5E94A
:1016E00000210C23206803EA91131844036B01F0D6
:1016F0001F014FF01F0C0CFA01FCC2F3846223EAB5
:101700000C038A4013430363206803F043F88246C6
:10171000206803F03BF85AEA00003CD1AA68296827
:101720002068B2F1004F37D003F038F820684169E3
:1017300021F00041416120686969C268C2F3C102B9
:10174000520091402A69042A31D000EB82002B68B4
:10175000026EDFF83CC303F0F84302EA0C020B43CD
:101760001A4342F00041016620682A69A96900EB2A
:101770008200026E22F080720A430266297F22688C
:101780002869012910D0002102EB8000026E22F0AE
:1017900000720A4302667DE0002202F0FFFF20682B
:1017A000416941F00041C5E74FF00071ECE70021CD
:1017B00002F0E6FF400320684FF0000172D002F013
:1017C000DFFF90FAA0F0B0FA80F1286842036ED0F3
:1017D00090FAA0F0B0FA80F0814204D100221146C4
:1017E000206802F0EAFF0121206802F0C9FF4003EF
:1017F00020684FF001015DD002F0C2FF90FAA0F026
:10180000B0FA80F12868420359D090FAA0F0B0FAFB
:1018100080F0814204D100220121206802F0CDFF36
:101820000221206802F0ACFF400320684FF0020163
:1018300048D002F0A5FF90FAA0F0B0FA80F1286835
:10184000420344D090FAA0F0B0FA80F0814204D173
:1018500000220221206802F0B0FF0321206802F07C
:101860008FFF400320684FF0030133D002F088FF60
:1018700090FAA0F0B0FA80F1286842032FD090FAD5
:10188000A0F0B0FA80F0814204D100220321206848
:1018900002F093FF2068816811F0010F22D0ACE0C4
:1018A00000E004E002F06CFFC0F384618DE7C0F358
:1018B000846091E702F064FFC0F38461A2E7C0F3A3
:1018C0008460A6E702F05CFFC0F38461B7E7C0F371
:1018D0008460BBE702F054FFC0F38461CCE7C0F33F
:1018E0008460D0E72A7B296850F8B03FC1F3120C1E
:1018F00023EA0C0302F0180C664A22FA0CF20A40A2
:1019000013430360E968494577D1286841031CD037
:1019100090FAA0F1B1FA81F1491C01F01F010929E7
:101920004FEA403132D8002912D000BF90FAA0F11E
:10193000B1FA81F101F1010101F01F0106FA01F68E
:1019400009D100BFC0F3846109E0C0F38461E3E71B
:10195000C0F38461EEE790FAA0F1B1FA81F101F1F0
:10196000010101F01F0146EA816102D1C0F38460E8
:1019700003E090FAA0F0B0FA80F000F1010000F06E
:101980001F0000EB400041EA005132E000290ED078
:1019900090FAA0F1B1FA81F101F1010101F01F010A
:1019A00006FA01F606D100BFC0F3846106E0C0F379
:1019B0008461F1E790FAA0F1B1FA81F101F101013E
:1019C00001F01F0146EA816102D1C0F3846003E0A7
:1019D00090FAA0F0B0FA80F000F1010000F01F00D2
:1019E0002D4A00EB400002EB005041EA000141F0BB
:1019F0000071AA68206802F0D1FE28482A680242D5
:101A00003FF466AE26488168264B01F0E0719A42A9
:101A100002D0254B9A421CD10B021AD42268B2F193
:101A2000A04F7FF455AE826841F4000122F0E072CD
:101A30000A4382601D481E490068B0FBF1F0401C5B
:101A400000EB4000800000E0401E00900028FBD129
:101A50003EE6184D184BAA4207D1CD0105D42268A5
:101A60009A42F5D041F0807109E0144DAA42EFD1BD
:101A70004A02EDD422689A42EAD041F48001826899
:101A800022F0E0720A43826022E6000000007F40FC
:101A900000F0FF03FFFF0700000020FE00000880A9
:101AA00000030050000021C31000C090600000201F
:101AB000400D0300000052C700010050000084CB1D
:101AC0000068006C70470000F8B54FF00005040096
:101AD0002E46009502D0E06D10B107E00120F8BD60
:101AE000204600F0EBF8266684F85860206881688C
:101AF000C1F3407119B18168684A11408160206862
:101B00008168C1F3007189B98168654A114041F06B
:101B100080518160634864490068B0FBF1F0400087
:101B2000801C00E0401E00900028FBD120688168E6
:101B3000C1F3007141B9E16D41F01001E165216E21
:101B400041F001012166012502F024FEE16DC90684
:101B500000D430B1E06D40F01000E065012528466A
:101B6000F8BDE06D20F4807040F00200E065206870
:101B7000806810F0010F11D14FF0A04080684B49F0
:101B800000F00100896801F00101084306D14848CE
:101B90006168826822F47C120A438260E168E06B2B
:101BA000627F0843A16841EA4231084394F8241057
:101BB00040EA0140012904D1218D3E4A02EB414116
:101BC0000843E16A29B101F47871226B014342EACA
:101BD00001002268D168384B19400143D160206868
:101BE0000169626B21F0406111430161206802F0DC
:101BF000CDFD70BB207F94F83810800340EA41028D
:101C00002168C86844F2020398431043C860206901
:101C10000028206801690AD041F480310161206800
:101C200050F8C01F22696FF30D01114307E021F442
:101C300080310161206850F8C01F6FF30D01016011
:101C400094F8400001280CD02068016921F00101BE
:101C50000161606901282068016B21F00F0111D03A
:101C600013E0D4E911010843D4E9131211430843E6
:101C700021680A6940F2FC739A43104340F0010066
:101C80000861E6E7226A521E11430163E06D20F00D
:101C9000020040F00100E06561E70000C0FFFF5F67
:101CA000C0FFFF7F60000020400D030000010050D6
:101CB000000300500000FEFF0740F0FF10B598B091
:101CC0000446142111A8FEF793FC44216846FEF750
:101CD0008FFC15492068884223D1C4014005009437
:101CE0000F90684600F092FB08B1FFF7D5FC0F4853
:101CF000C16C41F40051C164C16C01F400511691F2
:101D0000C16C41F00201C164C06C11A900F0020075
:101D100016900320CDE9114000201390044800F0F4
:101D200049F918B010BD0000000100500010024039
:101D3000000400482DE9F04104465948806800F04D
:101D40001F05206802F026FD18B102221046BDE8EA
:101D5000F08194F8580001280CD0012084F8580034
:101D60002046FFF733FC02004FF0000304D084F854
:101D70005830EBE70220EAE7E06D40F60161884366
:101D800040F48070E065474920684FF0A0468842E3
:101D900001D1374600E00746874200D01DB9E76D04
:101DA00027F48017E765E76DFF0404D5276E27F059
:101DB0000607276600E023661C27076084F8583072
:101DC0002068436823F01C034360A069082820684A
:101DD000436802D043F0040301E043F0080343608A
:101DE000E06B20B92068436843F01003436020682B
:101DF000884201D1334600E0034683420CD05DB1F6
:101E0000052D09D0092D07D0E36D43F48013E36558
:101E1000884225D1314624E0C168890119D5E16D98
:101E200021F4005141F48051E165A169082941681C
:101E300007D021F0400141602068416841F0200155
:101E400006E021F0200141602068416841F0400136
:101E5000416020688168144B1940091D816075E755
:101E60000146C968890184D5E16D21F4005141F42E
:101E70008051E165A1690829416807D021F040013E
:101E800041602068416841F0200106E021F0200116
:101E900041602068416841F04001416056E7000020
:101EA0000003005000010050C0FFFF7F10B590F804
:101EB000253000210122022B03D00421C16301211E
:101EC00022E003681C6824F00E041C60836C1C680C
:101ED00024F480741C6003681C6824F001041C60F6
:101EE00090F84430046C03F01F0302FA03F36360BC
:101EF000D0E913345C60436D33B11C6824F4807402
:101F00001C60D0E916345C6080F82520002280F83F
:101F10002420084610BD70B590F82520002401212A
:101F20002346022A07D00422C26380F8251080F8D5
:101F30002430012429E00268156825F00E0515609B
:101F40000268156825F001051560826C156825F496
:101F50008075156090F84420056C02F01F0201FAAC
:101F600002F26A60D0E913255560426D32B11568FE
:101F700025F480751560D0E91625556080F8251088
:101F800080F82430816B01B18847204670BD000085
:101F900070B5044600F03CF90546601C02D00448C8
:101FA0004068044400F034F9401BA042FAD370BDED
:101FB000540000202DE9F04FDFF820920023012685
:101FC0000324A9F1040B85B00F2709F1040AABF132
:101FD000040EFAE006FA03F52A407CD091F804C01A
:101FE0000CF0030CBCF1010F02D0BCF1020F26D1A2
:101FF000D0F808C0CDF800C04FEA430C04FA0CF842
:10200000CDF810C0DDF800C02CEA080CCDF800C0F7
:10201000D1F80C80DDF810C008FA0CF8DDF800C02B
:1020200048EA0C08C0F80880D0F804C02CEA050C77
:102030000D79C5F300159D4045EA0C0545600D7905
:10204000ED43AD070ED0C5684FEA430804FA08FC1B
:1020500025EA0C05D1F808C00CFA08FC4CEA050C7E
:10206000C0F80CC00D7905F00305022D16D1DD086E
:1020700000EB850CCDF808C0DCF820805D074FEA46
:10208000D56C07FA0CF528EA05080D6905FA0CF578
:10209000DDF808C045EA0805CCF8205005684FEA8D
:1020A000430CCDF808C004FA0CFC25EA0C0591F8A5
:1020B00004C00CF00308DDF808C008FA0CF848EA80
:1020C0000508C0F800804D6815F4403F7CD0444DB1
:1020D000D5F860C000E077E04CF0010CC5F860C0B6
:1020E0002D6E23F0030C05F0010500953D4D654470
:1020F0000295AD684FEA837C4FEA1C7807FA08FC2A
:1021000025EA0C05B0F1904F06D0DFF8DCC0604541
:1021100005D14FF0010C20E04FF0000C1DE0DFF87E
:10212000CCC0604502D14FF0020C16E0DFF8C0C011
:10213000604502D14FF0030C0FE0DFF8B8C06045F6
:1021400002D14FF0040C08E0DFF8ACC0604502D1CA
:102150004FF0050C01E04FF0060C0CFA08FC4CEABD
:10216000050C029DC5F808C0D9F80050CC46D1F83E
:10217000048095435FEAC82800D51543CCF8005089
:10218000DAF80050D446D1F8048095435FEA8828F5
:1021900000D51543CCF80050DBF80050DC46D1F8F0
:1021A000048095435FEA883800D51543CCF8005089
:1021B000DEF80050F446D1F8048095435FEAC83851
:1021C00000D51543CCF800505B1C0A6832FA03F5C1
:1021D0007FF400AF05B0BDE8F08F000008040140B7
:1021E00000100240000001400004004800080048C0
:1021F000000C004800100048001400480069084026
:1022000000D0012070470AB1816170478162704738
:10221000014880687047000054000020024881682F
:1022200042681144816070475400002010B50024BA
:10223000032000F073F80F2000F008F808B1012423
:1022400001E000F025F8204610BD000070B50E4EEC
:1022500005460024706898B14FF47A71B1FBF0F034
:102260000A490968B1FBF0F000F0F8FE40B9102D02
:1022700006D200222946501E00F030F8356000E0FA
:102280000124204670BD00005400002060000020A2
:102290000A4882B0016E41F001010166016E01F051
:1022A00001010091816D41F080518165806D00F0E8
:1022B0008050009002B000F0A1B800000010024071
:1022C000002809DB00F01F02012191404009800035
:1022D00000F1E020C0F8001170470000F0B40E4B90
:1022E0001B680C46C3F30223C3F10705042D00D974
:1022F0000425191D072901D2002300E0DB1E012659
:1023000006FA05F1491E214099409E40761E16406E
:102310003143F0BC03F05DBF0CED00E0064900F076
:10232000070208684FF6FF03184040EA0220034AFC
:1023300010430860704700000CED00E00000FA0553
:102340002B492C4B0A6832214A432B4940B1B0F546
:10235000007F086829D020F4C06040F480602CE041
:102360000868C0F34120022804D051F8800F20F4FF
:10237000807022E0D1F8800020F48070C1F88000E5
:10238000086820F4C06040F400700860B2FBF3F00D
:10239000401C00E0401E4A69520501D50028F9D1D1
:1023A000486940050AD503207047C0F34120022840
:1023B00006D051F8800F40F480700860002070470C
:1023C000D1F8800040F48070C1F88000086820F4E3
:1023D000C06040F400700860B2FBF3F0401C00E005
:1023E000401E4A695205DBD50028F9D1D8E7000024
:1023F0006000002040420F000070004002488168E9
:1024000041F4804181607047007000402DE9F8433D
:102410000446006800269D4D00035ED5A86D002788
:10242000C00008D4A86D40F08050A865A86D0127B1
:1024300000F080500090DFF85892D9F8001041F475
:102440008071C9F80010FFF7E3FE804606E000BF88
:10245000FFF7DEFEA0EB080002282BD8D9F8000019
:10246000C005F5D5D5F8900010F4407014D0216C5B
:10247000814211D0D5F89000D5F8901020F440702A
:1024800041F48031C5F89010D5F8901021F48031D6
:10249000C5F89010C5F89000C00711D0FFF7B8FE3E
:1024A000804641F2883907E0FFF7B2FEA0EB080151
:1024B000494501D903260BE0D5F890008007F3D5F4
:1024C000D5F89000216C20F440700843C5F89000C6
:1024D0001FB1A86D20F08050A8652078C00707D0F4
:1024E000D5F88800616820F003000843C5F888002B
:1024F0002078800707D5D5F88800A16820F00C0067
:102500000843C5F888002078400707D5D5F888002B
:10251000E16820F030000843C5F888002078000703
:1025200007D5D5F88800216920F0C0000843C5F818
:1025300088002078800607D5D5F88800616920F4E6
:1025400040600843C5F888002078400607D5D5F8D4
:102550008800A16920F440500843C5F8880020781D
:10256000000607D5D5F88800E16920F4404008430B
:10257000C5F888002088C00507D5D5F88800216AED
:1025800020F440300843C5F888002088800507D52E
:10259000D5F88800616A20F440200843C5F8880017
:1025A000208840050FD5D5F88800A16A20F4401096
:1025B0000843C5F88800A06AB0F5801F03D1E86819
:1025C00040F48010E860208800050FD5D5F8880019
:1025D000E16A20F440000843C5F88800E06AB0F5DD
:1025E000800F03D1E86840F48010E8602088C004C0
:1025F0000FD5D5F88800216B20F040700843C5F84E
:102600008800206BB0F1807F03D1E86840F480102F
:10261000E86020884FF0006180040ED5D5F888006E
:10262000626B20F040601043C5F88800606B884200
:1026300003D1E86840F48010E860208840040ED59B
:10264000D5F88800A26B20F040601043C5F88800E0
:10265000A06B884203D1E86840F48010E8602088CD
:1026600000040FD5D5F88800E16B20F040500843F6
:10267000C5F88800E06BB0F1805F03D1E86840F4F2
:102680008030E8603046BDE8F8830000001002406A
:10269000007000402DE9F0470E4605004FF000079E
:1026A00025D0DFF8AC81D8F8000000F00F00B04270
:1026B0000CD2D8F8001021F00F013143C8F80010F7
:1026C000D8F8000000F00F00B04210D12968614C2A
:1026D000C80741F2883A5AD06868DFF87C9103282D
:1026E00008D0022820682DD0400500282CDB0120CE
:1026F000BDE8F08720688001F9D5E06800F00302AA
:10270000E068C0F30310401C032A19D0534A00BFED
:10271000B2FBF0F0E268C2F306225043E268C2F373
:102720004162521C5200B0FBF2F0484517D9A06834
:1027300010F0F00F0CD0880711D5A86840B10EE05A
:10274000474AE5E78003D0E700F0B6F8484506D9E8
:10275000A06820F0F00040F08000A0608027A06812
:10276000696820F003000843A060FFF751FD81462F
:1027700006E000BFFFF74CFDA0EB090151453AD838
:10278000A068696800F00C00B0EB810FF2D12868F6
:10279000810714D5400703D5A06840F4E060A0602D
:1027A0002878000705D5A06820F4605040F4E06068
:1027B000A060A068A96820F0F000084304E0802F22
:1027C00003D1A06820F0F000A060D8F800104046C7
:1027D00001F00F01B14216D9016821F00F01314318
:1027E0000160FFF715FD074607E000BFFFF710FD8A
:1027F000C11B514501D903207AE7D8F8000000F049
:102800000F00B042F2D12878400705D5A068E968EA
:1028100020F4E0600843A0602878000706D5A0688F
:10282000296920F4605040EAC100A06000F044F83B
:10283000A1680C4AC1F30311515C01F01F01C840AB
:102840000949086009480068BDE8F047FFF7FEBC89
:10285000002002400010024000B4C4040024F40030
:1028600000366E0132840008600000205400002011
:102870000548064900688968054AC1F30221515C90
:1028800001F01F01C84070476000002000100240A6
:10289000428400080548064900688968054AC1F372
:1028A000C221515C01F01F01C84070476000002048
:1028B0000010024042840008184910B58868C0F32F
:1028C00081021748012A0BD08A68164BC2F3810295
:1028D000022A06D08A68C2F38102032A03D00020AC
:1028E00010BD184610BDCA6802F00304CA68C2F3DE
:1028F0000312521C032C02D0B0FBF2F001E0B3FB38
:10290000F2F0CA68C968C2F306225043C1F34161BC
:10291000491C4900B0FBF1F010BD0000001002405E
:102920000024F40000366E012DE9F84304007AD04B
:102930002078F84DC00747D0A868E96800F00C007F
:1029400001F003010C2802D0082817D001E0032968
:1029500014D06068B0F5803F17D0B0F5A02F28687C
:1029600017D020F480302860286820F48020286068
:102970006068E0B1FFF74CFC064614E0286880036D
:1029800022D560680028D2D01EE0286840F480304C
:10299000EDE740F480202860F7E700BFFFF738FC40
:1029A000801B642870D828688003F7D50CE0FFF7F7
:1029B0002FFC064605E000BFFFF72AFC801B6428B9
:1029C000F0D828688003F7D4207880074CD5A86811
:1029D000E96800F00C0001F003010C2802D0042883
:1029E0000DD001E002290AD0E068002828682BD029
:1029F00040F480702860FFF70BFC064619E0286859
:102A0000400502D5E068002891D06868217C20F05C
:102A1000FE4040EA01606860BF480068FFF716FCAE
:102A2000002800D120E072E1FFF7F2FB801B0228B2
:102A3000B8D828684005F7D56868217C20F0FE40AA
:102A400040EA016068600FE020F480702860FFF7C2
:102A5000DFFB064605E000BFFFF7DAFB801B02281C
:102A6000A0D828684005F7D42078000729D56069E8
:102A70000028D5F8940013D040F00100C5F8940068
:102A8000FFF7C6FB064606E090E000BFFFF7C0FB7D
:102A9000801B022886D8D5F894008007F6D510E070
:102AA00020F00100C5F89400FFF7B2FB064604E0F1
:102AB000FFF7AEFB801B022878D8D5F8940080077A
:102AC000F6D42078400761D5A86D0026C00008D450
:102AD000A86D40F08050A865A86D012600F08050D8
:102AE00000908E480168C90511D40168804641F400
:102AF00080710160FFF78CFB074604E0FFF788FB5D
:102B0000C01B022852D8D8F80000C005F6D5A0682E
:102B1000012815D00528D5F8900016D020F0010026
:102B2000C5F89000D5F8900020F00400C5F890009A
:102B3000A06841F28838B8B1FFF76AFB07460EE09B
:102B4000D5F8900040F00100F0E740F00400C5F82F
:102B50009000F5E7FFF75CFBC11B414526D8D5F88F
:102B600090008007F6D50CE0FFF752FB074604E023
:102B7000FFF74EFBC11B414518D8D5F890008007E0
:102B8000F6D41EB1A86D20F08050A865207880068C
:102B900029D5A0690028D5F8980013D040F001008D
:102BA000C5F89800FFF734FB064606E075E000BF65
:102BB000FFF72EFB801B02286FD8D5F898008007FE
:102BC000F6D510E020F00100C5F89800FFF720FBD3
:102BD000064604E0FFF71CFB801B02285DD8D5F8F1
:102BE00098008007F6D4E069F0B3A968C1F38101C9
:102BF00003295DD00228286820F08070286003D067
:102C0000FFF706FB04464BE0FFF702FB064604E035
:102C1000FFF7FEFA801B02283FD828688001F7D40E
:102C2000F4E908016FF00F0202EB01110843218A59
:102C30005204490802EB4151A26841EA02210843CB
:102C4000217D4FF07E42490802EB41610843217B20
:102C500040EAC160E968324A11400843E8602868E8
:102C600040F08070286000E05EE0E86840F080702E
:102C7000E860FFF7CDFA044605E000BFFFF7C8FAA9
:102C8000001B022809D828688001F7D54CE000BF56
:102C9000FFF7BEFA001B022802D90320BDE8F88323
:102CA00028688001F4D4E8681E490840E8603BE0E9
:102CB0000128F3D0E868226A00F00301914226D18E
:102CC000616A00F0F0020901103991421FD1A26A35
:102CD00000F4FE41B1EB022F19D194F82C2000F042
:102CE0007841B1EBC26F12D1218E00F4C0024908C5
:102CF0004905A1F50011914209D194F8341000F072
:102D0000C06049084906A1F1007181420CD0012040
:102D1000C4E7000000100240540000200070004092
:102D20000C809F01FCFFEEFE0020B7E710B50068A5
:102D30000B4641680D480140080CD870C1F30424CB
:102D40005C7001F03F049C70C1F34231197052B9BC
:102D500002F0ABF8D870587802F0A7F8587098785D
:102D600002F0A3F89870002010BD00003FFFFF00A4
:102D700010B50B4601688968596001680969C1F39B
:102D80000E019960006801680D480140C1F30540DB
:102D90001870C1F306245C7001F07F049C70890DEB
:102DA000D97052B902F081F81870587802F07DF8A5
:102DB0005870987802F079F89870002010BD0000E3
:102DC0007F7F7F0070B504004FF0010040D094F881
:102DD000250028B9002084F82400204600F040F89F
:102DE000022084F825002068C168C943C90630D58F
:102DF000CA214162216853204862204602F06AF8E5
:102E000010BB20688169154A114081612168886979
:102E10006268A369104322691A43104388612189BB
:102E2000E06840EA014021680861204602F077F836
:102E300050B9D4E90721114322686369956925F0E7
:102E400060452B43194391612268FF21516208B10B
:102E500070BD0020012184F8251070BDBFFF8FFBDD
:102E600010B592B0044644216846FDF7C1FB1049F5
:102E7000206888421AD14FF4002000904FF440702F
:102E800010906846FFF7C2FA08B1FEF705FC094842
:102E900050F8901F41F4004140F83819016841F49E
:102EA00080610160006800F48060119012B010BD74
:102EB000002800400010024070B5044690F824003D
:102EC0000B4601281BD0012684F82460022084F8D8
:102ED0002500B2B19878D97840EA01455878197838
:102EE000000240EA413005432168CA204862216857
:102EF00053204862204601F0EDFFD0B120E00220CF
:102F000070BD5878C10603D500F0EF000A30587044
:102F1000D87801F0D3FF0504587801F0CFFF45EAD7
:102F20000025987801F0CAFF0543187845EA403536
:102F3000DAE70848054020684560204601F0EFFFC9
:102F40002268FF21516208B984F82560002184F8C5
:102F5000241070BD3FFFFF002DE9F041044690F8BA
:102F6000240090460D46012811D0012784F82470D2
:102F7000022084F825002168CA2048622168532075
:102F80004862204601F0A6FF002618B129E0022081
:102F9000BDE8F0812068B8F1000F80694FEA406019
:102FA00024D0002800DBEE70A8782978EA7840EA7F
:102FB00001406978090241EA8251084318490840F2
:102FC000216808602068816921F480218161D5E948
:102FD0000301084321688A6910438861204601F093
:102FE0009EFF2268FF215162A0B115E0002800DB9E
:102FF000EE70287801F062FF0304687801F05EFF4C
:1030000043EA0023A87801F059FF0343E87843EA34
:103010008050D3E784F8257084F82460B8E7000076
:103020007F7F7F0070B504460B482168C860FFF7BA
:10303000EFF805464FF47A7607E000BFFFF7E8F8AF
:10304000401BB04201D9032070BD2068C0688006D3
:10305000F4D5002070BD00005F00010010B5401ED7
:10306000B0F1807F01D3012010BD4FF0E0246061FA
:103070000F21601703F0ADF80020A0610720206148
:10308000002010BD70477047704770477047704709
:10309000F0B590F83C20012A3AD0012580F83C5048
:1030A000022280F83D2003685A689C68194E1A4F26
:1030B000B34201D0BB4204D122F4700C4A6842EA08
:1030C0000C02DFF858C002EA0C02D1F800C04CEA4A
:1030D000020CC3F804C00268B2420DD0B2F1804FB6
:1030E0000AD00F4B9A4207D00E4B9A4204D0BA42F4
:1030F00002D00D4B9A4204D1896824F08003194311
:10310000916080F83D50002180F83C100846F0BDE9
:103110000220F0BD002C0140003401408FFFFFFD74
:10312000000400400008004000400140704710B516
:10313000040003D094F83D0010B107E0012010BD59
:10314000002084F83C00204600F022F8022084F899
:103150003D00211D206801F0A5FF012084F84800F2
:1031600084F83E0084F83F0084F8400084F8410071
:1031700084F8420084F8430084F8440084F8450051
:1031800084F8460084F8470084F83D00002010BD14
:1031900010B586B0044614216846FDF729FA216867
:1031A0001E48B1F1804F29D01D4A914224D1816D32
:1031B00041F002018165816D01F002010591C16C50
:1031C00041F00101C164C06C002100F001000590D4
:1031D000802000900220CDE90101CDE9031069466D
:1031E0004FF09040FEF7E6FE002211461D20FFF74B
:1031F00075F81D20FFF764F806B010BD816D41F031
:1032000001018165806D002200F0010005901146EA
:103210001C20FFF763F81C20ECE7000000100240C0
:103220000004004090F83D10012901D001207047B2
:10323000022180F83D1000680F4988420ED0B0F19D
:10324000804F0BD00D49884208D00D49884205D0E7
:103250000C49884202D00C49884207D181680B4A48
:103260001140062906D0B1F5803F03D0016841F036
:103270000101016000207047002C01400004004063
:1032800000080040003401400040014007000100F8
:1032900070B5044690F83C000025012814D00126A2
:1032A00084F83C60022084F83D0022689068364B28
:1032B000184020F47F409060086870282ED010DC01
:1032C00010F00F0F03D021E04FF0020070BD4FEA65
:1032D0002012072A1AD2DFE802F0525252524A381C
:1032E00040002A4BC21A984249D009DCB0F5805FF1
:1032F0000DD0B0F5005F1CD0B0F1101F06D13EE03C
:10330000102A3CD0202A3AD0502A38D0012584F8FF
:103310003D60002084F83C00284670BDCB68D1E9B0
:103320000121206801F029FF2068816841F07701C0
:1033300009E0CB68D1E90121206801F01EFF206877
:10334000816841F480418160E1E7CA68496820688A
:1033500002F026F95021206806E0CA684968206812
:1033600002F066F96021206801F012FFCFE7CA6819
:103370004968206802F014F940212068F4E72268C7
:1033800001461046F0E7000088FFCEFF2000100045
:103390002DE9F04105462DED028B00681E4988425B
:1033A00036D1287F1D4C022805D10421284600F083
:1033B000C9FB401CA060287F012829D10021284694
:1033C00000F0C0FB0746E060A06803F0A8FD0E46D1
:1033D000054646EC180B384603F0A1FD9FED101B87
:1033E00053EC112B03F0AEFD53EC182B03F012FC41
:1033F00003F068FD46EC105B607053EC102B9FED02
:103400000A0B51EC100B03F005FC03F05BFD20618F
:10341000BDEC028BBDE8F0810004004038000020C4
:1034200000000000000059400000000080842E4190
:103430002DE9F041054690F83C0000260C46012895
:1034400010D0012085F83C0072B1042A1CD0082A53
:103450002CD00C2A50D00126002085F83C003046A4
:10346000BDE8F0810220FBE7D4E90012E368286898
:1034700002F0A8F82868816921F00C0181612868B0
:103480008169A26811430FE0D4E90012E36828685B
:1034900002F0E0F82868816921F4406181612868C0
:1034A0008169A26841EA02218161D5E72868D4E9EF
:1034B000002C277B036A016A21F480710162C169D3
:1034C00023F4206321F0030141EA0C0121F0F00C08
:1034D00039074FF420674CEA116107EA02221A43C8
:1034E000C16102622868C16921F00C01C1612868CC
:1034F000C169A26811432BE02868D4E90021E7687C
:10350000036AD0F820C02CF4805CC0F820C0D0F84A
:103510001CC023F420432CF4407C4CEA012121F40C
:10352000704C4FF6FF7101EA07314FF4204741EA32
:103530000C0107EA02321A43C16102622868C169BC
:1035400021F44061C1612868C169A26841EA022191
:10355000C16181E710B5040003D094F83D0010B1BB
:1035600007E0012010BD002084F83C00204600F058
:1035700022F8022084F83D00211D206801F092FD10
:10358000012084F8480084F83E0084F83F0084F865
:10359000400084F8410084F8420084F8430084F835
:1035A000440084F8450084F8460084F8470084F815
:1035B0003D00002010BD704730B50446002571B1B4
:1035C000042911D0082914D00C2917D0102918D09B
:1035D00094F8430094F84720012817D114E094F898
:1035E0003E0094F84420F7E794F83F0094F8452013
:1035F000F2E794F8400094F84620EDE794F8410093
:10360000E8E794F84200E5E7012A01D0012030BD47
:10361000022079B1042916D008291DD00C2949D0DF
:1036200010294AD084F8430084F847000C2947D079
:1036300001253DE084F83E0084F844002068C2681B
:1036400042F0020210E084F83F0084F84500206850
:10365000C26842F0040207E084F8400084F84600A3
:103660002068C26842F00802C2600122206801F0AE
:1036700077FD1649206888420ED0B0F1804F0BD0FC
:103680001349884208D01349884205D0124988421C
:1036900002D01249884207D18168114A1140062997
:1036A00006D0B1F5803F03D0016841F0010101600F
:1036B000284630BD84F84100B6E784F84200B3E7FD
:1036C0002068C26842F01002CEE70000002C0140E2
:1036D0000004004000080040003401400040014068
:1036E000070001002DE9F04104460068C66805693D
:1036F0004FF00007A90713D5B10711D5F91E0161D5
:1037000001202077206880698007204602D0FFF7DB
:103710003FFE04E000F016F9204600F011FA27778A
:10372000680716D5700714D521686FF0040008618A
:10373000022020772068806910F4407F204602D064
:10374000FFF726FE04E000F0FDF8204600F0F8F94F
:103750002777280715D5300713D521686FF00800A3
:103760000861042020772068C0698007204602D0C5
:10377000FFF70EFE04E000F0E5F8204600F0E0F967
:103780002777E80616D5F00614D521686FF01000EB
:103790000861082020772068C06910F4407F204627
:1037A00002D0FFF7F5FD04E000F0CCF8204600F071
:1037B000C7F92777E80708D0F00706D021686FF02F
:1037C00001000861204600F0BCF9280601D4A804D5
:1037D00008D5300606D521686FF4025008612046EE
:1037E000FFF751FCE80508D5300606D521686FF4CF
:1037F000807008612046FFF745FC680608D5700612
:1038000006D521686FF040000861204600F0DAF923
:10381000A80608D5B00606D521686FF0200008611B
:103820002046FFF731FCE80208D5F00206D52168F2
:103830006FF4801008612046FFF728FCA80208D525
:10384000B00206D521686FF4001008612046FFF72A
:103850001CFC680208D5700206D521686FF4800050
:1038600008612046FFF713FC28020AD5300208D56C
:1038700021686FF4000008612046BDE8F041FFF7C1
:1038800055BCBDE8F081000010B586B00446142197
:103890006846FCF7ADFE2068B0F1804F15D10C48AA
:1038A000C16C41F00101C164C06C694600F00100C7
:1038B00005900220009001900020029003900120CA
:1038C00004904FF09040FEF775FB06B010BD00006D
:1038D0000010024070B5044690F83C000025012815
:1038E0000BD0012084F83C000C2A1ED007DC82B1EA
:1038F000042A12D0082A06D113E0022070BD102A33
:1039000017D0142A19D00125002084F83C0028463D
:1039100070BD206801F046FCF6E7206801F090FCDD
:10392000F2E7206801F0D4FCEEE7206801F018FD12
:10393000EAE7206801F05CFDE6E7206801F090FD11
:10394000E2E7000070B505460068466A164C6068FC
:1039500003F0E5FA41EC100B53EC102B9FED130B29
:1039600051EC100B03F056F903F0ACFA60612868D3
:10397000B0F1804F12D1287F02280FD102214FF0E1
:103980009040FEF73BFC642100282278606906D055
:103990005043B0FBF1F029683044886370BD424366
:1039A000B2FBF1F1401AF6E73800002000000000F9
:1039B00080842E4110B5040003D094F83D0010B16E
:1039C00007E0012010BD002084F83C00204600F0F4
:1039D00022F8022084F83D00211D206801F062FBDE
:1039E000012084F8480084F83E0084F83F0084F801
:1039F000400084F8410084F8420084F8430084F8D1
:103A0000440084F8450084F8460084F8470084F8B0
:103A10003D00002010BD704770B50025044602220D
:103A200069B1042916D0082955D00C295ED0102977
:103A300063D094F84300012866D0012070BD94F84B
:103A40003E000128F9D184F83E202068C26842F087
:103A5000020209E094F83F000128EED184F83F20EB
:103A60002068C26842F00402C2600122206801F0AE
:103A700077FB2B4920682B4A2B4B884209D0904278
:103A800007D0984205D0294EB04202D0284EB0420D
:103A900003D1466C46F400464664206888420CD048
:103AA000B0F1804F09D02349884206D0224988428C
:103AB00003D0904201D0984207D181681F4A11403B
:103AC000062906D0B1F5803F03D0016841F001011D
:103AD0000160284670BD94F840000128ADD184F8FB
:103AE00040202068C26842F00802BDE794F8410017
:103AF0000128A2D184F8412008E094F8420001286E
:103B00009BD184F8422003E084F843200C2901D0A3
:103B10000125DEE72068C26842F01002A4E7000039
:103B2000002C0140003401400040014000440140AD
:103B30000048014000040040000800400700010068
:103B4000704770470246002041B1042909D0082976
:103B50000AD00C2901D11068006C70471068406BC6
:103B600070471068806B70471068C06B704770B505
:103B7000044690F83C00012812D0012584F83C50FE
:103B8000022084F83D00204601F0A2FC01004FF025
:103B9000000007D084F83D5084F83C00012070BD3F
:103BA000022070BD2168CA6822F04002CA60216804
:103BB000CA6822F48042CA6084F83D5084F83C0010
:103BC000002070BD704790F88410012918D00121A1
:103BD00080F884102421C0F8881001680A680B68F6
:103BE00023F001030B6022F00051002242660368BB
:103BF00019602021C0F8881080F884201046704792
:103C0000022070477047704770B5044690F88400F2
:103C100001281DD0012084F884002420C4F88800E5
:103C200020680568026822F001020260206882684C
:103C300022F060620A438260204601F027FD20687E
:103C400005602020C4F88800002084F8840070BD3E
:103C5000022070BD70B5044690F8840001281DD084
:103C6000012084F884002420C4F8880020680568B6
:103C7000026822F0010202602068826822F060423D
:103C80000A438260204601F001FD20680560202083
:103C9000C4F88800002084F8840070BD022070BD44
:103CA00070477047704700002DE9F04103680446F3
:103CB000D86919689A6840F60F0528424FF0000548
:103CC0004FF002060AD187067ED501F0200702F0E8
:103CD000805C57EA0C0777D0616F3AE1B24FDFF8AA
:103CE000CCC2174001EA0C0C57EA0C0C6CD05FEA0E
:103CF000C07C0CD05FEAC15C09D54FF0010CC3F861
:103D000020C0D4F8903043F00103C4F8903083070A
:103D100009D5D30707D023681E62D4F8903043F04A
:103D20000403C4F8903043070AD5D30708D02668A7
:103D300004233362D4F8903043F00203C4F8903087
:103D400003070CD501F020033B4308D02668082365
:103D50003362D4F8903043F00803C4F89030030580
:103D60000BD54B0109D526684FF400633362D4F8B4
:103D7000903043F02003C4F89030D4F89030002BFA
:103D80003DD0800609D501F0200002F080510843A3
:103D900003D0616F09B120468847D4F890002168AC
:103DA0008968490602D410F0280F2AD0204601F075
:103DB00053FD2068806840061ED52068083050E812
:103DC000001F21F0400100E021E040E80012002A3D
:103DD000F3D1D4F8800078B175498163D4F88000BC
:103DE000FEF799F800280AD0D4F88000816B00E033
:103DF0002046BDE8F04108472046FFF753FFBDE8E5
:103E0000F0812046FFF74EFFC4F89050F7E7D4F852
:103E10006CC02027BCF1010F7ED15FEAC06C7BD55E
:103E20005FEAC16C78D5102018622068806840066F
:103E300045D5D4F88010086840680004000CDED036
:103E4000B4F85C208242DAD9A4F85E000868006801
:103E500080062CD4216851E8000F20F4807041E8DE
:103E60000002002AF6D12068083050E8001F21F037
:103E7000010140E80012002AF5D12068083050E81E
:103E8000001F21F0400140E80012002AF5D1C4F8DB
:103E90008C70E566206850E8001F21F0100140E8B2
:103EA0000012002AF6D1D4F88000FDF7FFFF266744
:103EB000B4F85C00B4F85E10401A81B230E0B4F897
:103EC0005C00B4F85E10401A81B2B4F85E000028BD
:103ED00095D0002993D0226852E8000F20F490700A
:103EE00042E80003002BF6D12F4BDB43206808305B
:103EF00050E8002F1A4040E8002CBCF1000FF5D12B
:103F0000C4F88C70E5666567226852E8000F20F0FF
:103F1000100042E8000300E006E0002BF4D1266721
:103F20002046FFF76FFE6AE7C60209D5560207D59D
:103F30004FF4801018622046BDE8F041FFF7B1BE93
:103F400003060AD501F0800302F40002134304D0F3
:103F5000A16F00297FF44CAF51E7420611D54A0604
:103F60000FD52046026852E8001F21F0400142E8C8
:103F70000013002BF6D1C0F88870856700F033F984
:103F80003DE7020206D54A0004D52046BDE8F041CF
:103F9000FFF786BEC001C6D50029C4DA2046BDE8B9
:103FA000F041FFF730BE00000100001020010004C6
:103FB0004558000810B5040003D0D4F8880010B1AB
:103FC00007E0012010BD002084F88400204600F0A6
:103FD00027F82420C4F888002068016821F0010136
:103FE0000160A06A10B1204601F072FB204601F08A
:103FF000C5FE0128E6D02068416821F49041416067
:104000002068816821F02A0181602068016841F000
:10401000010101602046BDE8104001F0BDBB000079
:1040200010B598B00446142111A8FCF7E1FA442118
:104030006846FCF7DDFA1B492068884230D1012030
:104040000024CDE900046846FEF7E0F908B1FDF769
:1040500023FB1548016E41F480410166016E01F4B5
:1040600080411691C16C41F00101C164C06C11A97D
:1040700000F0010016904FF4C06011900220CDE9CD
:1040800012040720CDE914404FF09040FDF792FF55
:10409000002211462520FEF721F92520FEF710F910
:1040A00018B010BD003801400010024030B4D0F804
:1040B0008C30202B02D0022030BC7047A9B1A2B1B5
:1040C0000023C3660A4C0368A3420BD05B681B0243
:1040D00008D5046854E8003F43F0806344E80035A5
:1040E000002DF6D130BC01F083BF0120E4E70000D1
:1040F0000080004000680B49884211D10A480C49F1
:104100000A4B027808781A54401CC0B20870312853
:1041100001D100200870012203490648FFF7C6BFFD
:10412000704700000038014051000020E0010020ED
:1041300050000020140200202DE9F8430446D0F876
:104140008800984616460D46202802D00220BDE879
:10415000F883A5B19EB10020C4F890002120C4F8D6
:1041600088001834FEF754F8A6878146E68754F88D
:10417000100C2027183CB0F5805F02D003E001202E
:10418000E5E7206910B12E46002510E000260EE07C
:104190008021204601F0B4FFC0B9DEB116F8010B52
:1041A00021688862B4F85600401EA4F85600B4F89E
:1041B00056004B464FF00002CDF800800028E7D1B2
:1041C0004FF04001204601F09BFF40B1C4F88870D9
:1041D0000320BCE735F8020BC0F30800E0E7C4F8A1
:1041E00088700020B3E77047FEE7000000B585B097
:1041F00014216846FCF7FCF9C020009001200190D2
:1042000002900220039069460248FDF7D3FE05B0F4
:1042100000BD00000004004870B50824002500F02F
:10422000BFFE13E06806050E002000F0A1FE14207A
:1042300002F00AF8142002F007F8012000F098FEBE
:10424000142002F001F800F09FFE0543641EE4B262
:10425000E8D2002000F08CFE142001F0F5FF00F001
:10426000C1FE284670BD70B50446082516E000F072
:104270007FFE142001F0E8FF04F0800000F0A6FEAD
:10428000142001F0E1FF6006040E142001F0DCFFB1
:10429000012000F06DFE142001F0D6FF6D1EEDB27E
:1042A0004FF00000E3D200F063FEBDE87040142040
:1042B00001F0CABF10B5012000F088FE142001F003
:1042C000C3FF012000F054FE142001F0BDFF0020C8
:1042D00000F07CFE142001F0B7FF002000F048FE43
:1042E000BDE81040142001F0AFBF10B5002000F071
:1042F0003FFE142001F0A8FF002000F067FE14200C
:1043000001F0A2FF012000F033FE142001F09CFF19
:10431000012000F05BFEBDE81040142001F094BFC6
:1043200010B5052400F03CFE142001F08DFF0120A3
:1043300000F01EFE142001F087FF05E0641EA4B209
:10434000142001F081FF64B100F01EFE0028F5D1B9
:1043500000F00EFE00F046FE142001F075FF002074
:1043600010BD00F03FFEFFF7C0FF012010BD0000B0
:1043700000B585B014216846FCF73AF94FF6FF7096
:10438000009000200321CDE9020101906946024816
:10439000FDF710FE05B000BD0008004800B585B06F
:1043A00014216846FCF724F94FF6FF7000900120B5
:1043B0000190032003900020029069460248FDF717
:1043C000F9FD05B000BD00000008004870B50024EC
:1043D00006462146204600F02FF900F06DF94FF413
:1043E0009635304600F03CF9641CAC42F9D370BD00
:1043F00070B586B014216846FCF7FAF81E48C16C07
:1044000041F00401C164C16C01F004010591C16C6B
:1044100041F00101C164C16C01F001010591C16C61
:1044200041F00201C164C06C032500F00200059058
:104430004FF448700124002603958DE85100694629
:104440000E48FDF7B7FD200203958DE851004FF0AF
:10445000904469462046FDF7ADFDFFF79FFFA06938
:1044600040F48070A06105481830016841F408717B
:10447000016006B070BD000000100240000400485A
:10448000203AD2B2034B02EB420203EB021200F0DD
:1044900045B800003A720008F0B50E460746002500
:1044A00040F23F1407E021463846FFF7E9FF103C91
:1044B0006D1CA4B2761C3278002A01D0142DF2D3E0
:1044C000F0BD2DE9F04717460D468246002440F224
:1044D0003F1602EB03084FF61F0917E0BC420DD34D
:1044E000A0450BD9484600F09FF82A78314650463F
:1044F000FFF7C6FF002000F097F803E03146504672
:10450000FFF7BEFF103E641CB6B26D1C2A78002A6D
:1045100001D0142CE2D3BDE8F08700002DE9F0476C
:1045200091468A460026044600F086F8DFF840806F
:10453000012700BF00F0C0F85FF0000539F8160051
:1045400007FA05F10842404601D1408800E00088A2
:1045500000F086F86D1C102DF0D3641CE4B25146B7
:10456000204600F069F8761C182EE3D3BDE8F087EA
:104570003000002010B5FFF73BFF002000F014F8DA
:10458000084CA080A088A0F50241303906D000F088
:104590008BFB002000F008F8A08010BD00F0FBFAB3
:1045A000F7E700003000002070B51D490A6842F4AA
:1045B00000720A600A6842F480720A60184C103C6B
:1045C000226842F020022260164A1060086840F01B
:1045D0002000086000BF00BF00BF206840F020003E
:1045E0002060206840F480702060FFF7C1FE4FF02B
:1045F0009041886A40F48070886200BF00BF00BFAD
:104600000848001F006885B2886940F4807088619E
:10461000FFF7C4FE206840F400702060284670BD9B
:10462000280400481408004801B5BDF800000149FD
:10463000488008BD3000002010B50C4601462020FF
:1046400000F068F82146BDE81040212000F062B873
:1046500001B5BDF800000149088008BD3000002008
:10466000134A116841F400711160114910390B6847
:1046700043F480730B600B6843F020030B600D4B19
:104680001860106840F02000106000BF00BF00BF3D
:10469000086840F020000860086840F480700860F6
:1046A00000BF00BF00BF086840F40070086070479A
:1046B00028040048140800481449086840F40070B1
:1046C0000860086840F4807008601048103802687C
:1046D00042F0200202600E4B22221A600A6842F069
:1046E00020020A6000BF00BF00BF016841F0200146
:1046F0000160016841F48071016000BF00BF00BF2C
:10470000016841F40071016070470000280400480E
:1047100014080048184B10B51A6842F400721A6069
:104720001A6842F480721A60134A103A146844F00E
:1047300020041460114C2060186840F020001860BC
:1047400000BF00BF00BF106840F02000106010687C
:1047500040F4807010602160186840F020001860FC
:1047600000BF00BF00BF106840F02000106010685C
:1047700040F48070106010BD280400481408004800
:1047800000EB8100006E00F0F84070478068C0F3D5
:10479000C00070478068C0F380007047042303EABC
:1047A000D15310B518444369C1F3045107248C4018
:1047B000A3438A401343436110BD00EB8100016EA7
:1047C00021F00041114301667047000030B589B007
:1047D00020216846FBF70CFF1948184900240160A6
:1047E0004902C0E90114C46004250461C0E905451B
:1047F000047744770121016280F82440C462046395
:1048000080F83840C46380F84040FDF75DF908B196
:10481000FCF742FF0B4800900620CDE901047F2001
:104820000594CDE9030569460548FCF737FF0028E4
:1048300001D0FCF731FF09B030BD0000000100508D
:10484000B40000200080F03EF0B587B01421684627
:10485000FBF7CEFE2D48C16C41F00401C164C16C70
:1048600001F004010591C16C41F02001C164C16CEB
:1048700001F020010591C16C41F00101C164C16CDE
:1048800001F001010591C16C41F00201C164C16CEC
:1048900001F002010591C16C41F00801C164C06CD6
:1048A0001B4E00F008004FF47F4405900022214683
:1048B0003046FDF7A8FC174F002204213846FDF7CB
:1048C000A2FC0125CDE9004500240294694630464A
:1048D0000394FDF76FFBCDE9005469464FF090401B
:1048E0000294FDF767FB0720CDE9000469460A48FA
:1048F0000294FDF75FFB04200090CDE90154694666
:1049000038460394FDF756FB07B0F0BD0010024097
:1049100000080048000C00480004004810B586B0AC
:1049200014216846FBF764FE204800241E490594C4
:10493000C0E900147D21816041F27071C0E9031467
:104940004FF080414461C0E906410462FEF73AFA43
:1049500008B1FCF7A1FE23208DF8000059208DF846
:10496000010050208DF80200019403940122694651
:104970000E480494FEF7F0FA08B1FCF78DFE012012
:104980008DF814008DF815008DF8160002468DF88C
:10499000174005A90548FEF78FFA002801D0FCF75B
:1049A0007BFE06B010BD0000002800402001002062
:1049B00010B58EB000240794089409940A940B94BF
:1049C0000C941C2168460D94FBF712FE1E484FF014
:1049D000804101604F21C0E901141C49C0E9031462
:1049E0008461FEF7A4FB08B1FCF756FE4FF480503B
:1049F000079007A91448FEF74BFC08B1FCF74CFEE2
:104A00001148FEF7D7FF08B1FCF746FE0B940BA93F
:104A10000D480D94FEF73CFB08B1FCF73DFE30203D
:104A200000904FF4FA70CDE901040422694606486B
:104A30000494FEF74FFF08B1FCF72EFE0248FEF784
:104A400023FF0EB010BD000048010020D0830700F6
:104A500010B590B0002409940A940B94142104A872
:104A60000C94FBF7C5FD2D480D940F940E94009403
:104A7000019402942849039401604F21C0E9011474
:104A80004FF6FF71C0E903148461FEF750FB08B1D3
:104A9000FCF702FE4FF48050099009A91F48FEF769
:104AA000F7FB08B1FCF7F8FD1C48FEF753FD08B111
:104AB000FCF7F2FD042004906020CDE9050404A970
:104AC00016480894FFF753F808B1FCF7E5FD0D947C
:104AD0000DA912480F94FEF7DBFA08B1FCF7DCFDD4
:104AE00002200090CDE90104002269460B4803949E
:104AF000FEF79EFC08B1FCF7CFFD0120CDE9004098
:104B0000042269460548FEF793FC002801D0FCF713
:104B1000C3FD10B010BD000000040040940100204F
:104B2000194810B5174901604FF416514160002132
:104B300081600C22C160C0E904128161C16101621F
:104B400041628162FFF736FA08B1FCF7A5FD00214A
:104B50000D48FFF77FF808B1FCF79EFD00210A48D9
:104B6000FFF752F808B1FCF797FD0748FFF72BF85D
:104B700008B1FCF791FDBDE810400122034902484D
:104B8000FFF794BA003801401402002051000020C1
:104B9000FEE7FEE7704730B501210020FFF7BAFDC0
:104BA0004FF47A70FCF76AFD00210120FFF7B2FD97
:104BB00041F290711020FFF7ADFD4FF41C516020C1
:104BC000FFF7A8FD01216120FFF7A4FD0221462087
:104BD000FFF7A0FD48F210011320FFF79BFD48F2FC
:104BE000FE011220FFF796FD4FF4A0610220FFF7AF
:104BF00091FD41F230010320FFF78CFD40F20334B8
:104C000021463020FFF786FD21463120FFF782FD47
:104C100021463220FFF77EFDE51E29463320FFF7AF
:104C200079FD03213420FFF775FD21463520FFF77C
:104C300071FD14213620FFF76DFD21463720FFF767
:104C400069FD21463820FFF765FD21463920FFF731
:104C500061FD29463A20FFF75DFD03213B20FFF768
:104C600059FD21463C20FFF755FD4FF4A0513D2052
:104C7000FFF750FD4FF400719220FFF74BFD2146E6
:104C80009320FFF747FD40F60D019020FFF742FD0E
:104C900041F218010320FFF73DFDBDE8304040F22E
:104CA00073110720FFF736BD10B543F20801E3206A
:104CB000FFF730FD1221E720FFF72CFD41F23121F3
:104CC000EF20FFF727FD00210120FFF723FD4FF420
:104CD000E0610220FFF71EFD41F230010320FFF7E3
:104CE00019FD00210420FFF715FD40F207210820DF
:104CF000FFF710FD00210920FFF70CFD00210A201D
:104D0000FFF708FD00210C20FFF704FD00210D2016
:104D1000FFF700FD00210F20FFF7FCFC0021102011
:104D2000FFF7F8FC07211120FFF7F4FC0021122007
:104D3000FFF7F0FC00211320FFF7ECFCC820FDF783
:104D400027F941F290611020FFF7E4FC40F227219F
:104D50001120FFF7DFFC3220FDF71AF91D21122088
:104D6000FFF7D8FC3220FDF713F94FF40061132050
:104D7000FFF7D0FC14212920FFF7CCFC0B212B20BE
:104D8000FFF7C8FC3220FDF703F900212020FFF7D0
:104D9000C1FC00212120FFF7BDFC07213020FFF7D7
:104DA000B9FC40F207713120FFF7B4FC0621322034
:104DB000FFF7B0FC40F204713520FFF7ABFC41F681
:104DC00004713620FFF7A6FC04213720FFF7A2FC70
:104DD00000213820FFF79EFC40F206713920FFF7D2
:104DE00099FC40F201713C20FFF794FC0F213D201B
:104DF000FFF790FC00215020FFF78CFCEF215120A1
:104E0000FFF788FC00215220FFF784FC40F23F119D
:104E10005320FFF77FFC4FF41C516020FFF77AFC12
:104E200001216120FFF776FC00216A20FFF772FC68
:104E300000218020FFF76EFC00218120FFF76AFC33
:104E400000218220FFF766FC00218320FFF762FC2F
:104E500000218420FFF75EFC00218520FFF75AFC2B
:104E600010219020FFF756FC00219220FFF752FC02
:104E700003219320FFF74EFC4FF488719520FFF734
:104E800049FC00219720FFF745FC00219820FFF7FF
:104E900041FC41F218010320FFF73CFCBDE8104043
:104EA00040F273110720FFF735BC010901EB8101C6
:104EB00000F00F0000EB4100C0B270470022014635
:104EC00002E00A39C9B2521C0A29FAD2100741EA93
:104ED000106070472DE9F041044600680025C16864
:104EE000490619D4C16841F08001C160FDF790F90D
:104EF00006464FF47A78032708E000BFFDF788F9EB
:104F0000801B404502D9032584F825702068C068BD
:104F1000400601D4032DF1D12846BDE8F08170B5DB
:104F2000044600680025C16821F08001C160206846
:104F300081694FF00306890607D42046FEF772F810
:104F400098B184F8256003250FE0816921F02001E4
:104F500081612046FEF766F810B184F825600325CC
:104F60002068816941F020018161284670BD000000
:104F700008B1044801E003481030016841F04001E5
:104F8000016070471804004810B580210348FDF700
:104F900035F9012800D0002010BD000000040048B1
:104FA00000B585B014216846FBF722FB80200090F5
:104FB00000200190012002900220039069460248DF
:104FC000FCF7F8FF05B000BD0004004808B1044834
:104FD00001E003481030016841F080010160704732
:104FE0001804004800B585B014216846FBF700FBA3
:104FF0008020009011200190002002900220039058
:1050000069460248FCF7D6FF05B000BD0004004821
:105010007047FDF703B910B594B038216846FBF727
:10502000E7FA14210EA8FBF7E3FA4FF40070FDF73E
:1050300087F9012000900004019002200324CDE9AB
:1050400007041421CDE90A100C900D9009946846CC
:10505000FDF76AFC08B172B6FEE70F20CDE90E0439
:10506000002010901190129002210EA8FDF712FB63
:10507000002801D072B6FEE714B010BD02480168E6
:1050800041F470010160704788ED00E00148FEF7CF
:1050900029BB0000480100200148FEF723BB0000A7
:1050A000940100202DE9F0430268264B264D274E3F
:1050B000274C4FF08049984207D0484505D0A84278
:1050C00003D0B04201D0A04203D122F070074A6859
:1050D0003A43204FDFF880C0DFF8808098420DD03F
:1050E00048450BD0A84209D0B04207D0A04205D015
:1050F000B84203D0604501D0404503D122F4407549
:10510000CA682A434D6922F080022A4302608A68F5
:10511000C2620A688262984207D0A04205D0B842B3
:1051200003D0604501D0404501D1096901630121E7
:1051300041610169C90703D0016921F001010161E1
:10514000BDE8F083002C014000040040000800404E
:10515000003401400040014000440140004801404B
:1051600010B501F01F030121046A99408C430462C9
:10517000016A9A401143016210BD10B5846842EA89
:10518000032224F47F440A432243826010BD0000BE
:105190008268034B1A400A4342F00701816070475E
:1051A0008FFFCFFF2DE9F043056A026A22F001026A
:1051B0000262436882691C4C25F0020522400C689B
:1051C00022F0030214438A68194E2A43174D194FDF
:1051D000DFF864C0DFF86490A84207D0B04205D081
:1051E000B84203D0604501D0484506D122F00808F6
:1051F000CA6842EA080222F00402A84207D0B0427C
:1052000005D0B84203D0604501D0484505D14D696D
:1052100023F440731D438B692B43436084614968C9
:1052200041630262BDE8F0838FFFFEFF002C014066
:10523000003401400040014000440140004801406A
:10524000F0B5056A026A22F01002026242688369C0
:10525000194C1B4E23400C6823F4407343EA04248A
:1052600025F020038D6843EA0513144DA84201D0B0
:10527000B04206D1CF6823F0800343EA071323F03E
:105280004003A8420AD0B04208D00E4DA84205D033
:105290000D4DA84202D00D4DA84207D14D6922F410
:1052A000406242EA85028D6942EA85024260846179
:1052B000496881630362F0BDFF8FFFFE002C01404F
:1052C00000340140004001400044014000480140DA
:1052D000F0B5056A026A22F4807202624368C2690C
:1052E000194C1B4E22400C6822F00302144325F493
:1052F00000728D6842EA0522144DA84201D0B042E6
:1053000006D1CF6822F4006242EA072222F48062CA
:10531000A8420AD0B04208D00E4DA84205D00E4D8A
:10532000A84202D00D4DA84207D14D6923F4405345
:1053300043EA05138D6943EA05134360C461496874
:10534000C1630262F0BD00008FFFFEFF002C014030
:105350000034014000400140004401400048014049
:10536000F0B5056A026A22F4805202624268C3699B
:10537000194C1B4E23400C6823F4407343EA042469
:1053800025F400538D6843EA0533144DA84201D03B
:10539000B04206D1CF6823F4004343EA073323F435
:1053A0008043A8420AD0B04208D00E4DA84205D092
:1053B0000D4DA84202D00D4DA84207D14D6922F4EF
:1053C000404242EA85128D6942EA85124260C46118
:1053D000496801640362F0BDFF8FFFFE002C0140AD
:1053E00000340140004001400044014000480140B9
:1053F00030B5056A026A22F4803202624268036DA7
:10540000114C23400C681C4325F400330D8943EAFA
:1054100005430E4DA8420BD00D4DA84208D00D4DAE
:10542000A84205D00C4DA84202D00C4DA84204D190
:105430004D6922F4803242EA0522426004654968DF
:105440008164036230BD00008FFFFEFF002C01402D
:105450000034014000400140004401400048014048
:1054600030B5046A026A22F4801202624268036D57
:10547000114D24F400142B400D6843EA05230D89D7
:1054800044EA05540D4DA8420BD00D4DA84208D05A
:105490000C4DA84205D00C4DA84202D00B4DA8429D
:1054A00004D14D6922F4802242EA852242600365DC
:1054B0004968C164046230BDFF8FFFFE002C0140CB
:1054C00000340140004001400044014000480140D8
:1054D00070B505680024AA682E4B1A404B68134328
:1054E0002D4A13400A681A43AA604A68602A4AD0C3
:1054F0000DDC302A1FD005DCEAB1102A1BD0202A8F
:1055000018D118E0402A1FD0502A13D135E0234D7E
:10551000531BAA420FD009DC702A0ED0B2F1101F23
:1055200009D0203AB2F5801F04D104E0102B02D03C
:10553000402B00D00124204670BD0B69D1E9022127
:105540000068FFF71AFEF6E70A68052A13D0B2F1E1
:10555000011F10D00268136A156A25F00105156253
:1055600002689569096925F0F00545EA0111916124
:1055700000680362DFE7012070BD0A69896800687E
:1055800000F00EF8D7E70A698968006800F050F863
:10559000D1E700008FFFCFFFF8FFFEFF30001000C3
:1055A00010B5036A046A24F001040462846924F0DB
:1055B000F00444EA021423F00A020A4384610262FE
:1055C00010BD000070B5056A046A24F0010404628D
:1055D0008469124EB0420ED0B0F1804F0BD0104E05
:1055E000B04208D00F4EB04205D00F4EB04202D0AC
:1055F0000E4EB04203D124F00304144301E044F002
:1056000001041A0724F0F00444EA126225F00A03A8
:1056100001F00A0119438261016270BD002C014052
:1056200000040040000800400034014000400140F8
:1056300010B5036A046A24F010040462846923F03C
:10564000A00324F4704444EA023243EA0111826167
:10565000016210BD30B5046A056A25F010050562C7
:10566000856925F4407545EA022222F470454FF61B
:10567000FF7202EA033224F0A0032A43A02404EAC2
:10568000011119438261016230BD000030B5416EE5
:10569000B9B1026891689268C1F342610B4B520F35
:1056A0009C5CE50003F10804A25CB5FBF2F2A0F8F3
:1056B0006A205A5C615CD200B2FBF1F1A0F868107C
:1056C00030BD0121A0F86A10F8E70000228400082C
:1056D00090F82810090706D501684A68836B22F400
:1056E00000421A434A6090F82810C90706D00168A2
:1056F0004A68C36A22F400321A434A6090F82810BC
:10570000890706D501684A68036B22F480321A4380
:105710004A6090F82810490706D501684A68436B2B
:1057200022F480221A434A6090F82810C90606D550
:1057300001688A68C36B22F480521A438A6090F829
:105740002810890606D501688A68036C22F4005285
:105750001A438A6090F82810490611D501684A68F2
:10576000436C22F480121A434A60416CB1F5801FE9
:1057700006D101684A68836C22F4C0021A434A6069
:1057800090F82810090606D501684A68C06C22F412
:10579000002202434A6070472DE9F8430026044680
:1057A000C0F89060FCF734FD8046206800684FF038
:1057B000200500076FF07E4713D5434600222904D9
:1057C0002046009700F09CFC58B1216851E8000F7A
:1057D00020F0800041E80002002AF6D1C4F8885089
:1057E00021E020680068400722D5434600224FF49C
:1057F00080012046009700F083FCC8B1216851E881
:10580000000F20F4907041E80002002AF6D12068D1
:10581000083050E8001F21F0010140E80012002A82
:10582000F5D1C4F88C5084F884600320BDE8F88377
:10583000C4F88850C4F88C5044F86C6F66602676C3
:105840000020F3E710B5806A0021A0F85E10A0F8F0
:105850005610FEF727FA10BD10B5026852E8001F77
:1058600021F4907142E80013002BF6D10E4B026830
:10587000083252E8001F194042E80014002CF6D10B
:10588000C16E012908D1016851E8002F22F01002F1
:1058900041E80023002BF6D12021C0F88C10002114
:1058A000C166416710BD0000FEFFFFEF10B5B0F804
:1058B0006020D0F88C300168222B04D0886940F039
:1058C0000800886110BD496A836D11401980816D9F
:1058D000891C8165B0F85E10491EA0F85E10B0F812
:1058E0005E100029EED1026852E8001F21F4907189
:1058F00042E80013002BF6D10168083151E8002F6F
:1059000022F0010241E80023002BF5D12021C0F84C
:105910008C10002141670167154B02689A420BD039
:105920005268120208D5036853E8002F22F0806203
:1059300043E80024002CF6D1C26E012A02D0FEF703
:10594000D9FB10BDC166026852E8001F21F01001AA
:1059500042E80013002BF6D10168CA69D243D2068F
:1059600001D410220A62B0F85C10FEF74BF910BDAA
:10597000008000402DE9F0470446B0F86060006800
:10598000C569D0F800A0D0F80880D4F88C1022297E
:1059900005D0816941F008018161BDE8F087B4F864
:1059A00068704FF0000975E02068406AA16D3040D2
:1059B0000880A06D801CA065B4F85E00401EA4F8AD
:1059C0005E002068C569690730D0E9070AD05FEA40
:1059D000CA5107D501210162D4F8900040F00100BE
:1059E000C4F89000A8070BD55FEAC87008D02168FA
:1059F00002200862D4F8900040F00400C4F890003F
:105A000068070BD55FEAC87008D0216804200862D7
:105A1000D4F8900040F00200C4F89000D4F8900050
:105A200020B12046FEF73EF9C4F89090B4F85E002D
:105A300080BB216851E8000F20F4807041E800022B
:105A4000002AF6D1304A2068083050E8001F114083
:105A500040E80013002BF6D12020C4F88C00C4F8D5
:105A600074904946C4F87090284A206890420BD040
:105A70004068000208D5226852E8000F20F08063D9
:105A800042E800300028F6D1E06E012825D02046FB
:105A9000FEF730FB0FB1A80686D4B4F85E000028EC
:105AA0003FF47BAFB4F8681081427FF676AF206890
:105AB000083050E8001F21F0805140E80012002A11
:105AC000F5D113486067216851E8000F40F02000CD
:105AD00041E80002002AF6D15FE7E166216851E85B
