:020000040800F2
:100000000007002079020008ED15000841140008DF
:10001000E91500087D0400083D19000800000000F3
:10002000000000000000000000000000F5150008BE
:100030008104000800000000F1150008F91500080F
:10004000930200089302000893020008930200083C
:100050009302000893020008850400089302000838
:100060009504000893020008930200089302000818
:10007000930200089302000893020008930200080C
:1000800093020008930200089302000893020008FC
:100090009302000893020008930200089D040008E0
:1000A00093020008930200089302000893020008DC
:1000B00093020008930200089302000893020008CC
:1000C00093020008930200089302000893020008BC
:1000D00093020008311900089302000893020008F7
:1000E0008D040008930200089302000893020008A0
:1000F000930200089302000893020008930200088C
:10010000930200089302000893020008930200087B
:10011000930200089302000893020008930200086B
:10012000930200089302000893020008930200085B
:10013000930200089302000893020008930200084B
:10014000930200089302000893020008930200083B
:10015000930200089302000893020008930200082B
:10016000930200089302000893020008930200081B
:1001700093020008930200089302000800000000A8
:1001800093020008930200089302000893020008FB
:1001900093020008930200089302000893020008EB
:1001A00093020008930200089302000800F002F88E
:1001B00000F052F814A696E8000CB244B344DA45B5
:1001C00001D100F049F8BAE80F000FA696E8300018
:1001D000A5EB040504EB0607AAEB0704A7F101074A
:1001E0004FEA15154FEA3414A4F10104AC4201D3CF
:1001F00000F032F813F0010F18BFFB1A43F00103AF
:1002000000F001F8DBE7184780170000A017000096
:10021000103A24BF78C878C1FAD8520724BF30C832
:1002200030C144BF04680C60704700007047000094
:100230000023002400250026103A28BF78C1FBD8EF
:10024000520728BF30C148BF0B6070471FB501F08F
:1002500082FB1FBD10B510BD00F0D5F81146FFF7A9
:10026000F5FF01F06DFB00F0F3F803B4FFF7F2FFC8
:1002700003BC00F0FBF8000009488047094800472C
:10028000FEE7FEE7FEE7FEE7FEE7FEE7FEE7FEE746
:10029000FEE7FEE704480549054A064B70470000A3
:1002A000C1160008AD010008000100200007002071
:1002B000000300200003002053EA020C00F06980D4
:1002C0002DE9F04B4FF00006002B1FBFB3FA83F56A
:1002D00003FA05F424FA05F65E4012BF1643B2FA9B
:1002E00082F502FA05F4C5F120051EBF22FA05FCCD
:1002F00044EA0C04203556EA044C4FEA144418BF73
:10030000641C4FF000084FF00009904271EB030CA1
:1003100039D3002919BFB1FA81F701FA07F6B0FA0B
:1003200080F700FA07F6C7F120071EBF20FA07FC86
:1003300046EA0C062037B6FBF4FCA7EB0507103F96
:1003400007F01F0BCBF120062CFA06F60CFA0BFB7C
:1003500044BFB3460026202FA4BF5E464FF0000BDB
:100360005BEA060C08BF4FF0010B19EB0B0948EBD9
:100370000608ABFB027C06FB02CC0BFB03CCC01BCC
:1003800071EB0C01C1E70B46024641464846BDE809
:10039000F08B13B5084318BF4FF0FF300146AFF3A1
:1003A0000080BDE81C40704740EA010310B59B0780
:1003B0000FD1042A0DD310C808C9121F9C42F8D0CF
:1003C00020BA19BA884201D9012010BD4FF0FF3080
:1003D00010BD1AB1D30703D0521C07E0002010BD96
:1003E00010F8013B11F8014B1B1B07D110F8013B22
:1003F00011F8014B1B1B01D1921EF1D1184610BD03
:10040000704770477047754600F02CF8AE460500FF
:100410006946534620F00700854618B020B5FFF71F
:1004200039FFBDE820404FF000064FF000074FF0C5
:1004300000084FF0000BAC46ACE8C009ACE8C009BE
:10044000ACE8C009ACE8C00921F007018D4670474F
:1004500010B50446AFF300802046BDE81040FFF71A
:1004600004BF000000487047100000200149182018
:10047000ABBEFEE72600020070470000FEE700006A
:1004800070470000012000F053B800004FF4005006
:1004900000F04EB8042000F04BB80000202000F01F
:1004A00047B80000EFF3108072B600BFFEE700000F
:1004B00090F83510022909D1052180F8351000681F
:1004C000016821F001010160002070478021416531
:1004D000012070471F280BDC012817D0042825D1E4
:1004E000082140F60000C4F2020000F005B900BF88
:1004F000202813D0B0F5005F18BF7047042140F6E4
:100500000000C4F2020000F0F7B800BF022140F67C
:100510000000C4F2020000F0EFB800BF102140F666
:100520000000C4F2020000F0E7B800BF704700000E
:1005300043F61441C4F201010A68024214BF086084
:100540007047FFF7C7BF00002DE9F04F82B000F100
:100550003E4202F1FF72870542F2004647EA9227C7
:10056000C4F202060A2243F6004EB04208BF092236
:10057000C4F2010E092F38BF3A464FF0010A002697
:1005800000274FF00008009208E000BF023708F192
:100590000108202F06F1040600F0AA800A680AFA72
:1005A00008F412EA0409F1D0D1F804C0BCF1120F2A
:1005B00000F298800AFA0CF212F0061F00F0928006
:1005C0000323826803FA07F5CB68AA43BB401A43AA
:1005D000826042684FEA1C13A24303FA08F34FEA11
:1005E000480A6FEA050B1A434260C2688B6802EA48
:1005F0000B0203FA0AF31A434CF01003122BC260E9
:1006000013D16FF0030202EA5802024406F01C05FF
:100610000F23D2F820C003FA05F40B692CEA040476
:10062000AB4023431362D1F804C002680CF003030B
:1006300002EA0B0203FA0AF31A435FEACC034FF013
:10064000010A0260A2D5002243F644030192C4F2DB
:1006500002031A684FF6084C42F480421A601A6886
:10066000CFF6FF7C02F480420192019A28F0030247
:10067000724452F80C3006F00C050F24AC40A34332
:10068000009C04FA05F52B4342F80C30DEF80020FC
:100690004B6842EA0905DC0358BF22EA0905CEF897
:1006A0000050DEF804209C0342EA090558BF22EA04
:1006B0000905CEF80450DEF80820DC0242EA0905FC
:1006C00043F60C4458BF22EA0905CEF80850C4F29C
:1006D000010422689B0242EA090558BF22EA090583
:1006E000256053E70322BA406FEA020BBA467CE763
:1006F00002B0BDE8F08F000042690A408A4208BF9C
:100700000904816170470000002A08BF0904816163
:100710007047000040F2FC00C2F200000068704721
:1007200040F2000040F2FC01C2F20000C2F20001FF
:1007300000780A68104408607047000080B543F6EE
:100740000040C4F20200016841F4007101600168D8
:1007500041F480610160016841F48071016003200F
:1007600000F086F80F2000F005F800F027F80020D0
:1007700080BD000070B540F20006C2F2000640F2F3
:1007800008013278C2F200014FF47A730968B3FBB2
:10079000F2F20446B1FBF2F1084600F095FB0F2C93
:1007A0004FF0010508D838B94FF0FF30214600223C
:1007B000002500F031F87460284670BD82B000203A
:1007C00043F640010190C4F202014A6842F48042BB
:1007D0004A604A6802F480420192019A00900868D7
:1007E00040F080500860086800F080500090009849
:1007F00002B07047002848BF704700F01F01012277
:1008000002FA01F11C2202EAD0004EF20012CEF2EE
:10081000000281507047000010B54EF60C5CCEF21D
:10082000000CDCF80030C3F3022E8EF00704042C19
:1008300028BF0424BEF103034FF0FF3E0EFA04F478
:1008400038BF0023A14399400EFA03F39A431143A2
:1008500000F00F0200F160430901043A03F564431C
:100860006244002848BF02F10C03197010BD00005B
:100870004EF60C51CEF200010A684FF6FF031A4003
:1008800060F30A2242F0806040F0FD70086070471B
:1008900070B582B00020019043F64000C4F202001F
:1008A0000168402641F0805101600068C4F20E26C4
:1008B00000F080500190019847F204050120C4F235
:1008C00000053060FFF726FF044600BF2868C0031C
:1008D00006D4FFF71FFF001BB0F57A7FF6D90EE0B4
:1008E00001207060FFF716FF044600BF28688003F0
:1008F00008D4FFF70FFF001BB0F57A7FF6D903206D
:1009000002B070BD002002B070BD0000002804BF1E
:10091000012070472DE9F04143F60808C4F20208AF
:100920000446D8F8F8030D4600F00F00884207D2BD
:1009300088F8F853D8F8F80300F00F00A84277D1F0
:100940002068810717D5410705D5D8F8001041F474
:10095000E051C8F80010010705D5D8F8001041F49F
:100960006041C8F80010D8F80010A26821F0F0012A
:100970001143C8F80010C00740D1D8F8F80300F0C0
:100980000F00A84207D988F8F853D8F8F80300F008
:100990000F00A8424CD12068410707D5D8F80010B5
:1009A000E26821F4E0511143C8F80010000708D5AF
:1009B000D8F80000216920F4604040EAC100C8F87E
:1009C000000000F07DF8D8F8001041F67012C1F375
:1009D0000311C0F60002515C40F2080220FA01F156
:1009E00040F20400C2F200000068C2F2000211608E
:1009F000FFF7C0FE0020BDE8F08100BF6068811EE7
:100A0000022907D258F8081C89015CBF0120BDE803
:100A1000F08111E0012807D158F8081C89035CBF58
:100A20000120BDE8F08107E058F8081C890703D4CD
:100A30000120BDE8F08100BFD8F8001021F00301CB
:100A40000843C8F80000FFF765FE064641F2883704
:100A5000D8F80000616800F00C00B0EB810F8CD07A
:100A6000FFF758FE801BB842F2D90320BDE8F081A1
:100A700040F2080043F60801C2F20000C4F202018D
:100A80000068096841F68012C1F38221C0F60002B5
:100A9000515CC8407047000040F2080043F608016E
:100AA000C2F20000C4F202010068096841F6801237
:100AB000C1F34231C0F60002515CC84070470000EB
:100AC00010B543F60404C4F20204606800F00C00A0
:100AD00008280BD0042819BF42F20040C0F2F400ED
:100AE00047F64000C0F27D1010BD00BF20682168AD
:100AF0002368490247F64001C0F27D1100F03F0231
:100B0000C3F388105CBF42F20041C0F2F401A1FBC4
:100B100000010023FFF7D0FB21680222C1F301414D
:100B200002EB4101B0FBF1F010BD0000002804BF52
:100B3000012070472DE9F04182B00446007843F669
:100B40000006C007C4F202060CD0B06800F00C002A
:100B5000042840F081803068800303D56068002855
:100B600000F06081207880071BD5B06810F00C0F72
:100B700009D0B06800F00C00082840F08780706849
:100B8000400200F183803068800703D5E0680128C7
:100B900040F048813068216920F0F80040EAC10047
:100BA00030602078000713D4207840072AD4A56944
:100BB000002D00F03281B06800F00C00082840F0F1
:100BC000A180012D40F00E81012002B0BDE8F0812E
:100BD0006069002840F20000C4F2472000F07E80E7
:100BE0000121C0F8801EFFF795FD0546706F800754
:100BF000DAD4FFF78FFD401B0228F7D9032002B09B
:100C0000BDE8F081306C5FEAC0080AD40020019092
:100C1000306C40F080503064306C00F080500190B7
:100C2000019847F20007C4F200073868C00547D4AE
:100C3000386840F480703860FFF76CFD054600BFEF
:100C40003868C0053CD4FFF765FD401B0228F7D982
:100C5000032002B0BDE8F081B06800F00C00082865
:100C600003D1706840023FF576AF6068B0F5803F11
:100C700007D0B0F5A02F40F09980306840F4802074
:100C80003060306840F48030306099E0E0680028DF
:100C90005CD00020C4F2472001210160FFF73AFD3B
:100CA000054600BF306880073FF574AFFFF732FD9F
:100CB000401B0228F6D9032002B0BDE8F08100BF36
:100CC000A068012805D0052854D1306F40F00400F9
:100CD0003067306F40F00100306755E00021C0F808
:100CE000801EFFF717FD0546706F80077FF55CAF2C
:100CF000FFF710FD401B0228F6D9032002B0BDE823
:100D0000F08100BF0027C4F2472700203866FFF7B4
:100D100001FD022D05460DD13068800140F186802D
:100D2000FFF7F8FC401B02284FF00300F4D902B093
:100D3000BDE8F081306880016FD5FFF7EBFC401B08
:100D400002284FF00300F5D9F1E700BF0020C4F2FC
:100D5000472000210160FFF7DDFC05463068800771
:100D60007FF51FAFFFF7D6FC401B02284FF00300B2
:100D7000F4D9DCE7316F002821F001013167316FD0
:100D800021F00401316773D0FFF7C4FC054641F23E
:100D9000883700BF306F80077CD4FFF7BBFC401B57
:100DA000B842F7D9032002B0BDE8F08131680028CD
:100DB00021F480313160316821F48021316073D0B9
:100DC000FFF7A8FC054600BF306880033FF5CAAEB8
:100DD000FFF7A0FC401B6428F6D9032002B0BDE851
:100DE000F08100BF7068E16900F480028A4219D185
:100DF000216A00F03F028A4214D147F6C071626A4C
:100E0000014091420ED1A16A00F440328A4209D1D8
:100E1000E16A00F07060884204D1002002B0BDE8B1
:100E2000F08100BF012002B0BDE8F08104F11C0593
:100E30002FCD084340EA8210D9034FF6FF72914349
:100E4000A1F5803140EA05600843706001203866F2
:100E5000FFF760FC044600BF30688001DDD4FFF777
:100E600059FC001B02284FF00300F5D95FE700BFD3
:100E7000FFF750FC054641F2883700BF306F80070E
:100E800008D5FFF747FC401BB8424FF00300F5D9E7
:100E90004DE700BFB8F1000F3FF589AE306C20F090
:100EA0008050306483E600BFFFF734FC054600BF86
:100EB000306880037FF556AEFFF72CFC401B64289A
:100EC0004FF00300F4D932E7411E0020B0EB116F60
:100ED0001CBF012070474EF21002CEF2000251609A
:100EE0004EF62351CEF20001F0230B7007219060E3
:100EF0001160704790F83C20012A4FF0020254D054
:100F000010B580F83D200268D2F804E0D2F808C09D
:100F10000C682EF07003234341F2FF74C4F2000406
:100F2000A24253600EDC40F2FF73C4F200039A4207
:100F300016DCB2F1804F2BD040F20043C4F2000324
:100F400024E000BF40F2FF33C4F201039A4213DCF5
:100F500041F60003C4F200039A4219D0002313E0C3
:100F600040F60003C4F200039A4211D040F6004359
:100F7000C4F200030AE000BF44F20003C4F201031C
:100F80009A4205D040F20043C4F201039A4204D1D0
:100F900049682CF08003194391600121002280F8F8
:100FA0003D1080F83C20BDE810401046704700001E
:100FB000002804BF0120704710B5044690F83D009A
:100FC00028B9002084F83C00204600F00DF80220EB
:100FD00084F83D002068211D00F080FB012084F88A
:100FE0003D00002010BD0000006841F20041C4F245
:100FF0000001884218BF704781B00020009043F67E
:101000004000C4F20200016841F020010160006864
:1010100000F020000090009801B070477047000079
:10102000B0B5054600680168C368446901F02F0245
:10103000202A03F0200213D192B195F83A10222908
:1010400040F01881A968B1F5805F41D12A69A96A89
:101050004068002A64D0C0B221F8010B64E000BFF0
:101060005FEA017C1EBF04F0010E03F4907414EBE0
:101070000E0439D10A0617D513F0800214D095F862
:101080003910212940F0F680AA68296AB2F5805FFC
:1010900032D10A886FF35F2242602A69002A14BFA6
:1010A0000131023129622BE0490640F1E38013F05F
:1010B000400108BFB0BDC16821F04001C1602021DE
:1010C000284685F83910BDE8B04000F0B7B900BF38
:1010D000296940680029A96A18BF00F07F004A1CEE
:1010E000AA62087021E000BFCC0718BF13F4807318
:1010F00036D14B073AD440E04A1C2A620978416055
:10110000E98C01390A04E98440F0B480C16821F017
:101110008001C160C16841F04001C160B0BD00BF45
:101120006FF35F2021F8020BA962E88D01380104FA
:10113000E88540F09F802868C16821F02001C160E7
:10114000C16821F48071C160416921F001014161F0
:101150002021284685F83A10BDE8B04000F030B9AB
:10116000EB6B43F00103EB634B0706D5BEF1000FB9
:1011700003D0EB6B43F00203EB638B0706D5BEF1A4
:10118000000F03D0EB6B43F00403EB63BCF1000FE3
:1011900006D55EEA020303D0EB6B43F00803EB6372
:1011A000EB6B002B66D089063AD5CAB395F83A1096
:1011B000222935D1A968B1F5805F07D12A69A96ACA
:1011C00040687AB1C0B221F8010B0FE0296940688C
:1011D0000029A96A18BF00F07F004A1CAA620870A3
:1011E00005E000BF6FF35F2021F8020BA962E88DD4
:1011F000411EE9852868090412D1C16821F0200147
:10120000C160C16821F48071C160416921F00101B0
:101210004161202085F83A00284600F0D1F828687E
:101220004169EA6B01F0400102F00802891823D0FD
:10123000C16821F49071C160416921F001014161EF
:10124000202185F83A10416949061BD5416921F0F2
:1012500040014161686BA8B141F61901C0F6000177
:101260000165FFF725F928B1686B016DBDE8B04055
:10127000084700BFB0BD00BF2846FFF7CFFE0020E3
:10128000E863B0BD2846BDE8B040FFF7C7BE000028
:10129000002804BF0120704710B5044690F83900BB
:1012A00028B9002084F83800204600F021F82420D6
:1012B00084F839002068C16821F40051C1602046DB
:1012C00000F0B0FA2068016921F4904101614169A0
:1012D00021F02A014161C16841F40051C160002040
:1012E0002021E06384F8391084F83A1010BD000022
:1012F000016841F20000C4F20100814218BF70474A
:1013000080B586B0002143F630020191C4F202029A
:10131000536900F5704043F010035361536903F0C3
:1013200010030193019B0191136843F001031360C3
:10133000126802F001020192019A4FF4C062019218
:101340000222CDE90221032104910721059101A97F
:10135000FFF7FAF8252000210022FFF75DFA25208B
:10136000FFF748FA06B0BDE880407047034690F8A2
:101370003A0020280AD100294FF0010018BF002AA6
:1013800000D1704793F83800012801D1022070473E
:101390009962002022219A85DA85D86383F83A1071
:1013A000196883F83800CA6842F48072CA604A69D2
:1013B00042F001024A61CA6842F02002CA607047E6
:1013C00010B5006841F20004C4F20104A04218BF45
:1013D00010BD40F2F000C2F2000012A10822FEF798
:1013E000E3FF58B140F2F000C2F2000010A1082261
:1013F000FEF7DAFF40B9002201E000BF012204F548
:1014000078400221FFF780F940F2B00040F2F0018D
:10141000C2F20000C2F200010822BDE81040FFF74E
:10142000A5BF00BF4C454431204F4E4E0000000088
:101430004C454431204F46460000000070470000F4
:10144000FEE700002DE9F04186B0002643F63000AB
:10145000CDE904660096C4F20200016840F600047B
:1014600041F0040101600168C4F2020401F00401CA
:101470000091009900960168002241F0800101600E
:1014800001684FF01E0801F080010091009900965C
:10149000016841F001010160016801F00101009162
:1014A00000990096016841F00201016000681E2168
:1014B00000F00200009000982046FFF725F94FF455
:1014C0000050002701AD0190C1F2110720462946C6
:1014D000CDE90276FFF738F80120CDE90206204673
:1014E0002946CDF804800496FFF72EF805200190D8
:1014F00007F58010CDE90206A4F500602946FFF744
:1015000023F82020CDE90107A4F580602946039641
:10151000FFF71AF8062000210022FFF77DF90620C8
:10152000FFF768F9082000210022FFF775F908206D
:10153000FFF760F9172000210022FFF76DF917204F
:10154000FFF758F9282000210022FFF765F928202D
:10155000FFF750F906B0BDE8F081000080B582B019
:1015600040F2700041F200420021C2F20000C4F2D9
:10157000000259234FF0010CCDE90011C0E900230E
:10158000C0E9021C8161FFF713FD002818BFFEF7B8
:1015900089FF40F27000C2F200006946FFF7AAFC22
:1015A000002818BFFEF77EFF02B080BD80B540F274
:1015B000B00041F20001C2F20000C4F201010023B8
:1015C0004FF00C0C4FF4E13280E80E00C0E9033319
:1015D000C0E905C3C361FFF75BFE002808BF80BDFB
:1015E000BDE88040FEF75EBFFEE70000FEE70000BA
:1015F0007047000070470000FFF792B880B592B0C6
:10160000002043F64001CDE90A00CDE9080005902D
:10161000CDE90300CDE901000090C4F202010A689F
:1016200042F080520A60096801F0805100910099EF
:10163000009047F20000C4F20000016841F440410C
:10164000016000684FF4800100F440400090009871
:10165000012006904FF480300D910F210790022059
:101660000E91D8210C90CDE90F100420119006A8FE
:10167000FFF75CFA20B1EFF3108072B6FEE700BF0F
:10168000FFF706F920B1EFF3108072B6FEE700BF56
:101690000F20019002200290002003904FF4A050F0
:1016A00004904FF48050059001A80521FFF72EF912
:1016B00020B1EFF3108072B6FEE700BF12B080BD1C
:1016C0004EF68850CEF20000016841F470010160CE
:1016D0004FF0006140F8801C7047000010B540F6E4
:1016E000FF3E0368C4F2000E40F2004C7045C4F2A5
:1016F000010C27DCB0F1804F31D040F20042C4F23F
:10170000000290422BD040F60002C4F20002904248
:1017100025D041F6FF72C4F20002904229DC7045E8
:101720003CDCB0F1804F5FD040F20042C4F20002D6
:10173000904259D040F60002C4F20002904253D0C9
:1017400056E000BF40F60042C4F20002904206D0CC
:10175000604504D00022C4F201029042D9D14A6807
:1017600023F07003134341F6FF72C4F2000290426B
:10177000D5DD43F6FF72C4F20102904222DC42F250
:101780000002C4F2000290422ED00022C4F20102F4
:10179000904229D0604527D02AE000BF40F60042A1
:1017A000C4F2000290421FD041F60002C4F20002CF
:1017B000904219D041F60042C4F20002904213D088
:1017C00016E000BF44F20002C4F2010290420BD0C6
:1017D00044F60002C4F20102904205D044F20042F5
:1017E000C4F20102904203D1CA6823F44073134348
:1017F00023F080024B69D1F800E08C681A43026044
:10180000C46240F48062C0F828E0624504BF096900
:1018100001630121416110BD806B0021C185C1843C
:10182000FFF7FCBBB0B50446006804F108030ECB1B
:101830000569194325F440552A430261626949F25A
:101840000C651143E269C368B2F5004F23EA050352
:1018500041EA030141EA0201C1604169A36921F43F
:10186000407141EA0301416141F2004140F480606E
:10187000C4F2010108D14FF69C758842C0F6FF758D
:101880000CD1FFF709F90BE04FF69C758842C0F6C2
:10189000FF7529D1FFF700F928E000BFFFF7E8F84E
:1018A00063681921A0FB01015A00DB0FFEF704FD5C
:1018B00048F21F51C5F2EB11A0FB01235A0905F1B3
:1018C000805302FB0300322303EBC000A0FB0101A5
:1018D0004FF4F87000EA111000EB0210C1F342114E
:1018E000084421688860B0BDFFF7C2F86368192119
:1018F000A0FB01019A009B0FFEF7DEFC48F21F518E
:10190000C5F2EB11A0FB01235A0902FB05003223AB
:1019100003EB0010A0FB0101F02000EA511000EBE6
:101920000210C1F34311084421688860B0BD000073
:1019300040F2B000C2F20000FFF772BBFEE7000009
:10194000FEF7FCFEFFF75AFEFFF77CFDFFF72EFEC9
:10195000FFF704FEFEE7F1EE100A4FF6FF71C0F24A
:10196000C03120EA010040F04070E1EE100A7047FB
:10197000000000000000000001020304060708093F
:101980000000000001020304A81900080000002064
:101990001000000010020008B81900081000002014
:1019A000F0060000300200080100000010000000F6
:0819B0000024F4000000000017
:04000005080001AD41
:00000001FF
