:020000040800F2
:10000000C806002079020008C1140008FD1300088A
:10001000BD14000825040008451B0008000000006E
:100020000000000000000000000000005D1A000851
:100030002904000800000000591A0008611A00088D
:10004000930200089302000893020008930200083C
:10005000930200089302000893020008930200082C
:10006000930200089302000893020008930200081C
:10007000930200089302000893020008930200080C
:1000800093020008930200089302000893020008FC
:1000900093020008930200089302000893020008EC
:1000A00093020008930200089302000893020008DC
:1000B00093020008930200089302000893020008CC
:1000C00093020008930200089302000893020008BC
:1000D00093020008930200089302000893020008AC
:1000E000930200089302000893020008930200089C
:1000F000930200089302000893020008930200088C
:10010000930200089302000893020008930200087B
:10011000930200089302000893020008930200086B
:10012000930200089302000893020008930200085B
:10013000930200089302000893020008930200084B
:10014000930200089302000893020008930200083B
:10015000930200089302000893020008930200082B
:10016000930200089302000893020008930200081B
:1001700093020008930200089302000800000000A8
:1001800093020008930200089302000893020008FB
:1001900093020008930200089302000893020008EB
:1001A00093020008930200089302000800F002F88E
:1001B00000F052F814A696E8000CB244B344DA45B5
:1001C00001D100F049F8BAE80F000FA696E8300018
:1001D000A5EB040504EB0607AAEB0704A7F101074A
:1001E0004FEA15154FEA3414A4F10104AC4201D3CF
:1001F00000F032F813F0010F18BFFB1A43F00103AF
:1002000000F001F8DBE71847B81F0000D81F000016
:10021000103A24BF78C878C1FAD8520724BF30C832
:1002200030C144BF04680C60704700007047000094
:100230000023002400250026103A28BF78C1FBD8EF
:10024000520728BF30C148BF0B6070471FB501F08F
:100250009EFC1FBD10B510BD00F0A9F81146FFF7B8
:10026000F5FF01F071FC00F0C7F803B4FFF7F2FFEF
:1002700003BC00F0CFF80000094880470948004758
:10028000FEE7FEE7FEE7FEE7FEE7FEE7FEE7FEE746
:10029000FEE7FEE704480549054A064B70470000A3
:1002A000291B0008AD010008C8000020C806002076
:1002B000C8020020C802002053EA020C00F0698046
:1002C0002DE9F04B4FF00006002B1FBFB3FA83F56A
:1002D00003FA05F424FA05F65E4012BF1643B2FA9B
:1002E00082F502FA05F4C5F120051EBF22FA05FCCD
:1002F00044EA0C04203556EA044C4FEA144418BF73
:10030000641C4FF000084FF00009904271EB030CA1
:1003100039D3002919BFB1FA81F701FA07F6B0FA0B
:1003200080F700FA07F6C7F120071EBF20FA07FC86
:1003300046EA0C062037B6FBF4FCA7EB0507103F96
:1003400007F01F0BCBF120062CFA06F60CFA0BFB7C
:1003500044BFB3460026202FA4BF5E464FF0000BDB
:100360005BEA060C08BF4FF0010B19EB0B0948EBD9
:100370000608ABFB027C06FB02CC0BFB03CCC01BCC
:1003800071EB0C01C1E70B46024641464846BDE809
:10039000F08B13B5084318BF4FF0FF300146AFF3A1
:1003A0000080BDE81C407047704770477047754635
:1003B00000F02CF8AE4605006946534620F00700D1
:1003C000854618B020B5FFF765FFBDE820404FF027
:1003D00000064FF000074FF000084FF0000BAC464E
:1003E000ACE8C009ACE8C009ACE8C009ACE8C00999
:1003F00021F007018D46704710B50446AFF3008029
:100400002046BDE81040FFF730BF000000487047AD
:100410001000002001491820ABBEFEE726000200B4
:1004200070470000FEE7000070470000EFF3108007
:1004300072B600BFFEE700002DE9F04F82B000F178
:100440003E4202F1FF72870542F2004647EA9227D8
:10045000C4F202060A2243F6004EB04208BF092247
:10046000C4F2010E092F38BF3A464FF0010A0026A8
:1004700000274FF00008009208E000BF023708F1A3
:100480000108202F06F1040600F0AA800A680AFA83
:1004900008F412EA0409F1D0D1F804C0BCF1120F3B
:1004A00000F298800AFA0CF212F0061F00F0928017
:1004B0000323826803FA07F5CB68AA43BB401A43BB
:1004C000826042684FEA1C13A24303FA08F34FEA22
:1004D000480A6FEA050B1A434260C2688B6802EA59
:1004E0000B0203FA0AF31A434CF01003122BC260FA
:1004F00013D16FF0030202EA5802024406F01C0511
:100500000F23D2F820C003FA05F40B692CEA040487
:10051000AB4023431362D1F804C002680CF003031C
:1005200002EA0B0203FA0AF31A435FEACC034FF024
:10053000010A0260A2D5002243F644030192C4F2EC
:1005400002031A684FF6084C42F480421A601A6897
:10055000CFF6FF7C02F480420192019A28F0030258
:10056000724452F80C3006F00C050F24AC40A34343
:10057000009C04FA05F52B4342F80C30DEF800200D
:100580004B6842EA0905DC0358BF22EA0905CEF8A8
:100590000050DEF804209C0342EA090558BF22EA15
:1005A0000905CEF80450DEF80820DC0242EA09050D
:1005B00043F60C4458BF22EA0905CEF80850C4F2AD
:1005C000010422689B0242EA090558BF22EA090594
:1005D000256053E70322BA406FEA020BBA467CE774
:1005E00002B0BDE8F08F000040F2C400C2F200008B
:1005F0000068704790F83D20202A1CBF02207047F9
:10060000242280F83D200268136823F00103136060
:10061000536A23F010035362536A194351621168FD
:1006200041F001011160202180F83D100020704749
:1006300090F83D20202A1CBF02207047242280F819
:100640003D20026889B2136823F001031360D2F8D9
:1006500024C04FF6F07303EA0C031943516211688A
:1006600041F001011160202180F83D100020704709
:10067000002804BF01207047F0B581B0044690F80F
:100680003D0028B9002084F83C00204600F0BCFA68
:10069000242084F83D002068016821F001010160F8
:1006A000016841F400410160016821F400410160EA
:1006B00000F076FC636848F2A16CC0F2010C40F6D1
:1006C0000011C0F23D0163453CBF48F28041C0F2D9
:1006D0001E01884202D2012001B0F0BD4DF68361B7
:1006E000C4F21B31A0FB01122168970CD1F804E081
:1006F0004FF496762EF03F0545EA92454D607743DC
:1007000048F638160D6AC0F24106A7FB067625F0BA
:100710003F07634538BF960C721C3A430A62CA69A8
:1007200048F2A0664CF6FF77C0F20106B34222EA17
:1007300007020BD801385B00B0FBF3F001306FF318
:100740001F30042898BF04201BE000BFA7680138B1
:1007500057B119277B43B0FBF3F001306FF31F3023
:1007600070B100F5804007E003EB4303B0FBF3F00A
:1007700001306FF31F3018B100F5004001E000BFF9
:1007800001201043C8610868D4E9072320F0C000A5
:10079000104318430860886848F2FF3204F10C07E0
:1007A00090438CCF18431043A6698860C86820F036
:1007B000FF0038433043C860086840F0010008601B
:1007C00000202021206484F83D10206384F83E003E
:1007D00001B0F0BD2DE9F04381B01F4616468846B2
:1007E0000446FFF701FF94F83D10202920D105466B
:1007F00020688169890717D5FFF7F6FE401B192885
:10080000F6D900202021206384F83D1084F83E00B2
:10081000216C022641F02001216484F83C0030461E
:1008200001B0BDE8F08300BF94F83C10012905D168
:100830000226304601B0BDE8F08300BF012184F8F4
:100840003C100168C90703D1016841F00101016052
:10085000016821F400610160212184F83D1010211C
:1008600084F83E100021216466626785618D2185D0
:100870000021CFF6FF71E162E16A11F5803F18BFF8
:10088000012919D1016841F4807101604169DDF8E5
:100890002090C90723D119F1010116D0B9F1000F39
:1008A00048D000BFFFF7A0FE401B484544D8206851
:1008B0004169C907F6D012E00829E3D0216B12295B
:1008C000E0D0E3E74169C90709D14169C90706D109
:1008D0004169C90704BF41695FEAC171F2D021696A
:1008E000B1F5804F02D1FE215DE000BF062101EA93
:1008F000D811F03101614169090753D4416919F1F7
:1009000001024FEA415131D0002900F18380B9F151
:10091000000F00F03981FFF767FE401B484500F2E9
:1009200035812068416909073CD441694905F2D500
:1009300070E000BFFFF758FE00202021206384F8FC
:100940003D1084F83E00216C012641F02001216415
:10095000216884F83C000868C00544BF4FF400706B
:100960002064304601B0BDE8F08300BF002951D4B7
:100970004169090716D4416949054BD44169090702
:1009800010D44169490545D4416909070AD4416930
:1009900049053FD44169090704D441694905E7D5B0
:1009A00038E000BFFF2101EA0801016141698907C0
:1009B0003AD4416919F101022AD049052AD4B9F182
:1009C000000F00F0E180FFF70FFE401B484500F2EA
:1009D000DD8020684169890726D441694905F2D53F
:1009E00018E000BF416989071ED44169490511D447
:1009F0004169890718D4416949050BD441698907C0
:100A000012D44169490505D4416989070CD441696B
:100A10004905E7D5016841F4007101606FF4806118
:100A200041610420B3E000BF0026009641690091B7
:100A3000816900910099218D002900F0958009F1CC
:100A40000108014651F8142F120635D4B8F1000FF1
:100A500016D0B9F1000F00F0AB8000BF0868400568
:100A600000F1AE80FFF7C0FD401B484500F2A580B5
:100A70002068014651F8142F1206EFD51CE000BF84
:100A80000A68520500F19C800A68120614D40A68AC
:100A9000520500F195800A6812060DD40A685205C5
:100AA00000F18E800A68120606D40A68520500F129
:100AB00087800A681206E3D5636A194611F8012B8C
:100AC00002616162618D01396185278D0146A7F15F
:100AD000010CA4F828C051F8142F52070DD55FEA75
:100AE0000C420AD05A78A7F1020C02619A1C626289
:100AF000628D013A6285A4F828C00A6852072FD493
:100B0000B8F1000F14D0B9F1000F51D008684005BA
:100B100056D4FFF769FD401B48454ED82068014672
:100B200051F8142F5207F1D5B4F828C018E000BFCF
:100B30000A68520544D40A68520711D40A6852055B
:100B40003ED40A6852070BD40A68520538D40A68A2
:100B5000520705D40A68520532D40A685207E7D50D
:100B60005FEA0C417FF46DAF016841F400710160F0
:100B7000202084F83D0084F83E6084F83C603046D4
:100B800001B0BDE8F08300BFFFF72EFD202000215B
:100B90002022216384F83D2084F83E10226C012637
:100BA0001043206484F83C10304601B0BDE8F08367
:100BB0000868400504D4FFF717FD202004E000BFBB
:100BC0006FF480600860042000212022216384F8F3
:100BD0003D2084F83E10226C1043206484F83C10C1
:100BE000206C04280AD120680126016841F40071B4
:100BF0000160304601B0BDE8F08300BF01263046F9
:100C000001B0BDE8F0830000016845F20040C4F285
:100C10000000814218BF7047B0B586B0002443F68B
:100C200030050194C4F20205296800F5D83041F07E
:100C300002012960296801F0020101910199C02196
:100C400001911221CDE9021403210491042105919F
:100C500001A9FFF7F1FB0094286940F40010286116
:100C6000286900F400100090009806B0BDE8B0407C
:100C70007047000040F2000040F2C401C2F20000E0
:100C8000C2F2000100780A68104408607047000052
:100C900080B543F60040C4F20200016841F40071DF
:100CA0000160016841F480610160016841F4807174
:100CB0000160032000F074F80F2000F005F800F048
:100CC00027F8002080BD000070B540F20006C2F297
:100CD000000640F208013278C2F200014FF47A7344
:100CE0000968B3FBF2F20446B1FBF2F1084600F0EA
:100CF0006FFB0F2C4FF0010508D838B94FF0FF30CB
:100D000021460022002500F01FF87460284670BDBF
:100D100082B0002043F640010190C4F202014A680B
:100D200042F480424A604A6802F480420192019A89
:100D30000090086840F080500860086800F080501B
:100D40000090009802B0704710B54EF60C5CCEF2E1
:100D5000000CDCF80030C3F3022E8EF00704042CE4
:100D600028BF0424BEF103034FF0FF3E0EFA04F443
:100D700038BF0023A14399400EFA03F39A4311436D
:100D800000F00F0200F160430901043A03F56443E7
:100D90006244002848BF02F10C03197010BD000026
:100DA0004EF60C51CEF200010A684FF6FF031A40CE
:100DB00060F30A2242F0806040F0FD7008607047E6
:100DC00070B582B00020019043F64000C4F20200EA
:100DD0000168402641F0805101600068C4F20E268F
:100DE00000F080500190019847F204050120C4F200
:100DF00000053060FFF7F8FB044600BF2868C00319
:100E000006D4FFF7F1FB001BB0F57A7FF6D90EE0B0
:100E100001207060FFF7E8FB044600BF28688003EC
:100E200008D4FFF7E1FB001BB0F57A7FF6D9032069
:100E300002B070BD002002B070BD0000002804BFE9
:100E4000012070472DE9F04143F60808C4F202087A
:100E50000446D8F8F8030D4600F00F00884207D288
:100E600088F8F853D8F8F80300F00F00A84277D1BB
:100E70002068810717D5410705D5D8F8001041F43F
:100E8000E051C8F80010010705D5D8F8001041F46A
:100E90006041C8F80010D8F80010A26821F0F001F5
:100EA0001143C8F80010C00740D1D8F8F80300F08B
:100EB0000F00A84207D988F8F853D8F8F80300F0D3
:100EC0000F00A8424CD12068410707D5D8F8001080
:100ED000E26821F4E0511143C8F80010000708D57A
:100EE000D8F80000216920F4604040EAC100C8F849
:100EF000000000F069F8D8F8001041F6A832C1F3FC
:100F00000311C0F60002515C40F2080220FA01F120
:100F100040F20400C2F200000068C2F20002116058
:100F2000FFF7D2FE0020BDE8F08100BF6068811E9F
:100F3000022907D258F8081C89015CBF0120BDE8CE
:100F4000F08111E0012807D158F8081C89035CBF23
:100F50000120BDE8F08107E058F8081C890703D498
:100F60000120BDE8F08100BFD8F8001021F0030196
:100F70000843C8F80000FFF737FB064641F2883700
:100F8000D8F80000616800F00C00B0EB810F8CD045
:100F9000FFF72AFB801BB842F2D90320BDE8F0819D
:100FA00040F2080043F60801C2F20000C4F2020158
:100FB0000068096841F6B832C1F38221C0F6000228
:100FC000515CC8407047000010B543F60404C4F2F9
:100FD0000204606800F00C0008280BD0042819BF38
:100FE00042F20040C0F2F40047F64000C0F27D102B
:100FF00010BD00BF206821682368490247F6400100
:10100000C0F27D1100F03F02C3F388105CBF42F2D2
:101010000041C0F2F401A1FB00010023FFF74CF9ED
:1010200021680222C1F3014102EB4101B0FBF1F062
:1010300010BD0000002804BF012070472DE9F041D9
:1010400082B00446007843F60006C007C4F20206E8
:101050000CD0B06800F00C00042840F081803068AB
:10106000800303D56068002800F060812078800745
:101070001BD5B06810F00C0F09D0B06800F00C0060
:10108000082840F087807068400200F18380306853
:10109000800703D5E068012840F048813068216965
:1010A00020F0F80040EAC10030602078000713D437
:1010B000207840072AD4A569002D00F03281B0685D
:1010C00000F00C00082840F0A180012D40F00E81B6
:1010D000012002B0BDE8F0816069002840F2000004
:1010E000C4F2472000F07E800121C0F8801EFFF787
:1010F0007BFA0546706F8007DAD4FFF775FA401B5C
:101100000228F7D9032002B0BDE8F081306C5FEA15
:10111000C0080AD400200190306C40F08050306448
:10112000306C00F080500190019847F20007C4F243
:1011300000073868C00547D4386840F480703860CC
:10114000FFF752FA054600BF3868C0053CD4FFF7E8
:101150004BFA401B0228F7D9032002B0BDE8F0810A
:10116000B06800F00C00082803D1706840023FF519
:1011700076AF6068B0F5803F07D0B0F5A02F40F0A3
:101180009980306840F480203060306840F48030CE
:10119000306099E0E06800285CD00020C4F247206D
:1011A00001210160FFF720FA054600BF3068800783
:1011B0003FF574AFFFF718FA401B0228F6D9032059
:1011C00002B0BDE8F08100BFA068012805D0052865
:1011D00054D1306F40F004003067306F40F00100B0
:1011E000306755E00021C0F8801EFFF7FDF9054685
:1011F000706F80077FF55CAFFFF7F6F9401B0228A0
:10120000F6D9032002B0BDE8F08100BF0027C4F288
:10121000472700203866FFF7E7F9022D05460DD174
:101220003068800140F18680FFF7DEF9401B02281C
:101230004FF00300F4D902B0BDE8F08130688001BE
:101240006FD5FFF7D1F9401B02284FF00300F5D905
:10125000F1E700BF0020C4F2472000210160FFF742
:10126000C3F90546306880077FF51FAFFFF7BCF96B
:10127000401B02284FF00300F4D9DCE7316F00284F
:1012800021F001013167316F21F00401316773D022
:10129000FFF7AAF9054641F2883700BF306F800793
:1012A0007CD4FFF7A1F9401BB842F7D9032002B064
:1012B000BDE8F0813168002821F480313160316867
:1012C00021F48021316073D0FFF78EF9054600BF0D
:1012D000306880033FF5CAAEFFF786F9401B6428EB
:1012E000F6D9032002B0BDE8F08100BF7068E16963
:1012F00000F480028A4219D1216A00F03F028A423A
:1013000014D147F6C071626A014091420ED1A16AC0
:1013100000F440328A4209D1E16A00F070608842EC
:1013200004D1002002B0BDE8F08100BF012002B06E
:10133000BDE8F08104F11C052FCD084340EA82107E
:10134000D9034FF6FF729143A1F5803140EA056061
:101350000843706001203866FFF746F9044600BF75
:1013600030688001DDD4FFF73FF9001B02284FF001
:101370000300F5D95FE700BFFFF736F9054641F2F4
:10138000883700BF306F800708D5FFF72DF9401B65
:10139000B8424FF00300F5D94DE700BFB8F1000F98
:1013A0003FF589AE306C20F08050306483E600BF9A
:1013B000FFF71AF9054600BF306880037FF556AE87
:1013C000FFF712F9401B64284FF00300F4D932E70D
:1013D000411E0020B0EB116F1CBF012070474EF280
:1013E0001002CEF2000251604EF62351CEF20001FF
:1013F000F0230B700721906011607047FEE700003A
:1014000083B0002043F630010290C4F202010A6862
:1014100042F080020A600A6802F080020292029A98
:1014200001900A6842F001020A600A6802F00102B3
:101430000192019A0090086840F002000860086874
:1014400000F002000090009803B0704780B540F2B1
:10145000700045F20041C2F20000C4F2000148F2FF
:10146000A06200234FF4804CC0F2010280E80E001D
:10147000C0E9033CC0E90533C0E90733FFF7F8F8DA
:10148000002818BFFEF7D2FF40F27000C2F2000041
:101490000021FFF7AFF8002818BFFEF7C7FF40F2A2
:1014A0007000C2F200000021FFF7C2F8002808BF58
:1014B00080BDBDE88040FEF7B9BF0000FEE7000038
:1014C000FEE700002DE9F04F83B040F270040026E3
:1014D0004FF0FF37C2F200040DF1080A4FF0400848
:1014E0000DF10A054FF0000B4BF0B0008DF8050030
:1014F0002046782101AA02238DF804600097FFF7A7
:1015000069F94FF48050ADF80600204678210DF1BE
:10151000060202230097FFF75DF920467821524624
:101520000223ADF808600097FFF754F94FF0000967
:10153000204678212A460223ADF80A800097FFF75B
:1015400049F909F101004FFA80F9B9F1FF3FEFDCE9
:10155000BBF1070F0BF1010BC6D303B0BDE8F08F51
:10156000B0B582B040F270044FF42E40C2F20004D5
:10157000ADF806004FF0FF350DF106022046782148
:1015800002230095FFF726F94FF45540ADF8060009
:101590000DF106022046782102230095FFF71AF983
:1015A0004FF40040ADF806000DF106022046782108
:1015B00002230095FFF70EF94FF42840ADF806001E
:1015C0000DF106022046782102230095FFF702F96B
:1015D0004FF47C50ADF806000DF10602204678214C
:1015E00002230095FFF7F6F84FF45340ADF80600DC
:1015F0000DF106022046782102230095FFF7EAF854
:101600000020ADF806000DF10602204678210223E5
:101610000095FFF7DFF84FF48040ADF806000DF1BC
:1016200006022046782102230095FFF7D3F84FF4F5
:101630002140ADF806000DF1060220467821022374
:101640000095FFF7C7F84FF44840ADF806000DF1DC
:1016500006022046782102230095FFF7BBF84FF4DD
:101660005A40ADF806000DF106022046782102230B
:101670000095FFF7AFF84FF49050ADF806000DF16C
:1016800006022046782102230095FFF7A3F84FF4C5
:101690000140ADF806000DF1060220467821022334
:1016A0000095FFF797F84FF44F40ADF806000DF1A5
:1016B00006022046782102230095FFF78BF84FF4AD
:1016C0005940ADF806000DF10602204678210223AC
:1016D0000095FFF77FF84FF47140ADF806000DF16B
:1016E00006022046782102230095FFF773F84FF495
:1016F0005B40ADF806000DF106022046782102237A
:101700000095FFF767F84FF44050ADF806000DF173
:1017100006022046782102230095FFF75BF84FF47C
:101720002440ADF806000DF1060220467821022380
:101730000095FFF74FF84FF42640ADF806000DF185
:1017400006022046782102230095FFF743F84FF464
:101750000D40ADF806000DF1060220467821022367
:101760000095FFF737F84FF4A050ADF806000DF1E3
:1017700006022046782102230095FFF72BF84FF44C
:101780002F40ADF806000DF1060220467821022315
:101790000095FFF71FF8FFF795FE02B0B0BD0000FF
:1017A0002DE9F04F85B091467E2202EB40036FF0A9
:1017B000070240F27008039002EBC10443F0B0004E
:1017C0000021C2F200088DF812108DF813004FF0BE
:1017D000FF370DF11202404678210223E5B20026C0
:1017E0000097FEF7F7FF2809103002908DF81300DC
:1017F0000DF112024046782102238DF81260009705
:10180000FEF7E8FF04F0080001908DF813000DF1D9
:1018100012024046782102238DF812600097FEF7ED
:10182000D9FF41F6C030C0F600004FF6006100EB72
:101830000910CFF6FF71A0F50074405C0DF112069F
:101840004FF040098DF813004046782132460223BC
:101850008DF812900097FEF7BDFF6078A57894F898
:1018600003A094F804B08DF8130040467821324666
:1018700002238DF812900097FEF7ACFF40467821C6
:10188000324602238DF812908DF813500097FEF720
:10189000A1FF40467821324602238DF812908DF840
:1018A00013A00097FEF796FF4046782132460223A8
:1018B0008DF812908DF813B00097FEF78BFF6079CA
:1018C00078218DF813004046324602238DF812909D
:1018D0000097FEF77FFFA07978218DF8130040462E
:1018E000324602238DF812900097FEF773FFE079DD
:1018F00078218DF813004046324602238DF812906D
:101900000097FEF767FF0398002507EB400040F0C3
:10191000B0008DF813000DF1120240467821022329
:101920008DF812500097FEF755FF02980DF1120244
:101930008DF813004046782102238DF812500025BF
:101940000097FEF747FF01980DF112028DF8130082
:101950004046782102238DF812500097FEF73AFF97
:10196000207A0DF112058DF81300404678212A46A1
:1019700002238DF812900097FEF72CFF607A7821F1
:101980008DF8130040462A4602238DF812900097E6
:10199000FEF720FFA07A78218DF8130040462A46F2
:1019A00002238DF812900097FEF714FFE07A782159
:1019B0008DF8130040462A4602238DF812900097B6
:1019C000FEF708FF207B78218DF8130040462A4659
:1019D00002238DF812900097FEF7FCFE607B7821C1
:1019E0008DF8130040462A4602238DF81290009786
:1019F000FEF7F0FEA07B78218DF8130040462A46C2
:101A000002238DF812900097FEF7E4FEE07B782128
:101A10008DF8130040462A4602238DF81290009755
:101A2000FEF7D8FE05B0BDE8F08F0000F0B581B03C
:101A3000144612786AB10D46064600277819C1B2DD
:101A4000D2B23046FFF7ACFE0137F8B2225C002A72
:101A5000F4D101B0F0BD00007047000070470000F5
:101A6000FFF708B980B592B0002043F64001CDE9F8
:101A70000A00CDE908000590CDE90300CDE9010099
:101A80000090C4F202010A6842F080520A600968BC
:101A900001F0805100910099009047F20000C4F2DB
:101AA0000000016841F44041016000684FF480018A
:101AB00000F4404000900098012006904FF48030E0
:101AC0000D910F21079002200E91D8210C90CDE9A5
:101AD0000F100420119006A8FFF7ACFA20B1EFF325
:101AE000108072B6FEE700BFFFF76AF920B1EFF38E
:101AF000108072B6FEE700BF0F2001900220029016
:101B0000002003904FF4A05004904FF480500590B3
:101B100001A80521FFF792F920B1EFF3108072B60A
:101B2000FEE700BF12B080BD4EF68850CEF2000036
:101B3000016841F4700101604FF0006140F8801CC1
:101B400070470000FEE70000FFF7A2F8FFF78AFFEA
:101B5000FFF756FCFFF77AFCFFF702FD42F2B014E4
:101B6000C0F60004012001212246FFF75FFF02209A
:101B700001212246FFF75AFF032001212246FFF7E9
:101B800055FF042001212246FFF750FFFEE7F1EE4A
:101B9000100A4FF6FF71C0F2C03120EA010040F098
:101BA0004070E1EE100A70470000000000000000E5
:101BB00001020304060708090000000001020304F3
:101BC0000000000000000000000000000000000015
:101BD000000000F8000000000000003330000000AA
:101BE00000100C06100C06000000000000000000B1
:101BF00040C07840C0784000043F04043F04040023
:101C0000007088FC08300000001820FF211E000032
:101C1000F008F000E018000000211C031E211E0047
:101C200000F00888700000001E21232419272110CD
:101C300010160E0000000000000000000000000070
:101C4000000000E018040200000000071820400017
:101C500000020418E0000000004020180700000007
:101C6000404080F0804040000202010F010202006B
:101C7000000000F0000000000101011F010101004F
:101C8000000000000000000080B0700000000000B4
:101C9000000000000000000000010101010101013D
:101CA00000000000000000000030300000000000D4
:101CB00000000000806018040060180601000000A9
:101CC00000E010080810E000000F102020100F00A6
:101CD000001010F8000000000020203F202000002D
:101CE0000070080808887000003028242221300085
:101CF00000300888884830000018202020110E008D
:101D00000000C02010F8000000070424243F240035
:101D100000F80888880808000019212020110E000A
:101D200000E0108888180000000F112020110E001C
:101D300000380808C83808000000003F0000000014
:101D40000070880808887000001C222121221C00D5
:101D500000E010080810E0000000312222110F00FE
:101D6000000000C0C0000000000000303000000093
:101D70000000008000000000000080600000000003
:101D8000000080402010080000010204081020001C
:101D90004040404040404000040404040404040067
:101DA00000081020408000000020100804020100FC
:101DB000007048080808F0000000003036010000FC
:101DC000C030C828E810E0000718272423140B00AF
:101DD0000000C038E0000000203C23020227382029
:101DE00008F8888888700000203F202020110E000D
:101DF000C030080808083800071820202010080004
:101E000008F808080810E000203F202020100F00EC
:101E100008F88888E8081000203F202023201800B8
:101E200008F88888E8081000203F20000300000020
:101E3000C03008080838000007182020221E0200C1
:101E400008F808000008F808203F210101213F2080
:101E5000000808F8080800000020203F20200000AB
:101E600000000808F8080800C08080807F0000009B
:101E700008F888C028180800203F200126382000D4
:101E800008F8080000000000203F2020202030003B
:101E900008F8F800F8F80800203F003F003F200055
:101EA00008F830C00008F808203F200007183F005D
:101EB000E01008080810E0000F10202020100F008C
:101EC00008F808080808F000203F2101010100007F
:101ED000E01008080810E0000F18242438504F00C4
:101EE00008F8888888887000203F2000030C302084
:101EF00000708808080838000038202121221C00C2
:101F0000180808F8080818000000203F200000000A
:101F100008F808000008F808001F202020201F00F3
:101F20000878880000C83808000007380E01000053
:101F3000F80800F80008F800033C0700073C03001D
:101F4000081868808068180820302C03032C302083
:101F50000838C800C83808000000203F20000000F2
:101F600010080808C838080020382621202018004A
:101F7000000000FE020202000000007F404040001E
:101F8000000C30C000000000000000010638C00056
:101F900000020202FE000000004040407F000000FE
:101FA0000000040202020400000000000000000023
:101FB0000000000000000000808080808080808021
:101FC0000002020400000000000000000000000009
:101FD00000008080808000000019242222223F20FF
:101FE00008F8008080000000003F112020110E0042
:101FF0000000008080800000000E112020201100D1
:10200000000000808088F800000E112020103F2082
:102010000000808080800000001F22222222130006
:10202000008080F0888888180020203F2020000051
:102030000000808080808000006B94949493600006
:1020400008F8008080800000203F210000203F2011
:1020500000809898000000000020203F2020000011
:10206000000000809898000000C08080807F000001
:1020700008F8000080808000203F24022D302000DE
:10208000000808F8000000000020203F2020000089
:102090008080808080808000203F20003F20003FA3
:1020A0008080008080800000203F210000203F20B1
:1020B0000000808080800000001F202020201F0062
:1020C000808000808000000080FFA12020110E0091
:1020D0000000008080808000000E112020A0FF8082
:1020E000808080008080800020203F21200001002F
:1020F0000000808080808000003324242424190084
:10210000008080E0808000000000001F2020000090
:102110008080000000808000001F202020103F20D1
:10212000808080000080808000010E300806010061
:1021300080800080008080800F300C030C300F0006
:1021400000808000808080000020312E0E31200031
:10215000808080000080808080818E701806010061
:1021600000808080808080000021302C222130007F
:1021700000000000807C020200000000003F4040A0
:1021800000000000FF00000000000000FF00000051
:102190000002027C800000000040403F0000000080
:1021A000000601010202040400000000000000001B
:1021B00048656C6C6F2053544D3332210000000091
:1021C000E0210008000000201000000010020008BC
:1021D000F021000810000020B806000030020008BE
:1021E00001000000100000000024F40000000000C6
:04000005080001AD41
:00000001FF
