:020000040800F2
:1000000088080020A902000883350008F52C0008A4
:10001000813500080B180008BD47000800000000EB
:100020000000000000000000000000009B380008F5
:100030000D18000800000000853500089D380008F4
:10004000C3020008C3020008C3020008C30200087C
:10005000C3020008C3020008C3020008C30200086C
:10006000C3020008C3020008C3020008C30200085C
:10007000C3020008C3020008C3020008C30200084C
:10008000C302000800000000C3020008C302000809
:10009000C3020008C3020008C3020008C30200082C
:1000A000C3020008C3020008C3020008C30200081C
:1000B000C3020008C3020008C3020008C30200080C
:1000C000C3020008C3020008C3020008C3020008FC
:1000D000C302000825440008C3020008C302000848
:1000E000C3020008C3020008C3020008C3020008DC
:1000F000C3020008C3020008C30200080000000099
:1001000000000000C302000800000000C302000855
:10011000C302000800000000C3020008C302000878
:10012000C3020008C3020008C3020008C30200089B
:10013000C30200080000000000000000C302000825
:10014000C3020008C3020008000000000000000015
:10015000000000000000000000000000000000009F
:10016000000000000000000000000000C3020008C2
:10017000C3020008000000000000000000000000B2
:1001800000000000C30200080000000000000000A2
:10019000000000000000000000000000000000005F
:1001A0000000000000000000C3020008C3020008B5
:1001B000C3020008C3020008C302000800000000D8
:1001C00000000000C3020008000000000000000062
:1001D000C3020008C302000800F002F800F055F85E
:1001E0000AA090E8000C82448344AAF10107DA4592
:1001F00001D100F04AF8AFF2090EBAE80F0013F08F
:10020000010F18BFFB1A43F001031847E45E00001A
:10021000045F0000103A24BF78C878C1FAD85207AA
:1002200024BF30C830C144BF04680C607047000070
:100230000023002400250026103A28BF78C1FBD8EF
:10024000520728BF30C148BF0B607047662904F0D1
:10025000FA85642900F0FE80732900F036850020BD
:1002600070471FB504F0EAFD00F078FD040000209F
:10027000002104F025FB401C60600020002104F0F8
:1002800009FBE0601FBD10B510BD00F0B3FE1146C4
:10029000FFF7E7FF04F0C2FA00F0DFFE03B4FFF758
:1002A000F2FF03BC00F0E2FE09488047094800471E
:1002B000FEE7FEE7FEE7FEE7FEE7FEE7FEE7FEE716
:1002C000FEE7FEE704480549054A064B7047000073
:1002D0000D390008D9010008880200208808002094
:1002E000880400208804002053EA020C00F0698092
:1002F0002DE9F04B4FF00006002B1FBFB3FA83F53A
:1003000003FA05F424FA05F65E4012BF1643B2FA6A
:1003100082F502FA05F4C5F120051EBF22FA05FC9C
:1003200044EA0C04203556EA044C4FEA144418BF42
:10033000641C4FF000084FF00009904271EB030C71
:1003400039D3002919BFB1FA81F701FA07F6B0FADB
:1003500080F700FA07F6C7F120071EBF20FA07FC56
:1003600046EA0C062037B6FBF4FCA7EB0507103F66
:1003700007F01F0BCBF120060CFA0BFB2CFA06F64C
:1003800044BFB3460026202FA4BF5E464FF0000BAB
:100390005BEA060C08BF4FF0010B19EB0B09ABFB36
:1003A000027C48EB0608C01B06FB02CC0BFB03CC0F
:1003B00071EB0C01C1E70B46024641464846BDE8D9
:1003C000F08B13B54FF000004FF00001AFF3008049
:1003D000BDE81C40704700000FB41CB5074B06AACF
:1003E0007B4469460090059800F045FC0020694672
:1003F00000F054FC1CBC5DF814FB0000B9080000C0
:1004000070B50C460546012A05D02878800600D52F
:10041000EA69002302E0012305E05B1C934202D25B
:10042000E05C0028F9D1A869E618C01AA861286A1A
:10043000184428622846AFF3008004E0D5E9012182
:1004400014F8010B9047B442F8D32846AFF300806C
:1004500070BD00002DE9F0410646002410687529A2
:10046000314616A510D0AFF30080002802DA4042D2
:1004700013A507E031688A0701D512A502E04907F4
:1004800004D511A5012401E0AFF3008000210A2268
:1004900006F1240709E0B0FBF2FCB0FBF2F302FB2B
:1004A0001C00303078541846491C0028F3D12346EC
:1004B0002A463046BDE8F04100F070B90000000067
:1004C0002D0000002B000000200000002DE9F04767
:1004D0004FF0000A89460446C0F820A02046E16893
:1004E0008847002876D0252806D0D4E901219047F6
:1004F000206A401C2062F1E7E16820460025884719
:10050000C4F81CA006460027C4F818A02A2E09D05B
:10051000304604F07CF938B304EB8708303EC8F865
:10052000186019E059F8041B204604EB870291611A
:10053000E1688847012F064618D1E069002820DAD3
:1005400025F020051DE0D8F8180000EB800006EB30
:1005500040003038C8F818002046E1688847064651
:1005600004F055F90028EED1012F0AD02E2E08D123
:100570002046E16888477F1C0646022F45F020058B
:10058000C4DBA069002803DA404245F00105A06100
:10059000E80701D025F01005B6B1A6F141001928F1
:1005A00002D8203645F400654A463146204625608B
:1005B0004D46FFF74BFE58B1012806D0ED1D25F042
:1005C000070000F1080989E704E005F1040985E75F
:1005D00030468AE7206ABDE8F08770B5064600F02D
:1005E000D9F80468054630460A22002100F071FB64
:1005F0002C6070BD40EA0103024630B59B0710D164
:100600004FF0013400E008C208C91D1B9D4315EAE4
:10061000C41FF8D013F0FF0102F8011B0DD01B0A14
:10062000F8E711F8013B002B02F8013B05D011F867
:10063000013B002B02F8013BF3D130BD10B5431C48
:1006400002E010F8011B71B18107FAD14FF00132BD
:1006500002C88C1A8C4314EAC211F9D0C01A0A06D7
:1006600003D0C01E10BDC01A10BD0A0401D0801EE8
:1006700010BD0902FCD0401E10BD4FF0000204293D
:10068000C0F0128010F0030C00F01B80CCF1040CC1
:10069000BCF1020F18BF00F8012BA8BF20F8022BF5
:1006A000A1EB0C0100F00DB85FEAC17C24BF00F89B
:1006B000012B00F8012B48BF00F8012B70474FF0C9
:1006C000000200B5134694469646203922BFA0E8A2
:1006D0000C50A0E80C50B1F12001BFF4F7AF0907AE
:1006E00028BFA0E80C5048BF0CC05DF804EB89009F
:1006F00028BF40F8042B08BF704748BF20F8022BE2
:1007000011F0804F18BF00F8012B70474FF0013CEB
:1007100050F8042B51F8043B9A4221D1A2EB0C0370
:10072000934313EACC1317D150F8042B51F8043B30
:100730009A4215D1A2EB0C03934313EACC130BD1CD
:1007400050F8042B51F8043B9A4209D1A2EB0C0358
:10075000934313EACC13DBD04FF00000704700BF87
:10076000D01A01BAB1FA81F101F0180122FA01F0B0
:10077000CB40C1F12001DBB2C0B2C01A2CFA01F3A8
:10078000D11A914311EAC311E6D1704770477047FF
:100790007047000000487047280200202DE9F0470C
:1007A0000D4699469246044600F1240801688806E1
:1007B00004D5E06921F01001216000E00120A84289
:1007C00001DD471B00E00027A1697A1902EB09004F
:1007D000081AA0612078C00602D42046AFF300803A
:1007E000002608E0D4E901211AF806009047206AA3
:1007F000401C761C20624E45F4DB2078C0060AD5EA
:100800002046AFF3008006E0D4E901213020904774
:10081000206A401C2062381EA7F10107F4DC07E0C3
:10082000D4E9012118F805009047206A401C206295
:10083000281EA5F10105F3DC2046AFF300802078E7
:10084000000602D50220BDE8F0870120FBE77047D3
:100850002DE9FF4F0C461E464FF0FF378BB0D2E913
:100860000001DDF860800A908A46C1F30A5505B997
:100870003D46002108464FF00000BAF1000F00F499
:10088000400005DA00EB80004FF4400101EA50001F
:100890004FEA9059B9F1010F00DDB9460A9850EAC4
:1008A0004A000ED044F61050A5F2FF3545432F14F0
:1008B000B8F1000F1ED07542291E1EDDC9F10002DD
:1008C0001CE0B8F1010F4FF0000001D0302103E02F
:1008D000F24305E02154401CB042FBDB30460022CD
:1008E000002121540B99C1F80880C1E900200FB004
:1008F000BDE8F08FBD1B6D1CDEE74A4600DA694299
:1009000006A800F005FB06AB93E8070003AB83E8FD
:10091000070050460A9900F0B0FB8DE80700A0F5EB
:1009200000501F3800900398002D0ADD42F21F018D
:100930004A460844002303A90390684600F019FEC4
:1009400009E0A0F500504A461F38002303A9039090
:10095000684600F023FE8DE807000004000C03D079
:100960004FF0FF30410800E01046B8F1000F03D00F
:100970000022009215461EE0751E05D400F0F2F923
:10098000303262556D1EF9D5B3460122084302D0BC
:1009900000227F1C04E02078302801D100227F1E35
:1009A000002A099784D01DE0112D07DA00F0DAF94A
:1009B000303262556D1C50EA0102F5D1084302D075
:1009C0000098C8B10EE00021681E05E0235C625C5F
:1009D00063542254401E491C8142F7DBAB46A81BDE
:1009E000401E0990002004F80B000B98099AC0F8EB
:1009F0000880C0E9002B7AE711264FF0000857E77E
:100A00002DE9F04F88460446D21D22F0070191B02F
:100A1000D1E90001CDE90A0103F0D1FE02460B98AD
:100A2000C00F01D02D2007E02068810701D52B20C1
:100A300002E0202101EAC000032A099001D0072A20
:100A400005DB03464146204600F0D2F90BE1207851
:100A5000800601D5E06900E00620B8F1650F814607
:100A600006D0B8F1660F18D0B8F1670F70D131E039
:100A70000020B9F1110F009001DB112301E009F111
:100A800001030AAA01A90CA8FFF7E2FEDDE90C7038
:100A9000002609F10105834647E001204B460090FE
:100AA0004FF000470AAA01A90CA8FFF7D1FEDDE923
:100AB0000DB00C995D46002610B909F101000D1822
:100AC000B9EB050003D4C0F1FF3609F10105A5EB30
:100AD00009002BE0B9F1010F01DA4FF00109002004
:100AE000B9F1110F0090484601DD112300E00346E3
:100AF0000AAA01A90CA8FFF7ABFEDDE90C704D4670
:100B000000268346207800070AD4AB4500DA5D460C
:100B100001A8012D04DD411911F8011C302907D06D
:100B20004F4502DA17F1040F04DA012082460FE084
:100B30006D1EEEE7002F02DCED1B3E4403E0781C47
:100B4000A84200DD7D1CB81B00F1010A4FF00047F0
:100B50002078000703D4AA4501DB4FF0FF3A0021BB
:100B6000B7F1004F0DF143088DF8431024D0022057
:100B70002B23002F01DA7F422D230A21021EA0F130
:100B8000010000DC5FB197FBF1FC97FBF1F201FB88
:100B90001C7C17460CF1300C08F801CDEEE7A8F1EB
:100BA000010003702188090501D5452100E0652178
:100BB000A0F1010800F8011C09980FA9A1EB080792
:100BC000FF1D00B10120411901EBEA70A169384411
:100BD000081A401EA0612078C00602D42046AFF358
:100BE0000080099828B1D4E901219047206A401C6F
:100BF00020622078C00622D52046AFF300801EE098
:100C0000002E04DBB34502DD01A8805D00E030204A
:100C1000D4E901219047206A401C2062761CAAF189
:100C200001005FEA000A0AD100F098F8C068016884
:100C3000405CD4E901219047206A401C2062281EB4
:100C4000A5F10105DCDC07E0D4E9012118F8010B6E
:100C50009047206A401C2062381EA7F10107F3DC90
:100C60002046AFF30080032011B041E601694A1C21
:100C700002610878704700B58FB0CDE901310021DD
:100C8000059105497944CDE9031011466846FFF7FF
:100C90001DFC0FB000BD0000E5FFFFFF0A6802F871
:100CA000010B0A60704710B5436913B1AFF30080C0
:100CB00001E0FFF7A5FB012010BD127800F124012F
:100CC0000A7000224A700122EDE711684FF0FF32EE
:100CD000E9E72DE9F04791460F4680460446002695
:100CE00014F8015B2DB100F031F80068405DC007D9
:100CF000F6D12B2D02D02D2D18D0641E4A46394630
:100D0000204600F0B5F827B13968A14201D1C7F8F3
:100D100000804FF0020471050BD54042002803DD2E
:100D2000FFF738FD0460A007BDE8F08746F4806651
:100D3000E4E70028F8DAFFF72DFD04606FF00040CB
:100D4000F2E70000004870472802002010B500F0CC
:100D500005F8001D10BD00BF693B0000004870474A
:100D60004802002030B5B0F10A024FEA900E71F14E
:100D700000034EEA817EB0EB0E0061EB91014FEA79
:100D8000101E4EEA017E10EB0E0041EB11114FEAEE
:100D9000102E4EEA016E10EB0E0041EB11214FEACE
:100DA000104E4EEA014E10EB0E0041EB114140187F
:100DB00041F100014FEAD00040EA41704FEAD10111
:100DC00010EB80054FEA810444EA907444EB01047F
:100DD0006D1944EB0404521BA3414FF0000348BFBC
:100DE0000A3200D530BD401C41F1000130BD000089
:100DF0002DE9F0411F46044603260168072A01F445
:100E0000006004DB08B116A505E016A503E008B1F3
:100E100015A500E015A521F010002060A069C01EF6
:100E2000A0610FB1401EA0612046AFF300804FB11A
:100E3000D4E9012138469047206A401C2062C01C3A
:100E4000206206E0206AFAE7D4E9012115F8010BD7
:100E50009047761EF8D22046AFF30080BDE8F081BF
:100E60004E414E006E616E00494E4600696E66004E
:100E70002DE9F05F824615468B4600270AF10104F2
:100E8000B9460078302801D09DB113E014F8010B69
:100E90000127782803D0582801D045B10AE00DB1C8
:100EA000102D07D1002714F8010B102502E00825AA
:100EB00000E00A250026B0460EE005FB080005FB11
:100EC00006F101271FFA80F801EB1046B6F5803FC6
:100ED00000D3B94614F8010B294600F0B0F80028F9
:100EE000EBDABBF1000F05D00FB1641E00E05446F1
:100EF000CBF80040B9F1000F06D0FFF74BFC022100
:100F00000160C81EBDE8F09F48EA0640FAE700000D
:100F10002DE9F047814616468AB0354878440DC819
:100F20008DE80D0032487844801C03AC0DC884E87D
:100F30000D0041F69B300844372190FBF1F290FB05
:100F4000F1F5A5F1800501FB12041B3C02D56442BA
:100F5000012000E00020DFF898A080460027FA4436
:100F6000AAF1BE0A0EE0E0070AD03246684607EB57
:100F7000470101230AEB810100F010FB8DE8070017
:100F800064107F1C002CEED1194F7F44AE3F19E056
:100F9000E80715D007EB04100DF1180A90E80E00D1
:100FA0008AE80E00C068F04201D1981908903246D4
:100FB000012306A903A800F0F1FA03AB83E80700B8
:100FC0006D10641C002DE3D14FF0010332466946D9
:100FD000B8F1000F03A802D000F0CBFA01E000F056
:100FE000DDFAC9E90001C9F808200AB0BDE8F087B8
:100FF000B85100007546FFF7A5FEAE4605006946EC
:10100000534620F00700854618B020B5FFF75AF97F
:10101000BDE820404FF000064FF000074FF00008F9
:101020004FF0000B21F00701AC46ACE8C009ACE87A
:10103000C009ACE8C009ACE8C0098D4670473A2841
:1010400000D2303820F02002412A01D3A2F137002B
:10105000884201D34FF0FF30704710B50446AFF31C
:1010600000802046BDE81040FFF718B9014918205C
:10107000ABBEFEE72600020070475FEA400C08BFE7
:1010800091F0000F4FEA8C234FEAC12243EA5151FD
:101090004FEA1C5018BF00F5F0404FEA300018BF6F
:1010A00041F000415FEA6C5C00F02980BCF1FF3F39
:1010B00008BF40F080407047130C06BF12044FF089
:1010C000100C4FF0000C130E04BF12020CF1080CB0
:1010D000130F04BF12010CF1040C930F04BF920014
:1010E0000CF1020CD30F04BF52000CF1010C11469D
:1010F0004FF00002A0F11F00A0EB0C00704711F0B0
:10110000004F08BF704731F000413FF4D5AF0B0CE2
:1011100006BF09044FF0100C4FF0000C0B0E04BF7B
:1011200009020CF1080C0B0F04BF09010CF1040CAF
:101130008B0F04BF89000CF1020CCB0F04BF4900D8
:101140000CF1010CCCF12003A0EB0C0022FA03F30C
:1011500002FA0CF241EA030100F10100704720F0AD
:101160007F4C80EA030023F07F47ACEB070303F5D5
:101170007C5300F0004003F1FF032DE980494FEA62
:10118000154B09B44FEA144325EA0B4E24EA0348F1
:101190000FF2042606EB132749083E785FEA320275
:1011A00003FB0667C7F5000707FB06F64FEA54374F
:1011B0004FEAD64606F1020607FB066CCCF1005C4E
:1011C0004FEA1C472CEA074C07FB06F40CFB06F51C
:1011D00004EB15464FEA961634BF00204FF000404E
:1011E0004FEAD13706FB07FC4FEA1C4C0CFB0BF710
:1011F000D21B03FB0CF761EB07010CFB0EF7B0EB06
:10120000074072EB17420CFB08F734BFA2EB074212
:10121000B2EB074261EB17414FEA0C444FEA9107EA
:1012200006FB07FC4FEA1C4C0CFB0BF7B0EBC7406E
:1012300072EB573203FB0CF734BFA2EBC742B2EBA1
:10124000C74261EB57310CFB0EF7B0EBC70072EBF6
:1012500057720CFB08F734BFA2EBC702B2EBC70210
:1012600061EB5771039F4FEA816141EA921104EBF0
:10127000CC044FEAD1374FEA826206FB07FC42EA10
:1012800090124FEA80604FEA1C4C0CFB0BF7D21B0C
:1012900003FB0CF761EB07010CFB0EF7B0EB07400B
:1012A00072EB17420CFB08F734BFA2EB0742B2EB1C
:1012B000074261EB17414FEA8C554FEA910704EB67
:1012C0009C2406FB07FC4FEA1C4C0CFB0BF7B0EB15
:1012D000C74072EB573203FB0CF734BFA2EBC74297
:1012E000B2EBC74261EB57310CFB0EF7B0EBC70016
:1012F00072EB57720CFB08F734BFA2EBC702B2EBDC
:10130000C70261EB577115EB4C254FEA816141EA49
:1013100092114FEA82624FEAD13742EA901206FBFD
:1013200007FC44F100044FEA80604FEA1C4C0CFBC0
:101330000BF7D21B03FB0CF761EB07010CFB0EF75D
:10134000B0EB074072EB17420CFB08F734BFA2EB7F
:101350000742B2EB074261EB174115EB1C154FEA50
:10136000813141EA92414FEA823242EA90424FEAA9
:1013700080304FEA0C7644F1000448EA03434EEA19
:101380000B484FF0000EB2EB080C71EB030724BFC3
:10139000624639464EEB0E0E4FF0000B00185241DC
:1013A00049414BEB0B0BB2EB080C71EB03077BF1E4
:1013B000000B24BF624639464EEB0E0E4FF0000B79
:1013C0000018524149414BEB0B0BB2EB080C71EB8F
:1013D00003077BF1000B24BF624639464EEB0E0E2D
:1013E00051EA020718BF46F0010616EB0E7655F1DA
:1013F000000254F1000103D5BDE88901BDE8008871
:10140000BDE88901BDE80048B619524141EB010130
:10141000A3F10103704780807F7E7D7C7B7A7978A1
:10142000777676757473727171706F6E6E6D6C6CA9
:101430006B6A6A696868676666656464636362614B
:101440006160605F5F5E5E5D5D5C5C5B5B5A5A59CC
:101450005958585757565655555554545353525238
:101460005251515050504F4F4F4E4E4D4D4D4C4C90
:101470004C4B4B4B4A4A4A494949484848474747D9
:101480004746464645454544444444434343434216
:10149000424242414141002B9C4630D477002BD040
:1014A0001CB54FEA370703B44FF010004FF010019E
:1014B000BAF1000F06D0BCF1000FDCBF40F008000D
:1014C00040F008014FF000000FBCBDE810400BF1E8
:1014D000010BBBF1010F08BF5FEA170722BF12F132
:1014E000010211F101014FF0004143F1000300F04E
:1014F000004043EA00007047F9D35708D0E746EAB6
:10150000064613F1400F4FEA16461FDD13F1200F78
:10151000DFBF16430A46002120335B42BED0C3F131
:10152000200746EA064602FA07F74FEA164646EA59
:101530000706C3F1200722FA03F201FA07F721FA9E
:1015400003F14FF0000342EA0702A7E746EA02066A
:1015500046EA06464FEA164646EA0106BCBF46EA98
:101560000646360C4FF000034FF000024FF000012A
:1015700094E72DE9804C9A46934670B491E8380080
:1015800007C831EA400C48BF34EA430C03D5FFF7E3
:10159000E6FDFFF780FFF0BCBDE8008C2DE9804C34
:1015A0009A46934670B491E8380007C810F0804F0F
:1015B00008BF13F0804F03D100F005F8FFF76BFF71
:1015C000F0BCBDE8008C20F07F4780EA030023F0E8
:1015D0007F4C07EB0C03A3F57C5300F00040A3F114
:1015E000FE0392F0000F00F0B38095F0000F00F0C2
:1015F00077802DE901494FEA11404FEA144621EA6C
:10160000004800FB06FC24EA064708FB06F607FB39
:1016100008F800FB07F718EB06484CEB164C4FEAAE
:10162000124B18EB07484FEA15464CEB174022EADD
:101630000B4E0BFB06FC25EA06470EFB06F607FBE6
:101640000EFE0BFB07F71EEB064E4CEB164C4FF055
:1016500000061EEB074E4CEB174B18EB0B0840F146
:10166000000018EB0E0B58EB000840F100008F1A39
:101670004FF000013CBFC943661B14BFB5EB040C1F
:1016800000213CBFC943F61B4FEA17444EEA8E0EB9
:1016900027EA04454FEA1C4704FB07622CEA074C83
:1016A00005FB07F70CFB05F604FB0CFC16EB0746E5
:1016B00042EB174216EB0C4642EB1C421BEB0606B4
:1016C00058EB0202414146EA9E0601D5BDE8018978
:1016D000B619524141EB0101A3F10103BDE80189B3
:1016E0004FEA14454FEA114724EA054621EA074C20
:1016F00005FB07F406FB07F70CFB06F105FB0CFCEA
:1017000011EB074144EB17444FEA124711EB0C4130
:1017100044EB1C4422EA074C05FB07F206FB07F7E3
:101720000CFB06F605FB0CFC16EB074642EB1742DA
:1017300016EB0C4642EB1C456A1854F1000148BFF9
:101740007047B619524141EB0101A3F10103704703
:1017500095F0000F37D04FEA11424FEA144721EAC3
:10176000024624EA074C02FB07F106FB07F70CFBD5
:1017700006F402FB0CFC14EB074441EB17414FEA63
:10178000154714EB0C4441EB1C4125EA074C02FBC6
:1017900007F506FB07F70CFB06F602FB0CFC16EB45
:1017A000074645EB174516EB0C4645EB1C42121954
:1017B00051F1000148BF7047B619524141EB010198
:1017C000A3F1010370474FEA14454FEA114724EA99
:1017D000054621EA074C05FB07F106FB07F70CFB62
:1017E00006F24FF0000605FB0CFC12EB074241EB42
:1017F000174112EB0C4251EB1C4148BF7047921845
:1018000041EB0101A3F101037047FEE7704700229D
:1018100040F6B83306E00021491C89B29942FBD357
:10182000521C92B28242F6D3704772B6FEE710B5F0
:1018300090F8253000210122022B03D00421C1633E
:10184000012122E003681C6824F00E041C60836CF4
:101850001C6824F480741C6003681C6824F0010474
:101860001C6090F84430046C03F01F0302FA03F389
:101870006360D0E913345C60436D33B11C6824F4B9
:1018800080741C60D0E916345C6080F8252000224A
:1018900080F82420084610BD70B590F8252000245B
:1018A00001212346022A07D00422C26380F82510B2
:1018B00080F82430012429E00268156825F00E051F
:1018C00015600268156825F001051560826C1568C1
:1018D00025F48075156090F84420056C02F01F0215
:1018E00001FA02F26A60D0E913255560426D32B107
:1018F000156825F480751560D0E91625556080F8C7
:10190000251080F82430816B01B18847204670BDD6
:1019100070B5044600F03CF90546601C02D004484E
:101920004068044400F034F9401BA042FAD370BD73
:101930002C0000202DE9F04FDFF820920023012633
:101940000324A9F1040B85B00F2709F1040AABF1B8
:10195000040EFAE006FA03F52A407CD091F804C0A0
:101960000CF0030CBCF1010F02D0BCF1020F26D128
:10197000D0F808C0CDF800C04FEA430C04FA0CF8C8
:10198000CDF810C0DDF800C02CEA080CCDF800C07E
:10199000D1F80C80DDF810C008FA0CF8DDF800C0B2
:1019A00048EA0C08C0F80880D0F804C02CEA050CFE
:1019B0000D79C5F300159D4045EA0C0545600D798C
:1019C000ED43AD070ED0C5684FEA430804FA08FCA2
:1019D00025EA0C05D1F808C00CFA08FC4CEA050C05
:1019E000C0F80CC00D7905F00305022D16D1DD08F5
:1019F00000EB850CCDF808C0DCF820805D074FEACD
:101A0000D56C07FA0CF528EA05080D6905FA0CF5FE
:101A1000DDF808C045EA0805CCF8205005684FEA13
:101A2000430CCDF808C004FA0CFC25EA0C0591F82B
:101A300004C00CF00308DDF808C008FA0CF848EA06
:101A40000508C0F800804D6815F4403F7CD0444D37
:101A5000D5F860C000E077E04CF0010CC5F860C03C
:101A60002D6E23F0030C05F0010500953D4D6544F6
:101A70000295AD684FEA837C4FEA1C7807FA08FCB0
:101A800025EA0C05B0F1904F06D0DFF8DCC06045C8
:101A900005D14FF0010C20E04FF0000C1DE0DFF805
:101AA000CCC0604502D14FF0020C16E0DFF8C0C098
:101AB000604502D14FF0030C0FE0DFF8B8C060457D
:101AC00002D14FF0040C08E0DFF8ACC0604502D151
:101AD0004FF0050C01E04FF0060C0CFA08FC4CEA44
:101AE000050C029DC5F808C0D9F80050CC46D1F8C5
:101AF000048095435FEAC82800D51543CCF8005010
:101B0000DAF80050D446D1F8048095435FEA88287B
:101B100000D51543CCF80050DBF80050DC46D1F876
:101B2000048095435FEA883800D51543CCF800500F
:101B3000DEF80050F446D1F8048095435FEAC838D7
:101B400000D51543CCF800505B1C0A6832FA03F547
:101B50007FF400AF05B0BDE8F08F0000080401403D
:101B60000010024000000140000400480008004846
:101B7000000C0048001000480014004800690840AC
:101B800000D0012070470AB18161704781627047BF
:101B900001488068704700002C00002002488168DE
:101BA00042681144816070472C00002010B5002469
:101BB000032000F073F80F2000F008F808B10124AA
:101BC00001E000F025F8204610BD000070B50E4E73
:101BD00005460024706898B14FF47A71B1FBF0F0BB
:101BE0000A490968B1FBF0F000F060FD40B9102D22
:101BF00006D200222946501E00F030F8356000E081
:101C00000124204670BD00002C0000203800002078
:101C10000A4882B0016E41F001010166016E01F0D7
:101C200001010091816D41F080518165806D00F06E
:101C30008050009002B000F0A1B8000000100240F7
:101C4000002809DB00F01F020121914040098000BB
:101C500000F1E020C0F8001170470000F0B40E4B16
:101C60001B680C46C3F30223C3F10705042D00D9FA
:101C70000425191D072901D2002300E0DB1E0126DF
:101C800006FA05F1491E214099409E40761E1640F5
:101C90003143F0BC02F0ABBD0CED00E0064900F0B2
:101CA000070208684FF6FF03184040EA0220034A83
:101CB00010430860704700000CED00E00000FA05DA
:101CC0002B492C4B0A6832214A432B4940B1B0F5CD
:101CD000007F086829D020F4C06040F480602CE0C8
:101CE0000868C0F34120022804D051F8800F20F486
:101CF000807022E0D1F8800020F48070C1F880006C
:101D0000086820F4C06040F400700860B2FBF3F093
:101D1000401C00E0401E4A69520501D50028F9D157
:101D2000486940050AD503207047C0F341200228C6
:101D300006D051F8800F40F4807008600020704792
:101D4000D1F8800040F48070C1F88000086820F469
:101D5000C06040F400700860B2FBF3F0401C00E08B
:101D6000401E4A695205DBD50028F9D1D8E70000AA
:101D70003800002040420F00007000400248816897
:101D800041F4804181607047007000402DE9F843C4
:101D90000446006800269D4D00035ED5A86D00270F
:101DA000C00008D4A86D40F08050A865A86D012738
:101DB00000F080500090DFF85892D9F8001041F4FC
:101DC0008071C9F80010FFF7E3FE804606E000BF0F
:101DD000FFF7DEFEA0EB080002282BD8D9F80000A0
:101DE000C005F5D5D5F8900010F4407014D0216CE2
:101DF000814211D0D5F89000D5F8901020F44070B1
:101E000041F48031C5F89010D5F8901021F480315C
:101E1000C5F89010C5F89000C00711D0FFF7B8FEC4
:101E2000804641F2883907E0FFF7B2FEA0EB0801D7
:101E3000494501D903260BE0D5F890008007F3D57A
:101E4000D5F89000216C20F440700843C5F890004C
:101E50001FB1A86D20F08050A8652078C00707D07A
:101E6000D5F88800616820F003000843C5F88800B1
:101E70002078800707D5D5F88800A16820F00C00ED
:101E80000843C5F888002078400707D5D5F88800B2
:101E9000E16820F030000843C5F88800207800078A
:101EA00007D5D5F88800216920F0C0000843C5F89F
:101EB00088002078800607D5D5F88800616920F46D
:101EC00040600843C5F888002078400607D5D5F85B
:101ED0008800A16920F440500843C5F888002078A4
:101EE000000607D5D5F88800E16920F44040084392
:101EF000C5F888002088C00507D5D5F88800216A74
:101F000020F440300843C5F888002088800507D5B4
:101F1000D5F88800616A20F440200843C5F888009D
:101F2000208840050FD5D5F88800A16A20F440101C
:101F30000843C5F88800A06AB0F5801F03D1E8689F
:101F400040F48010E860208800050FD5D5F888009F
:101F5000E16A20F440000843C5F88800E06AB0F563
:101F6000800F03D1E86840F48010E8602088C00446
:101F70000FD5D5F88800216B20F040700843C5F8D4
:101F80008800206BB0F1807F03D1E86840F48010B6
:101F9000E86020884FF0006180040ED5D5F88800F5
:101FA000626B20F040601043C5F88800606B884287
:101FB00003D1E86840F48010E860208840040ED522
:101FC000D5F88800A26B20F040601043C5F8880067
:101FD000A06B884203D1E86840F48010E860208854
:101FE00000040FD5D5F88800E16B20F0405008437D
:101FF000C5F88800E06BB0F1805F03D1E86840F479
:102000008030E8603046BDE8F883000000100240F0
:10201000007000402DE9F0470E4605004FF0000724
:1020200025D0DFF8AC81D8F8000000F00F00B042F6
:102030000CD2D8F8001021F00F013143C8F800107D
:10204000D8F8000000F00F00B04210D12968614CB0
:10205000C80741F2883A5AD06868DFF87C910328B3
:1020600008D0022820682DD0400500282CDB012054
:10207000BDE8F08720688001F9D5E06800F0030230
:10208000E068C0F30310401C032A19D0534A00BF74
:10209000B2FBF0F0E268C2F306225043E268C2F3FA
:1020A0004162521C5200B0FBF2F0484517D9A068BB
:1020B00010F0F00F0CD0880711D5A86840B10EE0E1
:1020C000474AE5E78003D0E700F0B6F8484506D96F
:1020D000A06820F0F00040F08000A0608027A06899
:1020E000696820F003000843A060FFF751FD8146B6
:1020F00006E000BFFFF74CFDA0EB090151453AD8BF
:10210000A068696800F00C00B0EB810FF2D128687C
:10211000810714D5400703D5A06840F4E060A060B3
:102120002878000705D5A06820F4605040F4E060EE
:10213000A060A068A96820F0F000084304E0802FA8
:1021400003D1A06820F0F000A060D8F8001040464D
:1021500001F00F01B14216D9016821F00F0131439E
:102160000160FFF715FD074607E000BFFFF710FD10
:10217000C11B514501D903207AE7D8F8000000F0CF
:102180000F00B042F2D12878400705D5A068E96871
:1021900020F4E0600843A0602878000706D5A06816
:1021A000296920F4605040EAC100A06000F044F8C2
:1021B000A1680C4AC1F30311515C01F01F01C84032
:1021C0000949086009480068BDE8F047FFF7FEBC10
:1021D000002002400010024000B4C4040024F400B7
:1021E00000366E0142600008380000202C000020FC
:1021F0000548064900688968054AC1F30221515C17
:1022000001F01F01C8407047380000200010024054
:10221000526000080548064900688968054AC1F30C
:10222000C221515C01F01F01C840704738000020F6
:102230000010024052600008184910B58868C0F3C9
:1022400081021748012A0BD08A68164BC2F381021B
:10225000022A06D08A68C2F38102032A03D0002032
:1022600010BD184610BDCA6802F00304CA68C2F364
:102270000312521C032C02D0B0FBF2F001E0B3FBBE
:10228000F2F0CA68C968C2F306225043C1F3416143
:10229000491C4900B0FBF1F010BD000000100240E5
:1022A0000024F40000366E012DE9F84304007AD0D2
:1022B0002078F84DC00747D0A868E96800F00C0006
:1022C00001F003010C2802D0082817D001E00329EF
:1022D00014D06068B0F5803F17D0B0F5A02F286803
:1022E00017D020F480302860286820F480202860EF
:1022F0006068E0B1FFF74CFC064614E028688003F4
:1023000022D560680028D2D01EE0286840F48030D2
:10231000EDE740F480202860F7E700BFFFF738FCC6
:10232000801B642870D828688003F7D50CE0FFF77D
:102330002FFC064605E000BFFFF72AFC801B64283F
:10234000F0D828688003F7D4207880074CD5A86897
:10235000E96800F00C0001F003010C2802D0042809
:102360000DD001E002290AD0E068002828682BD0AF
:1023700040F480702860FFF70BFC064619E02868DF
:10238000400502D5E068002891D06868217C20F0E3
:10239000FE4040EA01606860BF480068FFF716FC35
:1023A000002800D120E072E1FFF7F2FB801B022839
:1023B000B8D828684005F7D56868217C20F0FE4031
:1023C00040EA016068600FE020F480702860FFF749
:1023D000DFFB064605E000BFFFF7DAFB801B0228A3
:1023E000A0D828684005F7D42078000729D560696F
:1023F0000028D5F8940013D040F00100C5F89400EF
:10240000FFF7C6FB064606E090E000BFFFF7C0FB03
:10241000801B022886D8D5F894008007F6D510E0F6
:1024200020F00100C5F89400FFF7B2FB064604E077
:10243000FFF7AEFB801B022878D8D5F89400800700
:10244000F6D42078400761D5A86D0026C00008D4D6
:10245000A86D40F08050A865A86D012600F080505E
:1024600000908E480168C90511D40168804641F486
:1024700080710160FFF78CFB074604E0FFF788FBE3
:10248000C01B022852D8D8F80000C005F6D5A068B5
:10249000012815D00528D5F8900016D020F00100AD
:1024A000C5F89000D5F8900020F00400C5F8900021
:1024B000A06841F28838B8B1FFF76AFB07460EE022
:1024C000D5F8900040F00100F0E740F00400C5F8B6
:1024D0009000F5E7FFF75CFBC11B414526D8D5F816
:1024E00090008007F6D50CE0FFF752FB074604E0AA
:1024F000FFF74EFBC11B414518D8D5F89000800767
:10250000F6D41EB1A86D20F08050A8652078800612
:1025100029D5A0690028D5F8980013D040F0010013
:10252000C5F89800FFF734FB064606E075E000BFEB
:10253000FFF72EFB801B02286FD8D5F89800800784
:10254000F6D510E020F00100C5F89800FFF720FB59
:10255000064604E0FFF71CFB801B02285DD8D5F877
:1025600098008007F6D4E069F0B3A968C1F381014F
:1025700003295DD00228286820F08070286003D0ED
:10258000FFF706FB04464BE0FFF702FB064604E0BC
:10259000FFF7FEFA801B02283FD828688001F7D495
:1025A000F4E908016FF00F0202EB01110843218AE0
:1025B0005204490802EB4151A26841EA0221084352
:1025C000217D4FF07E42490802EB41610843217BA7
:1025D00040EAC160E968324A11400843E86028686F
:1025E00040F08070286000E05EE0E86840F08070B5
:1025F000E860FFF7CDFA044605E000BFFFF7C8FA30
:10260000001B022809D828688001F7D54CE000BFDC
:10261000FFF7BEFA001B022802D90320BDE8F883A9
:1026200028688001F4D4E8681E490840E8603BE06F
:102630000128F3D0E868226A00F00301914226D114
:10264000616A00F0F0020901103991421FD1A26ABB
:1026500000F4FE41B1EB022F19D194F82C2000F0C8
:102660007841B1EBC26F12D1218E00F4C00249084B
:102670004905A1F50011914209D194F8341000F0F8
:10268000C06049084906A1F1007181420CD00120C7
:10269000C4E70000001002402C0000200070004041
:1026A0000C809F01FCFFEEFE0020B7E710B5401E36
:1026B000B0F1807F01D3012010BD4FF0E0246061B4
:1026C0000F21601702F093F80020A061072020611D
:1026D000002010BD90F88410012918D0012180F845
:1026E00084102421C0F8881001680A680B6823F060
:1026F00001030B6022F0005100224266036819605A
:102700002021C0F8881080F88420104670470220ED
:1027100070477047704770B5044690F884000128F0
:102720001DD0012084F884002420C4F8880020688B
:102730000568026822F0010202602068826822F0C7
:1027400060620A438260204601F0E8F82068056074
:102750002020C4F88800002084F8840070BD022086
:1027600070BD70B5044690F8840001281DD001208A
:1027700084F884002420C4F8880020680568026872
:1027800022F0010202602068826822F060420A435F
:102790008260204601F0C2F8206805602020C4F85D
:1027A0008800002084F8840070BD022070BD70474E
:1027B000704770472DE9F04103680446D8691968ED
:1027C0009A6840F60F0528424FF000054FF00206C8
:1027D0000AD187067ED501F0200702F0805C57EA17
:1027E0000C0777D0616F3AE1B24FDFF8CCC21740E7
:1027F00001EA0C0C57EA0C0C6CD05FEAC07C0CD0E0
:102800005FEAC15C09D54FF0010CC3F820C0D4F8D1
:10281000903043F00103C4F89030830709D5D30703
:1028200007D023681E62D4F8903043F00403C4F844
:10283000903043070AD5D30708D0266804233362B3
:10284000D4F8903043F00203C4F8903003070CD55D
:1028500001F020033B4308D0266808233362D4F8F4
:10286000903043F00803C4F8903003050BD54B01BA
:1028700009D526684FF400633362D4F8903043F0F2
:102880002003C4F89030D4F89030002B3DD080065F
:1028900009D501F0200002F08051084303D0616F98
:1028A00009B120468847D4F8900021688968490614
:1028B00002D410F0280F2AD0204601F015F9206824
:1028C000806840061ED52068083050E8001F21F0BF
:1028D000400100E021E040E80012002AF3D1D4F8E2
:1028E000800078B175498163D4F88000FEF7D4FF89
:1028F00000280AD0D4F88000816B00E02046BDE8B3
:10290000F04108472046FFF754FFBDE8F08120461C
:10291000FFF74FFFC4F89050F7E7D4F86CC02027BA
:10292000BCF1010F7ED15FEAC06C7BD55FEAC16C60
:1029300078D51020186220688068400645D5D4F804
:102940008010086840680004000CDED0B4F85C20F9
:102950008242DAD9A4F85E000868006880062CD4A8
:10296000216851E8000F20F4807041E80002002A3D
:10297000F6D12068083050E8001F21F0010140E83E
:102980000012002AF5D12068083050E8001F21F01D
:10299000400140E80012002AF5D1C4F88C70E566C9
:1029A000206850E8001F21F0100140E80012002AC2
:1029B000F6D1D4F88000FEF73AFF2667B4F85C0041
:1029C000B4F85E10401A81B230E0B4F85C00B4F89C
:1029D0005E10401A81B2B4F85E00002895D000293C
:1029E00093D0226852E8000F20F4907042E8000370
:1029F000002BF6D12F4BDB432068083050E8002F26
:102A00001A4040E8002CBCF1000FF5D1C4F88C70DE
:102A1000E5666567226852E8000F20F0100042E882
:102A2000000300E006E0002BF4D126672046FFF704
:102A300070FE6AE7C60209D5560207D54FF480102A
:102A400018622046BDE8F041FFF7B2BE03060AD582
:102A500001F0800302F40002134304D0A16F0029A7
:102A60007FF44CAF51E7420611D54A060FD52046F8
:102A7000026852E8001F21F0400142E80013002BD9
:102A8000F6D1C0F88870856700F033F93DE702029F
:102A900006D54A0004D52046BDE8F041FFF787BEC1
:102AA000C001C6D50029C4DA2046BDE8F041FFF7D1
:102AB00031BE00000100001020010004D53A0008DA
:102AC00010B5040003D0D4F8880010B107E001204D
:102AD00010BD002084F88400204600F027F8242050
:102AE000C4F888002068016821F001010160A06A33
:102AF00010B1204600F034FF204601F087FA01288B
:102B0000E6D02068416821F49041416020688168E6
:102B100021F02A0181602068016841F00101016013
:102B20002046BDE8104000F07FBF000010B598B00F
:102B30000446142111A8FDF7C2FD44216846FDF7A3
:102B4000BEFD1B492068884230D101200024CDE918
:102B500000046846FFF71AF908B1FEF766FE15484B
:102B6000016E41F480410166016E01F480411691CD
:102B7000C16C41F00101C164C06C11A900F00100F9
:102B800016904FF4C06011900220CDE91204072086
:102B9000CDE914404FF09040FEF7CCFE00221146E4
:102BA0002520FFF75BF82520FFF74AF818B010BD85
:102BB000003801400010024030B4D0F88C30202B97
:102BC00002D0022030BC7047A9B1A2B10023C36675
:102BD0000A4C0368A3420BD05B681B0208D504684B
:102BE00054E8003F43F0806344E80035002DF6D1FF
:102BF00030BC01F045BB0120E4E70000008000404C
:102C000000680B49884211D10A480C490A4B0278E6
:102C100008781A54401CC0B208701D2801D9002041
:102C20000870012203490648FFF7C6BF704700003D
:102C30000038014029000020550100202800002014
:102C4000940100202DE9F8430446D0F88800984606
:102C500016460D46202802D00220BDE8F883A5B113
:102C60009EB10020C4F890002120C4F888001834D8
:102C7000FEF78EFFA6878146E68754F8100C2027C2
:102C8000183CB0F5805F02D003E00120E5E7206941
:102C900010B12E46002510E000260EE080212046CF
:102CA00001F076FBC0B9DEB116F8010B216888622D
:102CB000B4F85600401EA4F85600B4F856004B462F
:102CC0004FF00002CDF800800028E7D14FF040011E
:102CD000204601F05DFB40B1C4F888700320BCE7DA
:102CE00035F8020BC0F30800E0E7C4F88870002054
:102CF000B3E77047FEE7000070B542482DED028B48
:102D00000168414C6268891A322977D30068606093
:102D100000F09EF805460020012D08D0022D9FED01
:102D20003B8B14D0032D2ED0042D65D162E0618839
:102D3000491C89B2618001295FD1217811B1012933
:102D400001D05AE00120207000F006FA55E06088BA
:102D5000401C80B2608001284FD1207801284CD1DE
:102D600094ED060B53EC182B51EC100B01F0BEFD4B
:102D7000C4E9060194ED040B53EC182B51EC100B35
:102D800001F0B4FD1AE06088401C80B26080012828
:102D900033D12078012830D194ED060B53EC182B59
:102DA00051EC100B01F060FFC4E9060194ED040B37
:102DB00053EC182B51EC100B01F056FF41EC100BAB
:102DC00014A184ED040B53EC102B1948FDF704FB00
:102DD0001749302000F008F994ED060B15A153ECCB
:102DE000102B1348FDF7F8FA1149602000F0FCF8A9
:102DF00003E003E06088401C60806570BDEC028BDE
:102E000070BD000034000020080000200000000019
:102E10000000E03F20434E42523A252E32662020E9
:102E20002020202020202020202020202000000002
:102E30003C01002020564E42523A252E3266202078
:102E400020202020202020202020202020000000E2
:102E500070B51A4C01212046FEF790FE4FF09045C8
:102E600070B102212046FEF789FE48B104212046B8
:102E7000FEF784FE20B101212846FEF77FFE98B9B7
:102E800001212046FEF77AFE80B102212046FEF79E
:102E900075FE68B104212046FEF770FE50B1012195
:102EA0002846FEF76BFE38B1002070BD012070BDD2
:102EB000022070BD032070BD042070BD00040048D6
:102EC00000B585B014216846FDF7F9FB4FF6FF7099
:102ED000009000200321CDE90201019069460248DB
:102EE000FEF728FD05B000BD0008004800B585B01C
:102EF00014216846FDF7E3FB4FF6FF7000900120B8
:102F00000190032003900020029069460248FEF7DA
:102F100011FD05B000BD00000008004870B5002498
:102F200006462146204600F003F900F011FA4FF45E
:102F30009635304600F0E0F9641CAC42F9D370BD20
:102F400030B587B014216846FDF7B9FB1E48C16C47
:102F500041F00401C164C16C01F004010591C16C30
:102F600041F00101C164C16C01F001010591C16C26
:102F700041F00201C164C06C012500F0020005901F
:102F80004FF44870CDE9000500240394694602948B
:102F90000E48FEF7CFFC280203940090CDE90154BF
:102FA0004FF0904469462046FEF7C4FCFFF79EFFB1
:102FB000A06940F48070A06104481830016841F4B1
:102FC0000871016007B030BD0010024000040048E5
:102FD000203AD2B2034B02EB420203EB021200F0A2
:102FE00019B800004A4E0008F0B50E460746002505
:102FF00040F23F1407E021463846FFF7E9FF103C56
:103000006D1CA4B2761C3278002A01D0142DF2D3A4
:10301000F0BD00002DE9F04791468A46002604469F
:1030200000F086F8DFF84080012700BF00F090F93B
:103030005FF0000539F8160007FA05F1084240462E
:1030400001D1408800E0008800F056F96D1C102D79
:10305000F0D3641CE4B25146204600F069F8761CB7
:10306000182EE3D3BDE8F0870200002010B5FFF76B
:1030700067FF002000F014F8084CA080A088A0F59D
:103080000241303906D000F007FB002000F008F8BC
:10309000A08010BD00F077FAF7E7000002000020E2
:1030A00070B51D490A6842F400720A600A6842F469
:1030B00080720A60184C103C226842F020022260A4
:1030C000164A1060086840F02000086000BF00BF8A
:1030D00000BF206840F020002060206840F480702D
:1030E0002060FFF7EDFE4FF09041886A40F4807059
:1030F000886200BF00BF00BF0848001F006885B29B
:10310000886940F480708861FFF7F0FE206840F421
:1031100000702060284670BD28040048140800484C
:1031200001B5BDF800000149488008BD020000203B
:1031300010B50C460146202000F038F92146BDE8C4
:103140001040212000F032B901B5BDF8000001495E
:10315000088008BD0200002010B54FF6FF7420461D
:10316000FFF7DCFE0020FFF7DBFF2046FFF7ECFF58
:103170002D4C207800283BD0012853D12BA10020D2
:10318000FFF732FF2FA11820FFF72EFF94ED040B5D
:1031900032A153EC102B3848FDF71EF93649302088
:1031A000FFF722FF21A14820FFF71EFF94ED060B39
:1031B00032A153EC102B3048FDF70EF92E49602058
:1031C000FFF712FF19A17820FFF70EFF17A190203B
:1031D000FFF70AFF15A1A820FFF706FF13A1C020E3
:1031E000FFF702FFBDE8104010A1D820FFF7FCBE9A
:1031F0000EA10020FFF7F8FE27A11820FFF7F4FE2C
:103200002BA13020FFF7F0FE08A14820FFF7ECFECD
:103210002DA16020FFF7E8FE04A17820FFF7E4FE6F
:103220002FA1D4E710BD000008000020202020209E
:10323000202020202020202020202020202020208E
:1032400000000000202020202020202050617261FA
:1032500020202020202020200000000020434E427B
:10326000523A252E326620202020202020202020A7
:1032700020202020200000003C01002020564E424B
:10328000523A252E32662020202020202020202087
:10329000202020202000000020202020202020208E
:1032A00044617461202020202020202000000000A4
:1032B00020434E42523A302020202020202020203F
:1032C000202020200000000020564E42523A30209C
:1032D000202020202020202020202020000000006E
:1032E0002049444C453A382020202020202020200E
:1032F0002020202000000000134A116841F40071D2
:103300001160114910390B6843F480730B600B682E
:1033100043F020030B600D4B1860106840F0200054
:10332000106000BF00BF00BF086840F020000860C8
:10333000086840F48070086000BF00BF00BF0868E4
:1033400040F40070086070472804004814080048E2
:103350001449086840F400700860086840F4807000
:10336000086010481038026842F0200202600E4BDC
:1033700022221A600A6842F020020A6000BF00BFE1
:1033800000BF016841F020010160016841F48071D3
:10339000016000BF00BF00BF016841F4007101601F
:1033A000704700002804004814080048184B10B566
:1033B0001A6842F400721A601A6842F480721A6045
:1033C000134A103A146844F020041460114C206031
:1033D000186840F02000186000BF00BF00BF1068F0
:1033E00040F020001060106840F480701060216090
:1033F000186840F02000186000BF00BF00BF1068D0
:1034000040F020001060106840F48070106010BD23
:10341000280400481408004870B5124D04460122E3
:103420004FF6FF712846FEF7AEFB0F4E0122042136
:103430003046FEF7A8FB002204213046FEF7A3FB2E
:10344000210200222846FEF79EFB0122042130467D
:10345000FEF799FB3046BDE8704000220421FEF7DC
:1034600092BB000000080048000C004870B586B010
:1034700014216846FDF723F92248C16C41F004018C
:10348000C164C16C01F004010591C16C41F02001DF
:10349000C164C16C01F020010591C16C41F00101D2
:1034A000C164C16C01F001010591C16C41F00201E0
:1034B000C164C06C144E00F002004FF47F440590CC
:1034C000002221463046FEF75EFB0125CDE900458E
:1034D00000240294694630460394FEF72BFACDE9A6
:1034E000005469464FF090400294FEF723FA0720FB
:1034F000CDE90004694605480294FEF71BFA06B0C0
:1035000070BD0000001002400008004800040048A0
:10351000194810B5174901604FF416514160002158
:1035200081600C22C160C0E904128161C161016245
:1035300041628162FFF7C4FA08B1FEF776F9002113
:103540000D48FFF70EF908B1FEF76FF900210A48A0
:10355000FFF7E1F808B1FEF768F90748FFF7BAF896
:1035600008B1FEF762F9BDE81040012203490248A4
:10357000FFF722BB00380140940100202900002001
:10358000FEE7FEE7704730B501210020FFF70EFF90
:103590004FF47A70FEF73BF900210120FFF706FF98
:1035A00041F290711020FFF701FF4FF41C51602091
:1035B000FFF7FCFE01216120FFF7F8FE0221462003
:1035C000FFF7F4FE48F210011320FFF7EFFE48F278
:1035D000FE011220FFF7EAFE4FF4A0610220FFF780
:1035E000E5FE41F230010320FFF7E0FE40F2033434
:1035F00021463020FFF7DAFE21463120FFF7D6FEC4
:1036000021463220FFF7D2FEE51E29463320FFF780
:10361000CDFE03213420FFF7C9FE21463520FFF7F8
:10362000C5FE14213620FFF7C1FE21463720FFF7E3
:10363000BDFE21463820FFF7B9FE21463920FFF7AD
:10364000B5FE29463A20FFF7B1FE03213B20FFF7E4
:10365000ADFE21463C20FFF7A9FE4FF4A0513D20CE
:10366000FFF7A4FE4FF400719220FFF79FFE214662
:103670009320FFF79BFE40F60D019020FFF796FE8A
:1036800041F218010320FFF791FEBDE8304040F2FF
:1036900073110720FFF78ABE10B543F20801E3203B
:1036A000FFF784FE1221E720FFF780FE41F231216F
:1036B000EF20FFF77BFE00210120FFF777FE4FF49C
:1036C000E0610220FFF772FE41F230010320FFF7B4
:1036D0006DFE00210420FFF769FE40F2072108205B
:1036E000FFF764FE00210920FFF760FE00210A2099
:1036F000FFF75CFE00210C20FFF758FE00210D2093
:10370000FFF754FE00210F20FFF750FE002110208C
:10371000FFF74CFE07211120FFF748FE0021122081
:10372000FFF744FE00211320FFF740FEC820FEF7FC
:10373000EFF841F290611020FFF738FE40F22721A8
:103740001120FFF733FE3220FEF7E2F81D21122090
:10375000FFF72CFE3220FEF7DBF84FF40061132058
:10376000FFF724FE14212920FFF720FE0B212B2038
:10377000FFF71CFE3220FEF7CBF800212020FFF7D8
:1037800015FE00212120FFF711FE07213020FFF751
:103790000DFE40F207713120FFF708FE06213220AE
:1037A000FFF704FE40F204713520FFF7FFFD41F6FC
:1037B00004713620FFF7FAFD04213720FFF7F6FDEC
:1037C00000213820FFF7F2FD40F206713920FFF7A3
:1037D000EDFD40F201713C20FFF7E8FD0F213D2097
:1037E000FFF7E4FD00215020FFF7E0FDEF2151201D
:1037F000FFF7DCFD00215220FFF7D8FD40F23F111A
:103800005320FFF7D3FD4FF41C516020FFF7CEFD8E
:1038100001216120FFF7CAFD00216A20FFF7C6FDE4
:1038200000218020FFF7C2FD00218120FFF7BEFDAF
:1038300000218220FFF7BAFD00218320FFF7B6FDAB
:1038400000218420FFF7B2FD00218520FFF7AEFDA7
:1038500010219020FFF7AAFD00219220FFF7A6FD7E
:1038600003219320FFF7A2FD4FF488719520FFF705
:103870009DFD00219720FFF799FD00219820FFF77B
:1038800095FD41F218010320FFF790FDBDE81040BF
:1038900040F273110720FFF789BD7047FEF77EB92C
:1038A00000B593B038216846FCF709FF14210EA833
:1038B000FCF705FF4FF40070FEF702FA0220C10189
:1038C0000391402104910121CDE9080100900A21D2
:1038D000CDE90A1007900C900D906846FEF7E4FCC5
:1038E00008B172B6FEE70F200E9003200F90002063
:1038F00010901190129002210EA8FEF78BFB002869
:1039000001D072B6FEE713B000BD000002480168A6
:1039100041F470010160704788ED00E030B5416E00
:10392000B9B1026891689268C1F342610B4B520FC2
:103930009C5CE50003F10804A25CB5FBF2F2A0F880
:103940006A205A5C615CD200B2FBF1F1A0F8681009
:1039500030BD0121A0F86A10F8E7000032600008CD
:1039600090F82810090706D501684A68836B22F48D
:1039700000421A434A6090F82810C90706D001682F
:103980004A68C36A22F400321A434A6090F8281049
:10399000890706D501684A68036B22F480321A430E
:1039A0004A6090F82810490706D501684A68436BB9
:1039B00022F480221A434A6090F82810C90606D5DE
:1039C00001688A68C36B22F480521A438A6090F8B7
:1039D0002810890606D501688A68036C22F4005213
:1039E0001A438A6090F82810490611D501684A6880
:1039F000436C22F480121A434A60416CB1F5801F77
:103A000006D101684A68836C22F4C0021A434A60F6
:103A100090F82810090606D501684A68C06C22F49F
:103A2000002202434A6070472DE9F843002604460D
:103A3000C0F89060FEF7ACF88046206800684FF050
:103A4000200500076FF07E4713D543460022290466
:103A50002046009700F09CFC58B1216851E8000F07
:103A600020F0800041E80002002AF6D1C4F8885016
:103A700021E020680068400722D5434600224FF429
:103A800080012046009700F083FCC8B1216851E80E
:103A9000000F20F4907041E80002002AF6D120685F
:103AA000083050E8001F21F0010140E80012002A10
:103AB000F5D1C4F88C5084F884600320BDE8F88305
:103AC000C4F88850C4F88C5044F86C6F6660267651
:103AD0000020F3E710B5806A0021A0F85E10A0F87E
:103AE0005610FEF766FE10BD10B5026852E8001FC2
:103AF00021F4907142E80013002BF6D10E4B0268BE
:103B0000083252E8001F194042E80014002CF6D198
:103B1000C16E012908D1016851E8002F22F010027E
:103B200041E80023002BF6D12021C0F88C100021A1
:103B3000C166416710BD0000FEFFFFEF10B5B0F891
:103B40006020D0F88C300168222B04D0886940F0C6
:103B50000800886110BD496A836D11401980816D2C
:103B6000891C8165B0F85E10491EA0F85E10B0F89F
:103B70005E100029EED1026852E8001F21F4907116
:103B800042E80013002BF6D10168083151E8002FFC
:103B900022F0010241E80023002BF5D12021C0F8DA
:103BA0008C10002141670167154B02689A420BD0C7
:103BB0005268120208D5036853E8002F22F0806291
:103BC00043E80024002CF6D1C26E012A02D0FFF790
:103BD00017F810BDC166026852E8001F21F01001FD
:103BE00042E80013002BF6D10168CA69D243D2061D
:103BF00001D410220A62B0F85C10FEF78AFD10BDF5
:103C0000008000402DE9F0470446B0F8606000688D
:103C1000C569D0F800A0D0F80880D4F88C1022290B
:103C200005D0816941F008018161BDE8F087B4F8F1
:103C300068704FF0000975E02068406AA16D30405F
:103C40000880A06D801CA065B4F85E00401EA4F83A
:103C50005E002068C569690730D0E9070AD05FEACD
:103C6000CA5107D501210162D4F8900040F001004B
:103C7000C4F89000A8070BD55FEAC87008D0216887
:103C800002200862D4F8900040F00400C4F89000CC
:103C900068070BD55FEAC87008D021680420086265
:103CA000D4F8900040F00200C4F89000D4F89000DE
:103CB00020B12046FEF77DFDC4F89090B4F85E0078
:103CC00080BB216851E8000F20F4807041E80002B9
:103CD000002AF6D1304A2068083050E8001F114011
:103CE00040E80013002BF6D12020C4F88C00C4F863
:103CF00074904946C4F87090284A206890420BD0CE
:103D00004068000208D5226852E8000F20F0806366
:103D100042E800300028F6D1E06E012825D0204688
:103D2000FEF76EFF0FB1A80686D4B4F85E00002837
:103D30003FF47BAFB4F8681081427FF676AF20681D
:103D4000083050E8001F21F0805140E80012002A9E
:103D5000F5D113486067216851E8000F40F020005A
:103D600041E80002002AF6D15FE7E166216851E8E8
:103D7000000F20F0100041E80002002AF6D1206870
:103D8000C169C943C90601D410210162B4F85C10AD
:103D90002046FEF7BEFCC5E7FEFFFFEF00800040B7
:103DA0003D3B000810B5B0F86020D0F88C300168B9
:103DB000222B04D0886940F00800886110BD496A50
:103DC0001140826D1170816D491C8165B0F85E10E3
:103DD000491EA0F85E10B0F85E100029EED101680F
:103DE00051E8002F22F4907241E80023002BF6D115
:103DF0000168083151E8002F22F0010241E8002358
:103E0000002BF5D12021C0F88C10002141670167FB
:103E1000154B02689A420BD05268120208D503680B
:103E200053E8002F22F0806243E80024002CF6D1F2
:103E3000C26E012A02D0FEF7E3FE10BDC166026821
:103E400052E8001F21F0100142E80013002BF6D1C8
:103E50000168CA69D243D20601D410220A62B0F8BE
:103E60005C10FEF756FC10BD008000402DE9F047C5
:103E70000446B0F860600068C569D0F800A0D0F8CA
:103E80000880D4F88C10222905D0816941F00801FE
:103E90008161BDE8F087B4F868704FF0000975E003
:103EA0002068406AA16D30400870A06D401CA0657C
:103EB000B4F85E00401EA4F85E002068C56969077A
:103EC00030D0E9070AD05FEACA5107D50121016263
:103ED000D4F8900040F00100C4F89000A8070BD57A
:103EE0005FEAC87008D0216802200862D4F8900008
:103EF00040F00400C4F8900068070BD55FEAC87072
:103F000008D0216804200862D4F8900040F0020034
:103F1000C4F89000D4F8900020B12046FEF749FC88
:103F2000C4F89090B4F85E0080BB216851E8000F9F
:103F300020F4807041E80002002AF6D1304A20685F
:103F4000083050E8001F114040E80013002BF6D164
:103F50002020C4F88C00C4F874904A46C4F87090CD
:103F60002849206888420BD04068000208D52168A3
:103F700051E8000F20F0806041E80003002BF6D1EB
:103F8000E06E012825D02046FEF73AFE0FB1A806C4
:103F900086D4B4F85E0000283FF47BAFB4F8681014
:103FA00081427FF676AF2068083050E8001F21F08C
:103FB000805140E80012002AF5D11348606720685C
:103FC00050E8001F41F0200140E80012002AF6D11D
:103FD0005FE7E266216851E8000F20F0100041E839
:103FE0000002002AF6D12068C169C943C90601D47C
:103FF00010210162B4F85C102046FEF78AFBC5E789
:10400000FEFFFFEF00800040A53D00082DE9F041D4
:104010000446016880682269E369104362690025EB
:104020001A431043DFF82CC20A688B4B1A40024334
:104030000A6020684168E26821F440511143416000
:104040002168A069614501D0226A10438A68834BC8
:104050001A4002438A602068C16A626A21F00F0137
:104060001143C1627E4923687E488B420DD1D0F84E
:10407000880010F0030006D0012855D0022842D055
:1040800003283FD152E001203DE077498B420BD11C
:10409000D0F8880010F00C0035D0042833D0082860
:1040A00040D00C282ED141E070498B420BD1D0F882
:1040B000880010F0300026D0102835D0202831D0CC
:1040C00030281FD132E06A498B420BD1D0F88800EA
:1040D00010F0C00017D0402826D0802822D0C02859
:1040E00010D123E063450DD1D0F8880010F4406072
:1040F00009D0B0F5806F17D0B0F5006F12D0B0F5D1
:10410000406F13D010205B495B4F00264FF40042F4
:1041100063453BD160B1022813D004280BD0082896
:1041200072D10DE00220EEE70420ECE70820EAE778
:10413000FEF75EF801E0FEF77FF8010001D17CE0B8
:104140001146606A37F810206768B1FBF2F007EBA0
:104150004703834270D8B0EB073F6DD80023084671
:104160001946FCF7C1F8090241EA10610202780819
:10417000101871413A460023FCF7B6F83F4AA0F503
:104180004071914258D82168C86056E0E3694FF603
:10419000EF7893422CD109284ED2DFE800F00508D1
:1041A000114D0D4D4D4D1000FEF722F801E0FEF7C8
:1041B00031F8010004D140E0FEF73EF8F9E711467E
:1041C000606A37F81000B1FBF0F04100606801EB65
:1041D0005001B1FBF0F0A0F1100141452CD84FF691
:1041E000F0710140C0F3420001432068C16024E047
:1041F000092821D2DFE800F0050912200E20202036
:104200001100FDF7F5FF02E016E0FEF703F80100EC
:1042100004D112E0FEF710F8F9E71146606A37F8AA
:104220001000B1FBF0F1606801EB5001B1FBF0F060
:10423000A0F1100141450AD901250120A4F86A0026
:1042400024F8680F2846E6602661BDE8F08180B258
:1042500099E7000000800040F369FFCFFFF4FF11F1
:104260000038014000100240004400400048004077
:10427000004C00400024F4001A600008FFFC0F000E
:1042800070B58165A0F85C20A0F85E20002343672C
:1042900081684FF48056FF24B14204D10169F9B915
:1042A00040F2FF1122E07F25C1B1B1F1805F1AD049
:1042B000A0F86030C0F890302221C0F88C1001685E
:1042C000083151E8003F43F0010341E80034002C7D
:1042D000F5D1416EB1F1005F0ED031E0016941B915
:1042E000A0F86040E6E7016919B13F21A0F860102D
:1042F000E0E7A0F86050DDE7B0F8681091421FD801
:104300008168B14201D10169B9B11D4941670169B3
:1043100041B1026852E8001F41F4807142E8001385
:10432000002BF6D10168083151E8002F42F080528D
:1043300041E80023002BF5D120E012494167F1E765
:104340008168B14201D1016969B10F4941670169D1
:1043500059B1026852E8001F41F4907142E800131D
:10436000002BF6D10AE009494167026852E8001FB4
:1043700041F0200142E80013002BF6D1002070BD6F
:104380006D3E0008053C0008A53D00083D3B0008C7
:104390002DE9F047994617460D4604464FF00008B0
:1043A000089E33E0701C31D0FDF7F2FBA0EB090052
:1043B000B04218D8BEB120680168490726D5802DC3
:1043C00024D0402D22D0C169C94309070DD4082546
:1043D00005622046FFF788FBC4F8905084F884807B
:1043E0000120BDE8F0870320FBE7C069C04300055A
:1043F0000CD421684FF4006008622046FFF774FB7C
:104400002020C4F8900084F88480ECE72068C0691C
:1044100035EA000004D00020B842C3D00020E0E715
:104420000120F9E70148FEF7C5B90000940100201A
:104430002DE9F047B84AB948B94E117886B079B33A
:1044400003680024B5685B1B322B2CD90068B06070
:104450009246B44800F0A0F904220521B14800F0CA
:104460000BFA01464046FCF7C5F8AF4D414605EB57
:104470004410001DFCF74AF9C0B1641C0027E4B2E7
:10448000082CF3D3A9A1AB48FBF7A6FFA948FCF77A
:10449000D5F8C1B2A74800F07FF9002F74D0A8E08A
:1044A000FFE70068B06006B0BDE8F087A2A1A148B0
:1044B000FBF792FF9F48FCF7C1F8C1B29D4800F09E
:1044C0006BF905EB441404F1100002AF0FC887E844
:1044D0000F00D4E90201CDE90001231D224698A175
:1044E0009448FBF779FF9348FCF7A8F8C1B29148CC
:1044F00000F052F98B48FCF7A1F8C1B2894800F0EE
:104500004BF902220A21874800F0B6F9FCF765F85A
:10451000804602220C21834800F0AEF9FCF75DF8DA
:10452000814602220E217F4800F0A6F9FCF755F8DB
:104530000746022210217B4800F09EF9FCF74DF857
:10454000A26840F26D11A8EB0202E3684A43A9EBAE
:104550000301C1EB011102EB41012269BA1A1144B6
:10456000626901EB4101801A00EBC1072078432802
:1045700002D0562809D025E0384600F05FFA41EC19
:10458000100B96ED041B07E01EE0384600F056FACB
:1045900041EC100B96ED061B51EC100B53EC112B5C
:1045A00000F064FACDE90201231D224600976AA1BA
:1045B0006048FBF711FF5F48FCF740F8C1B25D4867
:1045C00000F0EAF801275DE75FF0000405EB441016
:1045D000806810B3641CE4B2082CF7D362A155487C
:1045E000FBF7FAFE5348FCF729F8C1B2514800F036
:1045F000D3F85FA14F48FBF7EFFE4E48FCF71EF8DB
:10460000C1B24C4800F0C8F854469AF8001045482A
:10461000FCF733F80020207045E757A14548FBF729
:10462000DBFE4448FCF70AF8C1B2424800F0B4F897
:10463000042200213B4800F01FF9014605EB441419
:104640002046FBF7D7FF22464DA13A48FBF7C4FEB0
:104650003848FBF7F3FFC1B2364800F09DF804225A
:104660000521304800F008F90146201DFBF7C2FF84
:1046700044A13048FBF7B0FE2E48FBF7DFFFC1B284
:104680002C4800F089F802220A21264800F0F4F8AC
:10469000FBF7A3FF0246A0603CA12648FBF79CFE67
:1046A0002448FBF7CBFFC1B2224800F075F8022284
:1046B0000C211C4800F0E0F8FBF78FFFE0600222BD
:1046C0000E21184800F0D8F8FBF787FF206102227E
:1046D0001021144800F0D0F8FBF77FFF6061022240
:1046E0001221104800F0C8F8FBF777FFA061022202
:1046F00014210C4800F0C0F8FBF76FFFE06124A123
:104700000C48FBF769FE0B48FBF798FFC1B209485C
:1047100000F042F862E7000028000020340000208A
:1047200008000020550100203C00002074657374CF
:10473000320A00007301002074657374340A0000AB
:1047400025733A25733A2564256425642564256418
:1047500025640D0A0000000025733A25733A25648C
:104760003A252E32660D0A0074657374360A00000D
:1047700074657374330A000074657374350A00003D
:1047800025730A0074657374390A000025640A00F1
:1047900074657374370A00000A4610B501464FF479
:1047A0007A730548FEF74EFA03480068C169C943A9
:1047B0004906FBD410BD000094010020FEE703B4BD
:1047C00001984100009850EAC12018BF04204A0D0A
:1047D00018BF40F0010040F2FF72B2EB515F08BF1A
:1047E00040F00200012808BF052002B07047090709
:1047F000090E002804DB00F1E02080F80014704767
:1048000000F00F0000F1E02080F8141D70473038F0
:104810000A2801D20120704700207047FDF7C6F931
:10482000FFF73EF8FEF722FEFEF772FE0C4900206D
:104830000870FEF7F1FDFEF719FCFEF78DFC09A1EB
:104840000C48FBF7C9FD0B48FBF7F8FEC1B209485D
:10485000FFF7A2FFFEF750FAFFF7EAFDFAE70000C4
:104860000000002068656C6C6F20776F726C6421AB
:104870000A0000007301002010B50144002003E08D
:1048800011F8014B1C54401C9042F9DB0020985455
:10489000184610BD10B500290AD00878002807D0A6
:1048A00005487844FBF732FF002801D0002010BDF6
:1048B0000248784410BD00006E1800006618000021
:1048C00010B500290AD00878002807D00548784498
:1048D000FBF71CFF002801D0002010BD02487844DF
:1048E00010BD00005E1800005618000010B591EAD7
:1048F000030F48BF83F0004300F1BE81841A71EBBF
:10490000030C05D2121943EB0C03001B61EB0C01E5
:10491000DFF824E14FEA1154A4EB135C1EEA430FC5
:1049200018BF9EEA445F73D023EA0E03DCF1200E29
:1049300021EA045143F4801332D322FA0CFE10EB27
:104940000E0023FA0CFE41EB0E01CCF1200E03FA0F
:104950000EFE10EB0E0051F10001B1F5801FCCF1FD
:10496000200E32D201EB045112FA0EF2BDE81040D3
:1049700058BF7047401C38BF5FEA420218BF7047FB
:10498000002814BF20F0010041F100014FEA41036B
:1049900013F5001F38BF7047A1F1C04100F05EB9A8
:1049A000012A43EB0302ACF1200CDCF11F0E32BFF5
:1049B0004FF0000E23FA0CF310EB030041EB04510F
:1049C000B4EB115FD0D0A1EB045101F5801149087F
:1049D0005FEA300001EB04510ED350F1000038BF04
:1049E00012FA0EFE08D1BDE81040C9E7401C38BFDE
:1049F0005FEA4202CAD1C3E7BDE810404FEA410373
:104A000013F5001F38BF7047A1F1C04100F026B96F
:104A10009EEA445F08D011EA5E0FBDE8104004BF73
:104A200001F0004100207047BDE8104070B500F073
:104A3000C7F800BF64FBBE3E0000E0FF10F000427C
:104A400048BF4042B0FA80F310FA03F10AD0C3F134
:104A50001D0303F580634FEA415002EB035202EB62
:104A6000D12170474FF0000070470000DFF848C1C7
:104A700070B51CEA111E1EBF1CEA13159EEA0C0F2E
:104A800095EA0C0F00F06F8081EA030423EA4C13CF
:104A90004EEAD47E21EA4C1141F4801143F4801394
:104AA000AE44A1FB024CA0FB0365AEF17F7E36193C
:104AB00055EB0C05A1FB034C4CF10003A0FB021CC1
:104AC00016EB0C06654153F10003094218BF46F08E
:104AD000010613F4007F0BD14FEA03314FEA053092
:104AE000340341EA155140EA16506FF003020AE020
:104AF0004FEAC3214FEAC520F40241EA555140EA8A
:104B000056506FF0020202EB2E4201EB025585EA8D
:104B1000CE710AD05FEA440C18BF24F0004450F173
:104B2000000041F1000120EAD47040F2FE7C6245B1
:104B300000D270BDA84214BF4FF080444FF04044F3
:104B4000002E08BF0024BEF1806FA8BFA1F1C041B4
:104B5000BDE8704080F282804FF0000001F1C0415A
:104B600001F0004170479EEA0C0F0CEA131518BFC4
:104B700095EA0C0F06D04FF0000081EA030E0EF00C
:104B8000004170BD00F01CF88900013E00F007B83C
:104B900000F009B84FEA430C5FEA5C5C08D081EA98
:104BA000030100F05BB84FEA410C5FEA5C5CF6D1B0
:104BB0004FF00000014970470000FF070000F87F38
:104BC0000EF1020E2EF0030E5EF8046B364205D491
:104BD000012A43EB030515F5001F12D8012841EB0C
:104BE000010C1CF5001F0CD80ED14FEAD17C15F535
:104BF000001F0CEB4C0C0CF1020C08BF4CEBD37CEF
:104C000004E04FF0080C01E04FEAD37C0CEB4C05BC
:104C100026FA05F606F00706B6F1040C06D20EEBEE
:104C2000860CBDE870404CF0010C6047DFE80CF0EA
:104C3000090B02024FF000414FF00000A1F50021E6
:104C400070BD19461046012851EB010418BFD4F578
:104C5000001484BF002001F0004170BD0808A0F5D9
:104C600000114FEA3101704710B591EA030F48BFB8
:104C700083F000433FF542AE841A71EB030C07D278
:104C800012198CF0004C43EB0C03001B61EB0C0180
:104C9000DFF8A4E14FEA1154A4EB135C1EEA430FC2
:104CA00018BF9EEA445F00F0B08023EA6E035242D0
:104CB00021EA0451C3EB6E0338BF5B1EDCF1200E0A
:104CC00025D322FA0CFE10EB0E0043FA0CFE41EB4A
:104CD0000E01CCF1200E03FA0EFE10EB0E0051F186
:104CE0000001CCF1200E29D412FA0EF201EB04518E
:104CF000BDE8104058BF7047401C1CBFB2F1004FC8
:104D0000704700280CBF491C20F00100704712EBCF
:104D1000020E43EB030218BF4FF0010E4EEA4202AF
:104D2000ACF1200CDCF11E0E54D943FA0CFE10EB52
:104D30000E0051F1FF31CCF11E0ED5D50EF1010E52
:104D400012FA0EFE404141EB010101EB445C5FEAC7
:104D50005C5C10D910EBDE7001EB045138BFBEF182
:104D6000004FBDE8104018BF704700280CBF491C19
:104D700020F00100704730D24FEAD42C11F5001119
:104D800024F400641BD0B1FA81F20B3AA41AA41ED9
:104D9000D2F12003914030FA03F31943904001EB24
:104DA000CC71002C01EB0451BDE81040A8BF704746
:104DB00001F1C0414FF0000001F000417047B0FA2E
:104DC00080F310FA03F100D110BDE41A173C480536
:104DD000C90AE4E701EB045110BD491001EB04518D
:104DE000BDE810404FEA300002E04FF0000170478C
:104DF0004A0008BF0042F8D0B2F5001F28BF704734
:104E000001F000414FF0000070479EEA445F07D078
:104E100011EA5E0FBDE8104004BF0021002070477A
:104E2000BDE8104070B5FFF7CBFE00BF40DFF63E97
:104E300083F00041104670470000E0FF4FF04070E3
:104E4000E1EE100A7047FBF7DBBD00000000000038
:104E50000000000000000000000000000000000052
:104E60000000000000000000000000000000000042
:104E70000000000000000000000000008001800130
:104E8000800180018001800180018001800180011A
:104E9000800180018001000000008001800100008D
:104EA0000000000000000000000000000000CC0036
:104EB000CC00CC00CC00CC00CC00000000000000F6
:104EC00000000000000000000000000000000000E2
:104ED00000000000000000000000000000000000D2
:104EE000000000000000600C600C600C3006300612
:104EF000FE1FFE1F300638071803FE1FFE1F180393
:104F000018038C018C018C01000000008000E0037C
:104F1000F80F9C0E8C1C8C188C009800F801E00790
:104F2000800E801C8C188C189C18B80CF00FE003B5
:104F30008000800000000000000000000000000071
:104F40000E181B0C110C11061106110311039B0105
:104F50008E01C038C06C6044604430443044184412
:104F6000186C0C380000000000000000E001F003A5
:104F70003807180618063003F001F000F8009C31DD
:104F80000E33061E061C061C063FFC73F0210000B3
:104F900000000000000000000000000000000C0005
:104FA0000C000C000C000C000C00000000000000C5
:104FB00000000000000000000000000000000000F1
:104FC00000000000000000000000000000020003DC
:104FD0008001C000C0006000600030003000300080
:104FE0003000300030003000300060006000C00051
:104FF000C0008001000300020000000020006000EB
:10500000C0008001800100030003000600060006C6
:1050100000060006000600060006000300038001EB
:105020008001C000600020000000000000000000BF
:10503000000000000000C000C000D806F807E00132
:1050400030033807000000000000000000000000EE
:105050000000000000000000000000000000000050
:1050600000000000000080018001800180018001BB
:10507000FC3FFC3F80018001800180018001000035
:105080000000000000000000000000000000000020
:105090000000000000000000000000000000000010
:1050A00000000000000000000000000080018001FE
:1050B000000100018000000000000000000000006E
:1050C00000000000000000000000000000000000E0
:1050D0000000E007E0070000000000000000000002
:1050E00000000000000000000000000000000000C0
:1050F00000000000000000000000000000000000B0
:10510000000000000000000000000000C000C0001F
:10511000000000000000000000000000000C000C77
:105120000006000600060003000300038003800160
:1051300080018001C000C000C0006000600000006D
:10514000000000000000000000000000E003F00785
:10515000380E180C0C180C180C180C180C180C180D
:105160000C180C180C18180C380EF007E00300008F
:1051700000000000000000000000000000018001AD
:10518000C001F00198018801800180018001800147
:105190008001800180018001800180018001000088
:1051A000000000000000000000000000E003F80F15
:1051B000180C0C180C1800180018000C000600033E
:1051C0008001C000600030001800FC1FFC1F0000C0
:1051D000000000000000000000000000E001F807EF
:1051E000180E0C0C0C0C000C0006C003C007000CC1
:1051F000001800180C180C18180CF807E003000031
:10520000000000000000000000000000000C000E84
:10521000000F000F800DC00C600C600C300C180CDF
:105220000C0CFC3FFC3F000C000C000C000C0000C0
:10523000000000000000000000000000F80FF80F60
:10524000180018000C00EC03FC071C0E001C0018D2
:10525000001800180C181C0C180EF807E0030000CA
:10526000000000000000000000000000C007F00F78
:10527000381C181818000C00CC03EC0F3C0E1C1C3A
:105280000C180C180C18181C380EF007E00300005E
:10529000000000000000000000000000FC1FFC1FD8
:1052A000000C00060006000380038001C001C0005E
:1052B000E00060006000700030003000300000004E
:1052C000000000000000000000000000E003F00704
:1052D000380E180C180C180C3806F007F007180CCC
:1052E0000C180C180C180C18380CF80FE003000000
:1052F000000000000000000000000000E003F007D4
:10530000380E1C0C0C180C180C181C1C381EF81B22
:10531000E0190018000C000C1C0EF807F00100004A
:10532000000000000000000000000000000000007D
:10533000000000000000800180010000000000006B
:10534000000000000000000000008001800100005B
:10535000000000000000000000000000000000004D
:10536000000000000000800180010000000000003B
:10537000000000000000000000008001800100012A
:10538000000180000000000000000000000000009C
:10539000000000000000000000000010001C800F52
:1053A000E003F8001800F800E003800F001C001074
:1053B00000000000000000000000000000000000ED
:1053C00000000000000000000000F81F00000000C6
:1053D0000000F81F000000000000000000000000B6
:1053E00000000000000000000000000000000000BD
:1053F0000000000000000000000008003800F0017C
:10540000C007001F0018001FC007F0013800080087
:10541000000000000000000000000000E003F80FA2
:10542000180C0C180C180018000C00060003800162
:10543000C000C000C00000000000C000C0000000AC
:105440000000000000000000000000000000E00775
:1054500018180420C229224A114409440944094465
:1054600009221113E20C024004201818E007000082
:105470000000000000000000000000008003800326
:10548000C006C006C006600C600C3018301830181A
:10549000F83FF83F1C700C600C6006C006C00000AE
:1054A000000000000000000000000000FC03FC0FF2
:1054B0000C0C0C180C180C180C0CFC07FC0F0C181E
:1054C0000C300C300C300C300C18FC1FFC070000AA
:1054D000000000000000000000000000C007F01FF6
:1054E00038381C300C700660060006000600060006
:1054F0000600060006600C701C30F01FE00700007C
:10550000000000000000000000000000FE03FE0F8D
:10551000060E06180618063006300630063006302D
:105520000630063006180618060EFE0FFE030000B1
:10553000000000000000000000000000FC3FFC3FF5
:105540000C000C000C000C000C00FC1FFC1F0C00DD
:105550000C000C000C000C000C00FC3FFC3F000099
:10556000000000000000000000000000F83FF83FCD
:1055700018001800180018001800F81FF81F18006D
:105580001800180018001800180018001800000073
:10559000000000000000000000000000E00FF83FE5
:1055A0003C780E6006E007C00300030003FE03FE24
:1055B00003C007C006C00EC03CF0F83FE00F00007B
:1055C0000000000000000000000000000C300C3063
:1055D0000C300C300C300C300C30FC3FFC3F0C30ED
:1055E0000C300C300C300C300C300C300C30000017
:1055F00000000000000000000000000080018001A9
:105600008001800180018001800180018001800192
:105610008001800180018001800180018001000003
:10562000000000000000000000000000000600066E
:10563000000600060006000600060006000600063A
:1056400000060006180618063807F003E0010000FF
:1056500000000000000000000000000006300618F6
:10566000060C060606038601C60066007600DE000C
:105670008E0106030606060C0618063006600000BA
:1056800000000000000000000000000018001800EA
:10569000180018001800180018001800180018004A
:1056A00018001800180018001800F81FF81F000054
:1056B0000000000000000000000000000EE01EF0EE
:1056C0001EF01EF036D836D836D836D866CC66CC22
:1056D00066CCC6C6C6C6C6C6C6C686C386C30000D6
:1056E0000000000000000000000000000C301C3032
:1056F0003C303C306C306C30CC30CC308C310C33A6
:105700000C330C360C360C3C0C3C0C380C300000C6
:10571000000000000000000000000000E007F81F8B
:105720001C380E70066003C003C003C003C003C072
:1057300003C003C006600E701C38F81FE0070000AD
:10574000000000000000000000000000FC0FFC1F33
:105750000C380C300C300C300C300C18FC1FFC07D3
:105760000C000C000C000C000C000C000C000000E5
:10577000000000000000000000000000E007F81F2B
:105780001C380E70066003E003C003C003C003C0F2
:1057900003C007E006630E3F1C3CF83FE0F700C083
:1057A000000000000000000000000000FE0FFE1FCF
:1057B00006380630063006300638FE1FFE070603A0
:1057C0000606060C061806180630063006600000AD
:1057D000000000000000000000000000E003F80FDF
:1057E0001C0C0C180C180C001C00F803E00F001E19
:1057F0000038063006300E301C1CF80FE0070000A1
:10580000000000000000000000000000FE7FFE7F9E
:105810008001800180018001800180018001800180
:1058200080018001800180018001800180010000F1
:105830000000000000000000000000000C300C30F0
:105840000C300C300C300C300C300C300C300C3078
:105850000C300C300C300C301818F81FE00700002A
:10586000000000000000000000000000036006309F
:10587000063006300C180C180C18180C180C380EC2
:1058800030063006700760036003C001C0010000ED
:105890000000000000000000000000000360C36181
:1058A000C361C3616633663366336633663366331A
:1058B0006C1B6C1B6C1B2C1A3C1E380E380E000027
:1058C0000000000000000000000000000FE00C706D
:1058D00018303018700C600EC00780038003C003BE
:1058E000E006700C301C18180C300E6007E0000049
:1058F00000000000000000000000000003C006607F
:105900000C301C383818300C6006E007C0038001EA
:105910008001800180018001800180018001000000
:10592000000000000000000000000000FC7FFC7F81
:10593000006000300018000C000600038001C00069
:105940006000300018000C000600FE7FFE7F0000A3
:10595000000000000000000000000000E003E00381
:105960006000600060006000600060006000600037
:105970006000600060006000600060006000600027
:1059800060006000E003E003000000003000300031
:10599000600060006000C000C000C000C001800165
:1059A00080018001000300030003000600060000E0
:1059B000000000000000000000000000E003E00321
:1059C00000030003000300030003000300030003BF
:1059D00000030003000300030003000300030003AF
:1059E00000030003E003E003000000000000C0012A
:1059F000C00160036003600330063006180C180C09
:105A00000000000000000000000000000000000096
:105A10000000000000000000000000000000000086
:105A20000000000000000000000000000000000076
:105A3000000000000000000000000000FFFFFFFF6A
:105A40000000000000000000000000000C000C003E
:105A50000C000C000C000C00000000000000000016
:105A60000000000000000000000000000000000036
:105A70000000000000000000000000000000000026
:105A8000000000000000F003F8071C0C0C0C000FD5
:105A9000F00FF80C0C0C0C0C1C0FF80FF018000099
:105AA00000000000000000000000000018001800C6
:105AB000180018001800D803F80F380C1818181818
:105AC0001818181818181818380CF80FD8030000F0
:105AD00000000000000000000000000000000000C6
