:020000040800F2
:100000007807002079020008491B0008111A00082F
:10001000451B000825040008791F000800000000A7
:10002000000000000000000000000000511B00085C
:1000300029040008000000004D1B0008551B0008A3
:10004000930200089302000893020008930200083C
:10005000930200089302000893020008930200082C
:10006000930200089302000893020008930200081C
:10007000930200089302000893020008930200080C
:1000800093020008930200089302000893020008FC
:1000900093020008930200089302000893020008EC
:1000A00093020008930200089302000893020008DC
:1000B00093020008930200089302000893020008CC
:1000C00093020008930200089302000893020008BC
:1000D000930200086D1F00089302000893020008B5
:1000E000930200089302000893020008930200089C
:1000F000930200089302000893020008930200088C
:10010000930200089302000893020008930200087B
:10011000930200089302000893020008930200086B
:10012000930200089302000893020008930200085B
:10013000930200089302000893020008930200084B
:10014000930200089302000893020008930200083B
:10015000930200089302000893020008930200082B
:10016000930200089302000893020008930200081B
:1001700093020008930200089302000800000000A8
:1001800093020008930200089302000893020008FB
:1001900093020008930200089302000893020008EB
:1001A00093020008930200089302000800F002F88E
:1001B00000F052F814A696E8000CB244B344DA45B5
:1001C00001D100F049F8BAE80F000FA696E8300018
:1001D000A5EB040504EB0607AAEB0704A7F101074A
:1001E0004FEA15154FEA3414A4F10104AC4201D3CF
:1001F00000F032F813F0010F18BFFB1A43F00103AF
:1002000000F001F8DBE71847A81E0000C81E000038
:10021000103A24BF78C878C1FAD8520724BF30C832
:1002200030C144BF04680C60704700007047000094
:100230000023002400250026103A28BF78C1FBD8EF
:10024000520728BF30C148BF0B6070471FB501F08F
:1002500016FF1FBD10B510BD00F0A9F81146FFF73D
:10026000F5FF01F08BFE00F0C7F803B4FFF7F2FFD3
:1002700003BC00F0CFF80000094880470948004758
:10028000FEE7FEE7FEE7FEE7FEE7FEE7FEE7FEE746
:10029000FEE7FEE704480549054A064B70470000A3
:1002A000111C0008AD01000878010020780700202B
:1002B000780300207803002053EA020C00F06980E4
:1002C0002DE9F04B4FF00006002B1FBFB3FA83F56A
:1002D00003FA05F424FA05F65E4012BF1643B2FA9B
:1002E00082F502FA05F4C5F120051EBF22FA05FCCD
:1002F00044EA0C04203556EA044C4FEA144418BF73
:10030000641C4FF000084FF00009904271EB030CA1
:1003100039D3002919BFB1FA81F701FA07F6B0FA0B
:1003200080F700FA07F6C7F120071EBF20FA07FC86
:1003300046EA0C062037B6FBF4FCA7EB0507103F96
:1003400007F01F0BCBF120062CFA06F60CFA0BFB7C
:1003500044BFB3460026202FA4BF5E464FF0000BDB
:100360005BEA060C08BF4FF0010B19EB0B0948EBD9
:100370000608ABFB027C06FB02CC0BFB03CCC01BCC
:1003800071EB0C01C1E70B46024641464846BDE809
:10039000F08B13B5084318BF4FF0FF300146AFF3A1
:1003A0000080BDE81C407047704770477047754635
:1003B00000F02CF8AE4605006946534620F00700D1
:1003C000854618B020B5FFF765FFBDE820404FF027
:1003D00000064FF000074FF000084FF0000BAC464E
:1003E000ACE8C009ACE8C009ACE8C009ACE8C00999
:1003F00021F007018D46704710B50446AFF3008029
:100400002046BDE81040FFF730BF000000487047AD
:100410001800002001491820ABBEFEE726000200AC
:1004200070470000FEE700007047000072B600BF92
:10043000FEE7000070B5866D044600F031F994F8CF
:100440003510022928D105462068216C026822F067
:1004500016020260426922F08002426109B9A16C71
:1004600019B1016821F008010160016821F0010162
:10047000016000BF20680068C00715D000F010F9C7
:10048000401B0628F6D320206065032084F8350041
:10049000002184F8341070BD8020606501200021A7
:1004A00084F8341070BD00BFE06D3F2101FA00F008
:1004B000B060012084F835000020002184F8341059
:1004C00070BD000090F83510022909D1052180F88F
:1004D00035100068016821F00101016000207047BB
:1004E00080214165012070472DE9F04F82B000F175
:1004F0003E4707F1FF77860546EA972742F2004616
:10050000C4F202060A2243F6004EB04208BF092296
:10051000C4F2010E092F38BF3A46002600274FF0DB
:100520000008009209E000BF08F101080237B8F1A5
:10053000100F06F1040600F0A3800D68012202FAF4
:1005400008F415EA0409EFD0D1F804B003220BF047
:10055000030CACF10105BA40012D6FEA020A0FD875
:100560008268CD6802EA0A02BD402A43826042687E
:10057000A243CBF3001404FA08F42243426005E0DE
:10058000BCF1030F02D14FF0030C1EE0C2688C686F
:1005900002EA0A02BC402243BCF1020FC26014D13D
:1005A0006FF0030202EA58020244D2F820C006F0BB
:1005B0001C040F230D69A3402CEA0303A5402B4321
:1005C0001362D1F804B00BF0030C02680CFA07F3C5
:1005D00002EA0A021A431BF4403F0260A4D0002240
:1005E00043F644030192C4F202031A684FF6084C22
:1005F00042F480421A601A68CFF6FF7C02F480420F
:100600000192019A28F00302724452F80C3006F06D
:100610000C050F24AC40A343009C04FA05F52B43C2
:1006200042F80C30DEF808204B6842EA090543F630
:100630000C4CDC0258BF22EA0905CEF80850C4F27F
:10064000010CDCF800209C0242EA090558BF22EAAE
:100650000905CCF80050DEF804209C0342EA0905A5
:1006600058BF22EA0905CEF80450DEF80020DB036B
:1006700042EA090558BF22EA0905CEF8005053E7BF
:1006800002B0BDE8F08F00000069084018BF0120EB
:1006900070470000002A08BF09048161704700000C
:1006A00040F27010C2F200000068704740F208008B
:1006B00040F27011C2F20000C2F2000100780A6834
:1006C000104408607047000080B543F60040C4F253
:1006D0000200016841F400710160016841F4806129
:1006E0000160016841F480710160032000F086F828
:1006F0000F2000F005F800F027F8002080BD000072
:1007000070B540F20806C2F2000640F210013278DD
:10071000C2F200014FF47A730968B3FBF2F20446A7
:10072000B1FBF2F1084600F09FFB0F2C4FF00105E2
:1007300008D838B94FF0FF3021460022002500F0DC
:1007400031F87460284670BD82B0002043F6400145
:100750000190C4F202014A6842F480424A604A6849
:1007600002F480420192019A0090086840F08050A3
:100770000860086800F080500090009802B0704750
:10078000002848BF704700F01F01012202FA01F162
:100790001C2202EAD0004EF20012CEF2000281507A
:1007A0007047000010B54EF60C5CCEF2000CDCF881
:1007B0000030C3F3022E8EF00704042C28BF04245B
:1007C000BEF103034FF0FF3E0EFA04F438BF0023DE
:1007D000A14399400EFA03F39A43114300F00F022C
:1007E00000F160430901043A03F5644362440028C0
:1007F00048BF02F10C03197010BD00004EF60C51F9
:10080000CEF200010A684FF6FF031A4060F30A2295
:1008100042F0806040F0FD700860704770B582B0B3
:100820000020019043F64000C4F202000168402617
:1008300041F0805101600068C4F20E2600F0805043
:100840000190019847F204050120C4F200053060D0
:10085000FFF726FF044600BF2868C00306D4FFF751
:100860001FFF001BB0F57A7FF6D90EE00120706003
:10087000FFF716FF044600BF2868800308D4FFF77F
:100880000FFF001BB0F57A7FF6D9032002B070BDD0
:10089000002002B070BD0000002804BF0120704796
:1008A0002DE9F04143F60808C4F202080446D8F8DE
:1008B000F8030D4600F00F00884207D288F8F8537D
:1008C000D8F8F80300F00F00A84277D1206881071C
:1008D00017D5410705D5D8F8001041F4E051C8F804
:1008E0000010010705D5D8F8001041F46041C8F8A0
:1008F0000010D8F80010A26821F0F0011143C8F8E8
:100900000010C00740D1D8F8F80300F00F00A8424B
:1009100007D988F8F853D8F8F80300F00F00A84278
:100920004CD12068410707D5D8F80010E26821F4BF
:10093000E0511143C8F80010000708D5D8F80000AE
:10094000216920F4604040EAC100C8F8000000F0CE
:100950007DF8D8F8001042F29802C1F30311C0F6F6
:100960000002515C40F2100220FA01F140F20C004A
:10097000C2F200000068C2F200021160FFF7C0FE80
:100980000020BDE8F08100BF6068811E022907D207
:1009900058F8081C89015CBF0120BDE8F08111E016
:1009A000012807D158F8081C89035CBF0120BDE865
:1009B000F08107E058F8081C890703D40120BDE83E
:1009C000F08100BFD8F8001021F003010843C8F8F7
:1009D0000000FFF765FE064641F28837D8F80000B0
:1009E000616800F00C00B0EB810F8CD0FFF758FE6F
:1009F000801BB842F2D90320BDE8F08140F210001C
:100A000043F60801C2F20000C4F20201006809685E
:100A100042F2A802C1F38221C0F60002515CC84034
:100A20007047000040F2100043F60801C2F20000D7
:100A3000C4F202010068096842F2A802C1F342311F
:100A4000C0F60002515CC8407047000010B543F684
:100A50000404C4F20204606800F00C0008280BD003
:100A6000042819BF42F20040C0F2F40047F64000EB
:100A7000C0F27D1010BD00BF2068216823684902C4
:100A800047F64001C0F27D1100F03F02C3F3881029
:100A90005CBF42F20041C0F2F401A1FB000100235F
:100AA000FFF70AFC21680222C1F3014102EB410178
:100AB000B0FBF1F010BD0000002804BF012070471A
:100AC0002DE9F04182B00446007843F60006C007E5
:100AD000C4F202060CD0B06800F00C00042840F00C
:100AE00081803068800303D56068002800F06A8147
:100AF000207880071BD5B06810F00C0F09D0B068C3
:100B000000F00C00082840F087807068400200F177
:100B100083803068800703D5E068012840F0528167
:100B20003068216920F0F80040EAC1003060207888
:100B3000000713D4207840072AD4A569002D00F0BF
:100B40003C81B06800F00C00082840F0A180012D25
:100B500040F01081012002B0BDE8F08160690028FA
:100B600040F20000C4F2472000F07E800121C0F86E
:100B7000801EFFF795FD0546706F8007DAD4FFF7FA
:100B80008FFD401B0228F7D9032002B0BDE8F08199
:100B9000306C5FEAC0080AD400200190306C40F04D
:100BA00080503064306C00F080500190019847F222
:100BB0000007C4F200073868C00547D4386840F41D
:100BC00080703860FFF76CFD054600BF3868C005CF
:100BD0003CD4FFF765FD401B0228F7D9032002B083
:100BE000BDE8F081B06800F00C00082803D17068FF
:100BF00040023FF576AF6068B0F5803F07D0B0F5B2
:100C0000A02F40F09B80306840F480203060306836
:100C100040F4803030609BE0E06800285CD0002029
:100C2000C4F2472001210160FFF73AFD054600BFED
:100C3000306880073FF574AFFFF732FD401B022894
:100C4000F6D9032002B0BDE8F08100BFA0680128FA
:100C500005D0052854D1306F40F004003067306F64
:100C600040F00100306755E00021C0F8801EFFF71A
:100C700017FD0546706F80077FF55CAFFFF710FD2D
:100C8000401B0228F6D9032002B0BDE8F08100BF66
:100C90000027C4F2472700203866FFF701FD022D28
:100CA00005460DD13068800140F19080FFF7F8FCD7
:100CB000401B02284FF00300F4D902B0BDE8F081D8
:100CC0003068800179D5FFF7EBFC401B02284FF01C
:100CD0000300F5D9F1E700BF0020C4F2472000214E
:100CE0000160FFF7DDFC0546306880077FF51FAF28
:100CF000FFF7D6FC401B02284FF00300F4D9DCE7D5
:100D0000316F002821F001013167316F21F00401BA
:100D100031677DD0FFF7C4FC054641F2883700BF3C
:100D2000306F800700F18680FFF7BAFC401BB842A5
:100D3000F6D9032002B0BDE8F08100BF3168002879
:100D400021F480313160316821F4802131607BD021
:100D5000FFF7A6FC054600BF306880033FF5C8AE2C
:100D6000FFF79EFC401B6428F6D9032002B0BDE8C3
:100D7000F08100BF7068E16900F480028A4221D1ED
:100D8000216A00F03F028A421CD147F6C071626AB4
:100D90000140B1EB821F15D1A16A4FF6FF73C90361
:100DA000994300F44032A1F580318A420AD1E16AC8
:100DB00000F07060B0EB016F04D1002002B0BDE81C
:100DC000F08100BF012002B0BDE8F08104F11C05F4
:100DD0002FCD084340EA8210D9034FF6FF729143AA
:100DE000A1F5803140EA0560084370600120386653
:100DF000FFF756FC044600BF30688001DDD4FFF7E2
:100E00004FFC001B02284FF00300F5D955E700BF47
:100E1000FFF746FC054641F2883700BF306F800778
:100E200008D5FFF73DFC401BB8424FF00300F5D951
:100E300043E700BFB8F1000F3FF57FAE306C20F004
:100E40008050306479E600BFFFF72AFC054600BFFA
:100E5000306880037FF54CAEFFF722FC401B64280E
:100E60004FF00300F4D928E7411E0020B0EB116FCA
:100E70001CBF012070474EF21002CEF200025160FA
:100E80004EF62351CEF20001F0230B700721906043
:100E90001160704790F83C20012A4FF0020254D0B4
:100EA00010B580F83D200268D2F804E0D2F808C0FE
:100EB0000C682EF07003234341F2FF74C4F2000467
:100EC000A24253600EDC40F2FF73C4F200039A4268
:100ED00016DCB2F1804F2BD040F20043C4F2000385
:100EE00024E000BF40F2FF33C4F201039A4213DC56
:100EF00041F60003C4F200039A4219D0002313E024
:100F000040F60003C4F200039A4211D040F60043B9
:100F1000C4F200030AE000BF44F20003C4F201037C
:100F20009A4205D040F20043C4F201039A4204D130
:100F300049682CF08003194391600121002280F858
:100F40003D1080F83C20BDE810401046704700007E
:100F5000002804BF0120704710B5044690F83D00FA
:100F600028B9002084F83C00204600F01FF8022039
:100F700084F83D002068211D00F054FE012084F813
:100F8000460084F83E0084F83F0084F8400084F86E
:100F9000410084F8420084F8430084F8440084F857
:100FA000450084F83D00002010BD00000068B0F14D
:100FB000804F18BF704781B00020009043F640007A
:100FC000C4F20200016841F001010160006800F014
:100FD00001000090009801B07047000090F83C209C
:100FE000012A4FF0020200F0C58080B580F83D2054
:100FF000D0F800C04FF67772DCF8083023EA02021E
:10100000CCF808200B684F2B28DC1F2B44DD202B4D
:1010100045D0302B43D0402B40F0AE80D1F804E0D7
:10102000C968DCF82030DCF8202022F00102CCF87E
:101030002020DCF8182022F0F00242EA011123F00F
:101040000A0242EA0E02CCF81810CCF82020DCF894
:10105000081041F0470121F0300180E06F2B27DDBF
:10106000B3F5005F48D0B3F5805F7AD0702B40F0C5
:101070008380D1E901E3C968DCF8082043EA0E0364
:1010800022F47F4243EA01211143CCF80810DCF836
:10109000081041F0770162E00BB1102B6CD1DCF845
:1010A000081021F07001194341F0070157E000BF1B
:1010B000502B35D0602B5FD1D1F804E0C968DCF843
:1010C0002030DCF8202022F01002CCF82020DCF8C0
:1010D000182022F4704242EA013123F0A00242EAD1
:1010E0000E12CCF81810CCF82020DCF8081041F0D3
:1010F000670121F0100132E0D1E901E3C968DCF8B1
:10110000082043EA0E0322F47F4243EA01211143FF
:10111000CCF80810DCF8081041F480411FE000BF53
:10112000D1F804E0C968DCF82030DCF8202022F097
:101130000102CCF82020DCF8182022F0F00242EA6C
:10114000011123F00A0242EA0E02CCF81810CCF882
:101150002020DCF8081041F0570121F02001CCF8E4
:1011600008100022012180F83D10002180F83C1079
:10117000BDE88040104670470122F3E77047000049
:1011800070470000B0B582B0044600680168C368CB
:10119000426901F02F05202D03F0200506D12DB165
:1011A000204602B0BDE8B04000F0E8BD5FEA017C37
:1011B0001EBF02F0010E03F4907212EB0E0243D137
:1011C000226BCD0618D5012A16D113F0100213D0C8
:1011D00000210191016801914168019101994069E3
:1011E00040063BD4A08DE18DE28D002A18BF8842D5
:1011F00040F0F28102B0B0BD0A0640F1E78013F082
:10120000800200F0E38094F841102129F2D1A16816
:10121000B1F5805F03D12169002900F06382216A62
:101220004A1C226209784160E18C01390A04E18498
:10123000E0D1C16821F08001C160C16841F0400186
:10124000C16002B0B0BD00BFCA0718BF13F48072FE
:1012500040F0D0804A0700F1D380D8E0E06B01680D
:1012600049688AB2002AC5D0A38D9A42C2D2E185CC
:10127000C069B0F5807F00F09D80206850E8030FC2
:10128000216820F4807041E80302DAB1206850E858
:10129000030F216820F4807041E8030292B12068B6
:1012A00050E8030F216820F4807041E803024AB13E
:1012B000206850E8030F216820F4807041E80302A1
:1012C000002ADAD1206850E8050F216820F00100DB
:1012D00041E80502BAB3206850E8050F216820F004
:1012E000010041E8050272B3206850E8050F21684B
:1012F00020F0010041E805022AB3206850E8050FFC
:10130000216820F0010041E80502002ADAD11AE044
:10131000206850E8050F216820F0400041E80502F0
:10132000DAB1206850E8050F216820F0400041E85C
:10133000050292B1206850E8050F216820F04000B6
:1013400041E805024AB1206850E8050F216820F005
:10135000400041E80502002ADAD1202084F842004A
:1013600000202063206850E8030F216820F010005F
:1013700041E80302DAB1206850E8030F216820F049
:10138000100041E8030292B1206850E8030F216881
:1013900020F0100041E803024AB1206850E8030F32
:1013A000216820F0100041E80302002ADAD1E06B46
:1013B000FFF740F802206063A08DE18D401A81B2F2
:1013C000204602B0BDE8B040FFF7D8BE49067FF521
:1013D00011AF13F040013FF40DAFC16821F040019F
:1013E000C1602021204684F8411002B0BDE8B04021
:1013F00000F00CBB626C42F0010262644A0706D541
:10140000BEF1000F03D0626C42F0020262648A07F0
:1014100006D5BEF1000F03D0626C42F00402626494
:10142000BCF1000F06D55EEA050203D0626C42F003
:1014300008026264626C002A3FF4DCAE890604D5BF
:101440001DB1204600F09AFC20684069616C00F0F4
:10145000400001F00801401800F0B680206850E814
:10146000030F216820F4907041E80302BAB32068AA
:1014700050E8030F216820F4907041E8030272B332
:10148000206850E8030F216820F4907041E80302BF
:101490002AB3206850E8030F216820F4907041E8D7
:1014A0000302002ADAD11AE0206850E8050F21680B
:1014B00020F0010041E80502DAB1206850E8050F8C
:1014C000216820F0010041E8050292B1206850E84F
:1014D000050F216820F0010041E805024AB12068AB
:1014E00050E8050F216820F0010041E80502002ABC
:1014F000DAD1206B012824D1206850E8030F21683D
:1015000020F0100041E80302DAB1206850E8030F30
:10151000216820F0100041E8030292B1206850E8F1
:10152000030F216820F0100041E803024AB120684F
:1015300050E8030F216820F0100041E80302002A60
:10154000DAD1202084F8420000202063206840691E
:10155000400640F1C180206850E8050F216820F066
:10156000400041E80502DAB1206850E8050F216823
:1015700020F0400041E8050292B1206850E8050FD4
:10158000216820F0400041E805024AB1206850E897
:10159000050F216820F0400041E80502002ADAD159
:1015A000E06B002800F0988041F67151C0F6000110
:1015B0000165FEF787FF00283FF41CAEE06B016D6C
:1015C00002B0BDE8B04008472046FFF7D9FD002033
:1015D000606402B0B0BD00BF401A00BF216851E88E
:1015E000031F226821F4907142E80313BBB3216802
:1015F00051E8031F226821F4907142E8031373B38A
:10160000216851E8031F226821F4907142E8031316
:101610002BB3216851E8031F226821F4907142E83E
:101620000313002BDAD11AE0216851E8051F226864
:1016300021F0010142E80513DBB1216851E8051FE3
:10164000226821F0010142E8051393B1216851E8B5
:10165000051F226821F0010142E805134BB1216802
:1016600051E8051F226821F0010142E80513002B13
:10167000DAD1202184F8421000212163216851E849
:10168000031F226821F0100142E80313DBB1216837
:1016900051E8031F226821F0100142E8031393B1BF
:1016A000216851E8031F226821F0100142E803136A
:1016B0004BB1216851E8031F226821F0100142E874
:1016C0000313002BDAD1022281B22046626302B0FA
:1016D000BDE8B040FFF752BD204602B0BDE8B040C3
:1016E000FFF74EBD216A31F8022B6FF35F22426093
:1016F000216299E5002804BF0120704710B5044617
:1017000090F8410028B9002084F84000204600F0FD
:1017100021F8242084F841002068C16821F4005198
:10172000C160204600F0AAFB2068016921F49041C5
:101730000161416921F02A014161C16841F4005110
:10174000C16000202021606484F8411084F84210B8
:10175000606310BD016841F20000C4F201008142E3
:1017600018BF704780B586B0002143F63002019162
:10177000C4F20202536900F5704043F01003536154
:10178000536903F010030193019B0191136843F027
:1017900001031360126802F001020192019A4FF4F2
:1017A000C06201920222CDE90221032104910721A6
:1017B000059101A9FEF798FE252000210022FEF7E1
:1017C000F1FF2520FEF7DCFF06B0BDE88040704742
:1017D00090F84230202B07D100294FF0010318BFA9
:1017E000002A05D11846704702231846704700BFEB
:1017F00000230363816222218285C285436480F8CD
:1018000042100169006819B1C16841F48071C1607A
:10181000416941F001014161C16841F02001C160AD
:1018200018467047006841F20001C4F20101884285
:1018300018BF7047B0B540F23C10C2F2000001780A
:1018400040F27804C2F200044B1C2278DDB203702F
:1018500040F23D13C2F20003312D40F27C055A5490
:1018600004BF00210170C2F2000528462146012272
:10187000FFF7AEFF207840F2E001C2F20001002441
:101880000870284601224FF47A734C70BDE8B040CE
:10189000AFF300802DE9F041044690F84100202884
:1018A0001CBF0220BDE8F0810D4600294FF0010069
:1018B00000F0AA801646002A08BFBDE8F08100208B
:1018C00060642120984684F84100FEF7E9FEA68472
:1018D000E684A1680646B1F5805F02D12069002840
:1018E00062D02F460025E08C002861D018F101005D
:1018F00018D0B8F1000F37D1216808E017F8010BB4
:101900004860E08C0138E084E08C002851D0086801
:10191000000673D5002FF1D135F8020B00276FF3C5
:101920005F20EDE7216802E00868000609D4086836
:10193000000606D4086800065CBF08685FEA00601D
:10194000F2D51FB117F8010B05E000BF35F8020B07
:1019500000276FF35F204860E08C0138E084E08C62
:101960000028E4D125E000BF216800BF0868000618
:1019700008D4FEF795FE801B404541D82168C86811
:10198000F4E700BF17B117F8010B04E035F8020BBC
:1019900000276FF35F204860E08C0138E084E08C22
:1019A0000028E3D105E000BF0027E08C00289DD18E
:1019B0002168086840061FD4B8F1000F1ED018F146
:1019C00001000FD10868400616D40868400613D4F9
:1019D0000868400610D4086840064FF00000F1D5B2
:1019E0000FE000BFFEF75CFE801B404508D8206872
:1019F000C16800684006F5D5002002E0FEF750FE01
:101A00000320202184F84110BDE8F08170470000D8
:101A1000FEE7000070B586B0002543F6300005955E
:101A20000095C4F20200016840F2004441F08001D8
:101A300001600168C4F2020401F080010091009984
:101A400000950168002241F002010160016803264F
:101A500001F00201009100990095016841F0010137
:101A600001600068032100F001000090009820460A
:101A7000FEF710FE0120CDE9020501A920460196DE
:101A80000495FEF731FD06B070BD000080B586B04C
:101A900040F2F4000021C2F200004FF08042B32374
:101AA0004FF0FF3C0591CDE90311CDE90011C0E9EC
:101AB0000023C0E9021C01618161FFF749FA002897
:101AC00018BFFEF7B3FC4FF48050029040F2F400D0
:101AD000C2F2000002A9FFF781FA002818BFFEF742
:101AE000A5FC40F2F400C2F200006946FFF7D2F90B
:101AF000002818BFFEF79AFC06B080BD10B540F272
:101B00007804C2F2000441F20001C4F2010120464F
:101B100040F8041F4FF4165100220C23C0E90112B3
:101B2000C0E90322C0E90532C261FFF7E3FD0028E6
:101B300018BFFEF77BFC201D21460122BDE81040A6
:101B4000FFF746BEFEE70000FEE70000704700001A
:101B500070470000FEF7AABD80B592B0002043F6A2
:101B60004001CDE90A00CDE908000590CDE9030068
:101B7000CDE901000090C4F202010A6842F08052EF
:101B80000A60096801F0805100910099009047F2C5
:101B90000000C4F20000016841F4404101600068A7
:101BA0004FF4800100F4404000900098012006901E
:101BB0004FF480300D910F21079002200E91D82113
:101BC0000C90CDE90F100420119006A8FEF774FFC9
:101BD00010B172B6FEE700BFFEF720FE10B172B67C
:101BE000FEE700BF0F20019002200290002003902A
:101BF0004FF4A05004904FF48050059001A80521A7
:101C0000FEF74AFE10B172B6FEE700BF12B080BD0B
:101C10004EF68850CEF20000016841F47001016078
:101C20007047000010B540F6FF3E0368C4F2000E96
:101C300040F2004C7045C4F2010C27DCB0F1804F3B
:101C400031D040F20042C4F2000290422BD040F664
:101C50000002C4F20002904225D041F6FF72C4F2A5
:101C60000002904229DC70453CDCB0F1804F5FD02F
:101C700040F20042C4F20002904259D040F6000205
:101C8000C4F20002904253D056E000BF40F600423A
:101C9000C4F20002904206D0604504D00022C4F293
:101CA00001029042D9D14A6823F07003134341F6F0
:101CB000FF72C4F200029042D5DD43F6FF72C4F217
:101CC0000102904222DC42F20002C4F20002904281
:101CD0002ED00022C4F20102904229D0604527D0C4
:101CE0002AE000BF40F60042C4F2000290421FD03A
:101CF00041F60002C4F20002904219D041F60042BF
:101D0000C4F20002904213D016E000BF44F2000279
:101D1000C4F2010290420BD044F60002C4F2010268
:101D2000904205D044F20042C4F20102904203D135
:101D3000CA6823F44073134323F080024B69D1F83F
:101D400000E08C681A430260C46240F48062C0F80C
:101D500028E0624504BF096901630121416101690D
:101D6000C90708BF10BD016921F00101016110BD63
:101D7000806B0021C185C184FFF702BA81B090F861
:101D80004210222921D183680246B3F5805F09D130
:101D900052F8281F52F8183C002B63D003685B6888
:101DA0000AE000BF52F8281F13B90369002BF5D0D1
:101DB00003685B6803F07F030B70116801311160E9
:101DC000C18D01390A04C18502D001B0704700BF3E
:101DD0000168CA6822F02002CA60CA6822F48072D0
:101DE000CA604A6922F001024A61202180F842104B
:101DF00000214163026B012A3CD10163016851E873
:101E0000031F026821F0100142E80313DBB10168EF
:101E100051E8031F026821F0100142E8031393B157
:101E2000016851E8031F026821F0100142E8031322
:101E30004BB1016851E8031F026821F0100142E82C
:101E40000313002BDAD101680A68D20606D50022F6
:101E500000920A680092496800910099818D01B052
:101E6000FFF78CB9026852686FF35F2221F8022BEA
:101E70008162A5E701B0FFF7D5BC000010B50446AC
:101E80000068D4E902C22369016921F44051114379
:101E90000161626943EA0C01E3691143C2681943B5
:101EA00049F20C639A431143C1604169A26921F46C
:101EB000407141F20043114340F48062C4F20103D7
:101EC0009A42416102D1FEF7ADFD01E0FEF796FDB9
:101ED000E16963681922B1F5004FA0FB020123D12B
:101EE0005A00DB0FFEF7E8F948F21F51C5F2EB117B
:101EF000A0FB01235A094FF69C73C0F6FF7303F150
:101F0000805302FB0300322303EBC000A0FB01015E
:101F10004FF4F87000EA111000EB0210C1F3421107
:101F200008442168886010BD9A009B0FFEF7C4F931
:101F300048F21F51C5F2EB11A0FB01235A094FF6DD
:101F40009C73C0F6FF7302FB0300322303EB001007
:101F5000A0FB0101F02000EA511000EB0210C1F3D8
:101F6000431108442168886010BD000040F27C00E5
:101F7000C2F20000FFF706B9FEE70000FEF7A4FB7F
:101F8000FFF7EAFDFFF746FDFFF7B8FDFFF77EFD1F
:101F900040F2C40640F2000A40F2000740F2701519
:101FA00043F2343B40F27C09C2F20006C4F2020A5A
:101FB000C2F20007C2F20005C3F2333BC2F20009CD
:101FC0004FF00008307804281AD150460A21FEF755
:101FD0005BFB39687860814212D040F2F400C2F2B3
:101FE00000000068406A7268F368B06052EA030457
:101FF000796004D0811A5A1E8A4228BFF16070604D
:1020000028683169401AB0F57A7FDBD328683178C7
:1020100030610131A1FB0B2303EB8300081A307000
:10202000D0D1F068A0F10801032903D24FF4E130C8
:1020300015E000BF20F003010C2903D14FF49630C6
:102040000DE000BFA0F13301032903D24FF4964005
:1020500005E000BF6638032804D84FF416507061BD
:10206000C9F804004846FFF745FB28B90120C7E935
:102070000000C6E90188A5E772B600BFFEE7F1EEF1
:10208000100A4FF6FF71C0F2C03120EA010040F0A3
:102090004070E1EE100A70470000000000000000F0
:1020A00001020304060708090000000001020304FE
:1020B000D0200008000000201800000010020008D6
:1020C000E820000818000020600700003002000827
:1020D00001000000010000000100000010000000ED
:0820E0000024F40000000000E0
:04000005080001AD41
:00000001FF
