:020000040800F2
:100000009007002055020008C71300087B11000864
:10001000C51300080D050008911700080000000036
:10002000000000000000000000000000EB130008CA
:100030000F05000800000000E91300087114000813
:100040006F0200086F0200086F0200086F020008CC
:100050006F0200086F0200086F0200086F020008BC
:100060006F0200086F0200086F0200086F020008AC
:100070006F0200086F0200086F0200086F0200089C
:100080006F0200086F0200086F0200086F0200088C
:100090006F0200086F0200086F0200086F0200087C
:1000A0006F0200086F0200086F0200086F0200086C
:1000B0006F0200086F0200086F0200086F0200085C
:1000C0006F0200086F0200086F0200086F0200084C
:1000D0006F0200084D1700086F0200086F02000849
:1000E0006F0200086F0200086F0200086F0200082C
:1000F0006F0200086F0200086F0200086F0200081C
:100100006F0200086F0200086F0200086F0200080B
:100110006F0200086F0200086F0200086F020008FB
:100120006F0200086F0200086F0200086F020008EB
:100130006F0200086F0200086F0200086F020008DB
:100140006F0200086F0200086F0200086F020008CB
:100150006F0200086F0200086F0200086F020008BB
:100160006F0200086F0200086F0200086F020008AB
:100170006F0200086F0200086F0200080000000014
:100180006F0200086F0200086F0200086F0200088B
:100190006F0200086F0200086F0200086F0200087B
:1001A0006F0200086F0200086F02000800F002F8FA
:1001B00000F041F80AA090E8000C82448344AAF1C0
:1001C0000107DA4501D100F036F8AFF2090EBAE8BE
:1001D0000F0013F0010F18BFFB1A43F0010318477B
:1001E0000818000028180000103A24BF78C878C109
:1001F000FAD8520724BF30C830C144BF04680C602D
:10020000704700000023002400250026103A28BF74
:1002100078C1FBD8520728BF30C148BF0B60704778
:10022000642900F07980002070471FB501F0CEFBF3
:100230001FBD10B510BD00F037F91146FFF7F5FFEF
:1002400001F0E4FA00F055F903B4FFF7F2FF03BC44
:1002500001F09FFA0948804709480047FEE7FEE79A
:10026000FEE7FEE7FEE7FEE7FEE7FEE7FEE7FEE766
:1002700004480549054A064B7047000075140008FC
:10028000AD0100089001002090070020900300209D
:1002900090030020704700000FB4044910B503AA72
:1002A000029800F0D3F810BC5DF814FB2000002089
:1002B0002DE9F0410E460446002020622046E16808
:1002C000884730B3252805D0D4E901219047206A1A
:1002D000401CF2E7E168204600278847050018D057
:1002E000A5F14100192802D820354FF400673246A5
:1002F000294620462760FFF793FF40B1012804D02C
:10030000F61D26F007060836D8E7361DD6E728463C
:10031000DAE7206ABDE8F0812DE9F04106460024C5
:1003200010687529314616A510D0AFF3008000285B
:1003300002DA404213A507E031688A0701D512A509
:1003400002E0490704D511A5012401E0AFF30080C4
:1003500000210A2206F1240709E0B0FBF2FCB0FB01
:10036000F2F302FB1C00303078541846491C002878
:10037000F3D123462A463046BDE8F04100F00CB8E0
:10038000000000002D0000002B00000020000000F5
:1003900070477047704770472DE9F0470D46994602
:1003A0009246044600F124080168880604D5E069F5
:1003B00021F01001216000E00120A84201DD471B6F
:1003C00000E00027A1697A1902EB0900081AA06170
:1003D0002078C00602D42046AFF30080002608E053
:1003E000D4E901211AF806009047206A401C761CC7
:1003F00020624E45F4DB2078C0060AD52046AFF3D4
:10040000008006E0D4E9012130209047206A401C9A
:100410002062381EA7F10107F4DC07E0D4E90121CE
:1004200018F805009047206A401C2062281EA5F19C
:100430000105F3DC2046AFF300802078000602D5EA
:100440000220BDE8F0870120FBE70000074B70B5F4
:100450000D467B4400F011F80446284600F020F8D1
:1004600010B14FF0FF3070BD204670BDA3130000E7
:1004700001694A1C02610878704700B58FB0CDE968
:1004800001310021059105497944CDE90310114658
:100490006846FFF70DFF0FB000BD0000E5FFFFFF4E
:1004A000007B00F080007047754600F02BF8AE46E8
:1004B00005006946534620F00700854618B020B570
:1004C000FFF7D6FEBDE820404FF000064FF00007D2
:1004D0004FF000084FF0000B21F00701AC46ACE8EC
:1004E000C009ACE8C009ACE8C009ACE8C0098D4659
:1004F000704710B50446AFF300802046BDE81040B9
:10050000FFF7A2BE0048704730010020FEE77047A9
:100510002DE9F84FDFF8A091002209F1040A0AF151
:10052000040B4FF00F080BF1040E01260B689640E8
:100530003340B34271D14C68022C01D0122C11D13E
:10054000D40800EB84073D6A5407E40E08FA04FC63
:1005500025EA0C05D1F810C00CFA04FC4CEA050C95
:10056000C7F820C007685400032591F804C0A540CF
:100570000CF0030CAF430CFA04FC4CEA070CC0F877
:1005800000C04F68012F05D0022F03D0112F01D0DA
:10059000122F11D18768D1F80CC0AF430CFA04FCBC
:1005A0004CEA070CC0F808C04768B7430E79C6F399
:1005B000001696403E434660C668AE438D68A5402F
:1005C0003543C5604C68E4006FD53C4C256845F464
:1005D00080452560246822F0030504F480440094DB
:1005E000374C2E19D6F808789407250F08FA05F429
:1005F000A743344CA04201D100242EE0324CA0424B
:1006000001D1012429E0314CA04201D1022424E08F
:100610002F4CA04202D103241FE046E02D4CA04203
:1006200001D1042419E02C4CA04201D1052414E08E
:100630002A4CA04201D106240FE0294CA04201D14E
:1006400007240AE0274CA04201D1082405E0264CEB
:10065000A04201D1092400E00A24AC403C43C6F882
:100660000848D9F800404D464E689C43F60300D533
:100670001C432C60DAF8004055464E689C43B60394
:1006800000D51C432C60DBF800405D464E689C435F
:10069000F60200D51C432C60DEF8004075464E681B
:1006A0009C43B60200D51C432C60521C102AFFF458
:1006B0003CAFBDE8F88F0000003C014044380240E8
:1006C00000300140000002400004024000080240E7
:1006D000000C0240001002400014024000180240CA
:1006E000001C024000200240002402400069084033
:1006F00000D0012070470AB1816170470904FBE70F
:10070000014800687047000014000020024801689A
:10071000491C016070470000140000200B4810B510
:10072000016841F400710160016841F48061016079
:10073000016841F480710160052000F049F80F2044
:1007400000F006F800F015F8002010BD003C024053
:1007500010B5044600F096F94FF47A71B0FBF1F051
:1007600000F0AAFB00222146501E00F011F80020E4
:1007700010BD08B50020009008BD00F01F02012147
:1007800091404009800000F1E020C0F8001170475E
:10079000F0B40E4B1B68C3F30223C3F10704042C0F
:1007A00000D904241D1D072D01D2002300E0DB1E0B
:1007B000012606FA04F56D1E0D409D409E40761EF2
:1007C000164045EA0601F0BC00F0FEBD0CED00E06D
:1007D000064A00F0070110684FF6FF03184040EA90
:1007E0000120034908431060704700000CED00E051
:1007F0000000FA052DE9F8431D48016841F08051D9
:1008000001600068012700F080500090380490FAE1
:10081000A0F0DFF86080B0FA80F048F82070FFF7B1
:100820006FFF04464FF47A75134E04E0FFF768FF3C
:10083000001BA84213D87068C003F7D54FF40030EE
:1008400090FAA0F0B0FA80F048F82070FFF758FF57
:10085000044607E0FFF754FF001BA84202D903201B
:10086000BDE8F88370688003F4D50020F8E7000045
:100870004038024000000E42007000402DE9F05F59
:10088000DFF8F8A104460F46DAF80000DFF8F0813F
:1008900000F00F02C8B27A49814641F2883608F169
:1008A0000808BA4261D202468AF80020DAF800004D
:1008B00000F00F00B8427DD12078800707D5D8F826
:1008C0000020A36822F0F0021A43C8F80020207824
:1008D000C0072DD0606801281AD002281BD0032839
:1008E00019D009688907002964DAD8F8001047464A
:1008F00021F003010143C8F80010FFF701FF05468E
:10090000606801280FD0022818D003281CD027E0E7
:1009100009688903E7E709688901E4E7FFF7F0FE62
:10092000401BB04258D83868C0F381000128F5D187
:1009300088E0FFF7E5FE401BB0424DD83868C0F3B1
:1009400081000228F5D17DE03868FFF7D9FE401B11
:10095000B042F9D940E0FFF7D3FE401BB0423BD88C
:10096000386810F00C0FF6D16CE02078800707D5BE
:10097000D8F80020A36822F0F0021A43C8F800203B
:100980002078C0074CD06068012828D0022829D0E0
:10099000032827D009688907002949DAD8F80020F8
:1009A00022F003020243C8F80020FFF7A9FE054623
:1009B000606800E03CE001281DD0022829D003280F
:1009C00038D0B3464646306810F00C0F28D0FFF7F9
:1009D00097FE411B5945F6D90320BDE8F09F0968F1
:1009E0008903D9E709688901D6E7FFF789FE411B2A
:1009F000594502D9F0E7B34646463068C0F3810056
:100A00000128F2D10CE0FFF77BFE411B594502D9CA
:100A1000E2E7B34646463068C0F381000228F2D1CF
:100A20008AF80090DAF8000000F00F00B84209D010
:100A30000120D2E744462068FFF762FE401BB04227
:100A4000F9D9C9E72078400707D5D8F80010E2683F
:100A500021F4E0511143C8F800102078000708D5B0
:100A6000D8F80010226921F4604141EAC201C8F8B7
:100A700000100F20FFF76CFE0020AEE7003C0240A4
:100A80000038024010B500F043F808490968F02228
:100A900092FAA2F201F0F001B2FA82F2D140044AD5
:100AA000515CC8400349086010BD0000083802408E
:100AB000D61900080000002010B5FFF7E3FF074932
:100AC00009684FF4E05292FAA2F201F4E051B2FA4E
:100AD00082F2D140024A515CC84010BD0838024041
:100AE000D619000810B5FFF7CDFF074909684FF484
:100AF000604292FAA2F201F46041B2FA82F2D1406D
:100B0000024A515CC84010BD08380240D61900089E
:100B100030B51948006810F00C01184812D0184C74
:100B200004290ED008290DD1134A121F1168136829
:100B300001F03F015D0247F6C07304D5B4FBF1F04C
:100B400003E0204630BDB0FBF1F01168194093FA84
:100B5000A3F3B3FA83F3D940484311684FF440320A
:100B600092FAA2F201F44031B2FA82F2D140491C69
:100B70004900B0FBF1F030BD083802400024F40019
:100B800040787D012DE9F84F04460078DFF8FCA29B
:100B9000BF4DC0074FF0000648D0DAF800105046AD
:100BA000C1F38101012908D00068C0F38100022847
:100BB0000AD1281D0068400206D52868800335D573
:100BC0006068002873D031E0DFF8C49209F10209AF
:100BD00089F80060FFF794FD074641F2883804E089
:100BE000FFF78EFDC11B41457AD828688003F7D4F2
:100BF000207989F80000606860B1FFF781FD074641
:100C000004E0FFF77DFDC11B4145EDD82868800356
:100C1000F7D50BE0FFF774FD074604E0FFF770FD22
:100C2000C11B4145E0D828688003F7D42078DFF85D
:100C30006492800744D5DAF80010504611F00C0F8A
:100C40004FF0F80809D00068C0F3810002280BD1EA
:100C50008E48001F0068400206D42868800714D51B
:100C6000E068012823D110E0E068D0B10120C9F884
:100C70000000FFF745FD074604E0FFF741FDC01BFC
:100C80006428B1D828688007F7D5286898FAA8F2B0
:100C90002169B2FA82F220F0F800914008432860FE
:100CA0000EE0C9F80060FFF72BFD074605E0EAE01B
:100CB000FFF726FDC01B642812D828688007F7D4E8
:100CC0002078000725D5DFF8C4817348616908F1F1
:100CD0006C0881B101210160FFF712FD074605E0B4
:100CE0007EE0FFF70DFDC01B642879D8D8F800001E
:100CF0008007F6D50DE00660FFF702FD074604E029
:100D0000FFF7FEFCC01B64286AD8D8F800008007F3
:100D1000F6D42078400753D55C483830016841F05C
:100D2000805101600068DFF8748100F0805000900D
:100D3000D8F8001041F48071C8F80010FFF7E0FC0B
:100D4000074604E0FFF7DCFCC01B642848D8D8F84D
:100D50000000C005F6D5DFF834B10BF1680B8BF855
:100D60000060FFF7CDFC074641F2883804E0FFF74A
:100D7000C7FCC11B41457ED8DBF800008007F6D4D4
:100D8000207A8BF80000A06868B1FFF7B9FC07462D
:100D900004E0FFF7B5FCC11B41456CD8DBF800004F
:100DA0008007F6D50CE0FFF7ABFC074604E0FFF741
:100DB000A7FCC11B41455ED8DBF800008007F6D4D4
:100DC000A069E8B3DAF80010C1F3810102295AD012
:100DD000022806D0C9F86060FFF792FC04464DE097
:100DE00049E04F46C9F86060FFF78AFC064604E018
:100DF000FFF786FC801B64283DD828688001F7D463
:100E0000D4E90701084347F6C07191FAA1F1626A7B
:100E1000B1FA81F18A40A16A4FF0FF3303EB51012F
:100E20004FF4403393FAA3F3B3FA83F399400A43A0
:100E300010434FF0706292FAA2F2B2FA82F200E02E
:100E40001FE0E16A914008431049091F0860012032
:100E50003866FFF755FC044604E0FFF751FC001B21
:100E6000642808D828688001F7D50AE0FFF748FC15
:100E7000001B642802D90320BDE8F88F2868800190
:100E8000F4D40020F8E70120F6E70000083802401B
:100E90000038024000004742800E47420070004088
:100EA0004FF0E0210428086903D020F00400086115
:100EB000704740F00400FAE710B5401EB0F1807FA3
:100EC00001D3012010BD4FF0E02460610F216017B5
:100ED00000F07AFA0020A06107202061002010BDF8
:100EE000704790F83900704738B5016804460868C3
:100EF000CA68C0F3000002F4807238B132B10868E9
:100F000048680090E06B40F00100E06308684A69BF
:100F1000C0F3400002F0010238B132B108684868FD
:100F20000090E06B40F00400E06308684A69C0F399
:100F3000800002F0010238B132B1086848680090C0
:100F4000E06B40F00200E06308684A69C0F3C0004B
:100F500002F0010238B132B1086848680090E06BD5
:100F600040F00800E0630868C968C0F3401001F071
:100F7000200118B111B1204600F0A6FA20680168DE
:100F8000C068C1F3C01100F0800019B110B1204653
:100F900000F0A8FB21680868CA68C0F3801002F05E
:100FA0004002012568B162B1CA68204622F04002C1
:100FB000CA6094F8391032290CD080F8395000F00A
:100FC000DBF8E06B002804D084F839502046FFF7A6
:100FD00087FF38BD222180F83910F0E770B5040092
:100FE00004D094F83900002510B106E0012070BD4E
:100FF00084F83850204600F021F8022084F83900A7
:101000002068C16821F40051C160204600F0B0FAA8
:101010002068016921F4904101612068416921F053
:101020002A0141612068C16841F40051C160E56353
:10103000012084F83900002070BD000010B5006860
:101040001A4986B088422FD11948016841F0010140
:101050000160006800F00100059015481430016837
:1010600041F0100101600068012100F010000590BE
:101070004FF4007000900220CDE901010390072099
:101080000C4C049069462046FFF742FA2115009166
:1010900069462046FFF73CFA2520FFF76EFB032246
:1010A00011462520FFF774FB06B010BD001001406B
:1010B000303802400000024090F83930012B01D056
:1010C000122B2BD131B32AB390F83830012B25D015
:1010D000012380F8383081628285C2850022C26394
:1010E00090F83910122917D0222180F839100168A0
:1010F000CB6843F48073CB6001684B6943F0010314
:101100004B6180F838200068C16841F02001C1605F
:1011100000207047012070473221E6E70220704727
:1011200030B50068114988420CD1114A5088010439
:1011300008D41146440409784FF0000306D50A2963
:1011400001D0538030BD40F400400DE00D2909D09E
:10115000C0F30D04074D401C80B229555080C728AC
:10116000EFD830BD40F48040508030BD00100140C9
:101170001C000020280000207047FEE770B51B48C7
:1011800086B00025016841F001010160016801F0AD
:1011900001010591016841F004010160016801F05D
:1011A00004010591016841F0800101600068032499
:1011B00000F08000059002200126CDE90204CDE96F
:1011C000006569460A48FFF7A3F9700303948DE8A8
:1011D000610069460748FFF79BF90C2000906946BB
:1011E0000548FFF795F906B070BD000030380240A1
:1011F0000000024000080240001C02402DE9F047B8
:101200000126594C7703DFF86481DFF86491594D6A
:1012100001281DD02078A0B108212846FFF766FAE2
:10122000C0B104212846FFF761FA98B1394640461B
:10123000FFF75CFA70B101214846FFF757FA012821
:1012400008D008212846FFF751FA012878D089E014
:101250002670E1E70A2000F0A7FA0020207008219C
:101260002846FFF743FA20B904212846FFF73EFA43
:1012700028B108212846FFF739FA18B107E0052000
:10128000BDE8F08739464046FFF730FA28B108211B
:101290002846FFF72BFA10B107E00620F0E70121FE
:1012A0004846FFF723FA012805D004212846FFF716
:1012B0001DFA10B106E00720E2E739464046FFF785
:1012C00015FA28B104212846FFF710FA10B107E0FB
:1012D0000820D5E701214846FFF708FA012806D083
:1012E000394644464046FFF701FA10B107E00920AD
:1012F000C6E701214846FFF7F9F9012815D0082172
:101300002846FFF7F3F998B104212846FFF7EEF9D4
:1013100080B139462046FFF7E9F968B10121484616
:10132000FFF7E4F9012809D01CE00A20A8E707E04C
:101330000120A5E70220A3E70320A1E704209FE7FF
:1013400004212846FFF7D2F901280BD1394640463F
:10135000FFF7CCF9012805D101214846FFF7C6F96E
:1013600000B9267000208BE724000020000802400E
:1013700000000240001C0240104810B5016886B011
:1013800041F0020101600068012100F002000590B7
:101390000320CDE90210CDE90001094C6946204641
:1013A000FFF7B6F8012211462046FFF7A4F9012203
:1013B00002212046FFF79FF906B010BD30380240E9
:1013C00000040240FEE770470907090E002806DA0C
:1013D00000F00F0000F1E02080F8141D704700F1CC
:1013E000E02080F8001470477047704770B51E4CBD
:1013F00092B00025266846F080562660246804F0E6
:1014000080541194194C266846F44046266024689E
:101410000DF1240C04F4404411940124009401942F
:10142000022406948CE80D006605CDE90761684644
:10143000FFF7A8FB00B1FEE7FFF7DCF900B1FEE71C
:101440000CA90F2081E831004FF4A0500F904FF409
:101450008050109005210CA8FFF710FA002800D04A
:10146000FEE712B070BD000040380240007000403E
:10147000FFF74CB91048016841F4700101600F4852
:10148000016841F0010101600C4A0021083211603D
:1014900002680B4B1A400260031D0A4A1A60026878
:1014A00022F48022026005480C300160024958068F
:1014B000803908607047000088ED00E00038024085
:1014C000FFFFF6FE1030002410B590F839102229E5
:1014D00003D0322901D0022010BD8168B1F5805FB0
:1014E00011D00169002901681FD0496801F07F030C
:1014F000816A4A1C82620B70C18D491E0904090C65
:10150000C18518D02FE00269816A002A02685268FA
:1015100005D0D2B20A80816A491C8162ECE7C2F32D
:1015200008020A80816A891CF7E74A68816A4B1CB5
:1015300083620A70E0E70168CA6822F02002CA608C
:1015400090F83910322910D00168CA6822F48072EC
:10155000CA6001684A6922F001024A61012180F8EB
:101560003910FFF7DDFD002010BD1221F7E7000064
:101570002DE9F041044600680169E26821F4405118
:101580000A4302612068C16849F20C6291432369F1
:10159000A268E5691A4363692B431A430A43C26090
:1015A0002068416921F44072A16911434161E069F9
:1015B00064263225B0F5004F484A494920681DD0BD
:1015C000884201D0904269D1FFF78CFA00EBC0014C
:1015D00001EB00106168B0468900B0FBF1F1B1FB8E
:1015E000F8F6FFF77FFA00EBC00101EB001061682D
:1015F0008900B0FBF1F7FFF775FA68E0884201D087
:10160000904219D1FFF76EFA00EBC00101EB001018
:101610006168B0464900B0FBF1F1B1FBF8F6FFF7A5
:1016200061FA00EBC00101EB001061684900B0FBFA
:10163000F1F7FFF757FA18E0FFF73EFA00EBC001A9
:1016400001EB00106168B0464900B0FBF1F1B1FB5D
:10165000F8F6FFF731FA00EBC00101EB001061680A
:101660004900B0FBF1F7FFF727FA00EBC00101EBEF
:10167000001061684900B0FBF1F1B1FBF8F06FF0C8
:101680001801484307EB800005EB0011B1FBF8F0AF
:10169000216866F31F108860BDE8F081FFF70CFA3F
:1016A00000EBC00101EB00106168B0468900B0FB9F
:1016B000F1F1B1FBF8F6FFF7FFF900EBC00101EB28
:1016C000001061688900B0FBF1F7FFF7F5F900EB56
:1016D000C00101EB001061688900CCE700140140F3
:1016E0000010014090F83910122903D0322901D09E
:1016F000022070478168B1F5805F016A0BD04A1CF7
:101700000262026809785160C18C491E0904090C03
:10171000C1840ED017E009880268C1F30801516046
:1017200001690029016A02D0491C0162ECE7891CA9
:10173000FBE70168CA6822F08002CA600068C168DD
:1017400041F04001C16000207047000070B50024E6
:101750000C4D0D48FFF7C8FB02E0641CAC4204D8F6
:101760000948FFF7BEFB0128F7D1002402E0641C02
:10177000AC4206D8012205490348FFF79DFC00282A
:10178000F5D170BDFFFF0100F00000201C0000201B
:10179000FEE7704710B504460420FFF781FB0148BF
:1017A000046010BD1800002070B5054600244FF4F9
:1017B0007A7603E0304600F005F8641CAC42F9D3B9
:1017C00070BD000070B54FF0E02500216C69094A3A
:1017D000AB6912685043AA699A42FCD002D2A3EBCB
:1017E000020302E0A4EB020633441944134681428B
:1017F000F1D370BD1800002003490A685206FCD5D9
:10180000C2B24A607047000000100140FEF786FF38
:101810000823022219214FF4B470FFF7E7FDB4202A
:10182000FFF7B8FF4FF4E13000F0B4F8FFF7A4FD84
:10183000FFF7A4FC0020FFF7E1FC01460B2810D2C3
:10184000DFE800F00F060606060A0C13151719004C
:101850000AA0FEF721FD04E00CA000E016A0FEF7B0
:101860001BFD0A20FFF7A0FFE4E71EA0F7E728A072
:10187000F5E732A0F3E73CA0F1E7000054686520EB
:101880006B65792069732025640D0A005468652012
:101890006B6579203120616E64206B657920322080
:1018A000617265207072657373656420746F67651B
:1018B000746865720D0A0000546865206B657920B4
:1018C0003120616E64206B65792033206172652060
:1018D0007072657373656420746F67657468657290
:1018E0000D0A0000546865206B6579203120616E17
:1018F00064206B6579203420617265207072657395
:1019000073656420746F6765746865720D0A000002
:10191000546865206B6579203220616E64206B65A8
:10192000792033206172652070726573736564205D
:10193000746F6765746865720D0A000054686520ED
:101940006B6579203220616E64206B6579203420CC
:10195000617265207072657373656420746F67656A
:10196000746865720D0A0000546865206B65792003
:101970003320616E64206B657920342061726520AC
:101980007072657373656420746F676574686572DF
:101990000D0A00000B4910B5094AC1E900200020DA
:1019A0008860C860086188610C2048610846FFF7BC
:1019B00015FBBDE81040012203490248FFF77CBB3C
:1019C00000100140F00000201C0000204FF040708B
:1019D000E1EE100A7047000000000102030401025A
:1019E0000304060708090000081A00080000002088
:1019F00028000000E8010008301A00082800002034
:101A000068070000040200080024F4000000000041
:101A1000000000000102030406070809000000009E
:101A200000000000000000000000000001000000B5
:04000005080001AD41
:00000001FF
