:020000040800F2
:10000000300B002099020008435F0008D74E00081B
:10001000415F00082D1900083D7500080000000030
:10002000000000000000000000000000C5630008A0
:10003000671A000800000000455F0008C763000859
:10004000B3020008B3020008B3020008B3020008BC
:10005000B3020008B3020008B3020008B3020008AC
:10006000B3020008B3020008B3020008AD1900088B
:10007000B9190008B3020008B3020008B30200086F
:10008000B302000800000000B3020008B302000839
:10009000B3020008B3020008B3020008B30200086C
:1000A000B3020008B3020008B3020008B30200085C
:1000B00045640008516400085D640008B30200084C
:1000C000B3020008B3020008B3020008B30200083C
:1000D000B3020008B9740008B3020008B3020008B4
:1000E000B3020008B3020008B3020008B30200081C
:1000F000B3020008B3020008B302000800000000C9
:1001000000000000B302000800000000B302000875
:10011000B30200080000000069640008B302000890
:10012000B3020008B3020008B3020008B3020008DB
:10013000B30200080000000000000000B302000845
:10014000B3020008B3020008000000000000000035
:10015000000000000000000000000000000000009F
:10016000000000000000000000000000B3020008D2
:10017000B3020008000000000000000000000000C2
:1001800000000000B30200080000000000000000B2
:10019000000000000000000000000000000000005F
:1001A0000000000000000000B3020008B3020008D5
:1001B000B3020008B3020008B30200080000000008
:1001C00000000000B3020008000000000000000072
:1001D000B3020008B302000800F002F800F04CF887
:1001E0000AA090E8000C82448344AAF10107DA4592
:1001F00001D100F041F8AFF2090EBAE80F0013F098
:10020000010F18BFFB1A43F001031847888E000046
:10021000A88E0000103A24BF78C878C1FAD85207D7
:1002200024BF30C830C144BF04680C607047000070
:100230000023002400250026103A28BF78C1FBD8EF
:10024000520728BF30C148BF0B607047662907F0CE
:10025000CC85642900F0F480002070471FB507F0BA
:10026000BAFD00F0F7FC04000020002107F090FA2E
:10027000E0601FBD10B510BD00F0ECFD1146FFF7AA
:10028000EDFF07F0FDF900F00AFE03B4FFF7F2FFFF
:1002900003BC00F04DFE00000948804709480047B4
:1002A000FEE7FEE7FEE7FEE7FEE7FEE7FEE7FEE726
:1002B000FEE7FEE704480549054A064B7047000083
:1002C00035640008D901000830050020300B0020FB
:1002D000300700203007002053EA020C00F069804C
:1002E0002DE9F04B4FF00006002B1FBFB3FA83F54A
:1002F00003FA05F424FA05F65E4012BF1643B2FA7B
:1003000082F502FA05F4C5F120051EBF22FA05FCAC
:1003100044EA0C04203556EA044C4FEA144418BF52
:10032000641C4FF000084FF00009904271EB030C81
:1003300039D3002919BFB1FA81F701FA07F6B0FAEB
:1003400080F700FA07F6C7F120071EBF20FA07FC66
:1003500046EA0C062037B6FBF4FCA7EB0507103F76
:1003600007F01F0BCBF120060CFA0BFB2CFA06F65C
:1003700044BFB3460026202FA4BF5E464FF0000BBB
:100380005BEA060C08BF4FF0010B19EB0B09ABFB46
:10039000027C48EB0608C01B06FB02CC0BFB03CC1F
:1003A00071EB0C01C1E70B46024641464846BDE8E9
:1003B000F08B13B54FF000004FF00001AFF3008059
:1003C000BDE81C40704700000FB41CB5074B06AADF
:1003D0007B4469460090059800F0F1FB00206946D7
:1003E00000F000FC1CBC5DF814FB000011080000CC
:1003F00070B5044685690068C10601D5302600E065
:100400002026C00707D070BDD4E9012130469047AF
:10041000206A401C20626D1EF6D570BD70B5044682
:1004200085690078C00707D170BDD4E9012120207B
:100430009047206A401C20626D1EF6D570BD0000FA
:100440002DE9F0410646002410687529314616A5AD
:1004500010D0AFF30080002802DA404213A507E075
:1004600031688A0701D512A502E0490704D511A514
:10047000012401E0AFF3008000210A2206F12407E5
:1004800009E0B0FBF2FCB0FBF2F302FB1C003030E1
:1004900078541846491C0028F3D123462A46304692
:1004A000BDE8F04100F01DB9000000002D00000083
:1004B0002B000000200000002DE9F0474FF0000A5B
:1004C00089460446C0F820A02046E16888470028F5
:1004D00076D0252806D0D4E901219047206A401C17
:1004E0002062F1E7E168204600258847C4F81CA097
:1004F00006460027C4F818A02A2E09D0304607F077
:1005000046F838B304EB8708303EC8F8186019E0A5
:1005100059F8041B204604EB87029161E168884783
:10052000012F064618D1E069002820DA25F02005C1
:100530001DE0D8F8180000EB800006EB40003038D2
:10054000C8F818002046E1688847064607F01FF8FB
:100550000028EED1012F0AD02E2E08D12046E168C6
:1005600088477F1C0646022F45F02005C4DBA069A2
:10057000002803DA404245F00105A061E80701D0F8
:1005800025F01005B6B1A6F14100192802D8203691
:1005900045F400654A463146204625604D46FFF742
:1005A00055FE58B1012806D0ED1D25F0070000F1D9
:1005B000080989E704E005F1040985E730468AE780
:1005C000206ABDE8F08710B5431C02E010F8011B5B
:1005D00071B18107FAD14FF0013202C88C1A8C43F5
:1005E00014EAC211F9D0C01A0A0603D0C01E10BD09
:1005F000C01A10BD0A0401D0801E10BD0902FCD033
:10060000401E10BD032A40F2308010F0030C00F0B1
:10061000158011F8013BBCF1020F624498BF11F83C
:1006200001CB00F8013B38BF11F8013BA2F10402F5
:1006300098BF00F801CB38BF00F8013B11F003036D
:1006400000F0D582083AC0F0088051F8043B083A1F
:1006500051F804CBA0E80810F5E7121D5CBF51F873
:10066000043B40F8043BAFF30080D20724BF11F8ED
:10067000013B11F801CB48BF11F8012B24BF00F852
:10068000013B00F801CB48BF00F8012B70474FF049
:10069000000200B5134694469646203922BFA0E8D2
:1006A0000C50A0E80C50B1F12001BFF4F7AF0907DE
:1006B00028BFA0E80C5048BF0CC05DF804EB8900CF
:1006C00028BF40F8042B08BF704748BF20F8022B12
:1006D00011F0804F18BF00F8012B7047704770472A
:1006E00070472DE9F0470D4699469246044600F1C1
:1006F00024080168880604D5E06921F01001216012
:1007000000E00120A84201DD471B00E00027A169AD
:100710007A1902EB0900081AA0612078C00602D4F9
:100720002046FFF765FE002608E0D4E901211AF80B
:1007300006009047206A401C761C20624E45F4DB80
:100740002078C0060AD52046FFF752FE06E0D4E91D
:10075000012130209047206A401C2062381EA7F1FA
:100760000107F4DC07E0D4E9012118F805009047FF
:10077000206A401C2062281EA5F10105F3DC2046FA
:10078000FFF74CFE2078000602D50220BDE8F08776
:100790000120FBE770472DE9FF4F0C461E464FF046
:1007A000FF378BB0D2E90001DDF860800A908A46FD
:1007B000C1F30A5505B93D46002108464FF0000037
:1007C000BAF1000F00F4400005DA00EB80004FF4AE
:1007D000400101EA50004FEA9059B9F1010F00DDE4
:1007E000B9460A9850EA4A000ED044F61050A5F2D5
:1007F000FF3545432F14B8F1000F1ED07542291E56
:100800001EDDC9F100021CE0B8F1010F4FF000003D
:1008100001D0302103E0F24305E02154401CB042F6
:10082000FBDB30460022002121540B99C1F80880DF
:10083000C1E900200FB0BDE8F08FBD1B6D1CDEE7E5
:100840004A4600DA694206A800F08EFA06AB93E841
:10085000070003AB83E8070050460A9900F06FFBDE
:100860008DE80700A0F500501F3800900398002D78
:100870000ADD42F21F014A460844002303A90390FF
:10088000684600F0D8FD09E0A0F500504A461F3840
:10089000002303A90390684600F0E2FD8DE80700FD
:1008A0000004000C03D04FF0FF30410800E0104678
:1008B000B8F1000F03D00022009215461EE0751E0D
:1008C00005D400F0CBF9303262556D1EF9D5B34630
:1008D0000122084302D000227F1C04E02078302847
:1008E00001D100227F1E002A099784D01DE0112D1E
:1008F00007DA00F0B3F9303262556D1C50EA01029C
:10090000F5D1084302D00098C8B10EE00021681E5E
:1009100005E0235C625C63542254401E491C814202
:10092000F7DBAB46A81B401E0990002004F80B0023
:100930000B98099AC0F80880C0E9002B7AE71126C5
:100940004FF0000857E72DE9F04F88460446D21DC6
:1009500022F0070191B0D1E90001CDE90A0106F0CA
:10096000EEFD02460B98C00F01D02D2007E0206855
:10097000810701D52B2002E0202101EAC000032AD3
:10098000099001D0072A05DB03464146204600F0C6
:10099000ABF90BE12078800601D5E06900E0062084
:1009A000B8F1650F814606D0B8F1660F18D0B8F1DE
:1009B000670F70D131E00020B9F1110F009001DB19
:1009C000112301E009F101030AAA01A90CA8FFF70C
:1009D000E2FEDDE90C70002609F10105834647E0DF
:1009E00001204B4600904FF000470AAA01A90CA82D
:1009F000FFF7D1FEDDE90DB00C995D46002610B978
:100A000009F101000D18B9EB050003D4C0F1FF3660
:100A100009F10105A5EB09002BE0B9F1010F01DA9D
:100A20004FF001090020B9F1110F0090484601DD97
:100A3000112300E003460AAA01A90CA8FFF7ABFEA8
:100A4000DDE90C704D4600268346207800070AD465
:100A5000AB4500DA5D4601A8012D04DD411911F80E
:100A6000011C302907D04F4502DA17F1040F04DAD0
:100A7000012082460FE06D1EEEE7002F02DCED1B29
:100A80003E4403E0781CA84200DD7D1CB81B00F149
:100A9000010A4FF000472078000703D4AA4501DB84
:100AA0004FF0FF3A0021B7F1004F0DF143088DF8E8
:100AB000431024D002202B23002F01DA7F422D2364
:100AC0000A21021EA0F1010000DC5FB197FBF1FCDE
:100AD00097FBF1F201FB1C7C17460CF1300C08F877
:100AE00001CDEEE7A8F1010003702188090501D5C9
:100AF000452100E06521A0F1010800F8011C0998DA
:100B00000FA9A1EB0807FF1D00B10120411901EB5E
:100B1000EA70A1693844081A401EA0612078C00616
:100B200002D42046FFF764FC099828B1D4E90121DA
:100B30009047206A401C20622078C00622D52046BB
:100B4000FFF756FC1EE0002E04DBB34502DD01A8D2
:100B5000805D00E03020D4E901219047206A401CEC
:100B60002062761CAAF101005FEA000A0AD100F0B7
:100B700071F8C0680168405CD4E901219047206A9F
:100B8000401C2062281EA5F10105DCDC07E0D4E949
:100B9000012118F8010B9047206A401C2062381E82
:100BA000A7F10107F3DC2046FFF738FC032011B062
:100BB00041E6000001694A1C02610878704700B5EF
:100BC0008FB0CDE901310021059105497944CDE986
:100BD000031011466846FFF76FFC0FB000BD000020
:100BE000E5FFFFFF0A6802F8010B0A60704710B5C5
:100BF000203AC0F00B80B1E81850203AA0E8185015
:100C0000B1E81850A0E81850BFF4F5AF5FEA027CD5
:100C100024BFB1E81850A0E8185044BF18C918C044
:100C2000BDE810405FEA827C24BF51F8043B40F8E5
:100C3000043B08BF7047D20728BF31F8023B48BFCA
:100C400011F8012B28BF20F8023B48BF00F8012B08
:100C50007047000000487047EC04002030B5B0F148
:100C60000A024FEA900E71F100034EEA817EB0EB6A
:100C70000E0061EB91014FEA101E4EEA017E10EB6F
:100C80000E0041EB11114FEA102E4EEA016E10EBEF
:100C90000E0041EB11214FEA104E4EEA014E10EBCF
:100CA0000E0041EB1141401841F100014FEAD00024
:100CB00040EA41704FEAD10110EB80054FEA810410
:100CC00044EA907444EB01046D1944EB0404521B94
:100CD000A3414FF0000348BF0A3200D530BD401C8D
:100CE00041F1000130BD00002DE9F0411F460446EE
:100CF00003260168072A01F4006004DB08B116A589
:100D000005E016A503E008B115A500E015A521F042
:100D100010002060A069C01EA0610FB1401EA0613C
:100D20002046FFF765FB4FB1D4E9012138469047D3
:100D3000206A401C2062C01C206206E0206AFAE79C
:100D4000D4E9012115F8010B9047761EF8D2204610
:100D5000FFF764FBBDE8F0814E414E006E616E000E
:100D6000494E4600696E66002DE9F04781461646F9
:100D70008AB0354878440DC88DE80D003248784473
:100D8000801C03AC0DC884E80D0041F69B3008447C
:100D9000372190FBF1F290FBF1F5A5F1800501FB05
:100DA00012041B3C02D56442012000E00020DFF861
:100DB00098A080460027FA44AAF1BE0A0EE0E00798
:100DC0000AD03246684607EB470101230AEB81014E
:100DD00000F046FB8DE8070064107F1C002CEED16C
:100DE000194F7F44AE3F19E0E80715D007EB041018
:100DF0000DF1180A90E80E008AE80E00C068F04273
:100E000001D1981908903246012306A903A800F0E1
:100E100027FB03AB83E807006D10641C002DE3D1B2
:100E20004FF0010332466946B8F1000F03A802D023
:100E300000F001FB01E000F013FBC9E90001C9F873
:100E400008200AB0BDE8F08704830000004870471E
:100E5000CC0400207546FFF7F9FFAE460500694651
:100E6000534620F00700854618B020B5FFF722FA58
:100E7000BDE820404FF000064FF000074FF000089B
:100E80004FF0000B21F00701AC46ACE8C009ACE81C
:100E9000C009ACE8C009ACE8C0098D46704710B580
:100EA0000446AFF300802046BDE81040FFF7EDB9DF
:100EB0004FF0013C50F8042B51F8043B9A4221D1E9
:100EC000A2EB0C03934313EACC1317D150F8042B75
:100ED00051F8043B9A4215D1A2EB0C03934313EA59
:100EE000CC130BD150F8042B51F8043B9A4209D192
:100EF000A2EB0C03934313EACC13DBD04FF00000BA
:100F0000704700BFD01A01BAB1FA81F101F018019F
:100F100022FA01F0CB40C1F12001DBB2C0B2C01A0D
:100F20002CFA01F3D11A914311EAC311E6D17047AB
:100F300001491820ABBEFEE72600020070475FEAB9
:100F4000400C08BF91F0000F4FEA8C234FEAC122FA
:100F500043EA51514FEA1C5018BF00F5F0404FEAE8
:100F6000300018BF41F000415FEA6C5C00F029805E
:100F7000BCF1FF3F08BF40F080407047130C06BF34
:100F800012044FF0100C4FF0000C130E04BF1202AD
:100F90000CF1080C130F04BF12010CF1040C930F99
:100FA00004BF92000CF1020CD30F04BF52000CF1ED
:100FB000010C11464FF00002A0F11F00A0EB0C0045
:100FC000704711F0004F08BF704731F000413FF407
:100FD000D5AF0B0C06BF09044FF0100C4FF0000CFE
:100FE0000B0E04BF09020CF1080C0B0F04BF090122
:100FF0000CF1040C8B0F04BF89000CF1020CCB0F19
:1010000004BF49000CF1010CCCF12003A0EB0C0053
:1010100022FA03F302FA0CF241EA030100F10100A3
:10102000704720F07F4C80EA030023F07F47ACEB51
:10103000070303F57C5300F0004003F1FF032DE9A3
:1010400080494FEA154B09B44FEA144325EA0B4E89
:1010500024EA03480FF2042606EB132749083E78DA
:101060005FEA320203FB0667C7F5000707FB06F6D7
:101070004FEA54374FEAD64606F1020607FB066CE4
:10108000CCF1005C4FEA1C472CEA074C07FB06F446
:101090000CFB06F504EB15464FEA961634BF00200C
:1010A0004FF000404FEAD13706FB07FC4FEA1C4CDB
:1010B0000CFB0BF7D21B03FB0CF761EB07010CFBDE
:1010C0000EF7B0EB074072EB17420CFB08F734BF8A
:1010D000A2EB0742B2EB074261EB17414FEA0C4427
:1010E0004FEA910706FB07FC4FEA1C4C0CFB0BF781
:1010F000B0EBC74072EB573203FB0CF734BFA2EBE7
:10110000C742B2EBC74261EB57310CFB0EF7B0EBB5
:10111000C70072EB57720CFB08F734BFA2EBC70293
:10112000B2EBC70261EB5771039F4FEA816141EA5D
:10113000921104EBCC044FEAD1374FEA826206FBEE
:1011400007FC42EA90124FEA80604FEA1C4C0CFB0D
:101150000BF7D21B03FB0CF761EB07010CFB0EF73F
:10116000B0EB074072EB17420CFB08F734BFA2EB61
:101170000742B2EB074261EB17414FEA8C554FEA49
:10118000910704EB9C2406FB07FC4FEA1C4C0CFB6C
:101190000BF7B0EBC74072EB573203FB0CF734BFD1
:1011A000A2EBC742B2EBC74261EB57310CFB0EF723
:1011B000B0EBC70072EB57720CFB08F734BFA2EB21
:1011C000C702B2EBC70261EB577115EB4C254FEA32
:1011D000816141EA92114FEA82624FEAD13742EAD5
:1011E000901206FB07FC44F100044FEA80604FEACE
:1011F0001C4C0CFB0BF7D21B03FB0CF761EB07013C
:101200000CFB0EF7B0EB074072EB17420CFB08F734
:1012100034BFA2EB0742B2EB074261EB174115EB7B
:101220001C154FEA813141EA92414FEA823242EA8B
:1012300090424FEA80304FEA0C7644F1000448EACD
:1012400003434EEA0B484FF0000EB2EB080C71EB73
:10125000030724BF624639464EEB0E0E4FF0000BDB
:101260000018524149414BEB0B0BB2EB080C71EBF0
:1012700003077BF1000B24BF624639464EEB0E0E8E
:101280004FF0000B0018524149414BEB0B0BB2EBF6
:10129000080C71EB03077BF1000B24BF6246394653
:1012A0004EEB0E0E51EA020718BF46F0010616EB90
:1012B0000E7655F1000254F1000103D5BDE8890115
:1012C000BDE80088BDE88901BDE80048B619524173
:1012D00041EB0101A3F10103704780807F7E7D7C9B
:1012E0007B7A7978777676757473727171706F6EB8
:1012F0006E6D6C6C6B6A6A69686867666665646463
:10130000636362616160605F5F5E5E5D5D5C5C5BEC
:101310005B5A5A595958585757565655555554545B
:10132000535352525251515050504F4F4F4E4E4DB9
:101330004D4D4C4C4C4B4B4B4A4A4A494949484805
:101340004847474747464646454545444444444345
:1013500043434342424242414141002B9C4630D4E8
:1013600077002BD01CB54FEA370703B44FF01000BD
:101370004FF01001BAF1000F06D0BCF1000FDCBF36
:1013800040F0080040F008014FF000000FBCBDE83D
:1013900010400BF1010BBBF1010F08BF5FEA17070B
:1013A00022BF12F1010211F101014FF0004143F19E
:1013B000000300F0004043EA00007047F9D35708EB
:1013C000D0E746EA064613F1400F4FEA16461FDD06
:1013D00013F1200FDFBF16430A46002120335B4282
:1013E000BED0C3F1200746EA064602FA07F74FEAE5
:1013F000164646EA0706C3F1200722FA03F201FA6D
:1014000007F721FA03F14FF0000342EA0702A7E7CA
:1014100046EA020646EA06464FEA164646EA01064C
:10142000BCBF46EA0646360C4FF000034FF0000200
:101430004FF0000194E72DE9804C9A46934670B432
:1014400091E8380007C831EA400C48BF34EA430C41
:1014500003D5FFF7E6FDFFF780FFF0BCBDE8008C89
:101460002DE9804C9A46934670B491E8380007C83D
:1014700010F0804F08BF13F0804F03D100F005F843
:10148000FFF76BFFF0BCBDE8008C20F07F4780EADF
:10149000030023F07F4C07EB0C03A3F57C5300F013
:1014A0000040A3F1FE0392F0000F00F0B38095F02E
:1014B000000F00F077802DE901494FEA11404FEA13
:1014C000144621EA004800FB06FC24EA064708FB14
:1014D00006F607FB08F800FB07F718EB06484CEB8D
:1014E000164C4FEA124B18EB07484FEA15464CEBE7
:1014F000174022EA0B4E0BFB06FC25EA06470EFBC3
:1015000006F607FB0EFE0BFB07F71EEB064E4CEB39
:10151000164C4FF000061EEB074E4CEB174B18EB2A
:101520000B0840F1000018EB0E0B58EB000840F1DF
:1015300000008F1A4FF000013CBFC943661B14BF67
:10154000B5EB040C00213CBFC943F61B4FEA17441E
:101550004EEA8E0E27EA04454FEA1C4704FB076259
:101560002CEA074C05FB07F70CFB05F604FB0CFC0B
:1015700016EB074642EB174216EB0C4642EB1C42B9
:101580001BEB060658EB0202414146EA9E0601D5D6
:10159000BDE80189B619524141EB0101A3F10103F4
:1015A000BDE801894FEA14454FEA114724EA054690
:1015B00021EA074C05FB07F406FB07F70CFB06F1D5
:1015C00005FB0CFC11EB074144EB17444FEA1247B3
:1015D00011EB0C4144EB1C4422EA074C05FB07F2DB
:1015E00006FB07F70CFB06F605FB0CFC16EB0746A3
:1015F00042EB174216EB0C4642EB1C456A1854F1BD
:10160000000148BF7047B619524141EB0101A3F1F7
:101610000103704795F0000F37D04FEA11424FEAAF
:10162000144721EA024624EA074C02FB07F106FBB5
:1016300007F70CFB06F402FB0CFC14EB074441EB30
:1016400017414FEA154714EB0C4441EB1C4125EAC6
:10165000074C02FB07F506FB07F70CFB06F602FB3F
:101660000CFC16EB074645EB174516EB0C4645EB15
:101670001C42121951F1000148BF7047B61952417E
:1016800041EB0101A3F1010370474FEA14454FEA12
:10169000114724EA054621EA074C05FB07F106FB42
:1016A00007F70CFB06F24FF0000605FB0CFC12EBF3
:1016B000074241EB174112EB0C4251EB1C4148BF72
:1016C0007047921841EB0101A3F10103704710B577
:1016D000846AE16D11F0500F06D0E16DC90625D581
:1016E000204600F04BFC10BDE06D40F40070E0655A
:1016F00020680168090716D504F086F878B12068DB
:10170000C068800400280ADBE06D20F48070E0658A
:10171000E06DC00403D4E06D40F00100E0652046B8
:1017200000F02AFC10BDC0688007EBE7616D496BD3
:10173000BDE81040084710B5806AC16D41F0400116
:10174000C165016E41F00401016600F017FC10BD97
:1017500010B5806A00F011FC10BD000070B50446A1
:101760000068816811F0010F2DD18168174A11427C
:101770001AD18168D5432940491C816001F08CFA57
:1017800006461BE0816811F0010F03D181682940F2
:10179000491C816001F080FA801B02280ED9206864
:1017A0000068C043C00709D0E06D40F01000E0655C
:1017B000206E40F001002066012070BD20680168A5
:1017C000C943C907DED1002070BD00003F00008082
:1017D00030B5344800212DED048B83B00368324AC4
:1017E000D4681B1BB3F57A7F58D90068D0602F4AA4
:1017F000002000BF52F82030401CC0B219440A2813
:10180000F8D30A24B1FBF4F5284606F061F99FED00
:10181000288B53EC182B06F06FF99FED279B53ECA8
:10182000192B06F069F905F0C9FF06F063FACDE956
:1018300000012A4622A12748FEF7C6FD254960205F
:1018400003F0E0FD0021244A084600BF52F8203092
:10185000401CC0B219440A28F8D3B1FBF4F4204666
:1018600006F036F953EC182B06F046F953EC192B19
:1018700006F042F905F0A2FF06F03CFACDE90001BE
:10188000224616A11348FEF79FFD03B011497820A8
:10189000BDEC048BBDE8304003F0B4BD03B0BDEC3B
:1018A000048B30BD10000020180000207C040020B4
:1018B0006666666666660A40000000000000303F0B
:1018C000204144313D2534642C2020252E3366569A
:1018D0000000000024040020A40400202041443221
:1018E0003D2534642C2020252E3366560000000050
:1018F00010B50A210A48FEF7CAFE0A22084909481B
:1019000000F0E4FC06480A212830FEF7C0FE044936
:101910000A22BDE810402831034800F0D7BC00007F
:101920007C0400206C000020D8000020FEE70000AE
:10193000DFED080A0022114620EE200ADFED060A3C
:10194000064880EE201ABCEEC10A10EE103A00F0F4
:10195000ADBE000000008045333353400402002038
:1019600010B50948006806F0C5F941EC100B07A155
:1019700053EC102B0C48FEF727FDBDE810400A4938
:10198000C02003F03FBD000068000020204441312A
:101990003A252E3166563B4441323A547269616EA3
:1019A000676C65200000000024040020014800F05E
:1019B0002FBF000044010020014800F029BF0000B3
:1019C000A40100200D4902688A4201D20C4901E0BD
:1019D0000B492031D2B21423083AB2FBF3F2436C24
:1019E00002F01F0223F0030319448164044980318B
:1019F000C164012191400165704700000804024064
:101A0000000802400179074A02EB81024265054A5B
:101A10004432491E826501F01F0201219140C165D7
:101A200070470000FC08024030B5D0E913456560FE
:101A3000446D14B1D0E91645656090F8444004F057
:101A40001F050124AC40056C6C600468636083680A
:101A5000102B036803D099600068C26030BD9A60A3
:101A60000068C16030BD7047002240F6B83306E020
:101A70000021491C89B29942FBD3521C92B2824286
:101A8000F6D3704772B6FEE72DE9F047044690F8AA
:101A900058009CB00E464FF00009012815D00120D7
:101AA00084F8580000251795189520684FF0A04835
:101AB00040450ED1284F0097384603F0A1FE8246DC
:101AC000206803F09DFE60B10EE002201CB0BDE86E
:101AD000F087E06D40F02000E06584F85850012068
:101AE000F4E7BAF1000F09D0E06D40F02000E065A6
:101AF0004FF0010984F858504846E7E71748326824
:101B000040F61F71002A826822F4604216D094F8D1
:101B1000383042EA433273681A438260D8F80820AA
:101B2000BB6802F0010203F001031A43E2D1B3687B
:101B300032681A4383688B431A430BE08260D8F8FB
:101B40000820BB6802F0010203F001031A43D1D15F
:101B500082688A438260CDE7000100500003005094
:101B60002DE9F84F00270446009790F85800DFF859
:101B7000D8930D46B846012811D0012684F8586044
:101B8000206803F039FE60B1E06D40F02000E065B0
:101B90005FF0010784F858803846BDE8F88F0220CE
:101BA000FBE7D5E900210C23206803EA91131844D0
:101BB000036B01F01F014FF01F0C0CFA01FCC2F384
:101BC000846223EA0C038A4013430363206803F012
:101BD00013FE8246206803F00BFE5AEA00003CD157
:101BE000AA6829682068B2F1004F37D003F014FECC
:101BF0002068416921F00041416120686969C2683B
:101C0000C2F3C102520091402A69042A31D000EB8C
:101C100082002B68026EDFF834C303F0F84302EA57
:101C20000C020B431A4342F00041016620682A6906
:101C3000A96900EB8200026E22F080720A430266FC
:101C4000297F22682869012910D0002102EB800039
:101C5000026E22F000720A4302667DE0002203F069
:101C6000DBFD2068416941F00041C5E74FF000719C
:101C7000ECE7002103F0B6FD400320684FF00001BF
:101C800072D003F0AFFD90FAA0F0B0FA80F12868AE
:101C900042036ED090FAA0F0B0FA80F0814204D1F5
:101CA00000221146206803F0C6FD0121206803F0E0
:101CB00099FD400320684FF001015DD003F092FDD3
:101CC00090FAA0F0B0FA80F12868420359D090FA57
:101CD000A0F0B0FA80F0814204D1002201212068F6
:101CE00003F0A9FD0221206803F07CFD4003206879
:101CF0004FF0020148D003F075FD90FAA0F0B0FA61
:101D000080F12868420344D090FAA0F0B0FA80F045
:101D1000814204D100220221206803F08CFD0321BE
:101D2000206803F05FFD400320684FF0030133D0CB
:101D300003F058FD90FAA0F0B0FA80F12868420351
:101D40002FD090FAA0F0B0FA80F0814204D10022A6
:101D50000321206803F06FFD2068816811F0010FF6
:101D600022D0A8E000E004E003F03CFDC0F3846171
:101D70008DE7C0F3846091E703F034FDC0F3846124
:101D8000A2E7C0F38460A6E703F02CFDC0F38461F2
:101D9000B7E7C0F38460BBE703F024FDC0F38461C0
:101DA000CCE7C0F38460D0E7EB6829684B4550F876
:101DB000B03FC1F3120101D10B4300E08B4303603C
:101DC000E868484577D1286841031CD090FAA0F113
:101DD000B1FA81F1491C01F01F0109294FEA403194
:101DE00032D8002912D000BF90FAA0F1B1FA81F1E7
:101DF00001F1010101F01F0106FA01F609D100BF4E
:101E0000C0F3846109E0C0F38461E3E7C0F3846157
:101E1000EEE790FAA0F1B1FA81F101F1010101F0D0
:101E20001F0146EA816102D1C0F3846003E090FAA9
:101E3000A0F0B0FA80F000F1010000F01F0000EB0C
:101E4000400041EA005132E000290ED090FAA0F1A2
:101E5000B1FA81F101F1010101F01F0106FA01F669
:101E600006D100BFC0F3846106E0C0F38461F1E7EE
:101E700090FAA0F1B1FA81F101F1010101F01F0125
:101E800046EA816102D1C0F3846003E090FAA0F0D9
:101E9000B0FA80F000F1010000F01F002C4A00EBC6
:101EA000400002EB005041EA000141F00071AA68D5
:101EB000206803F0B1FC27482A6802423FF46AAE6A
:101EC00025488168254B01F0E0719A4202D0244BED
:101ED0009A421CD10B021AD42268B2F1A04F7FF4AF
:101EE00059AE826841F4000122F0E0720A43826038
:101EF0001C481D490068B0FBF1F0401C00EB40009D
:101F0000800000E0401E00900028FBD142E6174D03
:101F1000174BAA4207D1CD0105D422689A42F5D0C9
:101F200041F0807109E0134DAA42EFD14A02EDD48D
:101F300022689A42EAD041F48001826822F0E0727D
:101F40000A43826026E6000000007F4000F0FF03A5
:101F5000000020FE0000088000030050000021C3A4
:101F60001000C09014000020400D0300000052C774
:101F700000010050000084CB70477047704700009C
:101F8000F8B54FF0000504002E46009502D0E06D34
:101F900010B107E00120F8BD204600F0EFF82666FA
:101FA00084F8586020688168C1F3407119B1816874
:101FB0006A4A1140816020688168C1F3007189B963
:101FC0008168674A114041F08051816065486649E7
:101FD0000068B0FBF1F04000801C00E0401E009063
:101FE0000028FBD120688168C1F3007141B9E16D1F
:101FF00041F01001E165216E41F0010121660125EA
:1020000003F0FAFBE16DC90600D430B1E06D40F099
:102010001000E06501252846F8BDE06D20F48070D1
:1020200040F00200E0652068806810F0010F11D1D7
:102030004FF0A04080684D4900F00100896801F030
:102040000101084306D14A486168826822F47C1283
:102050000A438260E168E06B627F0843A16841EA5D
:102060004231084394F8241040EA0140012904D188
:10207000218D404A02EB41410843E16A29B101F454
:102080007871226B014342EA01002168CA683A4B29
:102090001A400243CA6020680169626B21F0406106
:1020A00011430161206803F0A7FB0646206803F096
:1020B0009FFB30432ED1207F94F83810800340EAF4
:1020C00041022068C16844F2020399431143C16090
:1020D00020690028206801690AD041F4803101613B
:1020E000206850F8C01F22696FF30D01114307E00B
:1020F00021F480310161206850F8C01F6FF30D0199
:10210000016094F8400001280CD02068016921F09A
:1021100001010161606901282068016B21F00F0154
:1021200011D013E0D4E911010843D4E9131211438B
:10213000084321680A6940F2FC739A43104340F057
:1021400001000861E6E7226A521E11430163E06D57
:1021500020F0020040F00100E0655CE7C0FFFF5F97
:10216000C0FFFF7F14000020400D0300000100505D
:10217000000300500000FEFF0740F0FF2DE9F04F84
:1021800097B00646142111A8FEF781FA442168464B
:10219000FEF77DFA4FF0005231680025454F90134D
:1021A000454C4FF003094FF0800A4FF4007BB1F12A
:1021B000A04F11D0414B994247D10F9280460090D9
:1021C000684600F06DFE08B1FFF75CFC3868401C03
:1021D000386001283CD043E00F920090684600F040
:1021E0005FFE08B1FFF74EFC3868401C38600128DC
:1021F00007D1E06C40F40050E064E06C00F4005063
:102200001690E06C40F00200E064E06C139500F082
:10221000020016904FF48050CDE9110911A9284809
:1022200000F00CFC284C274820600520C4E901057B
:102230004FF40060C4E905B0C4E9035A2020C4E9A2
:10224000070520462EE07465A66217B0BDE8F08F42
:10225000E06C40F40050E064E06C00F40050169034
:10226000E06C40F00200E064E06CCDF8448000F0E7
:102270000200CDE91295169011A9114800F0DEFB7D
:10228000114C10486034143020602420C4E901054A
:102290004FF40060C4E905B0C4E9035A2020C4E942
:1022A0000705204600F012FB0028CCD0FFF7EAFB20
:1022B000C9E70000000000200010024000010050AB
:1022C0000004004808000240440100202DE9F041CC
:1022D0000446344817468846806800F01F05206889
:1022E00003F08AFA00285AD194F85800012856D0F1
:1022F000012084F85800002625B1052D02D0092DB3
:1023000000D003E02046FFF729FA18B184F858609E
:10231000BDE8F081E06D40F60161884340F48070D3
:10232000E06521492068884202D14FF0A04100E0D9
:102330000146814200D01DB9E06D20F48010E065B7
:10234000E06DC00404D5206E20F00600206600E099
:102350002666616D1548C862616D15480863616D38
:102360001448486321681C20086084F8586020687D
:10237000416841F0100141602068C16841F00101ED
:10238000C16021683B4642464031606D00F0FEFA74
:1023900021688A68084B1A40121D8A60B8E702203B
:1023A000B6E700000003005000010050CF160008FF
:1023B0005117000837170008C0FFFF7F704770B53E
:1023C0004379012B15D00124447102230371036862
:1023D0001D6801F010014FF47C668E4042F08002CF
:1023E000B5438A4015431D600471002141710846C0
:1023F00070BD022070BD00002DE9F0470446407911
:1024000090460D4601280BD04FF0010984F8059045
:1024100002202071A96808F01006042903D045E0C5
:102420000220BDE8F08700F037FC07465FEA0800AD
:102430004FF0030805D01CE000F02EFCC01B012863
:102440000FD82068406B0004F6D4012000F0E4FAB5
:102450002168686A086416E000F01EFCC01B0128B1
:1024600007D9206940F00800206184F80480032027
:10247000D7E72068406B0028EEDB012000F0CCFAA3
:102480002168686A48642068816C40F2FF32B2407B
:102490009143AA6AB240114381642068C16CFF2253
:1024A000B2409143EA6AB2401143C164E86901282D
:1024B00008D12268916B1F20B0408143286AB04048
:1024C000084390632068C06B0721B1408843A96925
:1024D000012903D0022955D06969E9B300216B694C
:1024E000AA681A430A434FF4807101FA06F398432D
:1024F0002B79012B00D0002111434FF4007202FA16
:1025000006F398436B79012B00D0002220F440475A
:10251000286842EA0108022836D00743216808FAF1
:1025200006F03843C863206801684FF48042B24027
:10253000914301602268116840F6FE70B04081430B
:10254000E868B0400843106020680168C022B240CB
:1025500091430160287B00E014E0297C2268C0F3ED
:10256000830001F03C0140EA8110116E40F60F73C8
:10257000B3409943B0400143116684F804900020B1
:1025800060714EE70121AAE700F0BCFE05498842D0
:1025900002D947F40047C1E703498842BED947F44E
:1025A0008047BBE70068890900B4C404704770B570
:1025B0000446006801684FF00405890411D5416B99
:1025C00089040ED52571216941F001012161E902DB
:1025D00041632068016821F4805101602046FFF7C3
:1025E000E5FF20680168890014D5416B890011D589
:1025F0002571216941F0020121614FF000514163D1
:102600002068016821F0805101602046BDE87040DB
:10261000FFF7D4BE70BD70B5040003D0207900254B
:1026200010B105E0012070BD6571204600F008F88A
:1026300002202071256101202071002070BD000062
:1026400010B586B0044614216846FEF720F81549F7
:102650002068884223D11448C16C41F48031C164A0
:10266000C16C01F480310591C16C41F00101C1647C
:10267000C06C694600F001000590302000900320F6
:102680000190002002904FF0904000F0D7F9002216
:102690000321362000F06CFB362000F05BFB06B017
:1026A00010BD0000000800500010024018B500687E
:1026B000C46B0090104421B11430009003600020DE
:1026C00018BD0830F9E72DE9F041044640790D4680
:1026D000012822D04FF0010884F8058002262671D7
:1026E00021680A6805F0100708FA07F002430A603B
:1026F000404600F091F92068016885B101F4781135
:10270000BE40B14203D1416841F00201416084F80A
:10271000048000206071BDE8F0810220FBE7C1F376
:1027200044010129F3D1416841F00101EEE710B500
:1027300090F8253000210122022B03D00421C1632F
:10274000012122E003681C6824F00E041C60836CE5
:102750001C6824F480741C6003681C6824F0010465
:102760001C6090F84430046C03F01F0302FA03F37A
:102770006360D0E913345C60436D33B11C6824F4AA
:1027800080741C60D0E916345C6080F8252000223B
:1027900080F82420084610BD70B590F8252000244C
:1027A00001212346022A07D00422C26380F82510A3
:1027B00080F82430012429E00268156825F00E0510
:1027C00015600268156825F001051560826C1568B2
:1027D00025F48075156090F84420056C02F01F0206
:1027E00001FA02F26A60D0E913255560426D32B1F8
:1027F000156825F480751560D0E91625556080F8B8
:10280000251080F82430816B01B18847204670BDC7
:10281000F0B4016C0C6801680D6890F8442002F077
:102820001F06042202FA06F3234211D06B070FD5CC
:102830000B689B0603D40B6823F004030B6090F82D
:10284000441001F01F018A40016C4A60016B1DE0D9
:10285000022303FA06F727424FF0000C4FF0010263
:1028600018D0AF0716D50C68A40605D40C6824F060
:102870000A040C6080F8252090F8441001F01F0134
:102880008B40016C4B6080F824C0C16A00291AD0CB
:10289000F0BC08470823B340234214D02B0712D5BD
:1028A0000B6823F00E030B6090F84410036C01F0EA
:1028B0001F0102FA01F15960C26380F8252080F8F7
:1028C00024C0416BE2E7F0BC7047000070B5040023
:1028D0000CD02B4A21681420914209D2294A0A447B
:1028E000B2FBF0F08000606427480AE0012070BD70
:1028F000234A52420A44B2FBF0F080006064204850
:1029000008382064022084F825000A6847F6F07031
:102910008243D4E902031843D4E904352B43184316
:10292000A3691843E3691843236A184310430860F6
:102930002046FFF747F8A0680025B0F5804F00D18A
:102940006560A16C20790860D4E91301416060687A
:10295000401E032808D82046FFF754F8606D056034
:10296000D4E91601416002E06565A565E565E563AA
:10297000012084F8250084F82450002070BD000058
:1029800008040240F8FFFDBF0000024070B5044695
:1029900090F82400002501280CD0012084F82400A0
:1029A00094F825600020012E06D084F8240002252A
:1029B000284670BD022070BD022684F82560E063C1
:1029C0002068066826F0010606602046FFF72CF80E
:1029D000206B00282068016802D041F00E0106E05B
:1029E00021F0040101602068016841F00A010160E2
:1029F000A06C0168C90303D5016841F480710160CE
:102A0000606D18B1016841F480710160206801684F
:102A100041F001010160CBE770B5044600F03CF9DC
:102A20000546601C02D004484068044400F034F9B4
:102A3000401BA042FAD370BD080000202DE9F04FE2
:102A4000DFF82092002301260324A9F1040B85B0AE
:102A50000F2709F1040AABF1040EFAE006FA03F5B8
:102A60002A407CD091F804C00CF0030CBCF1010F9B
:102A700002D0BCF1020F26D1D0F808C0CDF800C0BA
:102A80004FEA430C04FA0CF8CDF810C0DDF800C092
:102A90002CEA080CCDF800C0D1F80C80DDF810C08D
:102AA00008FA0CF8DDF800C048EA0C08C0F8088005
:102AB000D0F804C02CEA050C0D79C5F300159D4033
:102AC00045EA0C0545600D79ED43AD070ED0C568AC
:102AD0004FEA430804FA08FC25EA0C05D1F808C0BF
:102AE0000CFA08FC4CEA050CC0F80CC00D7905F096
:102AF0000305022D16D1DD0800EB850CCDF808C0CA
:102B0000DCF820805D074FEAD56C07FA0CF528EA5F
:102B100005080D6905FA0CF5DDF808C045EA080559
:102B2000CCF8205005684FEA430CCDF808C004FAF1
:102B30000CFC25EA0C0591F804C00CF00308DDF844
:102B400008C008FA0CF848EA0508C0F800804D688B
:102B500015F4403F7CD0444DD5F860C000E077E0EC
:102B60004CF0010CC5F860C02D6E23F0030C05F08D
:102B7000010500953D4D65440295AD684FEA837CA3
:102B80004FEA1C7807FA08FC25EA0C05B0F1904FD3
:102B900006D0DFF8DCC0604505D14FF0010C20E025
:102BA0004FF0000C1DE0DFF8CCC0604502D14FF0C3
:102BB000020C16E0DFF8C0C0604502D14FF0030CF4
:102BC0000FE0DFF8B8C0604502D14FF0040C08E018
:102BD000DFF8ACC0604502D14FF0050C01E04FF0CA
:102BE000060C0CFA08FC4CEA050C029DC5F808C05E
:102BF000D9F80050CC46D1F8048095435FEAC82844
:102C000000D51543CCF80050DAF80050D446D1F87E
:102C1000048095435FEA882800D51543CCF800501E
:102C2000DBF80050DC46D1F8048095435FEA883831
:102C300000D51543CCF80050DEF80050F446D1F82A
:102C4000048095435FEAC83800D51543CCF800509E
:102C50005B1C0A6832FA03F57FF400AF05B0BDE8EB
:102C6000F08F000008040140001002400000014005
:102C70000004004800080048000C0048001000480C
:102C8000001400480069084000D0012070470AB1D4
:102C90008161704781627047014880687047000019
:102CA000080000200148406870470000080000202C
:102CB0000248816842681144816070470800002022
:102CC00010B50024032000F073F80F2000F008F87E
:102CD00008B1012401E000F025F8204610BD0000F5
:102CE00070B50E4E05460024706898B14FF47A71A5
:102CF000B1FBF0F00A490968B1FBF0F000F06AFDA1
:102D000040B9102D06D200222946501E00F030F89E
:102D1000356000E00124204670BD0000080000205E
:102D2000140000200A4882B0016E41F001010166E2
:102D3000016E01F001010091816D41F080518165CA
:102D4000806D00F08050009002B000F0A1B800004B
:102D500000100240002809DB00F01F020121914011
:102D60004009800000F1E020C0F800117047000029
:102D7000F0B40E4B1B680C46C3F30223C3F10705E6
:102D8000042D00D90425191D072901D2002300E0D4
:102D9000DB1E012606FA05F1491E214099409E409E
:102DA000761E16403143F0BC04F0E1BB0CED00E0B0
:102DB000064900F0070208684FF6FF03184040EA92
:102DC0000220034A10430860704700000CED00E049
:102DD0000000FA052B492C4B0A6832214A432B4943
:102DE00040B1B0F5007F086829D020F4C06040F4FD
:102DF00080602CE00868C0F34120022804D051F81C
:102E0000800F20F4807022E0D1F8800020F48070E0
:102E1000C1F88000086820F4C06040F400700860C9
:102E2000B2FBF3F0401C00E0401E4A69520501D598
:102E30000028F9D1486940050AD503207047C0F33E
:102E40004120022806D051F8800F40F480700860BD
:102E500000207047D1F8800040F48070C1F88000F5
:102E6000086820F4C06040F400700860B2FBF3F022
:102E7000401C00E0401E4A695205DBD50028F9D10C
:102E8000D8E700001400002040420F00007000400E
:102E90000248816841F480418160704700700040C1
:102EA0002DE9F8430446006800269D4D00035ED5D9
:102EB000A86D0027C00008D4A86D40F08050A86518
:102EC000A86D012700F080500090DFF85892D9F8E3
:102ED000001041F48071C9F80010FFF7DDFE804654
:102EE00006E000BFFFF7D8FEA0EB080002282BD8B1
:102EF000D9F80000C005F5D5D5F8900010F4407061
:102F000014D0216C814211D0D5F89000D5F89010E2
:102F100020F4407041F48031C5F89010D5F890103D
:102F200021F48031C5F89010C5F89000C00711D089
:102F3000FFF7B2FE804641F2883907E0FFF7ACFEAA
:102F4000A0EB0801494501D903260BE0D5F8900014
:102F50008007F3D5D5F89000216C20F44070084329
:102F6000C5F890001FB1A86D20F08050A8652078AA
:102F7000C00707D0D5F88800616820F00300084337
:102F8000C5F888002078800707D5D5F88800A168A3
:102F900020F00C000843C5F888002078400707D5CA
:102FA000D5F88800E16820F030000843C5F88800B3
:102FB0002078000707D5D5F88800216920F0C000E7
:102FC0000843C5F888002078800607D5D5F8880022
:102FD000616920F440600843C5F888002078400605
:102FE00007D5D5F88800A16920F440500843C5F8FA
:102FF00088002078000607D5D5F88800E16920F41C
:1030000040400843C5F888002088C00507D5D5F89A
:103010008800216A20F440300843C5F888002088E1
:10302000800507D5D5F88800616A20F44020084360
:10303000C5F88800208840050FD5D5F88800A16A1A
:1030400020F440100843C5F88800A06AB0F5801F3E
:1030500003D1E86840F48010E860208800050FD5AF
:10306000D5F88800E16A20F440000843C5F88800DC
:10307000E06AB0F5800F03D1E86840F48010E860A2
:103080002088C0040FD5D5F88800216B20F040704F
:103090000843C5F88800206BB0F1807F03D1E86851
:1030A00040F48010E86020884FF0006180040ED565
:1030B000D5F88800626B20F040601043C5F88800A6
:1030C000606B884203D1E86840F48010E860208893
:1030D00040040ED5D5F88800A26B20F04060104364
:1030E000C5F88800A06B884203D1E86840F48010DE
:1030F000E860208800040FD5D5F88800E16B20F047
:1031000040500843C5F88800E06BB0F1805F03D100
:10311000E86840F48030E8603046BDE8F88300009D
:1031200000100240007000402DE9F0470E460500F7
:103130004FF0000725D0DFF8AC81D8F8000000F090
:103140000F00B0420CD2D8F8001021F00F0131432B
:10315000C8F80010D8F8000000F00F00B04210D1FD
:103160002968614CC80741F2883A5AD06868DFF88C
:103170007C91032808D0022820682DD04005002823
:103180002CDB0120BDE8F08720688001F9D5E068DC
:1031900000F00302E068C0F30310401C032A19D0BA
:1031A000534A00BFB2FBF0F0E268C2F3062250437C
:1031B000E268C2F34162521C5200B0FBF2F0484593
:1031C00017D9A06810F0F00F0CD0880711D5A868A7
:1031D00040B10EE0474AE5E78003D0E700F0BCF8D5
:1031E000484506D9A06820F0F00040F08000A060BB
:1031F0008027A068696820F003000843A060FFF7FB
:103200004BFD814606E000BFFFF746FDA0EB09013C
:1032100051453AD8A068696800F00C00B0EB810F06
:10322000F2D12868810714D5400703D5A06840F47F
:10323000E060A0602878000705D5A06820F4605001
:1032400040F4E060A060A068A96820F0F0000843A6
:1032500004E0802F03D1A06820F0F000A060D8F82F
:103260000010404601F00F01B14216D9016821F06B
:103270000F0131430160FFF70FFD074607E000BF74
:10328000FFF70AFDC11B514501D903207AE7D8F8A1
:10329000000000F00F00B042F2D12878400705D5B9
:1032A000A068E96820F4E0600843A060287800077F
:1032B00006D5A068296920F4605040EAC100A060EA
:1032C00000F04AF8A1680C4AC1F30311515C01F007
:1032D0001F01C8400949086009480068BDE8F04777
:1032E000FFF7FEBC002002400010024000B4C404FE
:1032F0000024F40000366E01167E00081400002041
:1033000008000020014800687047000014000020F9
:103310000548064900688968054AC1F30221515CE5
:1033200001F01F01C8407047140000200010024047
:10333000267E00080548064900688968054AC1F3E9
:10334000C221515C01F01F01C840704714000020E9
:1033500000100240267E0008184910B58868C0F3A6
:1033600081021748012A0BD08A68164BC2F38102EA
:10337000022A06D08A68C2F38102032A03D0002001
:1033800010BD184610BDCA6802F00304CA68C2F333
:103390000312521C032C02D0B0FBF2F001E0B3FB8D
:1033A000F2F0CA68C968C2F306225043C1F3416112
:1033B000491C4900B0FBF1F010BD000000100240B4
:1033C0000024F40000366E012DE9F84304007AD0A1
:1033D0002078FA4DC00747D0A868E96800F00C00D3
:1033E00001F003010C2802D0082817D001E00329BE
:1033F00014D06068B0F5803F17D0B0F5A02F2868D2
:1034000017D020F480302860286820F480202860BD
:103410006068E0B1FFF740FC064614E028688003CE
:1034200022D560680028D2D01EE0286840F48030A1
:10343000EDE740F480202860F7E700BFFFF72CFCA1
:10344000801B642870D828688003F7D50CE0FFF74C
:1034500023FC064605E000BFFFF71EFC801B642826
:10346000F0D828688003F7D4207880074CD5A86866
:10347000E96800F00C0001F003010C2802D00428D8
:103480000DD001E002290AD0E068002828682BD07E
:1034900040F480702860FFF7FFFB064619E02868BB
:1034A000400502D5E068002891D06868217C20F0B2
:1034B000FE4040EA01606860C1480068FFF710FC08
:1034C000002800D120E076E1FFF7E6FB801B022810
:1034D000B8D828684005F7D56868217C20F0FE4000
:1034E00040EA016068600FE020F480702860FFF718
:1034F000D3FB064605E000BFFFF7CEFB801B02288A
:10350000A0D828684005F7D42078000729D560693D
:103510000028D5F8940013D040F00100C5F89400BD
:10352000FFF7BAFB064606E090E000BFFFF7B4FBEA
:10353000801B022886D8D5F894008007F6D510E0C5
:1035400020F00100C5F89400FFF7A6FB064604E052
:10355000FFF7A2FB801B022878D8D5F894008007DB
:10356000F6D42078400761D5A86D0026C00008D4A5
:10357000A86D40F08050A865A86D012600F080502D
:10358000009090480168C90511D40168804641F453
:1035900080710160FFF780FB074604E0FFF77CFBCA
:1035A000C01B022852D8D8F80000C005F6D5A06884
:1035B000012815D00528D5F8900016D020F001007C
:1035C000C5F89000D5F8900020F00400C5F89000F0
:1035D000A06841F28838B8B1FFF75EFB07460EE0FD
:1035E000D5F8900040F00100F0E740F00400C5F885
:1035F0009000F5E7FFF750FBC11B414526D8D5F8F1
:1036000090008007F6D50CE0FFF746FB074604E084
:10361000FFF742FBC11B414518D8D5F89000800741
:10362000F6D41EB1A86D20F08050A86520788006E1
:1036300029D5A0690028D5F8980013D040F00100E2
:10364000C5F89800FFF728FB064606E077E000BFC4
:10365000FFF722FB801B022877D8D5F89800800757
:10366000F6D510E020F00100C5F89800FFF714FB34
:10367000064604E0FFF710FB801B022865D8D5F84A
:1036800098008007F6D4E069F0B3A968C1F381011E
:10369000032961D00228286820F0807028600BD0B0
:1036A000E86820F00300E860E86847490840E860FF
:1036B000FFF7F2FA04464BE0FFF7EEFA064604E0A5
:1036C000FFF7EAFA801B02283FD828688001F7D468
:1036D000F4E908016FF00F0202EB01110843218A9F
:1036E0005204490802EB4151A26841EA0221084311
:1036F000217D4FF07E42490802EB41610843217B66
:1037000040EAC160E96800E062E0304A11400843E5
:10371000E860286840F080702860E86840F08070B9
:10372000E860FFF7B9FA044605E000BFFFF7B4FA16
:10373000001B022809D828688001F7D548E004E07A
:10374000FFF7AAFA001B022802D90320BDE8F8837C
:1037500028688001F4D43BE00128F7D0E868226AA9
:1037600000F00301914226D1616A00F0F0020901E4
:10377000103991421FD1A26A00F4FE41B1EB022F31
:1037800019D194F82C2000F07841B1EBC26F12D11E
:10379000218E00F4C00249084905A1F500119142AB
:1037A00009D194F8341000F0C06049084906A1F12D
:1037B000007181420CD00120C8E7000000100240D7
:1037C0000800002000700040FFFFEEFE0C809F010B
:1037D0000020BBE710B5401EB0F1807F01D301206F
:1037E00010BD4FF0E02460610F21601703F0BFFEB1
:1037F0000020A06107202061002010BD70477047A5
:1038000070470000F0B590F83C20012A4AD0012210
:1038100080F83C20CA688B6822F440721A434B68D7
:1038200022F480621A430B6822F400621A430B6987
:1038300022F480521A434B6922F400521A430B6B54
:1038400022F480421A430B8B22F4702242EA034294
:10385000154C03680026154DA34201D0AB4203D19D
:10386000CF6922F080523A43A34201D0AB4214D137
:103870000F8D22F4700242EA07520F6A22F0807222
:103880003A434F6A22F000723A43A34201D0AB425E
:1038900003D1C96A22F000520A435A6480F83C609E
:1038A0000020F0BD0220F0BD002C0140003401409A
:1038B0007047704770470000F0B590F83C20012A2F
:1038C0003AD0012580F83C50022280F83D20036860
:1038D0005A689C68194E1A4FB34201D0BB4204D1BA
:1038E00022F4700C4A6842EA0C02DFF858C002EA7F
:1038F0000C02D1F800C04CEA020CC3F804C0026804
:10390000B2420DD0B2F1804F0AD00F4B9A4207D08D
:103910000E4B9A4204D0BA4202D00D4B9A4204D1C7
:10392000896824F080031943916080F83D5000219C
:1039300080F83C100846F0BD0220F0BD002C01408C
:10394000003401408FFFFFFD0004004000080040EC
:1039500000400140704710B5040003D094F83D00CA
:1039600010B107E0012010BD002084F83C00204683
:1039700000F022F8022084F83D00211D206802F0AA
:1039800081FD012084F8480084F83E0084F83F005F
:1039900084F8400084F8410084F8420084F8430031
:1039A00084F8440084F8450084F8460084F8470011
:1039B00084F83D00002010BD10B586B004461421E7
:1039C0006846FCF764FE2168002240480223B1F1FA
:1039D000804F27D03E4CA14248D1816D41F0020179
:1039E0008165816D01F002010591C16C41F0020118
:1039F000C164C06C694600F0020005901020009080
:103A0000CDE901323348CDE90323FFF717F800224F
:103A100002211D20FFF7ACF95FF01D00FFF79AF9B6
:103A200006B010BD816D41F001018165816D01F02D
:103A300001010591C16C41F00101C164C06C69468E
:103A400000F0010005904FF400400090CDE90132F4
:103A50000120CDE903204FF09040FEF7EFFF002258
:103A600002211C20FFF784F91C20D7E71A4A914253
:103A70000ED1816D41F004018165806D002200F05E
:103A80000400059002211E20FFF772F91E20C5E7F1
:103A9000124A91420ED1816D41F010018165806D15
:103AA000002200F01000059003213620FFF760F996
:103AB0003620B3E70A4A9142B2D1016E41F4803117
:103AC0000166006E00F480300590A9E70010024006
:103AD00000040040000400480008004000100040BE
:103AE0000040014090F83D10012901D001207047AD
:103AF000022180F83D1000680F4988420ED0B0F1D5
:103B0000804F0BD00D49884208D00D49884205D01E
:103B10000C49884202D00C49884207D181680B4A7F
:103B20001140062906D0B1F5803F03D0016841F06D
:103B30000101016000207047002C0140000400409A
:103B4000000800400034014000400140070001002F
:103B500090F83D10012901D001207047022180F822
:103B60003D100168CA6842F00102CA60006810494D
:103B700088420ED0B0F1804F0BD00E49884208D059
:103B80000D49884205D00D49884202D00C4988422F
:103B900007D181680B4A1140062906D0B1F5803F54
:103BA00003D0016841F0010101600020704700006E
:103BB000002C014000040040000800400034014097
:103BC000004001400700010070B5044690F83C0039
:103BD0000025012814D0012684F83C60022084F8D6
:103BE0003D0022689068364B184020F47F4090607A
:103BF000086870282ED010DC10F00F0F03D021E0E1
:103C00004FF0020070BD4FEA2012072A1AD2DFE8F7
:103C100002F0525252524A3840002A4BC21A98427D
:103C200049D009DCB0F5805F0DD0B0F5005F1CD045
:103C3000B0F1101F06D13EE0102A3CD0202A3AD025
:103C4000502A38D0012584F83D60002084F83C00DB
:103C5000284670BDCB68D1E90121206802F077FCCD
:103C60002068816841F0770109E0CB68D1E9012142
:103C7000206802F06CFC2068816841F4804181601A
:103C8000E1E7CA684968206802F074FE50212068A4
:103C900006E0CA684968206802F0B4FE6021206826
:103CA00002F060FCCFE7CA684968206802F062FE53
:103CB00040212068F4E7226801461046F0E7000042
:103CC00088FFCEFF2000100070B505462DED088B53
:103CD00000689FED3FBA9FED3F8B9FED409B9FEDAE
:103CE00041AB424CB0F1804F35D1287F012805D13E
:103CF00000213F4800F0A6FD401CA062287F02285A
:103D000029D104213A4800F09DFD401C00EE100A24
:103D1000E062A06AF8EE400A00EE100AB8EE401A1F
:103D200080EE810A20EE0B0A84ED010A03F0D0FE3A
:103D300053EC182B03F0E0FE53EC192B03F0DCFEE0
:103D400041EC100B51EC1A0B53EC102B03F068FDF7
:103D500003F034FDE06027492868884235D1287F88
:103D6000012805D10021244800F06CFD401C206290
:103D7000287F022829D104211F4800F063FD401C40
:103D800000EE100A6062206AF8EE400A00EE100AA7
:103D9000B8EE401A80EE810A20EE0B0A84ED000A8C
:103DA00003F096FE53EC182B03F0A6FE53EC192BF0
:103DB00003F0A2FE41EC100B51EC1A0B53EC102B4C
:103DC00003F02EFD03F0FAFCA060BDEC088B70BD83
:103DD0000000C8428DEDB5A0F7C6B03E000000005F
:103DE00000408F40000000000000F03F380000203D
:103DF0001802002000040040640200202DE9F04178
:103E0000054690F83C0000260C46012810D0012001
:103E100085F83C0072B1042A1CD0082A2CD00C2A48
:103E200050D00126002085F83C003046BDE8F081E6
:103E30000220FBE7D4E90012E368286802F0ACFD39
:103E40002868816921F00C01816128688169A26874
:103E500011430FE0D4E90012E368286802F0E4FDA2
:103E60002868816921F44061816128688169A268BC
:103E700041EA02218161D5E72868D4E9002C277B3B
:103E8000016A21F480710162C169036A21F00301B2
:103E900041EA0C0121F0F00C39074FF420674CEA9D
:103EA000116123F4206307EA02221A43C16102620E
:103EB0002868C16921F00C01C1612868C169A26844
:103EC000114328E02868D4E90027E168036A23F455
:103ED00080530362D0F81CC0036A2CF4407C4CEA87
:103EE00007274FF6FF7C27F470470CEA013139436E
:103EF0004FF4204723F4204307EA02321A43C161FA
:103F000002622868C16921F44061C1612868C16901
:103F1000A26841EA0221C16184E710B5040003D020
:103F200094F83D0010B107E0012010BD002084F896
:103F30003C00204600F022F8022084F83D00211DBC
:103F4000206802F09FFA012084F8480084F83E00BF
:103F500084F83F0084F8400084F8410084F842006F
:103F600084F8430084F8440084F8450084F846004F
:103F700084F8470084F83D00002010BD7047000021
:103F800030B50446002571B1042911D0082914D098
:103F90000C2917D0102918D094F8430094F8472022
:103FA000012817D114E094F83E0094F84420F7E774
:103FB00094F83F0094F84520F2E794F8400094F814
:103FC0004620EDE794F84100E8E794F84200E5E781
:103FD000012A01D0012030BD022079B1042916D078
:103FE00008291DD00C2949D010294AD084F8430053
:103FF00084F847000C2947D001253DE084F83E00B5
:1040000084F844002068C26842F0020210E084F89C
:104010003F0084F845002068C26842F0040207E0CF
:1040200084F8400084F846002068C26842F0080224
:10403000C2600122206802F07DFA16492068884299
:104040000ED0B0F1804F0BD01349884208D01349ED
:10405000884205D01249884202D01249884207D1CD
:104060008168114A1140062906D0B1F5803F03D07E
:10407000016841F001010160284630BD84F841002B
:10408000B6E784F84200B3E72068C26842F0100245
:10409000CEE70000002C0140000400400008004072
:1040A00000340140004001400700010070B50446A3
:1040B000006801694FF00005C943890715D4C1683C
:1040C000C943890711D4E91E0161012020772068C6
:1040D00080698007204602D0FFF7F6FD04E000F07B
:1040E00057F9204600F01CFB257720680169C94379
:1040F000490717D4C168C943490713D46FF00401B5
:104100000161022020772068806910F4407F2046FA
:1041100002D0FFF7D9FD04E000F03AF9204600F0A4
:10412000FFFA257720680169C943090716D4C168D9
:10413000C943090712D46FF00801016104202077F8
:104140002068C0698007204602D0FFF7BDFD04E06B
:1041500000F01EF9204600F0E3FA25772068016997
:10416000C943C90617D4C168C943C90613D46FF03F
:1041700010010161082020772068C06910F4407F99
:10418000204602D0FFF7A0FD04E000F001F9204630
:1041900000F0C6FA257720680169C943C90708D12C
:1041A000C168C943C90704D1891E0161204600F0D6
:1041B00037FB20680169C943090609D4C168C943AE
:1041C000090605D46FF0800101612046FFF717FB57
:1041D00020680169C943C90509D4C168C9430906F2
:1041E00005D46FF4807101612046FFF707FB20685A
:1041F0000169C943490609D4C168C943490605D4C0
:104200006FF040010161204600F05CFB206801690D
:10421000C943890609D4C168C943890605D46FF02A
:10422000200101612046FFF7EBFA20680169C943CC
:10423000C90209D4C168C943C90205D46FF4801109
:1042400001612046FFF735FB20680169C9438902F7
:1042500009D4C168C943890205D46FF40011016112
:104260002046FFF725FB20680169C943490209D4AC
:10427000C168C943490205D46FF480010161204639
:10428000FFF718FB20680169C94309020BD4C16814
:10429000C943090207D46FF4000101612046BDE85B
:1042A0007040FFF757BB70BD30B587B0044614218E
:1042B0006846FCF7ECF92468164D002216490223E3
:1042C0004FF09040AC420ED1CC6C44F00104CC6471
:1042D000C96C01F0010105914FF4C0510091CDE985
:1042E00001320A210FE00D4DAC4211D1CC6C44F0EB
:1042F0000104CC64C96C01F0010105910C2100910D
:10430000CDE901320921CDE903216946FEF796FB8B
:1043100007B030BD000800400010024000400140DE
:1043200070B5044690F83C00002501280BD0012010
:1043300084F83C000C2A1ED007DC82B1042A12D07B
:10434000082A06D113E0022070BD102A17D0142AC3
:1043500019D00125002084F83C00284670BD206853
:1043600002F00AF9F6E7206802F054F9F2E7206853
:1043700002F098F9EEE7206802F0DCF9EAE720683D
:1043800002F020FAE6E7206802F054FAE2E70000C3
:104390002DE9F04105460068466A1A49884225D150
:1043A000287F194C64274FF0904801280DD1C10295
:1043B0004046FEF767FC0028A169206918D04843F1
:1043C000B0FBF7F0296830444863287F02280DD1FC
:1043D000C1024046FEF756FC0028E16960690CD036
:1043E0004843B0FBF7F0296830448863BDE8F081AA
:1043F0004143B1FBF7F1401AE4E74143B1FBF7F168
:10440000401AF0E7000800403800002010B5040012
:1044100003D094F83D0010B107E0012010BD00204A
:1044200084F83C00204600F022F8022084F83D0089
:10443000211D206802F026F8012084F8480084F845
:104440003E0084F83F0084F8400084F8410084F87E
:10445000420084F8430084F8440084F8450084F85E
:10446000460084F8470084F83D00002010BD7047E6
:1044700070B500250446022269B1042916D0082926
:1044800055D00C295ED0102963D094F84300012840
:1044900066D0012070BD94F83E000128F9D184F85F
:1044A0003E202068C26842F0020209E094F83F0012
:1044B0000128EED184F83F202068C26842F004024F
:1044C000C2600122206802F035F82B4920682B4A8F
:1044D0002B4B884209D0904207D0984205D0294EF4
:1044E000B04202D0284EB04203D1466C46F400469A
:1044F0004664206888420CD0B0F1804F09D023492F
:10450000884206D02249884203D0904201D0984286
:1045100007D181681F4A1140062906D0B1F5803FB6
:1045200003D0016841F001010160284670BD94F894
:1045300040000128ADD184F840202068C26842F0D4
:104540000802BDE794F841000128A2D184F8412077
:1045500008E094F8420001289BD184F8422003E04F
:1045600084F843200C2901D00125DEE72068C268C9
:1045700042F01002A4E70000002C0140003401408A
:104580000040014000440140004801400004004058
:10459000000800400700010070B5044690F83C0098
:1045A00000260D4601280BD0012084F83C000C2A7F
:1045B0004AD007DC82B1042A20D0082A06D131E093
:1045C000022070BD102A53D0142A63D00126002087
:1045D00084F83C00304670BD206801F0CDFF2068B3
:1045E000816941F0080181612068816921F004013D
:1045F0008161206881692A69114311E0206802F015
:1046000009F82068816941F400618161206881694D
:1046100021F480618161206881692A6941EA02216F
:104620008161D4E7206802F03DF82068C16941F05B
:104630000801C1612068C16921F00401C1612068DD
:10464000C1692A69114311E0206802F073F82068FB
:10465000C16941F40061C1612068C16921F48061D0
:10466000C1612068C1692A6941EA0221C161AEE7DE
:10467000206802F0A7F82068016D41F0080101658B
:104680002068016D21F0040101652068016D2A692F
:10469000114311E0206802F0CDF82068016D41F46B
:1046A000006101652068016D21F480610165206869
:1046B000016D2A6941EA0221016588E710B504000D
:1046C00003D094F83D0010B107E0012010BD002098
:1046D00084F83C00204600F022F8022084F83D00D7
:1046E000211D206801F0CEFE012084F8480084F8E6
:1046F0003E0084F83F0084F8400084F8410084F8CC
:10470000420084F8430084F8440084F8450084F8AB
:10471000460084F8470084F83D00002010BD704733
:104720007047000030B50446022269B1042912D056
:10473000082917D00C291CD0102921D094F8430047
:10474000012824D0012030BD94F83E000128F9D181
:1047500084F83E201DE094F83F000128F2D184F84F
:104760003F2016E094F840000128EBD184F8402067
:104770000FE094F841000128E4D184F8412008E0DA
:1047800094F842000128DDD184F8422001E084F849
:1047900043200122206801F0CDFE194B2068194901
:1047A000194A984209D0884207D0904205D0174D47
:1047B000A84202D0164DA84203D1456C45F40045ED
:1047C0004564206898420CD0B0F1804F09D0114B5D
:1047D000984206D0104B984203D0884201D09042B4
:1047E00007D181680D4A1140062906D0B1F5803FF6
:1047F00003D0016841F001010160002030BD0000DC
:10480000002C0140003401400040014000440140C0
:10481000004801400004004000080040070001007B
:10482000064900680968884206D10549087880F081
:104830008000087000F0ACBF70470000FC02002050
:104840002C0000200246002041B1042909D008298B
:104850000AD00C2901D11068006C70471068406BB9
:1048600070471068806B70471068C06B704770B5F8
:10487000044690F83C00012812D0012584F83C50F1
:10488000022084F83D00204602F00CF801004FF0B1
:10489000000007D084F83D5084F83C00012070BD32
:1048A000022070BD2168CA6822F04002CA602168F7
:1048B000CA6822F48042CA6084F83D5084F83C0003
:1048C000002070BD704790F88010012918D0012198
:1048D00080F880102421C0F8841050F8641B0A6806
:1048E0000B6823F001030B6022F0005100220260EC
:1048F00050F8643C1960202101620277104670472D
:10490000022070477047704770B5044690F88000E9
:1049100001281DD0012084F880002420C4F88400E0
:1049200020680568026822F001020260206882683F
:1049300022F060620A438260204602F091F820680B
:1049400005602020C4F88400002084F8800070BD39
:10495000022070BD70B5044690F8800001281DD07B
:10496000012084F880002420C4F8840020680568B1
:10497000026822F0010202602068826822F0604230
:104980000A438260204602F06BF820680560202010
:10499000C4F88400002084F8800070BD022070BD3F
:1049A00070477047704700002DE9F04103680446E6
:1049B000D86919689A6840F60F0528424FF000053B
:1049C00009D186067ED501F0200602F080573E43CD
:1049D00078D0216F27E1A94EA94F16400F403743E9
:1049E00070D0C70709D0CF0507D501271F62D4F8BB
:1049F0008C3043F00103C4F88C3083070AD5D30709
:104A000008D0276802233B62D4F88C3043F00403BB
:104A1000C4F88C3043070AD5D30708D0276804238D
:104A20003B62D4F88C3043F00203C4F88C300307A7
:104A30000CD501F02003334308D0266808233362E5
:104A4000D4F88C3043F00803C4F88C3003050BD540
:104A50004B0109D526684FF400633362D4F88C30DB
:104A600043F02003C4F88C30D4F88C30002B3AD0BB
:104A7000800609D501F0200002F08051084303D0E0
:104A8000216F09B120468847D4F88C0021688968D5
:104A9000490602D410F0280F27D0204602F0A0F8D3
:104AA0002068806840061BD52068083050E8001F49
:104AB00021F0400140E80012002AF5D1E06F78B102
:104AC000704900E017E08163E06FFDF765FE0028A4
:104AD00009D0E06F816B00E02046BDE8F041084757
:104AE0002046FFF75FFFBDE8F0812046FFF75AFF41
:104AF000C4F88C50F7E7E76E2026012F7ED1C70659
:104B00007CD5CF067AD510201862206880684006D0
:104B100042D5E16F086840680004000CE3D0B4F8A7
:104B20005C208242DFD9A4F85E0008680068800635
:104B30002BD4206850E8001F21F4807140E8001257
:104B4000002AF6D12068083050E8001F21F001014A
:104B500040E80012002AF5D12068083050E8001F14
:104B600021F0400140E80012002AF5D1C4F8886025
:104B7000E566216851E8000F20F0100041E80002CE
:104B8000002AF6D1E06FFDF7D2FDB4F85C00B4F86E
:104B90005E10401A81B22CE0B4F85C00B4F85E10EC
:104BA000401A81B2B4F85E0000289CD000299AD047
:104BB000226852E8000F20F4907042E80003002BB6
:104BC000F6D12E4BDB432068083050E8002F1A4006
:104BD00040E80027002FF6D1C4F88860E566256715
:104BE000226852E8000F20F0100042E80003002B7A
:104BF000F6D12046FFF786FE75E7FFE7C70209D525
:104C0000570207D54FF4801018622046BDE8F041E6
:104C1000FFF7C7BE03060AD501F0800302F40002C5
:104C2000134304D0616F00297FF456AF5BE742065F
:104C300011D54A060FD52046016851E8002F22F011
:104C4000400241E80023002BF6D1C0F8846045679C
:104C500000F040F947E7020206D54A0004D5204695
:104C6000BDE8F041FFF79CBEC001C5D50029C3DAFD
:104C70002046BDE8F041FFF746BE000001000010ED
:104C800020010004CD6B000810B5040003D0D4F857
:104C9000840010B107E0012010BD002084F88000DE
:104CA000204600F027F82420C4F88400206801681A
:104CB00021F001010160204602F0D4F90128EBD077
:104CC000A06A10B1204601F0EDFE2068416821F491
:104CD000904141602068816821F02A01816020684C
:104CE000016841F0010101602046BDE8104001F07B
:104CF0003DBF000010B598B00446142111A8FBF781
:104D0000C6FC44216846FBF7C2FC1B492068884268
:104D100030D101200024CDE900046846FEF7C0F838
:104D200008B1FCF7AFFE1548016E41F48041016601
:104D3000016E01F480411691C16C41F00101C16422
:104D4000C06C11A900F0010016904FF4C0601190E2
:104D50000220CDE912040720CDE914404FF0904025
:104D6000FDF76CFE002204212520FEF701F8252026
:104D7000FDF7F0FF18B010BD0038014000100240F0
:104D800030B4D0F88830202B20D1E1B1DAB190F8DE
:104D90008030012B1AD0012380F880300023C366B5
:104DA0000B4C0368A3420BD05B681B0208D5046858
:104DB00054E8003F43F0806344E80035002DF6D10D
:104DC00030BC02F089BA012030BC70470220FBE7FA
:104DD0000080004000680B49884211D10A480C4904
:104DE0000A4B027808781A54401CC0B20870132885
:104DF00001D900200870012203490648FFF7C0BF0F
:104E00007047000000380140040000203D040020ED
:104E100034000020940300202DE9F8430446D0F824
:104E200084001F4616460D46202851D1DDB1D6B16B
:104E300094F8800001284BD0012084F880004FF0C6
:104E40000008C4F88C802120C4F884001834FDF7D1
:104E500023FFA6878146E68754F8100C183CB0F56E
:104E6000805F03D004E00120BDE8F883206920B111
:104E70002E46002584F8808010E00026FAE7802185
:104E8000204602F0B5FAB8B9C6B116F8010B216890
:104E90008862B4F85600401EA4F85600B4F85600D4
:104EA0004B464FF0000200970028E8D14FF0400138
:104EB000204602F09DFA30B10320D5E735F8020B09
:104EC000C0F30800E3E72020C4F884000020CBE70B
:104ED0000220C9E77047FEE700B585B01421684697
:104EE000FBF7D5FBC020009001200190029002202A
:104EF000039069460248FDF7A1FD05B000BD000022
:104F00000004004870B50824002501F023FA13E0DE
:104F10006806050E002001F005FA142002F03EFBA1
:104F2000142002F03BFB012001F0FCF9142002F0F8
:104F300035FB01F003FA0543641EE4B2E8D2002019
:104F400001F0F0F9142002F029FB01F025FA2846BF
:104F500070BD10B5002001F013FA142002F01EFB02
:104F6000142002F01BFB012001F0DCF9142002F0F8
:104F700015FB002001F0D6F9BDE81040142002F026
:104F80000DBB70B50446082516E001F0CBF91420DE
:104F900002F004FB04F0800001F0F2F9142002F0AA
:104FA000FDFA6006040E142002F0F8FA012001F068
:104FB000B9F9142002F0F2FA6D1EEDB24FF00000C4
:104FC000E3D201F0AFF9BDE87040142002F0E6BA78
:104FD00010B5012001F0D4F9142002F0DFFA1420FA
:104FE00002F0DCFA012001F09DF9142002F0D6FA5B
:104FF000002001F097F9BDE81040142002F0CEBA6D
:1050000010B5012001F0BCF9142002F0C7FA01200C
:1050100001F088F9142002F0C1FA002001F0B0F983
:10502000142002F0BBFA002001F07CF9BDE810402A
:10503000142002F0B3BA10B5002001F073F9142067
:1050400002F0ACFA002001F09BF9142002F0A6FA5D
:10505000012001F067F9142002F0A0FA012001F00C
:105060008FF9BDE81040142002F098BA10B505245D
:1050700001F070F9142002F091FA012001F052F9C8
:10508000142002F08BFA05E0641EA4B2142002F092
:1050900085FA6CB101F052F90028F5D101F07CF9E4
:1050A000002001F03FF9142002F078FA002010BD32
:1050B00001F072F9FFF7BFFF012010BD10B500200D
:1050C000184B194C024600BF00F13001195422540C
:1050D000401CC0B20A28F7D30A220021114802F06E
:1050E0008DFA0220FDF798FC0A2200210E4802F0FA
:1050F0005BFA0EA11248FBF767F91148FBF763FA58
:10510000C1B20F4802F008FA0E480A242246047081
:1051100005490B48FBF776FA2146BDE810400848E0
:1051200002F0FAB96F0400206504002020494943C9
:105130005F546573745F3234433032210D0A0000CE
:10514000510400203500002010B53F2002F086FAFF
:1051500002F073FA044612A11748FBF735F9164816
:10516000FBF731FAC1B2144802F0D6F96420B4FB5F
:10517000F0F100FB11400A21B0FBF1F00E4A303093
:105180001070B4FBF1F001FB1040303050700B4850
:1051900002210170BDE81040104602F0BDB90000C8
:1051A000204949435F546573745F4D435034303137
:1051B00037210D0A000000005104002035000020B6
:1051C00070B521480168214C6268891A32293AD3A6
:1051D0000068606000F04AF81D49054601280BD0C0
:1051E000022D16D0032D14D0042D12D0608838B3B0
:1051F0002278012A1BD10FE06088401C80B26080B9
:1052000001281FD1087880F00100087000F0C0FA72
:1052100018E06088401C14E00A28087802D280F068
:10522000020001E080F00400087000F0B1FA22787A
:1052300008A10D48FBF7C8F80B49482000F0E2F838
:1052400000206080257070BD100000201800002034
:105250002C00002020427574746F6E56616C756569
:105260003D253264000000002404002070B51A4C73
:1052700001212046FDF706FD4FF0904570B1022157
:105280002046FDF7FFFC48B104212046FDF7FAFC5B
:1052900020B101212846FDF7F5FC98B901212046EF
:1052A000FDF7F0FC80B102212046FDF7EBFC68B170
:1052B00004212046FDF7E6FC50B101212846FDF708
:1052C000E1FC38B1002070BD012070BD022070BD2E
:1052D000032070BD042070BD0004004800B585B0F7
:1052E00014216846FBF7D3F94FF6FF7000900020B9
:1052F0000321CDE90201019069460248FDF79EFBBA
:1053000005B000BD0008004800B585B0142168460E
:10531000FBF7BDF94FF6FF700090012001900320CC
:1053200003900020029069460248FDF787FB05B014
:1053300000BD00000008004870B500240646214664
:10534000204600F003F900F0BFF94FF496353046DF
:1053500000F08EF9641CAC42F9D370BD30B587B053
:1053600014216846FBF793F91E48C16C41F0040113
:10537000C164C16C01F004010591C16C41F00101EF
:10538000C164C16C01F001010591C16C41F00201E1
:10539000C164C06C012500F0020005904FF4487014
:1053A000CDE9000500240394694602940E48FDF7F8
:1053B00045FB280203940090CDE901544FF090443E
:1053C00069462046FDF73AFBFFF79EFFA06940F4CF
:1053D0008070A06104481830016841F408710160D0
:1053E00007B030BD0010024000040048203AD2B29D
:1053F000034B02EB420203EB021200F019B800006B
:105400002E7E0008F0B50E460746002540F23F14F8
:1054100007E021463846FFF7E9FF103C6D1CA4B2B7
:10542000761C3278002A01D0142DF2D3F0BD000092
:105430002DE9F04791468A460026044600F086F89A
:10544000DFF84080012700BF00F03EF95FF0000563
:1054500039F8160007FA05F10842404601D14088A4
:1054600000E0008800F004F96D1C102DF0D3641CDE
:10547000E4B25146204600F069F8761C182EE3D3BA
:10548000BDE8F0872E00002010B5FFF767FF002071
:1054900000F014F8084CA080A088A0F50241303933
:1054A00006D000F03EFE002000F008F8A08010BDFD
:1054B00000F0AEFDF7E700002E00002070B51D499A
:1054C0000A6842F400720A600A6842F480720A6054
:1054D000184C103C226842F020022260164A1060EC
:1054E000086840F02000086000BF00BF00BF2068CF
:1054F00040F020002060206840F480702060FFF7BA
:10550000EDFE4FF09041886A40F48070886200BFE1
:1055100000BF00BF0848001F006885B2886940F4DA
:1055200080708861FFF7F0FE206840F40070206012
:10553000284670BD280400481408004801B5BDF88D
:1055400000000149488008BD2E00002010B50C461F
:105550000146202000F0E6F82146BDE81040212059
:1055600000F0E0B801B5BDF800000149088008BDB1
:105570002E00002010B5FDF795FB02461DA1234823
:10558000FAF722FF4FF6FF742046FFF7D5FE1F20E3
:10559000FFF7D4FF0020FFF7E5FF1DA10020FFF774
:1055A00031FF21A11820FFF72DFF2046FFF7C6FF8E
:1055B00016493020FFF726FF21A14820FFF722FFE0
:1055C00025A16020FFF71EFF23A17820FFF71AFF17
:1055D00021A19020FFF716FF1FA1A820FFF712FFBF
:1055E0001DA1C020FFF70EFFBDE810401AA1D82072
:1055F000FFF708BF207379737469636B5F66726528
:10560000713D2532644B487A0000000024040020DC
:10561000205757572E4E4A544543482E4544552E41
:10562000434E2020000000002048414C204C4942BD
:105630004038304D687A203130313720000000008A
:1056400020427574746F6E56616C75653D20202024
:1056500020202020000000002020202020202020CA
:1056600020202020202020202020202000000000BA
:10567000134A116841F400711160114910390B6827
:1056800043F480730B600B6843F020030B600D4BF9
:105690001860106840F02000106000BF00BF00BF1D
:1056A000086840F020000860086840F480700860D6
:1056B00000BF00BF00BF086840F40070086070477A
:1056C00028040048140800481449086840F4007091
:1056D0000860086840F4807008601048103802685C
:1056E00042F0200202600E4B22221A600A6842F049
:1056F00020020A6000BF00BF00BF016841F0200126
:105700000160016841F48071016000BF00BF00BF0B
:10571000016841F4007101607047000028040048EE
:1057200014080048184B10B51A6842F400721A6049
:105730001A6842F480721A60134A103A146844F0EE
:1057400020041460114C2060186840F0200018609C
:1057500000BF00BF00BF106840F02000106010685C
:1057600040F4807010602160186840F020001860DC
:1057700000BF00BF00BF106840F02000106010683C
:1057800040F48070106010BD2804004814080048E0
:1057900070B5124D044601224FF6FF712846FDF701
:1057A00076FA0F4E012204213046FDF770FA0022EE
:1057B00004213046FDF76BFA210200222846FDF74E
:1057C00066FA012204213046FDF761FA3046BDE851
:1057D000704000220421FDF75ABA0000000800487A
:1057E000000C004800EB8100006E00F0F8407047AC
:1057F0008068C0F3C00070478068C0F380007047C5
:105800008068C0F380007047C06810F4406F01D01A
:105810000020704701207047042303EAD15310B5DC
:1058200018444369C1F3045107248C40A3438A40C0
:105830001343436110BD00EB8100016E21F0004174
:10584000114301667047000030B58BB00024089406
:105850000994202168460A94FAF719FF1C484FF072
:10586000A041042501604FF48011C0E90114C46017
:105870000461C0E90545047701214177016280F8A0
:105880002440C462046380F83810C46380F8404048
:10589000FCF776FB08B1FCF7F5F808A90C4808946A
:1058A000FCF7F2F808B1FCF7EDF80A480090062082
:1058B000CDE901047F200594CDE90305694604483C
:1058C000FCF74EF9002801D0FCF7DCF80BB030BD36
:1058D0006C0000200008302E30B589B020216846C9
:1058E000FAF7D5FE19481849002401600903C0E9F8
:1058F0000114C46004250461C0E905450477012151
:105900004177016280F82440C462046380F8381053
:10591000C46380F84040FCF733FB08B1FCF7B2F8F1
:105920000B4800900620CDE901047F200594CDE9C5
:10593000030569460548FCF713F9002801D0FCF778
:10594000A1F809B030BD000000010050D8000020CF
:105950000080F03E00B58DB030216846FAF797FE22
:105960001B491A4808600846FCF755FE08B1FCF7C9
:1059700089F80220009000208DF804008DF80500C1
:105980000290039001210490CDE9050102460790A1
:1059900069460F48FCF730FD08B1FCF773F81E208C
:1059A0000390102269460A48FCF726FD08B1FCF76F
:1059B00069F84FF4306210210548FCF700FD00281B
:1059C00001D0FCF75FF80DB000BD000000080050EA
:1059D00004020020114808B5816C41F00401816483
:1059E000816C01F004010091816C41F0010181643E
:1059F000806C002200F00100009011460B20FDF7A2
:105A0000B7F90B20FDF7A6F9002211460C20FDF78F
:105A1000AFF9BDE808400C20FDF79CB9001002402A
:105A20002DE9F04F87B014216846FAF730FE46485A
:105A3000C16C41F00401C164C16C01F00401059125
:105A4000C16C41F02001C164C16C01F020010591DD
:105A5000C16C41F00101C164C16C01F0010105910B
:105A6000C16C41F00201C164C16C01F002010591F9
:105A7000C16C41F00801C164C06CDFF8D08000F057
:105A800008004FF47F440590012221464046FDF76F
:105A9000FEF80022FF214046FDF7F9F84FF480762A
:105AA0004FF09049002231464846FDF7F0F8DFF804
:105AB000A0A0012204215046FDF7E9F8DFF894B0D8
:105AC0004FF44877002239465846FDF7E0F8009435
:105AD00001240025694640460194CDE90245FCF7C2
