:020000040800F2
:10000000B80600207902000861140008D512000823
:100010005D14000841040008751600080000000087
:10002000000000000000000000000000691400084B
:100030004504000800000000651400086D14000865
:10004000930200089302000893020008930200083C
:10005000930200089302000893020008930200082C
:10006000930200089302000893020008930200081C
:10007000930200089302000893020008930200080C
:1000800093020008930200089302000893020008FC
:1000900093020008930200089302000893020008EC
:1000A00093020008930200089302000893020008DC
:1000B00093020008930200089302000893020008CC
:1000C00093020008930200089302000893020008BC
:1000D00093020008930200089302000893020008AC
:1000E000930200089302000893020008930200089C
:1000F000930200089302000893020008930200088C
:10010000930200089302000893020008930200087B
:10011000930200089302000893020008930200086B
:10012000930200089302000893020008930200085B
:10013000930200089302000893020008930200084B
:10014000930200089302000893020008930200083B
:10015000930200089302000893020008930200082B
:10016000930200089302000893020008930200081B
:1001700093020008930200089302000800000000A8
:1001800093020008930200089302000893020008FB
:1001900093020008930200089302000893020008EB
:1001A00093020008930200089302000800F002F88E
:1001B00000F052F814A696E8000CB244B344DA45B5
:1001C00001D100F049F8BAE80F000FA696E8300018
:1001D000A5EB040504EB0607AAEB0704A7F101074A
:1001E0004FEA15154FEA3414A4F10104AC4201D3CF
:1001F00000F032F813F0010F18BFFB1A43F00103AF
:1002000000F001F8DBE71847D0290000F0290000D2
:10021000103A24BF78C878C1FAD8520724BF30C832
:1002200030C144BF04680C60704700007047000094
:100230000023002400250026103A28BF78C1FBD8EF
:10024000520728BF30C148BF0B6070471FB502F08E
:1002500012FC1FBD10B510BD00F0BCF81146FFF731
:10026000F5FF01F009FA00F0DAF803B4FFF7F2FF46
:1002700003BC00F0DDF8000009488047094800474A
:10028000FEE7FEE7FEE7FEE7FEE7FEE7FEE7FEE746
:10029000FEE7FEE704480549054A064B70470000A3
:1002A0001D150008AD010008B8000020B8060020A8
:1002B000B8020020B802002053EA020C00F0698066
:1002C0002DE9F04B4FF00006002B1FBFB3FA83F56A
:1002D00003FA05F424FA05F65E4012BF1643B2FA9B
:1002E00082F502FA05F4C5F120051EBF22FA05FCCD
:1002F00044EA0C04203556EA044C4FEA144418BF73
:10030000641C4FF000084FF00009904271EB030CA1
:1003100039D3002919BFB1FA81F701FA07F6B0FA0B
:1003200080F700FA07F6C7F120071EBF20FA07FC86
:1003300046EA0C062037B6FBF4FCA7EB0507103F96
:1003400007F01F0BCBF120062CFA06F60CFA0BFB7C
:1003500044BFB3460026202FA4BF5E464FF0000BDB
:100360005BEA060C08BF4FF0010B19EB0B0948EBD9
:100370000608ABFB027C06FB02CC0BFB03CCC01BCC
:1003800071EB0C01C1E70B46024641464846BDE809
:10039000F08B13B5084318BF4FF0FF300146AFF3A1
:1003A0000080BDE81C40704770477047704710B52B
:1003B00000F008F8006810BD10B5044600F002F81F
:1003C000046010BD004870471000002000487047CE
:1003D000100000207546FFF7F9FFAE46050069469C
:1003E000534620F00700854618B020B5FFF752FFAE
:1003F000BDE820404FF000064FF000074FF0000826
:100400004FF0000BAC46ACE8C009ACE8C009ACE862
:10041000C009ACE8C00921F007018D46704710B54E
:100420000446AFF300802046BDE81040FFF71DBF33
:1004300001491820ABBEFEE726000200704700000D
:10044000FEE7000070470000EFF3108072B600BFB7
:10045000FEE70000B0B5044600F0E8F8054640F2BB
:100460000000C2F200000078611C18BF044400BF05
:1004700000F0DCF8401BA042FAD3B0BD2DE9F04FEC
:1004800082B000F13E4202F1FF72870542F200465F
:1004900047EA9227C4F202060A2243F6004EB0420F
:1004A00008BF0922C4F2010E092F38BF3A464FF0A7
:1004B000010A002600274FF00008009208E000BF64
:1004C000023708F10108202F06F1040600F0AA8087
:1004D0000A680AFA08F412EA0409F1D0D1F804C053
:1004E000BCF1120F00F298800AFA0CF212F0061F0B
:1004F00000F092800323826803FA07F5CB68AA43D1
:10050000BB401A43826042684FEA1C13A24303FABD
:1005100008F34FEA480A6FEA050B1A434260C268C3
:100520008B6802EA0B0203FA0AF31A434CF0100339
:10053000122BC26013D16FF0030202EA5802024488
:1005400006F01C050F23D2F820C003FA05F40B694E
:100550002CEA0404AB4023431362D1F804C00268C0
:100560000CF0030302EA0B0203FA0AF31A435FEAF0
:10057000CC034FF0010A0260A2D5002243F64403E7
:100580000192C4F202031A684FF6084C42F480420A
:100590001A601A68CFF6FF7C02F480420192019A39
:1005A00028F00302724452F80C3006F00C050F24B8
:1005B000AC40A343009C04FA05F52B4342F80C30F1
:1005C000DEF800204B6842EA0905DC0358BF22EA46
:1005D0000905CEF80050DEF804209C0342EA090524
:1005E00058BF22EA0905CEF80450DEF80820DC02E4
:1005F00042EA090543F60C4458BF22EA0905CEF841
:100600000850C4F2010422689B0242EA090558BF5F
:1006100022EA0905256053E70322BA406FEA020B7C
:10062000BA467CE702B0BDE8F08F000040F2B000AF
:10063000C2F200000068704740F2000040F2B001D2
:10064000C2F20000C2F2000100780A68104408609B
:100650007047000080B543F60040C4F20200016814
:1006600041F400710160016841F48061016001683A
:1006700041F480710160032000F074F80F2000F055
:1006800005F800F027F8002080BD000070B540F2AA
:100690000006C2F2000640F208013278C2F2000100
:1006A0004FF47A730968B3FBF2F20446B1FBF2F13E
:1006B000084600F01DFB0F2C4FF0010508D838B993
:1006C0004FF0FF3021460022002500F01FF8746033
:1006D000284670BD82B0002043F640010190C4F26C
:1006E00002014A6842F480424A604A6802F4804249
:1006F0000192019A0090086840F0805008600868F4
:1007000000F080500090009802B0704710B54EF68F
:100710000C5CCEF2000CDCF80030C3F3022E8EF03D
:100720000704042C28BF0424BEF103034FF0FF3E4E
:100730000EFA04F438BF0023A14399400EFA03F3E4
:100740009A43114300F00F0200F160430901043A9B
:1007500003F564436244002848BF02F10C0319709A
:1007600010BD00004EF60C51CEF200010A684FF6A3
:10077000FF031A4060F30A2242F0806040F0FD70EF
:1007800008607047002804BF012070472DE9F04140
:1007900043F60808C4F202080446D8F8F8030D46E8
:1007A00000F00F00884207D288F8F853D8F8F80311
:1007B00000F00F00A84277D12068810717D54107C4
:1007C00005D5D8F8001041F4E051C8F80010010731
:1007D00005D5D8F8001041F46041C8F80010D8F8E9
:1007E0000010A26821F0F0011143C8F80010C00702
:1007F00040D1D8F8F80300F00F00A84207D988F8D4
:10080000F853D8F8F80300F00F00A8424CD1206844
:10081000410707D5D8F80010E26821F4E0511143F0
:10082000C8F80010000708D5D8F80000216920F4A6
:10083000604040EAC100C8F8000000F055F8D8F860
:10084000001042F6C832C1F30311C0F60002515C39
:1008500040F2080220FA01F140F20400C2F2000066
:100860000068C2F200021160FFF710FF0020BDE82F
:10087000F08100BF6068811E022907D258F8081C69
:1008800089015CBF0120BDE8F08111E0012807D19A
:1008900058F8081C89035CBF0120BDE8F08107E01F
:1008A00058F8081C890703D40120BDE8F08100BF77
:1008B000D8F8001021F003010843C8F80000FFF742
:1008C000B5FE064641F28837D8F80000616800F0AE
:1008D0000C00B0EB810F8CD0FFF7A8FE801BB84254
:1008E000F2D90320BDE8F08110B543F60404C4F248
:1008F0000204606800F00C0008280BD0042819BF1F
:1009000042F20040C0F2F40047F64000C0F27D1011
:1009100010BD00BF206821682368490247F64001E6
:10092000C0F27D1100F03F02C3F388105CBF42F2B9
:100930000041C0F2F401A1FB00010023FFF7BCFC61
:1009400021680222C1F3014102EB4101B0FBF1F049
:1009500010BD0000002804BF012070472DE9F041C0
:1009600082B00446007843F60006C007C4F20206CF
:100970000CD0B06800F00C00042840F08180306892
:10098000800303D56068002800F06081207880072C
:100990001BD5B06810F00C0F09D0B06800F00C0047
:1009A000082840F087807068400200F1838030683A
:1009B000800703D5E068012840F04881306821694C
:1009C00020F0F80040EAC10030602078000713D41E
:1009D000207840072AD4A569002D00F03281B06844
:1009E00000F00C00082840F0A180012D40F00E819D
:1009F000012002B0BDE8F0816069002840F20000EB
:100A0000C4F2472000F07E800121C0F8801EFFF76D
:100A10000DFE0546706F8007DAD4FFF707FE401B16
:100A20000228F7D9032002B0BDE8F081306C5FEAFC
:100A3000C0080AD400200190306C40F0805030642F
:100A4000306C00F080500190019847F20007C4F22A
:100A500000073868C00547D4386840F480703860B3
:100A6000FFF7E4FD054600BF3868C0053CD4FFF73A
:100A7000DDFD401B0228F7D9032002B0BDE8F0815C
:100A8000B06800F00C00082803D1706840023FF500
:100A900076AF6068B0F5803F07D0B0F5A02F40F08A
:100AA0009980306840F480203060306840F48030B5
:100AB000306099E0E06800285CD00020C4F2472054
:100AC00001210160FFF7B2FD054600BF30688007D5
:100AD0003FF574AFFFF7AAFD401B0228F6D90320AB
:100AE00002B0BDE8F08100BFA068012805D005284C
:100AF00054D1306F40F004003067306F40F0010097
:100B0000306755E00021C0F8801EFFF78FFD0546D5
:100B1000706F80077FF55CAFFFF788FD401B0228F0
:100B2000F6D9032002B0BDE8F08100BF0027C4F26F
:100B3000472700203866FFF779FD022D05460DD1C5
:100B40003068800140F18680FFF770FD401B02286D
:100B50004FF00300F4D902B0BDE8F08130688001A5
:100B60006FD5FFF763FD401B02284FF00300F5D956
:100B7000F1E700BF0020C4F2472000210160FFF729
:100B800055FD0546306880077FF51FAFFFF74EFD26
:100B9000401B02284FF00300F4D9DCE7316F002836
:100BA00021F001013167316F21F00401316773D009
:100BB000FFF73CFD054641F2883700BF306F8007E4
:100BC0007CD4FFF733FD401BB842F7D9032002B0B5
:100BD000BDE8F0813168002821F48031316031684E
:100BE00021F48021316073D0FFF720FD054600BF5E
:100BF000306880033FF5CAAEFFF718FD401B64283C
:100C0000F6D9032002B0BDE8F08100BF7068E16949
:100C100000F480028A4219D1216A00F03F028A4220
:100C200014D147F6C071626A014091420ED1A16AA7
:100C300000F440328A4209D1E16A00F070608842D3
:100C400004D1002002B0BDE8F08100BF012002B055
:100C5000BDE8F08104F11C052FCD084340EA821065
:100C6000D9034FF6FF729143A1F5803140EA056048
:100C70000843706001203866FFF7D8FC044600BFC7
:100C800030688001DDD4FFF7D1FC001B02284FF053
:100C90000300F5D95FE700BFFFF7C8FC054641F246
:100CA000883700BF306F800708D5FFF7BFFC401BB7
:100CB000B8424FF00300F5D94DE700BFB8F1000F7F
:100CC0003FF589AE306C20F08050306483E600BF81
:100CD000FFF7ACFC054600BF306880037FF556AED9
:100CE000FFF7A4FC401B64284FF00300F4D932E75F
:100CF000411E0020B0EB116F1CBF012070474EF267
:100D00001002CEF2000251604EF62351CEF20001E5
:100D1000F0230B70072190601160704790F83C2021
:100D2000012A04BF02207047B0B501F108053CCD8F
:100D3000D1E900CE23F47C5322F470521A432EF4EE
:100D4000F0431A432CF4E0431A4324F4C0431A43FB
:100D50002A43C96922F4804203681143596400217F
:100D600080F83C10BDE8B0400846704790F83C2041
:100D7000012A4FF0020254D010B580F83D200268DD
:100D8000D2F804E0D2F808C00C682EF070032343B8
:100D900041F2FF74C4F20004A24253600EDC40F240
:100DA000FF73C4F200039A4216DCB2F1804F2BD0DD
:100DB00040F20043C4F2000324E000BF40F2FF33DE
:100DC000C4F201039A4213DC41F60003C4F20003AB
:100DD0009A4219D0002313E040F60003C4F2000346
:100DE0009A4211D040F60043C4F200030AE000BF6B
:100DF00044F20003C4F201039A4205D040F20043DA
:100E0000C4F201039A4204D149682CF080031943CB
:100E100091600121002280F83D1080F83C20BDE85F
:100E20001040104670470000002804BF01207047A2
:100E300010B5044690F83D0028B9002084F83C0025
:100E4000204600F00DF8022084F83D002068211DA6
:100E500000F072FB012084F83D00002010BD00006E
:100E600000680021C4F20101884218BF704781B0B8
:100E70000020009043F64400C4F20200016841F0F3
:100E800001010160006800F001000090009801B0CD
:100E90007047000090F83C20012A4FF0020200F059
:100EA000C28080B580F83D20D0F800C04FF6777240
:100EB000DCF8083023EA0202CCF808200B683F2B4C
:100EC0001CDD5F2B20DD602B50D0B3F5005F6DD0B3
:100ED000702B40F0A080D1E901E3C968DCF808205C
:100EE00043EA0E0322F47F4243EA01211143CCF886
:100EF0000810DCF8081041F077018AE01F2B29DC8C
:100F000063B3102B2AD086E0402B63D0502B40F0E7
:100F10008280D1F804E0C968DCF82030DCF82020B9
:100F200022F00102CCF82020DCF8182022F0F00298
:100F300042EA011123F00A0242EA0E02CCF818102C
:100F4000CCF82020DCF8081041F0570121F02001F6
:100F50005FE000BF202B01D0302B5CD1DCF8081003
:100F600021F07001194341F0070152E0D1F804E08B
:100F7000C968DCF8203023F01003CCF82030DCF80E
:100F80001830DCF8202023F4704322F0A00243EA5A
:100F9000013142EA0E12CCF81810CCF82020DCF80F
:100FA000081041F0670121F0100132E0D1E901E3BE
:100FB000C968DCF8082043EA0E0322F47F4243EAC2
:100FC00001211143CCF80810DCF8081041F48041ED
:100FD0001FE000BFD1F804E0C968DCF82030DCF87D
:100FE000202022F00102CCF82020DCF8182022F08A
:100FF000F00242EA011123F00A0242EA0E02CCF8A2
:101000001810CCF82020DCF8081041F0470121F03E
:101010003001CCF808100121002280F83D1080F842
:101020003C20BDE8804010467047000090F83C30FE
:10103000012B4FF0020300F006814FEAB202032AAF
:1010400080F83D3000F2F9802DE9F043DFE802F04E
:10105000023E7EBE036840F200461A6A43F4806591
:1010600022F001021A621C6A1A46D3F804C052F830
:1010700018EF8F6824F00204C4F20106B54244EA76
:10108000070405D1CF6824F00C0427F004073C4383
:101090000F68B54206D1D1E905582CF440762E43AD
:1010A00046EA080C2EF073063743C3F804C09F616C
:1010B0004F6809695F631C629F6947F008079F6179
:1010C0009F6927F004079F61B2E000BF036840F208
:1010D00000481A6A43F4806522F010021A621C6A02
:1010E0001A46D3F804C052F818EF8F6824F0200491
:1010F000C4F20108454544EA071407D1CF686FF0F0
:10110000400624F0C00406EA07163443D1F80090E4
:10111000454506D1D1E905562CF440672E4347EAF0
:10112000860C2EF4E64747EA0927C3F804C09F61FE
:101130004F6809699F631C629F6947F400679F615C
:101140009F6927F480679F6171E000BF036840F2E8
:1011500000481A6A43F4806522F480721A621C6A9D
:101160001A46D3F804C052F81CEF8F6824F40074B8
:10117000C4F20108454544EA072408D1CF6840F28B
:10118000FF463F0224F4406427EA06063443D1F8C0
:101190000090454506D1D1E905562CF440572E4321
:1011A00047EA061C2EF0730747EA0907C3F804C094
:1011B000DF614F680969DF631C62DF6947F0080778
:1011C000DF61DF6927F00407DF6131E0036840F287
:1011D00000451A6A43F4806722F480521A621A4664
:1011E000D3F820C05C6852F81CEFD1F800808E68FC
:1011F000C4F20105AF4204D14D6924F4804444EAAD
:1012000085142CF4005747EA06372EF4E64646EAE2
:1012100008265C60DE614E6809691E641F62DF6932
:1012200047F40067DF61DF6927F48067DF61090247
:10123000136819431160BDE8F0430121002380F8D1
:101240003D1080F83C30184670470000002804BF6D
:101250000120704710B5044690F83D0028B90020E1
:1012600084F83C00204600F00DF8022084F83D0090
:101270002068211D00F060F9012084F83D00002065
:1012800010BD000070470000006801F01F0101223E
:10129000036A02FA01F123EA01020262D0F820C0D7
:1012A00040F2004240F48063C4F20102934241EAFA
:1012B0000C01016203D1416C41F400414164816839
:1012C00001F00701062903D0016841F00101016026
:1012D00000207047FEE7000082B0002043F6300196
:1012E0000190C4F202010A6842F080020A600A68B2
:1012F00002F080020192019A0090086840F010000C
:101300000860086800F010000090009802B0704774
:10131000B0B59CB0002540F27000C4F20105002178
:10132000C2F20000072240F2E73380241691CDE993
:1013300014111191CDE90F11CDE90D11CDE90B116A
:10134000CDE90911CDE90711CDE90511CDE9031169
:10135000CDE90111C0E90052C0E90213C0E904114E
:101360008461FFF761FD002818BFFFF76DF84FF4A7
:101370008050139040F27000C2F2000013A9FFF7F2
:1013800089FD002818BFFFF75FF840F27000C2F235
:101390000000FFF75BFF002818BFFFF755F840F289
:1013A00070000024C2F2000010A9CDE91044FFF73C
:1013B000DDFC002818BFFFF747F86020099040F2D5
:1013C000F310CDE90A0440F27000C2F2000009A94E
:1013D0000022CDE90C44CDE90E44FFF727FE00289A
:1013E00018BFFFF731F840F2700400204FF40051AD
:1013F000C2F200040590CDE90300CDE90100069199
:10140000089001A92046FFF789FC002818BFFFF7C4
:101410001BF82068A84201D01CB0B0BD002043F6E4
:1014200030011790C4F202010A6842F010020A600B
:10143000096801F01001179117994FF40071179185
:101440000221CDE918101A9001201B9005F5883073
:1014500017A9FFF713F81CB0B0BD0000FEE70000AD
:10146000FEE700007047000070470000FFF7E4B897
:10147000B0B592B0002443F64000CDE90A44CDE96E
:1014800008440594CDE90344CDE901440094C4F235
:1014900002000168012241F08051016000680225CC
:1014A00000F080500090009847F200000094C4F2D1
:1014B0000000016862F38F310160006800F4404071
:1014C000009000984FF4803007904FF480000D900A
:1014D00019200E908020CDE90F050420119006A858
:1014E00006920C95FFF736FA20B1EFF3108072B632
:1014F000FEE700BF0F20CDE90105A020CDE90304E0
:1015000001A800210594FFF73DF928B1EFF3108001
:1015100072B600BFFEE700BF12B0B0BD4EF68850F5
:10152000CEF20000016841F4700101604FF00061EB
:1015300040F8801C7047000010B540F6FF3E03687D
:10154000C4F2000E40F2004C7045C4F2010C27DCDE
:10155000B0F1804F31D040F20042C4F2000290421C
:101560002BD040F60002C4F20002904225D041F692
:10157000FF72C4F20002904229DC70453CDCB0F1FD
:10158000804F5FD040F20042C4F20002904259D036
:1015900040F60002C4F20002904253D056E000BF71
:1015A00040F60042C4F20002904206D0604504D0EA
:1015B0000022C4F201029042D9D14A6823F070039C
:1015C000134341F6FF72C4F200029042D5DD43F6A8
:1015D000FF72C4F20102904222DC42F20002C4F225
:1015E000000290422ED00022C4F20102904229D083
:1015F000604527D02AE000BF40F60042C4F2000256
:1016000090421FD041F60002C4F20002904219D06D
:1016100041F60042C4F20002904213D016E000BF2F
:1016200044F20002C4F2010290420BD044F60002E0
:10163000C4F20102904205D044F20042C4F2010219
:10164000904203D1CA6823F44073134323F080020D
:101650004B69D1F800E08C681A430260C46240F420
:101660008062C0F828E0624504BF09690163012176
:10167000416110BDFEE70000FEF7ECFFFFF7F8FE4A
:10168000FFF72AFEFFF744FE40F27008C2F200089E
:1016900040460021FFF7F8FD9FED210B9FED221B37
:1016A0009FED238A56EC109B54EC117BFEF7BEFF96
:1016B00000EE100AB8EE400AD8F8000020EE080A42
:1016C000C56A10EE100A01F065F94A46334600F08B
:1016D00069FF3A46234600F065FF41EC100B00F02D
:1016E00043F851EC100B3A46234600F05BFF3A46B4
:1016F000234600F0FBFC00F0C7FC00EE100A681C5B
:1017000001EE100AB8EE411A21EE000AD8F80000E6
:10171000BCEEC00A80ED0D0A0A20FEF79BFEC5E76D
:101720004AD8124DFB211940000000000000E03FA4
:101730006F12833A03B401984100009850EAC12027
:1017400018BF04204A0D18BF40F0010040F2FF729C
:10175000B2EB515F08BF40F00200012808BF05202E
:1017600002B070470000000010B52F499FED2C1B00
:101770002DED020B84B0059820F000408842DCBFBC
:1017800000209DED040B32DD2849884209D10498E0
:1017900040B94FF00100FEF70FFE00F03DFC06B02F
:1017A00010BD05DB9DED040B00F02AFC06B010BD5A
:1017B00068469DED040B00F03BF810F0030011D0DB
:1017C000012818D09DED021B9DED000B02281AD0B8
:1017D00000F04AFA51EC100B00F04AFC06B041EC64
:1017E000100B10BD9DED021B9DED000B012000F0C4
:1017F0006FFB06B010BD9DED021B9DED000B00F0D0
:1018000033FA06B010BD012000F062FB51EC100B62
:1018100000F02EFC06B041EC100B10BD00000000E3
:101820000000000000000000FB21E93F0000F07F05
:101830002DE9F14F04462DED020B2DED088B8AB0FA
:101840009FEDE70B80ED020B139EE74826F0004565
:1018500085420ADC9DED120B002084ED000B0AB0DE
:10186000BDEC088B03B0BDE8F08FE0489FEDE0AB26
:101870009FEDE1BBA84247DDE14F9FEDE39B9FED6C
:10188000E48B9DED120B53EC1A2B51EC100B002E38
:101890001CDD00F091FF41EC100BBD4208D053EC71
:1018A0001B2B51EC100B00F087FFC4E900010BE08B
:1018B00053EC192B51EC100B00F07EFF53EC182B5E
:1018C00000F07AFFC4E900010120C8E700F00EFC37
:1018D00041EC100BBD4208D053EC1B2B51EC100B0C
:1018E00000F004FCC4E900010BE053EC192B51ECAF
:1018F000100B00F0FBFB53EC182B00F0F7FBC4E9D6
:1019000000014FF0FF30AAE7C348A84279DB9DED04
:10191000120B51EC100B00F09FFB41EC180B9FEDEC
:10192000C00B53EC102B00F03DFE9FEDBF1B53ECA2
:10193000112B00F0DBFB00F0DBFD074600F007FE9B
:1019400041EC190B53EC1A2B00F02CFE53EC182B26
:1019500000F026FF41EC180B53EC1B2B51EC190B3C
:1019600000F020FEDFF8C8A241EC100B4FEA15583A
:101970000125FA4453EC102B51EC180B00F01CFF1E
:10198000032DC4E900013DD0C1F30A5005EB451118
:10199000A8EB00001139814234DA0AEB051BB0EEE6
:1019A00048AA9BED000BF0EE68AA53EC102B51EC0B
:1019B000190B00F0F7FD41EC1B0B51EC1A0B53EC2B
:1019C0001B2B00F0F9FE41EC180B51EC1A0B53ECF9
:1019D000182B00F0F1FE53EC1B2B00F0EDFE9BEDFD
:1019E000020B41EC1A0B53EC102B51EC190B00F0CD
:1019F000D9FD53EC1A2B00F0DFFE41EC100B6D1CEF
:101A0000B8E70EE0002EA8BF3846BFF628AF94ED29
:101A1000000B51EC100B00F02BFBC4E900017842E5
:101A20001DE7C6F3130040F4801EC6F30A50A0F26F
:101A3000F530471100F01F05C5F12000DDF848B072
:101A400008900020069007900520EC467949002D6B
:101A500007EB0002794408BF51F8221009D051F871
:101A6000223001EB8201AB404A68089922FA01F169
:101A70001943A1FB0E26A1FB0B131A449A4234BF53
:101A80000123002303EB06080CEB8003D3E901A636
:101A90000E448E4234BF0121002192448A4411B188
:101AA000924502D903E0924501D2012100E00021D4
:101AB000C3E901A641444CF82010011EA0F1010029
:101AC000C4DC029800F10050850F0298DDE903673D
:101AD0008000DDF8148000F03AFD41EC1A0B30462E
:101AE00000F04CFD9FED541B53EC112B00F05AFD00
:101AF00041EC1B0B384600F041FD9FED511B53ECB0
:101B0000112B00F04FFD41EC180B404600F036FD64
:101B10009FED4D1B53EC112B00F044FD41EC190BD4
:101B200051EC180B53EC192B00F0E0FA53EC1B2B83
:101B300000F0DCFA53EC1A2B00F0D8FACDE90801DA
:101B4000002008909DED080B53EC1A2B51EC100B64
:101B500000F032FE53EC1B2B00F02EFE53EC182B42
:101B600000F02AFE53EC192B00F01AFE9FED381BF3
:101B700053EC112B00F016FD9FED370B41EC180BC9
:101B800053EC102B9DED080B51EC100B00F00AFDEF
:101B900053EC182B00F0AAFA9FED310B41EC180B17
:101BA00053EC102B9DED080B51EC100B00F0FAFCE0
:101BB00053EC182B00F09AFA41EC100B139810F02C
:101BC000004F06D06D4251EC100B00F051FA41EC81
:101BD000100B284684ED000B41E6000000000000D9
:101BE0000000000000000000FB21E93F7CD902401A
:101BF00000004054FB21F93F3163621A61B4D03DCB
:101C0000FB21F93F000000000000601A61B4D03DE4
:101C10007370032E8A19A33BFB2139410000000099
:101C200083C8C96D305FE43F000000000000E03F62
:101C30005A110000A8100000000000000000103E33
:101C4000000000000000103C000000000000103AFE
:101C5000182D4454FB21F93D3326A611460B113CA7
:101C600000000054FB21F93D10B52DED040B2DEDC6
:101C7000088B82B0B0EE419AF0EE619A0B9820F09A
:101C800000449FED4BABB4F1795F11DA9DED0A0B87
:101C900051EC100B00F02CFC002801BFB0EE4A0AFA
:101CA000F0EE6A0A02B0BDEC088B04BF04B010BDB0
:101CB0009DED0A0B53EC102B51EC100B00F072FC55
:101CC00041EC180B3C480621B0EE480AF0EE680AD9
:101CD000784400F081F853EC182B51EC100B00F015
:101CE00061FC9DED0A0B41EC1B0B53EC192B51ECE5
:101CF000100B00F057FC41EC190B53EC1B2B51EC73
:101D0000180B00F04FFC53EC192B00F055FD9FED24
:101D10002C0B41EC190B53EC102B51EC180B00F071
:101D200041FC41EC100B2848844210DA53EC192B8B
:101D300051EC100B00F040FD53EC1A2B00F030FD7D
:101D400041EC100B02B0BDEC088B04B010BD1F4875
:101D5000A042BCBF9FED1E1B8DED001B06DBA4F552
:101D600000100190002000909DED001B51EC100B25
:101D700053EC112B00F020FD9DED000B41EC180BF6
:101D800053EC102B51EC1A0B00F016FD41EC1A0B22
:101D900053EC192B51EC180B00F00EFD53EC1A2BE1
:101DA00000F0FEFC41EC100BCCE70000000000004E
:101DB000000000000000F03FCC0D0000000000001B
:101DC000000000000000E03F3333D33F0000E93F54
:101DD000000000000000D23F70B504462DED028BDC
:101DE0004D1E00EBC500B0EE408AF0EE608A90ED2B
:101DF000000B35F0060017D053EC182B51EC100BEC
:101E000000F0D0FB41EC100B6D1E04EBC50090ED13
:101E1000001B51EC100B53EC112B00F067F941EC57
:101E2000100B35F00600E7D1022D36D0042D1CD062
:101E3000062D1CBFBDEC028B70BD53EC182B51EC72
:101E4000100B00F0AFFB94ED0A1B53EC112B00F0CC
:101E50004DF953EC182B00F0A5FB94ED081B53EC47
:101E6000112B00F043F941EC100B53EC182B51EC03
:101E7000100B00F097FB94ED061B53EC112B00F0B8
:101E800035F953EC182B00F08DFB94ED040B53EC5B
:101E9000102B00F02BF941EC100B53EC182B51ECEC
:101EA000100B00F07FFB94ED021B53EC112B00F0A4
:101EB0001DF953EC182B00F075FB94ED001B53EC4F
:101EC000112B00F013F9BDEC028B41EC100B70BD2F
:101ED00031B504462DED040B2DED0A8BB0EE41BA61
:101EE000F0EE61BA0B989DED0A0B20F00040B0F1C6
:101EF000795F0DDA51EC100BFFF71CFC042808BFCA
:101F000000F09AF89DED0A0BBDEC0A8B05B030BDD0
:101F100053EC102B51EC100B00F044FB41EC180B70
:101F20009DED0A0B53EC182B51EC100B00F03AFB13
:101F300041EC190B2C48B0EE480AF0EE680A052176
:101F40007844FFF749FF9FED2ACBB0EE40AAF0EEB0
:101F500060AA9CB353EC1C2B51EC190B00F022FB34
:101F600041EC1C0B53EC1A2B51EC190B00F01AFB33
:101F70009FED210B41EC190B53EC102B51EC1B0B7B
:101F800000F010FB53EC192B00F016FC53EC182B4F
:101F900000F008FB53EC1B2B00F00EFC53EC1C2B49
:101FA00000F00AFC9DED0A1B53EC112B00F0F8FB2E
:101FB000BDEC0A8B05B041EC100B30BDFFE753ECD4
:101FC0001A2B51EC180B00F0EDFA53EC1C2B00F01F
:101FD0008DF853EC192B00F0E5FA9DED0A1B53EC3C
:101FE000112B00F083F8E3E75C0C00000000000018
:101FF000495555555555C5BF000000000000E03F4C
:1020000010B553EC102B51EC100B00F06FF841ECB5
:10201000100B10BD000000009FED050B10B553EC38
:10202000102B51EC100B00F009F941EC100B10BD16
:1020300000000000000000009FED050B10B553EC00
:10204000102B51EC100B00F0ADFA41EC100B10BD51
:10205000000000000000001082B0CDE9000121F076
:10206000004001909DED000B02B051EC100B704749
:1020700081F00041704780F00040704721F000413E
:10208000704720F00040704721F0004201F000430B
:10209000A2F16052B2F5801F28BFD2F17F6C0BD93C
:1020A0005FEA001C43EAC20242EB507018BF70475F
:1020B00028BF20F001007047B2F5801FBCBF184652
:1020C00070474FEA410C1CF5001F02D2084600F091
:1020D000DFBC70B500F010FB00000089FFF7F6BF11
:1020E0004FF00040A0F580007047000010B591EA65
:1020F000030F48BF83F0004300F16683841A71EB3D
:10210000030C05D2121943EB0C03001B61EB0C010D
:102110004FEA1154A4EB135CDFF81CE11EEA430FF5
:1021200018BF9EEA445F00F0748021EA045123EA5C
:102130000E0343F48013DCF1200E32D322FA0CFE9E
:1021400010EB0E0023FA0CFE41EB0E01CCF1200E39
:1021500003FA0EFE10EB0E00CCF1200E51F100013F
:10216000B1F5801F32D201EB045112FA0EF2BDE834
:10217000104058BF7047401C38BF5FEA420218BF8A
:102180007047002814BF20F0010041F100014FEA20
:10219000410313F5001F38BF7047A1F1C04100F0A3
:1021A000F9BA012A43EB0302ACF1200CDCF11F0E5B
:1021B00032BF4FF0000E23FA0CF310EB030041EB9B
:1021C0000451B4EB115FD0D0A1EB045101F58011A3
:1021D000490801EB04515FEA30000ED350F10000D2
:1021E00038BF12FA0EFE08D1BDE81040C9E7401C06
:1021F00038BF5FEA4202CAD1C3E7BDE810404FEAE8
:10220000410313F5001F38BF7047A1F1C04100F032
:10221000C1BA9EEA445F08D011EA5E0FBDE81040E3
:1022200004BF01F0004100207047BDE8104070B5C8
:1022300000F062FA64FBBE3E0000E0FF2DE9C04101
:1022400030B4DFF8A4C23CEA111418BF3CEA1314FE
:1022500000F0ED801CEA111481EA030544EAD5740C
:1022600018BF1CEA131500F0C880A4EB050404F1A4
:102270007F7404F500344FF0004545EAC12145EA7A
:10228000C32341EA505143EA52534FEAC0204FEA78
:10229000C222994208BF904200F09D804FEA136528
:1022A0000FF24416765D4FEA134506FB05F7C7F1BA
:1022B000807706FB07F74FEAD737A7FB036876421C
:1022C000A7FB06CEC8F5803838BFA8F1010807FB88
:1022D00008E6A6FB028C4FF0000EE6FB03CEDCF115
:1022E000000CCEF1004E38BFAEF1010EA6FB0C582B
:1022F0004FF00007E6FB0E87A1FB08C6A0FB07CE48
:1023000016EB0E064FF0000545F10005E1FB0765F1
:1023100015F1E04E7EBFA4F580345FEA46066D41BC
:1023200016F1800745F100054FEA172747EA0567D0
:102330004FEA15254FEA0666A6F1DE46B6F1805F44
:1023400020D9384605EBC47124F0010C01EB0C11C7
:10235000BCF1FE6F02D8F0BCBDE8008124425CBF36
:1023600001F5801E9EEAC47F02D4F0BCBDE8008166
:10237000244200F13980A1F1C041F0BCBDE8004128
:1023800000F008BA4FEAD02040EA41504FEAD1218C
:102390004FEAD22242EA43524FEAD323A7FB0286F6
:1023A00007FB036605FB02661EEA0E0F58BFA6EB8D
:1023B0000056B6EB00564FEA520E4EEAC37E18EBBB
:1023C0000E0E56EB530EBCD518EB02085E417F1C77
:1023D00055F10005B5E74FF480154FF000074FF0B9
:1023E00000064FF00008ACE701F1C04101F00041E8
:1023F0004FF00000F0BCBDE800810CEA131511EAB3
:102400000C1F00D00CE013EA0C1F00F026804FF0E8
:10241000000081EA030101F00041F0BCBDE8008149
:10242000F0BCBDE8004181EA030100F0B3B9F0BCA3
:10243000BDE8004170B500F05FF900BF097EFC3EC9
:1024400000F007B84FF0000081EA030101F00041FD
:10245000704781EA030100F09DB9F0BCBDE800417E
:1024600022494FF000007047FFFDFBF9F7F5F4F249
:10247000F0EEEDEBE9E8E6E4E3E1E0DEDDDBDAD81F
:10248000D7D5D4D3D1D0CFCDCCCBCAC8C7C6C5C47D
:10249000C2C1C0BFBEBDBCBBBAB9B8B7B6B5B4B394
:1024A000B2B1B0AFAEADACABAAA9A8A8A7A6A5A47F
:1024B000A3A3A2A1A09F9F9E9D9C9C9B9A99999843
:1024C0009797969595949393929191908F8F8E8EE6
:1024D0008D8C8C8B8B8A8989888887878685858473
:1024E00084838382828181800000FF070000F87F5F
:1024F0004FEA41034FEA5353A3F58063D3F11E0320
:10250000C8BFD3F1210C0CDD4FF0004242EAC122DA
:1025100042EA505232FA03FC8CEAE17CACEBE17007
:102520007047102BC4BF0020704703F5787CBCF1C6
:10253000FF3F04D06FF0004282EA2100704770B57F
:1025400000F0DAF84992248000207047F2E710F09A
:10255000004248BF4042B0FA80F310FA03F10AD0BB
:10256000C3F11D0303F5806302EB03524FEA4150B0
:1025700002EBD12170474FF000007047B0FA80F3B2
:1025800010FA03F10AD0C3F11D0303F580634FEA8B
:1025900003524FEA415002EBD12170474FF0000047
:1025A0007047000070B5DFF848C11CEA111E1EBF5D
:1025B0001CEA13159EEA0C0F95EA0C0F00F06F80D1
:1025C00081EA03044EEAD47EAE4421EA4C1123EAA8
:1025D0004C1341F4801143F48013AEF17F7EA1FBD4
:1025E000024CA0FB0365361955EB0C05A1FB034C0F
:1025F0004CF10003A0FB021C16EB0C06654153F1E5
:102600000003094218BF46F0010613F4007F0BD106
:102610004FEA03314FEA053041EA155140EA1650BE
:1026200034036FF003020AE04FEAC3214FEAC520EA
:1026300041EA555140EA5650F4026FF0020202EBB3
:102640002E4201EB025585EACE710AD05FEA440CB6
:1026500018BF24F0004450F1000041F1000120EACD
:10266000D47040F2FE7C624500D270BDA84214BF17
:102670004FF080444FF04044002E08BF0024BEF1CC
:10268000806FA8BFA1F1C041BDE8704080F2828098
:1026900001F1C04101F000414FF0000070470CEA29
:1026A00013159EEA0C0F18BF95EA0C0F06D081EAAD
:1026B000030E4FF000000EF0004170BD00F01CF85A
:1026C0008900013E00F007B800F009B84FEA430C5A
:1026D0005FEA5C5C08D081EA030100F05BB84FEA76
:1026E000410C5FEA5C5CF6D102494FF00000704794
:1026F0000000FF070000F87F0EF1020E2EF0030E1F
:102700005EF8046B364205D4012A43EB030515F548
:10271000001F12D8012841EB010C1CF5001F0CD83A
:102720000ED14FEAD17C0CEB4C0C0CF1020C15F5E0
:10273000001F08BF4CEBD37C04E04FF0080C01E015
:102740004FEAD37C0CEB4C0526FA05F606F007069B
:10275000B6F1040C06D20EEB860CBDE870404CF0CE
:10276000010C6047DFE80CF0090B02024FF000415A
:10277000A1F500214FF0000070BD19461046012858
:1027800051EB010418BFD4F5001484BF002001F000
:10279000004170BD0808A0F500114FEA31017047F3
:1027A00010B591EA030F81F000413FF5A7AC83F02B
:1027B000004300F009B8000010B591EA030F48BFCC
:1027C00083F000433FF59AAC841A71EB030C07D2F7
:1027D0008CF0004C121943EB0C03001B61EB0C0155
:1027E0004FEA1154A4EB135CDFF8A4E11EEA430F97
:1027F00018BF9EEA445F00F0B48021EA045123EA46
:102800006E035242C3EB6E0338BF5B1EDCF1200E39
:1028100025D322FA0CFE10EB0E0043FA0CFE41EB1E
:102820000E01CCF1200E03FA0EFE10EB0E00CCF1DF
:10283000200E51F1000129D401EB045112FA0EF2DD
:10284000BDE8104058BF7047401C1CBFB2F1004F9C
:10285000704700280CBF491C20F00100704712EBA4
:10286000020E43EB030218BF4FF0010E4EEA420284
:10287000ACF1200CDCF11E0E56D943FA0CFE10EB25
:102880000E00CCF11E0E51F1FF31D5D50EF1010E27
:1028900012FA0EFE404141EB010101EB445C5FEA9C
:1028A0005C5C10D901EB045110EBDE7038BFBEF157
:1028B000004FBDE8104018BF704700280CBF491CEE
:1028C00020F00100704734D24FEAD42C24F4006485
:1028D00011F500111BD0B1FA81F20B3AA41AA41E13
:1028E000D2F12003914030FA03F31943904001EBF9
:1028F000CC7101EB0451002CBDE81040A8BF70471B
:1029000001F1C04101F000414FF000007047B0FA02
:1029100080F310FA03F102D1BDE810407047E41AC9
:10292000173C4805C90AE2E701EB0451BDE8104035
:10293000704749104FEA300001EB0451BDE81040E8
:1029400002E04FF0000170474A0008BF0042F8D093
:10295000B2F5001F28BF704701F000414FF00000A2
:1029600070479EEA445F07D011EA5E0FBDE8104051
:1029700004BF002100207047BDE8104070B5FFF78C
:10298000BBFE00BF40DFF63E104683F000417047BB
:102990000000E0FF43004FEAD30C4FEA3C0C4340F9
:1029A0001FBF40070CF1605113F0FE4F70471CF041
:1029B000006F03D10CF00041002070470CF0004381
:1029C00043EA507040EACC0010B500F00EF800BFAA
:1029D000000000924FEA0001FFF7DCBE4FF000411B
:1029E000A1F500214FF0000070470EF1020E2EF00D
:1029F000030E5EF8044B244204D44FEA4102B2F1C4
:102A00007F4F11D84FEA4003B3F17F4F0CD80ED15E
:102A10004FEAD07C0CEB4C0C0CF1020CB2F17F4F66
:102A200008BF4CEBD17C04E04FF0080C01E04FEA0A
:102A3000D17C0CEB4C0324FA03F404F00704B4F14A
:102A4000040C06D20EEB840CBDE810404CF0010CD7
:102A50006047DFE80CF0070802024FF00040A0F5E5
:102A6000800010BD0846420018BFD2F1807288BFB6
:102A700000F0004010BDF1EE100A4FF6FF71C0F2F9
:102A8000C03120EA010040F04070E1EE100A7047CA
:102A9000FF2141EAD050C00570470000000000004F
:102AA0004C5555555555A53F7751C1166CC156BF6C
:102AB0009015CB19A001FA3EAD529C804F7E92BE7C
:102AC000C4B1B4BD9EEE213ED43888BEE9FAA8BD9B
:102AD00000004054FB21F93F3163621A61B4D03DDC
:102AE0000000601A61B4D03D7370032E8A19A33BB5
:102AF0000000002E8A19A33BC14920259A837B3907
:102B000000000000000000006E83F9A22915444E69
:102B1000D15727FCC0DD34F5999562DB4190433CE9
:102B2000AB6351FE61C5BBDE3A6E24B7E0D24D42C5
:102B3000EA2E49061C92D1091CEB1DFE3EA729B1C5
:102B4000F53582E88444BB2E26709CE9417E5FB453
:102B500039D69139F43953838B5F849C3B28F9BD76
:102B6000FF97F81F0F9805DE8B112FEF1F6D0A5A84
:102B7000CF7E366DB709CB27663F464F2DEA5F9E65
:102B8000C7BA27757BF1E5EBF739073DEA92528A20
:102B9000B15FFB6B085D8D1F4630035600000000DF
:102BA000A6F810111111813FD561C119A0012ABFEA
:102BB0007DFEB157E31DC73EEB9C2B8AE6E55ABE6E
:102BC0007CD5CF5A3AD9E53D000000000000000056
:102BD0000102030406070809F82B00080000002082
:102BE0001000000010020008082C0008100000204F
:102BF000A8060000300200080100000010000000DC
:082C00000024F40000000000B4
:04000005080001AD41
:00000001FF
