:020000040800F2
:10000000B8060020790200082114000869130008CE
:100010001D1400087104000871150008000000009C
:10002000000000000000000000000000291400088B
:100030007504000800000000251400082D140008B5
:10004000930200089302000893020008930200083C
:10005000930200089302000893020008930200082C
:10006000930200089302000893020008930200081C
:10007000930200089302000893020008930200080C
:1000800093020008930200089302000893020008FC
:1000900093020008930200089302000893020008EC
:1000A00093020008930200089302000893020008DC
:1000B00093020008930200089302000893020008CC
:1000C00093020008930200089302000893020008BC
:1000D00093020008651500089302000893020008C7
:1000E000930200089302000893020008930200089C
:1000F000930200089302000893020008930200088C
:10010000930200089302000893020008930200087B
:10011000930200089302000893020008930200086B
:10012000930200089302000893020008930200085B
:10013000930200089302000893020008930200084B
:10014000930200089302000893020008930200083B
:10015000930200089302000893020008930200082B
:10016000930200089302000893020008930200081B
:1001700093020008930200089302000800000000A8
:1001800093020008930200089302000893020008FB
:1001900093020008930200089302000893020008EB
:1001A00093020008930200089302000800F002F88E
:1001B00000F052F814A696E8000CB244B344DA45B5
:1001C00001D100F049F8BAE80F000FA696E8300018
:1001D000A5EB040504EB0607AAEB0704A7F101074A
:1001E0004FEA15154FEA3414A4F10104AC4201D3CF
:1001F00000F032F813F0010F18BFFB1A43F00103AF
:1002000000F001F8DBE718477C1400009C140000A4
:10021000103A24BF78C878C1FAD8520724BF30C832
:1002200030C144BF04680C60704700007047000094
:100230000023002400250026103A28BF78C1FBD8EF
:10024000520728BF30C148BF0B6070471FB501F08F
:1002500000FA1FBD10B510BD00F0D0F81146FFF731
:10026000F5FF01F087F900F0EEF803B4FFF7F2FFB5
:1002700003BC00F0F5F80000094880470948004732
:10028000FEE7FEE7FEE7FEE7FEE7FEE7FEE7FEE746
:10029000FEE7FEE704480549054A064B70470000A3
:1002A00031140008AD010008B8000020B806002095
:1002B000B8020020B802002053EA020C00F0698066
:1002C0002DE9F04B4FF00006002B1FBFB3FA83F56A
:1002D00003FA05F424FA05F65E4012BF1643B2FA9B
:1002E00082F502FA05F4C5F120051EBF22FA05FCCD
:1002F00044EA0C04203556EA044C4FEA144418BF73
:10030000641C4FF000084FF00009904271EB030CA1
:1003100039D3002919BFB1FA81F701FA07F6B0FA0B
:1003200080F700FA07F6C7F120071EBF20FA07FC86
:1003300046EA0C062037B6FBF4FCA7EB0507103F96
:1003400007F01F0BCBF120062CFA06F60CFA0BFB7C
:1003500044BFB3460026202FA4BF5E464FF0000BDB
:100360005BEA060C08BF4FF0010B19EB0B0948EBD9
:100370000608ABFB027C06FB02CC0BFB03CCC01BCC
:1003800071EB0C01C1E70B46024641464846BDE809
:10039000F08B13B5084318BF4FF0FF300146AFF3A1
:1003A0000080BDE81C4070474FF0000200B51346C6
:1003B00094469646203922BFA0E80C50A0E80C5085
:1003C000B1F12001BFF4F7AF090728BFA0E80C5036
:1003D00048BF0CC05DF804EB890028BF40F8042B2F
:1003E00008BF704748BF20F8022B11F0804F18BF9C
:1003F00000F8012B7047704770477047754600F052
:100400002BF8AE4605006946534620F007008546A6
:1004100018B020B5FFF73EFFBDE820404FF00006C2
:100420004FF000074FF000084FF0000BAC46ACE86F
:10043000C009ACE8C009ACE8C009ACE8C00921F0CB
:1004400007018D46704710B50446AFF30080204683
:10045000BDE81040FFF709BF0048704710000020BA
:1004600001491820ABBEFEE72600020070470000DD
:10047000FEE7000070470000EFF3108072B600BF87
:10048000FEE7000090F83510022909D1052180F817
:1004900035100068016821F00101016000207047FB
:1004A00080214165012070472DE9F04F82B000F1B5
:1004B0003E4202F1FF72870542F2004647EA922768
:1004C000C4F202060A2243F6004EB04208BF0922D7
:1004D000C4F2010E092F38BF3A464FF0010A002638
:1004E00000274FF00008009208E000BF023708F133
:1004F0000108202F06F1040600F0AA800A680AFA13
:1005000008F412EA0409F1D0D1F804C0BCF1120FCA
:1005100000F298800AFA0CF212F0061F00F09280A6
:100520000323826803FA07F5CB68AA43BB401A434A
:10053000826042684FEA1C13A24303FA08F34FEAB1
:10054000480A6FEA050B1A434260C2688B6802EAE8
:100550000B0203FA0AF31A434CF01003122BC26089
:1005600013D16FF0030202EA5802024406F01C05A0
:100570000F23D2F820C003FA05F40B692CEA040417
:10058000AB4023431362D1F804C002680CF00303AC
:1005900002EA0B0203FA0AF31A435FEACC034FF0B4
:1005A000010A0260A2D5002243F644030192C4F27C
:1005B00002031A684FF6084C42F480421A601A6827
:1005C000CFF6FF7C02F480420192019A28F00302E8
:1005D000724452F80C3006F00C050F24AC40A343D3
:1005E000009C04FA05F52B4342F80C30DEF800209D
:1005F0004B6842EA0905DC0358BF22EA0905CEF838
:100600000050DEF804209C0342EA090558BF22EAA4
:100610000905CEF80450DEF80820DC0242EA09059C
:1006200043F60C4458BF22EA0905CEF80850C4F23C
:10063000010422689B0242EA090558BF22EA090523
:10064000256053E70322BA406FEA020BBA467CE703
:1006500002B0BDE8F08F00000069084018BF01201B
:100660007047000042690A408A4208BF090481615C
:1006700070470000002A08BF09048161704700002C
:1006800040F2B400C2F200000068704740F200007F
:1006900040F2B401C2F20000C2F2000100780A6820
:1006A000104408607047000080B543F60040C4F273
:1006B0000200016841F400710160016841F4806149
:1006C0000160016841F480710160032000F086F848
:1006D0000F2000F005F800F027F8002080BD000092
:1006E00070B540F20006C2F2000640F2080132780E
:1006F000C2F200014FF47A730968B3FBF2F20446C8
:10070000B1FBF2F1084600F057FB0F2C4FF001054A
:1007100008D838B94FF0FF3021460022002500F0FC
:1007200031F87460284670BD82B0002043F6400165
:100730000190C4F202014A6842F480424A604A6869
:1007400002F480420192019A0090086840F08050C3
:100750000860086800F080500090009802B0704770
:10076000002848BF704700F01F01012202FA01F182
:100770001C2202EAD0004EF20012CEF2000281509A
:100780007047000010B54EF60C5CCEF2000CDCF8A1
:100790000030C3F3022E8EF00704042C28BF04247B
:1007A000BEF103034FF0FF3E0EFA04F438BF0023FE
:1007B000A14399400EFA03F39A43114300F00F024C
:1007C00000F160430901043A03F5644362440028E0
:1007D00048BF02F10C03197010BD00004EF60C5119
:1007E000CEF200010A684FF6FF031A4060F30A22B6
:1007F00042F0806040F0FD7008607047002804BF40
:10080000012070472DE9F04143F60808C4F20208C0
:100810000446D8F8F8030D4600F00F00884207D2CE
:1008200088F8F853D8F8F80300F00F00A84277D101
:100830002068810717D5410705D5D8F8001041F485
:10084000E051C8F80010010705D5D8F8001041F4B0
:100850006041C8F80010D8F80010A26821F0F0013B
:100860001143C8F80010C00740D1D8F8F80300F0D1
:100870000F00A84207D988F8F853D8F8F80300F019
:100880000F00A8424CD12068410707D5D8F80010C6
:10089000E26821F4E0511143C8F80010000708D5C0
:1008A000D8F80000216920F4604040EAC100C8F88F
:1008B000000000F07DF8D8F8001041F26C62C1F33E
:1008C0000311C0F60002515C40F2080220FA01F167
:1008D00040F20400C2F200000068C2F2000211609F
:1008E000FFF7FEFE0020BDE8F08100BF6068811EBA
:1008F000022907D258F8081C89015CBF0120BDE815
:10090000F08111E0012807D158F8081C89035CBF69
:100910000120BDE8F08107E058F8081C890703D4DE
:100920000120BDE8F08100BFD8F8001021F00301DC
:100930000843C8F80000FFF7A3FE064641F28837D7
:10094000D8F80000616800F00C00B0EB810F8CD08B
:10095000FFF796FE801BB842F2D90320BDE8F08174
:1009600040F2080043F60801C2F20000C4F202019E
:100970000068096841F27C62C1F38221C0F600027E
:10098000515CC8407047000040F2080043F608017F
:10099000C2F20000C4F202010068096841F27C6200
:1009A000C1F34231C0F60002515CC84070470000FC
:1009B00010B543F60404C4F20204606800F00C00B1
:1009C00008280BD0042819BF42F20040C0F2F400FE
:1009D00047F64000C0F27D1010BD00BF20682168BE
:1009E0002368490247F64001C0F27D1100F03F0242
:1009F000C3F388105CBF42F20041C0F2F401A1FBD6
:100A000000010023FFF758FC21680222C1F30141D5
:100A100002EB4101B0FBF1F010BD0000002804BF63
:100A2000012070472DE9F04182B00446007843F67A
:100A30000006C007C4F202060CD0B06800F00C003B
:100A4000042840F081803068800303D56068002866
:100A500000F06081207880071BD5B06810F00C0F83
:100A600009D0B06800F00C00082840F0878070685A
:100A7000400200F183803068800703D5E0680128D8
:100A800040F048813068216920F0F80040EAC10058
:100A900030602078000713D4207840072AD4A56955
:100AA000002D00F03281B06800F00C00082840F002
:100AB000A180012D40F00E81012002B0BDE8F0813F
:100AC0006069002840F20000C4F2472000F07E80F8
:100AD0000121C0F8801EFFF7D3FD0546706F800727
:100AE000DAD4FFF7CDFD401B0228F7D9032002B06E
:100AF000BDE8F081306C5FEAC0080AD400200190A4
:100B0000306C40F080503064306C00F080500190C8
:100B1000019847F20007C4F200073868C00547D4BF
:100B2000386840F480703860FFF7AAFD054600BFC2
:100B30003868C0053CD4FFF7A3FD401B0228F7D955
:100B4000032002B0BDE8F081B06800F00C00082876
:100B500003D1706840023FF576AF6068B0F5803F22
:100B600007D0B0F5A02F40F09980306840F4802085
:100B70003060306840F48030306099E0E0680028F0
:100B80005CD00020C4F2472001210160FFF778FD0E
:100B9000054600BF306880073FF574AFFFF770FD72
:100BA000401B0228F6D9032002B0BDE8F08100BF47
:100BB000A068012805D0052854D1306F40F004000A
:100BC0003067306F40F00100306755E00021C0F819
:100BD000801EFFF755FD0546706F80077FF55CAFFF
:100BE000FFF74EFD401B0228F6D9032002B0BDE8F6
:100BF000F08100BF0027C4F2472700203866FFF7C6
:100C00003FFD022D05460DD13068800140F1868000
:100C1000FFF736FD401B02284FF00300F4D902B065
:100C2000BDE8F081306880016FD5FFF729FD401BDA
:100C300002284FF00300F5D9F1E700BF0020C4F20D
:100C4000472000210160FFF71BFD05463068800743
:100C50007FF51FAFFFF714FD401B02284FF0030084
:100C6000F4D9DCE7316F002821F001013167316FE1
:100C700021F00401316773D0FFF702FD054641F210
:100C8000883700BF306F80077CD4FFF7F9FC401B2A
:100C9000B842F7D9032002B0BDE8F08131680028DE
:100CA00021F480313160316821F48021316073D0CA
:100CB000FFF7E6FC054600BF306880033FF5CAAE8B
:100CC000FFF7DEFC401B6428F6D9032002B0BDE824
:100CD000F08100BF7068E16900F480028A4219D196
:100CE000216A00F03F028A4214D147F6C071626A5D
:100CF000014091420ED1A16A00F440328A4209D1EA
:100D0000E16A00F07060884204D1002002B0BDE8C2
:100D1000F08100BF012002B0BDE8F08104F11C05A4
:100D20002FCD084340EA8210D9034FF6FF7291435A
:100D3000A1F5803140EA0560084370600120386603
:100D4000FFF79EFC044600BF30688001DDD4FFF74A
:100D500097FC001B02284FF00300F5D95FE700BFA6
:100D6000FFF78EFC054641F2883700BF306F8007E1
:100D700008D5FFF785FC401BB8424FF00300F5D9BA
:100D80004DE700BFB8F1000F3FF589AE306C20F0A1
:100D90008050306483E600BFFFF772FC054600BF59
:100DA000306880037FF556AEFFF76AFC401B64286D
:100DB0004FF00300F4D932E7411E0020B0EB116F71
:100DC0001CBF012070474EF21002CEF200025160AB
:100DD0004EF62351CEF20001F0230B7007219060F4
:100DE0001160704770470000B0B5054600680168A3
:100DF000C368446901F02F02202A03F0200213D1B6
:100E000092B195F83A10222940F01881A968B1F5FD
:100E1000805F41D12A69A96A4068002A64D0C0B2C3
:100E200021F8010B64E000BF5FEA017C1EBF04F003
:100E3000010E03F4907414EB0E0439D10A0617D591
:100E400013F0800214D095F83910212940F0F68073
:100E5000AA68296AB2F5805F32D10A886FF35F22EF
:100E600042602A69002A14BF0131023129622BE055
:100E7000490640F1E38013F0400108BFB0BDC168EE
:100E800021F04001C1602021284685F83910BDE8D5
:100E9000B04000F067BA00BF296940680029A96A1C
:100EA00018BF00F07F004A1CAA62087021E000BF52
:100EB000CC0718BF13F4807336D14B073AD440E007
:100EC0004A1C2A6209784160E98C01390A04E984E4
:100ED00040F0B480C16821F08001C160C16841F078
:100EE0004001C160B0BD00BF6FF35F2021F8020B6D
:100EF000A962E88D01380104E88540F09F802868E8
:100F0000C16821F02001C160C16821F48071C16015
:100F1000416921F0010141612021284685F83A10FC
:100F2000BDE8B04000F030B9EB6B43F00103EB6378
:100F30004B0706D5BEF1000F03D0EB6B43F0020365
:100F4000EB638B0706D5BEF1000F03D0EB6B43F0CC
:100F50000403EB63BCF1000F06D55EEA020303D085
:100F6000EB6B43F00803EB63EB6B002B66D0890659
:100F70003AD5CAB395F83A10222935D1A968B1F506
:100F8000805F07D12A69A96A40687AB1C0B221F8A6
:100F9000010B0FE0296940680029A96A18BF00F019
:100FA0007F004A1CAA62087005E000BF6FF35F2053
:100FB00021F8020BA962E88D411EE9852868090421
:100FC00012D1C16821F02001C160C16821F4807193
:100FD000C160416921F001014161202085F83A009A
:100FE000284600F0D1F828684169EA6B01F0400119
:100FF00002F00802891823D0C16821F49071C16001
:10100000416921F001014161202185F83A104169CF
:1010100049061BD5416921F040014161686BA8B1C7
:1010200041F24D41C0F600010165FFF72BFA28B1EE
:10103000686B016DBDE8B040084700BFB0BD00BFA0
:101040002846FFF7CFFE0020E863B0BD2846BDE884
:10105000B040FFF7C7BE0000002804BF0120704762
:1010600010B5044690F8390028B9002084F83800FB
:10107000204600F021F8242084F839002068C16857
:1010800021F40051C160204600F0E6F920680169B2
:1010900021F490410161416921F02A014161C16857
:1010A00041F40051C16000202021E06384F8391030
:1010B00084F83A1010BD0000016841F20000C4F24B
:1010C0000100814218BF704780B586B0002143F609
:1010D00030020191C4F20202536900F5704043F0FE
:1010E00010035361536903F010030193019B0191B5
:1010F000136843F001031360126802F001020192C9
:10110000019A4FF4C06201920222CDE9022103212B
:1011100004910721059101A9FFF7C6F925200021B7
:101120000022FFF72FFB2520FFF71AFB06B0BDE8D2
:1011300080407047034690F83A0020280AD10029E1
:101140004FF0010018BF002A00D1704793F8380013
:10115000012801D1022070479962002022219A853E
:10116000DA85D86383F83A10196883F83800CA68BA
:1011700042F48072CA604A6942F001024A61CA6858
:1011800042F02002CA607047016841F20000C4F2D8
:101190000100814218BF7047B0B500F578400421C6
:1011A000FFF760FA40F2700440F2B005C2F20004AA
:1011B000C2F200052046294601224FF0FF3300F01D
:1011C00007F8204629460122BDE8B040FFF7B2BF2C
:1011D0002DE9F041044690F8390020280ED10E4642
:1011E00000294FF0010000F0A6801746002A08BF32
:1011F000BDE8F08194F83800012803D10220BDE851
:10120000F08100BF012084F838004FF00008212051
:101210001D46C4F83C8084F83900FFF731FAA784F2
:10122000E78484F83880E18C0746002960D005F116
:10123000010805E016F8011B4160E18C002958D037
:10124000E08C0138E0842068A1680268B1F5805F15
:101250004FEA02611ED100290ED4B8F1000F2BD045
:10126000002D6BD0FFF70CFAC11B2068A94265D88E
:1012700001680906F6D500BF31886FF35F21416030
:101280002169002914BF01360236E18C0029D7D12B
:101290002FE000BF0029CDD4B8F1000F1AD0002DE7
:1012A0004CD000BFFFF7ECF9C11B2068A94245D81C
:1012B00001680906F6D5BDE701680906DCD40168B6
:1012C00009065CBF01685FEA0161D5D401680906BF
:1012D000F2D5D1E701680906ACD4016809065CBF04
:1012E00001685FEA0161A5D401680906F2D5A1E7AA
:1012F0002068016849061AD405B3691C0ED101683B
:10130000490614D4016849065CBF01685FEA41617F
:101310000DD401684906F2D509E000BFFFF7B0F926
:10132000C11B2068A94209D800684006F6D52020D4
:1013300084F839000020BDE8F08100BFC16821F4C5
:10134000D071C160416921F001014161202084F820
:10135000390084F83A00002084F838000320BDE802
:10136000F081000070470000FEE70000F0B587B094
:10137000002643F6300006960196C4F2020001688A
:1013800040F6000441F0040101600168C4F2020467
:1013900001F004010191019901960168002241F0D8
:1013A000010101600068062100F001000190019830
:1013B00020460625FFF75EF9029502AD012720467B
:1013C0002946CDE903760596FFF76EF8A4F500608F
:1013D0002946CDE902760496FFF766F807B0F0BD1E
:1013E00080B540F2700041F20001C2F20000C4F288
:1013F000010100234FF00C0C4FF4E13280E80E00A5
:10140000C0E90333C0E905C3C361FFF725FE002827
:1014100008BF80BDBDE88040FFF72EB8FEE70000A2
:10142000FEE700007047000070470000FFF72EB98C
:101430004EF68850CEF20000016841F47001016060
:101440004FF0006140F8801C70470000806B002165
:10145000C185C184FFF7C6BCB0B50446006804F17D
:1014600008030ECB0569194325F440552A43026150
:10147000626949F20C651143E269C368B2F5004F35
:1014800023EA050341EA030141EA0201C16041691F
:10149000A36921F4407141EA0301416141F2004135
:1014A00040F48060C4F2010108D14FF69C75884277
:1014B000C0F6FF750CD1FFF767FA0BE04FF69C758D
:1014C0008842C0F6FF7529D1FFF75EFA28E000BF19
:1014D000FFF746FA63681921A0FB01015A00DB0FF0
:1014E000FEF7EAFE48F21F51C5F2EB11A0FB012303
:1014F0005A0905F1805302FB0300322303EBC000BD
:10150000A0FB01014FF4F87000EA111000EB02108B
:10151000C1F34211084421688860B0BDFFF720FA8A
:1015200063681921A0FB01019A009B0FFEF7C4FE1E
:1015300048F21F51C5F2EB11A0FB01235A0902FB2F
:101540000500322303EB0010A0FB0101F02000EAAC
:10155000511000EB0210C1F3431108442168886068
:10156000B0BD000040F27000C2F20000FFF73CBCCA
:10157000FEE7000092B047F20005C4F20005FFF755
:1015800093F806AC201D2C21FEF70EFF002643F633
:1015900040000596CDE90366CDE901660096C4F2E8
:1015A0000200016841F0805101600068012100F0F3
:1015B0008050009000980096286861F38F30286072
:1015C000286800F440400090009802200690102007
:1015D0000A90204609910C96FFF720FA20B1EFF30C
:1015E000108072B6FEE700BF0F20CDE9010601A80A
:1015F0000021CDE903660596FFF700F920B1EFF36E
:10160000108072B6FEE700BFFFF7B0FEFFF7E8FEFE
:1016100040F2700040F2B001C2F20000C2F20001DC
:101620000122FFF787FD05F5C83405F5CC3500BF6D
:1016300020460121FFF710F80028F9D128460221A1
:10164000FFF710F820460121FFF706F80028F9D02F
:10165000EEE7F1EE100A4FF6FF71C0F2C03120EA5A
:10166000010040F04070E1EE100A704700000000F9
:101670000000000001020304060708090000000042
:1016800001020304A816000800000020100000005A
:1016900010020008B816000810000020A80600007C
:1016A00030020008000000000100000010000000EF
:0816B0000024F400000000001A
:04000005080001AD41
:00000001FF
